{
  "abi": [
    {
      "inputs": [],
      "stateMutability": "nonpayable",
      "type": "constructor"
    },
    {
      "inputs": [
        {
          "internalType": "address",
          "name": "module",
          "type": "address"
        }
      ],
      "name": "AlreadyDisabledModule",
      "type": "error"
    },
    {
      "inputs": [
        {
          "internalType": "address",
          "name": "module",
          "type": "address"
        }
      ],
      "name": "AlreadyEnabledModule",
      "type": "error"
    },
    {
      "inputs": [],
      "name": "ArraysDifferentLength",
      "type": "error"
    },
    {
      "inputs": [
        {
          "internalType": "address",
          "name": "module",
          "type": "address"
        }
      ],
      "name": "InvalidModule",
      "type": "error"
    },
    {
      "inputs": [],
      "name": "ModuleTransactionFailed",
      "type": "error"
    },
    {
      "inputs": [
        {
          "internalType": "address",
          "name": "sender",
          "type": "address"
        }
      ],
      "name": "NotAuthorized",
      "type": "error"
    },
    {
      "inputs": [
        {
          "internalType": "address",
          "name": "guard_",
          "type": "address"
        }
      ],
      "name": "NotIERC165Compliant",
      "type": "error"
    },
    {
      "anonymous": false,
      "inputs": [
        {
          "indexed": false,
          "internalType": "address",
          "name": "module",
          "type": "address"
        },
        {
          "indexed": false,
          "internalType": "uint16[]",
          "name": "roles",
          "type": "uint16[]"
        },
        {
          "indexed": false,
          "internalType": "bool[]",
          "name": "memberOf",
          "type": "bool[]"
        }
      ],
      "name": "AssignRoles",
      "type": "event"
    },
    {
      "anonymous": false,
      "inputs": [
        {
          "indexed": true,
          "internalType": "address",
          "name": "previousAvatar",
          "type": "address"
        },
        {
          "indexed": true,
          "internalType": "address",
          "name": "newAvatar",
          "type": "address"
        }
      ],
      "name": "AvatarSet",
      "type": "event"
    },
    {
      "anonymous": false,
      "inputs": [
        {
          "indexed": false,
          "internalType": "address",
          "name": "guard",
          "type": "address"
        }
      ],
      "name": "ChangedGuard",
      "type": "event"
    },
    {
      "anonymous": false,
      "inputs": [
        {
          "indexed": false,
          "internalType": "address",
          "name": "module",
          "type": "address"
        }
      ],
      "name": "DisabledModule",
      "type": "event"
    },
    {
      "anonymous": false,
      "inputs": [
        {
          "indexed": false,
          "internalType": "address",
          "name": "module",
          "type": "address"
        }
      ],
      "name": "EnabledModule",
      "type": "event"
    },
    {
      "anonymous": false,
      "inputs": [
        {
          "indexed": true,
          "internalType": "address",
          "name": "module",
          "type": "address"
        }
      ],
      "name": "ExecutionFromModuleFailure",
      "type": "event"
    },
    {
      "anonymous": false,
      "inputs": [
        {
          "indexed": true,
          "internalType": "address",
          "name": "module",
          "type": "address"
        }
      ],
      "name": "ExecutionFromModuleSuccess",
      "type": "event"
    },
    {
      "anonymous": false,
      "inputs": [
        {
          "indexed": false,
          "internalType": "uint8",
          "name": "version",
          "type": "uint8"
        }
      ],
      "name": "Initialized",
      "type": "event"
    },
    {
      "anonymous": false,
      "inputs": [
        {
          "indexed": true,
          "internalType": "address",
          "name": "previousOwner",
          "type": "address"
        },
        {
          "indexed": true,
          "internalType": "address",
          "name": "newOwner",
          "type": "address"
        }
      ],
      "name": "OwnershipTransferred",
      "type": "event"
    },
    {
      "anonymous": false,
      "inputs": [
        {
          "indexed": true,
          "internalType": "address",
          "name": "initiator",
          "type": "address"
        },
        {
          "indexed": true,
          "internalType": "address",
          "name": "owner",
          "type": "address"
        },
        {
          "indexed": true,
          "internalType": "address",
          "name": "avatar",
          "type": "address"
        },
        {
          "indexed": false,
          "internalType": "address",
          "name": "target",
          "type": "address"
        }
      ],
      "name": "RolesModSetup",
      "type": "event"
    },
    {
      "anonymous": false,
      "inputs": [
        {
          "indexed": false,
          "internalType": "address",
          "name": "module",
          "type": "address"
        },
        {
          "indexed": false,
          "internalType": "uint16",
          "name": "defaultRole",
          "type": "uint16"
        }
      ],
      "name": "SetDefaultRole",
      "type": "event"
    },
    {
      "anonymous": false,
      "inputs": [
        {
          "indexed": false,
          "internalType": "address",
          "name": "multisendAddress",
          "type": "address"
        }
      ],
      "name": "SetMultisendAddress",
      "type": "event"
    },
    {
      "anonymous": false,
      "inputs": [
        {
          "indexed": true,
          "internalType": "address",
          "name": "previousTarget",
          "type": "address"
        },
        {
          "indexed": true,
          "internalType": "address",
          "name": "newTarget",
          "type": "address"
        }
      ],
      "name": "TargetSet",
      "type": "event"
    },
    {
      "inputs": [
        {
          "internalType": "uint16",
          "name": "role",
          "type": "uint16"
        },
        {
          "internalType": "address",
          "name": "targetAddress",
          "type": "address"
        },
        {
          "internalType": "enum ExecutionOptions",
          "name": "options",
          "type": "uint8"
        }
      ],
      "name": "allowTarget",
      "outputs": [],
      "stateMutability": "nonpayable",
      "type": "function"
    },
    {
      "inputs": [
        {
          "internalType": "address",
          "name": "module",
          "type": "address"
        },
        {
          "internalType": "uint16[]",
          "name": "_roles",
          "type": "uint16[]"
        },
        {
          "internalType": "bool[]",
          "name": "memberOf",
          "type": "bool[]"
        }
      ],
      "name": "assignRoles",
      "outputs": [],
      "stateMutability": "nonpayable",
      "type": "function"
    },
    {
      "inputs": [],
      "name": "avatar",
      "outputs": [
        {
          "internalType": "address",
          "name": "",
          "type": "address"
        }
      ],
      "stateMutability": "view",
      "type": "function"
    },
    {
      "inputs": [
        {
          "internalType": "address",
          "name": "",
          "type": "address"
        }
      ],
      "name": "defaultRoles",
      "outputs": [
        {
          "internalType": "uint16",
          "name": "",
          "type": "uint16"
        }
      ],
      "stateMutability": "view",
      "type": "function"
    },
    {
      "inputs": [
        {
          "internalType": "address",
          "name": "prevModule",
          "type": "address"
        },
        {
          "internalType": "address",
          "name": "module",
          "type": "address"
        }
      ],
      "name": "disableModule",
      "outputs": [],
      "stateMutability": "nonpayable",
      "type": "function"
    },
    {
      "inputs": [
        {
          "internalType": "address",
          "name": "module",
          "type": "address"
        }
      ],
      "name": "enableModule",
      "outputs": [],
      "stateMutability": "nonpayable",
      "type": "function"
    },
    {
      "inputs": [
        {
          "internalType": "address",
          "name": "to",
          "type": "address"
        },
        {
          "internalType": "uint256",
          "name": "value",
          "type": "uint256"
        },
        {
          "internalType": "bytes",
          "name": "data",
          "type": "bytes"
        },
        {
          "internalType": "enum Enum.Operation",
          "name": "operation",
          "type": "uint8"
        }
      ],
      "name": "execTransactionFromModule",
      "outputs": [
        {
          "internalType": "bool",
          "name": "success",
          "type": "bool"
        }
      ],
      "stateMutability": "nonpayable",
      "type": "function"
    },
    {
      "inputs": [
        {
          "internalType": "address",
          "name": "to",
          "type": "address"
        },
        {
          "internalType": "uint256",
          "name": "value",
          "type": "uint256"
        },
        {
          "internalType": "bytes",
          "name": "data",
          "type": "bytes"
        },
        {
          "internalType": "enum Enum.Operation",
          "name": "operation",
          "type": "uint8"
        }
      ],
      "name": "execTransactionFromModuleReturnData",
      "outputs": [
        {
          "internalType": "bool",
          "name": "",
          "type": "bool"
        },
        {
          "internalType": "bytes",
          "name": "",
          "type": "bytes"
        }
      ],
      "stateMutability": "nonpayable",
      "type": "function"
    },
    {
      "inputs": [
        {
          "internalType": "address",
          "name": "to",
          "type": "address"
        },
        {
          "internalType": "uint256",
          "name": "value",
          "type": "uint256"
        },
        {
          "internalType": "bytes",
          "name": "data",
          "type": "bytes"
        },
        {
          "internalType": "enum Enum.Operation",
          "name": "operation",
          "type": "uint8"
        },
        {
          "internalType": "uint16",
          "name": "role",
          "type": "uint16"
        },
        {
          "internalType": "bool",
          "name": "shouldRevert",
          "type": "bool"
        }
      ],
      "name": "execTransactionWithRole",
      "outputs": [
        {
          "internalType": "bool",
          "name": "success",
          "type": "bool"
        }
      ],
      "stateMutability": "nonpayable",
      "type": "function"
    },
    {
      "inputs": [
        {
          "internalType": "address",
          "name": "to",
          "type": "address"
        },
        {
          "internalType": "uint256",
          "name": "value",
          "type": "uint256"
        },
        {
          "internalType": "bytes",
          "name": "data",
          "type": "bytes"
        },
        {
          "internalType": "enum Enum.Operation",
          "name": "operation",
          "type": "uint8"
        },
        {
          "internalType": "uint16",
          "name": "role",
          "type": "uint16"
        },
        {
          "internalType": "bool",
          "name": "shouldRevert",
          "type": "bool"
        }
      ],
      "name": "execTransactionWithRoleReturnData",
      "outputs": [
        {
          "internalType": "bool",
          "name": "success",
          "type": "bool"
        },
        {
          "internalType": "bytes",
          "name": "returnData",
          "type": "bytes"
        }
      ],
      "stateMutability": "nonpayable",
      "type": "function"
    },
    {
      "inputs": [],
      "name": "getGuard",
      "outputs": [
        {
          "internalType": "address",
          "name": "_guard",
          "type": "address"
        }
      ],
      "stateMutability": "view",
      "type": "function"
    },
    {
      "inputs": [
        {
          "internalType": "address",
          "name": "start",
          "type": "address"
        },
        {
          "internalType": "uint256",
          "name": "pageSize",
          "type": "uint256"
        }
      ],
      "name": "getModulesPaginated",
      "outputs": [
        {
          "internalType": "address[]",
          "name": "array",
          "type": "address[]"
        },
        {
          "internalType": "address",
          "name": "next",
          "type": "address"
        }
      ],
      "stateMutability": "view",
      "type": "function"
    },
    {
      "inputs": [],
      "name": "guard",
      "outputs": [
        {
          "internalType": "address",
          "name": "",
          "type": "address"
        }
      ],
      "stateMutability": "view",
      "type": "function"
    },
    {
      "inputs": [
        {
          "internalType": "address",
          "name": "_owner",
          "type": "address"
        },
        {
          "internalType": "address",
          "name": "_avatar",
          "type": "address"
        },
        {
          "internalType": "address",
          "name": "_target",
          "type": "address"
        }
      ],
      "name": "initialize",
      "outputs": [],
      "stateMutability": "nonpayable",
      "type": "function"
    },
    {
      "inputs": [
        {
          "internalType": "address",
          "name": "_module",
          "type": "address"
        }
      ],
      "name": "isModuleEnabled",
      "outputs": [
        {
          "internalType": "bool",
          "name": "",
          "type": "bool"
        }
      ],
      "stateMutability": "view",
      "type": "function"
    },
    {
      "inputs": [],
      "name": "multisend",
      "outputs": [
        {
          "internalType": "address",
          "name": "",
          "type": "address"
        }
      ],
      "stateMutability": "view",
      "type": "function"
    },
    {
      "inputs": [],
      "name": "owner",
      "outputs": [
        {
          "internalType": "address",
          "name": "",
          "type": "address"
        }
      ],
      "stateMutability": "view",
      "type": "function"
    },
    {
      "inputs": [],
      "name": "renounceOwnership",
      "outputs": [],
      "stateMutability": "nonpayable",
      "type": "function"
    },
    {
      "inputs": [
        {
          "internalType": "uint16",
          "name": "role",
          "type": "uint16"
        },
        {
          "internalType": "address",
          "name": "targetAddress",
          "type": "address"
        }
      ],
      "name": "revokeTarget",
      "outputs": [],
      "stateMutability": "nonpayable",
      "type": "function"
    },
    {
      "inputs": [
        {
          "internalType": "uint16",
          "name": "role",
          "type": "uint16"
        },
        {
          "internalType": "address",
          "name": "targetAddress",
          "type": "address"
        },
        {
          "internalType": "bytes4",
          "name": "functionSig",
          "type": "bytes4"
        },
        {
          "internalType": "enum ExecutionOptions",
          "name": "options",
          "type": "uint8"
        }
      ],
      "name": "scopeAllowFunction",
      "outputs": [],
      "stateMutability": "nonpayable",
      "type": "function"
    },
    {
      "inputs": [
        {
          "internalType": "uint16",
          "name": "role",
          "type": "uint16"
        },
        {
          "internalType": "address",
          "name": "targetAddress",
          "type": "address"
        },
        {
          "internalType": "bytes4",
          "name": "functionSig",
          "type": "bytes4"
        },
        {
          "internalType": "bool[]",
          "name": "isParamScoped",
          "type": "bool[]"
        },
        {
          "internalType": "enum ParameterType[]",
          "name": "paramType",
          "type": "uint8[]"
        },
        {
          "internalType": "enum Comparison[]",
          "name": "paramComp",
          "type": "uint8[]"
        },
        {
          "internalType": "bytes[]",
          "name": "compValue",
          "type": "bytes[]"
        },
        {
          "internalType": "enum ExecutionOptions",
          "name": "options",
          "type": "uint8"
        }
      ],
      "name": "scopeFunction",
      "outputs": [],
      "stateMutability": "nonpayable",
      "type": "function"
    },
    {
      "inputs": [
        {
          "internalType": "uint16",
          "name": "role",
          "type": "uint16"
        },
        {
          "internalType": "address",
          "name": "targetAddress",
          "type": "address"
        },
        {
          "internalType": "bytes4",
          "name": "functionSig",
          "type": "bytes4"
        },
        {
          "internalType": "enum ExecutionOptions",
          "name": "options",
          "type": "uint8"
        }
      ],
      "name": "scopeFunctionExecutionOptions",
      "outputs": [],
      "stateMutability": "nonpayable",
      "type": "function"
    },
    {
      "inputs": [
        {
          "internalType": "uint16",
          "name": "role",
          "type": "uint16"
        },
        {
          "internalType": "address",
          "name": "targetAddress",
          "type": "address"
        },
        {
          "internalType": "bytes4",
          "name": "functionSig",
          "type": "bytes4"
        },
        {
          "internalType": "uint256",
          "name": "paramIndex",
          "type": "uint256"
        },
        {
          "internalType": "enum ParameterType",
          "name": "paramType",
          "type": "uint8"
        },
        {
          "internalType": "enum Comparison",
          "name": "paramComp",
          "type": "uint8"
        },
        {
          "internalType": "bytes",
          "name": "compValue",
          "type": "bytes"
        }
      ],
      "name": "scopeParameter",
      "outputs": [],
      "stateMutability": "nonpayable",
      "type": "function"
    },
    {
      "inputs": [
        {
          "internalType": "uint16",
          "name": "role",
          "type": "uint16"
        },
        {
          "internalType": "address",
          "name": "targetAddress",
          "type": "address"
        },
        {
          "internalType": "bytes4",
          "name": "functionSig",
          "type": "bytes4"
        },
        {
          "internalType": "uint256",
          "name": "paramIndex",
          "type": "uint256"
        },
        {
          "internalType": "enum ParameterType",
          "name": "paramType",
          "type": "uint8"
        },
        {
          "internalType": "bytes[]",
          "name": "compValues",
          "type": "bytes[]"
        }
      ],
      "name": "scopeParameterAsOneOf",
      "outputs": [],
      "stateMutability": "nonpayable",
      "type": "function"
    },
    {
      "inputs": [
        {
          "internalType": "uint16",
          "name": "role",
          "type": "uint16"
        },
        {
          "internalType": "address",
          "name": "targetAddress",
          "type": "address"
        },
        {
          "internalType": "bytes4",
          "name": "functionSig",
          "type": "bytes4"
        }
      ],
      "name": "scopeRevokeFunction",
      "outputs": [],
      "stateMutability": "nonpayable",
      "type": "function"
    },
    {
      "inputs": [
        {
          "internalType": "uint16",
          "name": "role",
          "type": "uint16"
        },
        {
          "internalType": "address",
          "name": "targetAddress",
          "type": "address"
        }
      ],
      "name": "scopeTarget",
      "outputs": [],
      "stateMutability": "nonpayable",
      "type": "function"
    },
    {
      "inputs": [
        {
          "internalType": "address",
          "name": "_avatar",
          "type": "address"
        }
      ],
      "name": "setAvatar",
      "outputs": [],
      "stateMutability": "nonpayable",
      "type": "function"
    },
    {
      "inputs": [
        {
          "internalType": "address",
          "name": "module",
          "type": "address"
        },
        {
          "internalType": "uint16",
          "name": "role",
          "type": "uint16"
        }
      ],
      "name": "setDefaultRole",
      "outputs": [],
      "stateMutability": "nonpayable",
      "type": "function"
    },
    {
      "inputs": [
        {
          "internalType": "address",
          "name": "_guard",
          "type": "address"
        }
      ],
      "name": "setGuard",
      "outputs": [],
      "stateMutability": "nonpayable",
      "type": "function"
    },
    {
      "inputs": [
        {
          "internalType": "address",
          "name": "_multisend",
          "type": "address"
        }
      ],
      "name": "setMultisend",
      "outputs": [],
      "stateMutability": "nonpayable",
      "type": "function"
    },
    {
      "inputs": [
        {
          "internalType": "address",
          "name": "_target",
          "type": "address"
        }
      ],
      "name": "setTarget",
      "outputs": [],
      "stateMutability": "nonpayable",
      "type": "function"
    },
    {
      "inputs": [
        {
          "internalType": "bytes",
          "name": "initParams",
          "type": "bytes"
        }
      ],
      "name": "setUp",
      "outputs": [],
      "stateMutability": "nonpayable",
      "type": "function"
    },
    {
      "inputs": [],
      "name": "target",
      "outputs": [
        {
          "internalType": "address",
          "name": "",
          "type": "address"
        }
      ],
      "stateMutability": "view",
      "type": "function"
    },
    {
      "inputs": [
        {
          "internalType": "address",
          "name": "newOwner",
          "type": "address"
        }
      ],
      "name": "transferOwnership",
      "outputs": [],
      "stateMutability": "nonpayable",
      "type": "function"
    },
    {
      "inputs": [
        {
          "internalType": "uint16",
          "name": "role",
          "type": "uint16"
        },
        {
          "internalType": "address",
          "name": "targetAddress",
          "type": "address"
        },
        {
          "internalType": "bytes4",
          "name": "functionSig",
          "type": "bytes4"
        },
        {
          "internalType": "uint8",
          "name": "paramIndex",
          "type": "uint8"
        }
      ],
      "name": "unscopeParameter",
      "outputs": [],
      "stateMutability": "nonpayable",
      "type": "function"
    }
  ],
  "bytecode": {
    "object": "0x608060405234801561001057600080fd5b50612dcc806100206000396000f3fe608060405234801561001057600080fd5b50600436106102115760003560e01c8063610b592511610125578063a6edf38f116100ad578063cc2f84521161007c578063cc2f8452146104a2578063d4b83992146104c3578063e009cfde146104d6578063e19a9dd9146104e9578063f2fde38b146104fc57600080fd5b8063a6edf38f14610458578063b0c199121461046b578063c0c53b8b1461047e578063c91063891461049157600080fd5b80637ceab3b1116100f45780637ceab3b1146103fb5780638b95eccd1461040e5780638da5cb5b146104215780639393377214610432578063a4f9edbf1461044557600080fd5b8063610b5925146103ba5780636928e74b146103cd578063715018a6146103e0578063776d1a01146103e857600080fd5b80632e506a48116101a8578063468721a711610177578063468721a71461034d57806351fa1d73146103605780635229073f146103735780635aef7de6146103945780635e826695146103a757600080fd5b80632e506a48146103015780632fcf52d11461031457806333a0480c146103275780633c1952b81461033a57600080fd5b80632933ef1c116101e45780632933ef1c14610264578063294402cc146102775780632d3c2547146102a75780632d9ad53d146102de57600080fd5b8063086cfca8146102165780630de729c71461022b578063102b7fe61461023e57806315b77d3f14610251575b600080fd5b610229610224366004611ce7565b61050f565b005b610229610239366004611d35565b610569565b61022961024c366004611d7e565b6105f6565b61022961025f366004611dcb565b610665565b610229610272366004611e23565b6106f5565b60695461028a906001600160a01b031681565b6040516001600160a01b0390911681526020015b60405180910390f35b6102cb6102b5366004611ce7565b606a6020526000908152604090205461ffff1681565b60405161ffff909116815260200161029e565b6102f16102ec366004611ce7565b610771565b604051901515815260200161029e565b61022961030f366004611e68565b6107ac565b610229610322366004611dcb565b610831565b610229610335366004612067565b61088b565b6102296103483660046121bc565b610930565b6102f161035b36600461226e565b6109cc565b61022961036e3660046122de565b610af7565b61038661038136600461226e565b610b93565b60405161029e929190612365565b60665461028a906001600160a01b031681565b6102296103b53660046122de565b610cbe565b6102296103c8366004611ce7565b610d2a565b6102f16103db36600461238e565b610e54565b610229610f97565b6102296103f6366004611ce7565b610fab565b60655461028a906001600160a01b031681565b61022961041c366004611ce7565b611005565b6033546001600160a01b031661028a565b610229610440366004612423565b61105b565b6102296104533660046124b4565b6110f4565b6102296104663660046124e8565b611199565b61038661047936600461238e565b6112d2565b61022961048c36600461256a565b61141c565b6065546001600160a01b031661028a565b6104b56104b03660046125aa565b6114cb565b60405161029e9291906125d6565b60675461028a906001600160a01b031681565b6102296104e4366004612633565b6115c4565b6102296104f7366004611ce7565b6116d1565b61022961050a366004611ce7565b6117cd565b610517611846565b606680546001600160a01b038381166001600160a01b0319831681179093556040519116919082907f52ae88b092de36f87fb43fe794eb1381023b9c1bce563a871154022c63dce34290600090a35050565b610571611846565b61ffff83166000908152606b6020526040908190209051630a2f6f6d60e41b815273__$5153cb8becad9661cecdfd8bb0abac3da0$__9163a2f6f6d0916105c19190879087908790600401612684565b60006040518083038186803b1580156105d957600080fd5b505af41580156105ed573d6000803e3d6000fd5b50505050505050565b6105fe611846565b6001600160a01b0382166000818152606a6020908152604091829020805461ffff191661ffff86169081179091558251938452908301527f197e61bb67ba4b0f657afcb5d2dbed385d50b697c51090f466cdbcc4c30a21ce91015b60405180910390a15050565b61066d611846565b61ffff84166000908152606b602052604090819020905163163592dd60e01b815273__$5153cb8becad9661cecdfd8bb0abac3da0$__9163163592dd916106bf919088908890889088906004016126bc565b60006040518083038186803b1580156106d757600080fd5b505af41580156106eb573d6000803e3d6000fd5b5050505050505050565b6106fd611846565b61ffff83166000818152606b6020526040908190209051631df3fe0160e21b8152600481019190915260248101919091526001600160a01b03831660448201526001600160e01b03198216606482015273__$5153cb8becad9661cecdfd8bb0abac3da0$__906377cff804906084016105c1565b600060016001600160a01b038316148015906107a657506001600160a01b038281166000908152606860205260409020541615155b92915050565b6107b4611846565b61ffff84166000818152606b6020526040908190209051631e2d127160e11b8152600481019190915260248101919091526001600160a01b03841660448201526001600160e01b03198316606482015260ff8216608482015273__$5153cb8becad9661cecdfd8bb0abac3da0$__90633c5a24e29060a4016106bf565b610839611846565b61ffff84166000908152606b6020526040908190209051630bd7754d60e31b815273__$5153cb8becad9661cecdfd8bb0abac3da0$__91635ebbaa68916106bf919088908890889088906004016126bc565b610893611846565b61ffff8b166000908152606b6020526040908190209051632af6aecb60e01b815273__$5153cb8becad9661cecdfd8bb0abac3da0$__91632af6aecb916108f391908f908f908f908f908f908f908f908f908f908f908f906004016127ed565b60006040518083038186803b15801561090b57600080fd5b505af415801561091f573d6000803e3d6000fd5b505050505050505050505050505050565b610938611846565b61ffff88166000908152606b602052604090819020905163edf909e360e01b815273__$5153cb8becad9661cecdfd8bb0abac3da0$__9163edf909e39161099291908c908c908c908c908c908c908c908c906004016128e5565b60006040518083038186803b1580156109aa57600080fd5b505af41580156109be573d6000803e3d6000fd5b505050505050505050505050565b336000908152606860205260408120546001600160a01b0316610a0957604051634a0bfec160e01b81523360048201526024015b60405180910390fd5b336000908152606a602090815260408083205461ffff168352606b90915290819020606954915163db50e57560e01b815273__$5153cb8becad9661cecdfd8bb0abac3da0$__9263db50e57592610a789290916001600160a01b0316908b908b908b908b908b9060040161296c565b60006040518083038186803b158015610a9057600080fd5b505af4158015610aa4573d6000803e3d6000fd5b50505050610aeb868686868080601f0160208091040260200160405190810160405280939291908181526020018383808284376000920191909152508892506118a0915050565b90505b95945050505050565b610aff611846565b61ffff82166000818152606b60205260409081902090516367f218bd60e11b8152600481019190915260248101919091526001600160a01b038216604482015273__$5153cb8becad9661cecdfd8bb0abac3da0$__9063cfe4317a906064015b60006040518083038186803b158015610b7757600080fd5b505af4158015610b8b573d6000803e3d6000fd5b505050505050565b336000908152606860205260408120546060906001600160a01b0316610bce57604051634a0bfec160e01b8152336004820152602401610a00565b336000908152606a602090815260408083205461ffff168352606b90915290819020606954915163db50e57560e01b815273__$5153cb8becad9661cecdfd8bb0abac3da0$__9263db50e57592610c3d9290916001600160a01b0316908c908c908c908c908c9060040161296c565b60006040518083038186803b158015610c5557600080fd5b505af4158015610c69573d6000803e3d6000fd5b50505050610cb0878787878080601f016020809104026020016040519081016040528093929190818152602001838380828437600092019190915250899250611a42915050565b915091509550959350505050565b610cc6611846565b61ffff82166000818152606b602052604090819020905163ee54ca5360e01b8152600481019190915260248101919091526001600160a01b038216604482015273__$5153cb8becad9661cecdfd8bb0abac3da0$__9063ee54ca5390606401610b5f565b610d32611846565b6001600160a01b0381161580610d5157506001600160a01b0381166001145b15610d7a57604051635c93ff2f60e11b81526001600160a01b0382166004820152602401610a00565b6001600160a01b038181166000908152606860205260409020541615610dbe57604051632061897360e01b81526001600160a01b0382166004820152602401610a00565b606860209081527f82eaf0fca2207f91f5027fcf68136c84edb7e928c081c42aa5bbc2a771c7d37680546001600160a01b03848116600081815260408082208054949095166001600160a01b0319948516179094556001905283549091168117909255519081527fecdf3a3effea5783a3c4c2140e677577666428d44ed9d474a0b3a4c9943f844091015b60405180910390a150565b336000908152606860205260408120546001600160a01b0316610e8c57604051634a0bfec160e01b8152336004820152602401610a00565b61ffff83166000908152606b602052604090819020606954915163db50e57560e01b815273__$5153cb8becad9661cecdfd8bb0abac3da0$__9263db50e57592610eee9290916001600160a01b0316908d908d908d908d908d9060040161296c565b60006040518083038186803b158015610f0657600080fd5b505af4158015610f1a573d6000803e3d6000fd5b50505050610f61888888888080601f0160208091040260200160405190810160405280939291908181526020018383808284376000920191909152508a92506118a0915050565b9050818015610f6e575080155b15610f8c5760405163d27b44a960e01b815260040160405180910390fd5b979650505050505050565b610f9f611846565b610fa96000611bee565b565b610fb3611846565b606780546001600160a01b038381166001600160a01b0319831681179093556040519116919082907f90cc2f570a6eb594b1580ea3e41247d2d73a55281889e86bd4ec2fc29c7e62d690600090a35050565b61100d611846565b606980546001600160a01b0319166001600160a01b0383169081179091556040519081527f5fe6aabf4e790843df43ae0e22b58620066fb389295bedc06a92df6c3b28777d90602001610e49565b611063611846565b61ffff87166000908152606b6020526040908190209051632896707960e11b815273__$5153cb8becad9661cecdfd8bb0abac3da0$__9163512ce0f2916110bb91908b908b908b908b908b908b908b906004016129b5565b60006040518083038186803b1580156110d357600080fd5b505af41580156110e7573d6000803e3d6000fd5b5050505050505050505050565b60008060008380602001905181019061110d9190612a9a565b606680546001600160a01b038085166001600160a01b03199283161790925560678054928416929091169190911790559194509250905061114c611c40565b6040516001600160a01b038281168252808416919085169033907f34d3b96a088381c6843a1f9d94d251afa88f83cc7a0d17fc23a7057506a3fc6d9060200160405180910390a450505050565b6111a1611846565b8281146111c1576040516374f4d53760e01b815260040160405180910390fd5b60005b61ffff81168411156112755782828261ffff168181106111e6576111e6612adc565b90506020020160208101906111fb9190612af2565b606b600087878561ffff1681811061121557611215612adc565b905060200201602081019061122a9190612b0f565b61ffff168152602080820192909252604090810160009081206001600160a01b038b1682529092529020805460ff19169115159190911790558061126d81612b40565b9150506111c4565b5061127f85610771565b61128c5761128c85610d2a565b7f4dcd99505817a4d3e4d3f751a4a49739ec38cb0f83319ff1224a3b289597e86c85858585856040516112c3959493929190612b61565b60405180910390a15050505050565b336000908152606860205260408120546060906001600160a01b031661130d57604051634a0bfec160e01b8152336004820152602401610a00565b61ffff84166000908152606b602052604090819020606954915163db50e57560e01b815273__$5153cb8becad9661cecdfd8bb0abac3da0$__9263db50e5759261136f9290916001600160a01b0316908e908e908e908e908e9060040161296c565b60006040518083038186803b15801561138757600080fd5b505af415801561139b573d6000803e3d6000fd5b505050506113e2898989898080601f0160208091040260200160405190810160405280939291908181526020018383808284376000920191909152508b9250611a42915050565b90925090508280156113f2575081155b156114105760405163d27b44a960e01b815260040160405180910390fd5b97509795505050505050565b606954600160a01b900460ff161561146c5760405162461bcd60e51b8152602060048201526013602482015272105b1c9958591e481a5b9a5d1a585b1a5e9959606a1b6044820152606401610a00565b6069805460ff60a01b1916600160a01b179055604080516001600160a01b03858116602083015284811692820192909252908216606082015260009060800160405160208183030381529060405290506114c5816110f4565b50505050565b60606000826001600160401b038111156114e7576114e7611f06565b604051908082528060200260200182016040528015611510578160200160208202803683370190505b506001600160a01b0380861660009081526068602052604081205492945091165b6001600160a01b0381161580159061155357506001600160a01b038116600114155b801561155e57508482105b156115b6578084838151811061157657611576612adc565b6001600160a01b039283166020918202929092018101919091529181166000908152606890925260409091205416816115ae81612bf9565b925050611531565b908352919491935090915050565b6115cc611846565b6001600160a01b03811615806115eb57506001600160a01b0381166001145b1561161457604051635c93ff2f60e11b81526001600160a01b0382166004820152602401610a00565b6001600160a01b0382811660009081526068602052604090205481169082161461165c57604051638b4189ff60e01b81526001600160a01b0382166004820152602401610a00565b6001600160a01b038181166000818152606860209081526040808320805488871685528285208054919097166001600160a01b03199182161790965592849052825490941690915591519081527faab4fa2b463f581b2b32cb3b7e3b704b9ce37cc209b5fb4d77e593ace40542769101610659565b6116d9611846565b6001600160a01b0381161561177f576040516301ffc9a760e01b815263736bd41d60e11b60048201526001600160a01b038216906301ffc9a790602401602060405180830381865afa158015611733573d6000803e3d6000fd5b505050506040513d601f19601f820116820180604052508101906117579190612c12565b61177f576040516358b7533f60e11b81526001600160a01b0382166004820152602401610a00565b606580546001600160a01b0319166001600160a01b0383169081179091556040519081527f1151116914515bc0891ff9047a6cb32cf902546f83066499bcf8ba33d2353fa290602001610e49565b6117d5611846565b6001600160a01b03811661183a5760405162461bcd60e51b815260206004820152602660248201527f4f776e61626c653a206e6577206f776e657220697320746865207a65726f206160448201526564647265737360d01b6064820152608401610a00565b61184381611bee565b50565b6033546001600160a01b03163314610fa95760405162461bcd60e51b815260206004820181905260248201527f4f776e61626c653a2063616c6c6572206973206e6f7420746865206f776e65726044820152606401610a00565b6065546000906001600160a01b031615611942576065546040805180820182526002815261060f60f31b60208201529051633af85da960e11b81526001600160a01b03909216916375f0bb529161190f9189918991899189916000918291829182918291903390600401612c2f565b600060405180830381600087803b15801561192957600080fd5b505af115801561193d573d6000803e3d6000fd5b505050505b60675460405163468721a760e01b81526001600160a01b039091169063468721a790611978908890889088908890600401612cbe565b6020604051808303816000875af1158015611997573d6000803e3d6000fd5b505050506040513d601f19601f820116820180604052508101906119bb9190612c12565b6065549091506001600160a01b031615611a3a57606554604051631264e26d60e31b815261060f60f31b600482015282151560248201526001600160a01b0390911690639327136890604401600060405180830381600087803b158015611a2157600080fd5b505af1158015611a35573d6000803e3d6000fd5b505050505b949350505050565b6065546000906060906001600160a01b031615611ae7576065546040805180820182526002815261060f60f31b60208201529051633af85da960e11b81526001600160a01b03909216916375f0bb5291611ab4918a918a918a918a916000918291829182918291903390600401612c2f565b600060405180830381600087803b158015611ace57600080fd5b505af1158015611ae2573d6000803e3d6000fd5b505050505b606754604051635229073f60e01b81526001600160a01b0390911690635229073f90611b1d908990899089908990600401612cbe565b6000604051808303816000875af1158015611b3c573d6000803e3d6000fd5b505050506040513d6000823e601f3d908101601f19168201604052611b649190810190612cf4565b60655491935091506001600160a01b031615611be557606554604051631264e26d60e31b815261060f60f31b600482015283151560248201526001600160a01b0390911690639327136890604401600060405180830381600087803b158015611bcc57600080fd5b505af1158015611be0573d6000803e3d6000fd5b505050505b94509492505050565b603380546001600160a01b038381166001600160a01b0319831681179093556040519116919082907f8be0079c531659141344cd1fd0a4f28419497f9722a3daafe3b4186f6b6457e090600090a35050565b600160005260686020527f82eaf0fca2207f91f5027fcf68136c84edb7e928c081c42aa5bbc2a771c7d376546001600160a01b031615611c8257611c82612d80565b6001600081905260686020527f82eaf0fca2207f91f5027fcf68136c84edb7e928c081c42aa5bbc2a771c7d37680546001600160a01b0319169091179055565b6001600160a01b038116811461184357600080fd5b8035611ce281611cc2565b919050565b600060208284031215611cf957600080fd5b8135611d0481611cc2565b9392505050565b803561ffff81168114611ce257600080fd5b6004811061184357600080fd5b8035611ce281611d1d565b600080600060608486031215611d4a57600080fd5b611d5384611d0b565b92506020840135611d6381611cc2565b91506040840135611d7381611d1d565b809150509250925092565b60008060408385031215611d9157600080fd5b8235611d9c81611cc2565b9150611daa60208401611d0b565b90509250929050565b80356001600160e01b031981168114611ce257600080fd5b60008060008060808587031215611de157600080fd5b611dea85611d0b565b93506020850135611dfa81611cc2565b9250611e0860408601611db3565b91506060850135611e1881611d1d565b939692955090935050565b600080600060608486031215611e3857600080fd5b611e4184611d0b565b92506020840135611e5181611cc2565b9150611e5f60408501611db3565b90509250925092565b60008060008060808587031215611e7e57600080fd5b611e8785611d0b565b93506020850135611e9781611cc2565b9250611ea560408601611db3565b9150606085013560ff81168114611e1857600080fd5b60008083601f840112611ecd57600080fd5b5081356001600160401b03811115611ee457600080fd5b6020830191508360208260051b8501011115611eff57600080fd5b9250929050565b634e487b7160e01b600052604160045260246000fd5b604051601f8201601f191681016001600160401b0381118282101715611f4457611f44611f06565b604052919050565b60006001600160401b03821115611f6557611f65611f06565b50601f01601f191660200190565b600082601f830112611f8457600080fd5b8135611f97611f9282611f4c565b611f1c565b818152846020838601011115611fac57600080fd5b816020850160208301376000918101602001919091529392505050565b600082601f830112611fda57600080fd5b813560206001600160401b0380831115611ff657611ff6611f06565b8260051b612005838201611f1c565b938452858101830193838101908886111561201f57600080fd5b84880192505b8583101561205b5782358481111561203d5760008081fd5b61204b8a87838c0101611f73565b8352509184019190840190612025565b98975050505050505050565b60008060008060008060008060008060006101008c8e03121561208957600080fd5b6120928c611d0b565b9a506120a060208d01611cd7565b99506120ae60408d01611db3565b98506001600160401b038060608e013511156120c957600080fd5b6120d98e60608f01358f01611ebb565b909950975060808d01358110156120ef57600080fd5b6120ff8e60808f01358f01611ebb565b909750955060a08d013581101561211557600080fd5b6121258e60a08f01358f01611ebb565b909550935060c08d013581101561213b57600080fd5b5061214c8d60c08e01358e01611fc9565b915061215a60e08d01611d2a565b90509295989b509295989b9093969950565b803560038110611ce257600080fd5b60008083601f84011261218d57600080fd5b5081356001600160401b038111156121a457600080fd5b602083019150836020828501011115611eff57600080fd5b60008060008060008060008060e0898b0312156121d857600080fd5b6121e189611d0b565b975060208901356121f181611cc2565b96506121ff60408a01611db3565b95506060890135945061221460808a0161216c565b935060a089013561222481611d1d565b925060c08901356001600160401b0381111561223f57600080fd5b61224b8b828c0161217b565b999c989b5096995094979396929594505050565b803560028110611ce257600080fd5b60008060008060006080868803121561228657600080fd5b853561229181611cc2565b94506020860135935060408601356001600160401b038111156122b357600080fd5b6122bf8882890161217b565b90945092506122d290506060870161225f565b90509295509295909350565b600080604083850312156122f157600080fd5b6122fa83611d0b565b9150602083013561230a81611cc2565b809150509250929050565b60005b83811015612330578181015183820152602001612318565b50506000910152565b60008151808452612351816020860160208601612315565b601f01601f19169290920160200192915050565b8215158152604060208201526000611a3a6040830184612339565b801515811461184357600080fd5b600080600080600080600060c0888a0312156123a957600080fd5b87356123b481611cc2565b96506020880135955060408801356001600160401b038111156123d657600080fd5b6123e28a828b0161217b565b90965094506123f590506060890161225f565b925061240360808901611d0b565b915060a088013561241381612380565b8091505092959891949750929550565b600080600080600080600060c0888a03121561243e57600080fd5b61244788611d0b565b9650602088013561245781611cc2565b955061246560408901611db3565b94506060880135935061247a6080890161216c565b925060a08801356001600160401b0381111561249557600080fd5b6124a18a828b01611ebb565b989b979a50959850939692959293505050565b6000602082840312156124c657600080fd5b81356001600160401b038111156124dc57600080fd5b611a3a84828501611f73565b60008060008060006060868803121561250057600080fd5b853561250b81611cc2565b945060208601356001600160401b038082111561252757600080fd5b61253389838a01611ebb565b9096509450604088013591508082111561254c57600080fd5b5061255988828901611ebb565b969995985093965092949392505050565b60008060006060848603121561257f57600080fd5b833561258a81611cc2565b9250602084013561259a81611cc2565b91506040840135611d7381611cc2565b600080604083850312156125bd57600080fd5b82356125c881611cc2565b946020939093013593505050565b604080825283519082018190526000906020906060840190828701845b828110156126185781516001600160a01b0316845292840192908401906001016125f3565b5050506001600160a01b039490941692019190915250919050565b6000806040838503121561264657600080fd5b82356122fa81611cc2565b634e487b7160e01b600052602160045260246000fd5b6004811061184357611843612651565b61268081612667565b9052565b84815261ffff841660208201526001600160a01b0383166040820152608081016126ad83612667565b82606083015295945050505050565b85815261ffff851660208201526001600160a01b03841660408201526001600160e01b03198316606082015260a081016126f583612667565b8260808301529695505050505050565b6003811061268057612680612651565b8183526000602080850194508260005b8581101561274f5761273f8761273a8461216c565b612705565b9582019590820190600101612725565b509495945050505050565b8183526000602080850194508260005b8581101561274f57813561277d81611d1d565b61278681612667565b8752958201959082019060010161276a565b600081518084526020808501808196508360051b8101915082860160005b858110156127e05782840389526127ce848351612339565b988501989350908401906001016127b6565b5091979650505050505050565b8c815261ffff8c1660208201526001600160a01b038b1660408201526001600160e01b03198a166060820152610120608082018190528101889052600061014082018a825b8b81101561285c57813561284581612380565b151583526020928301929190910190600101612832565b505082810360a084015261287181898b612715565b905082810360c084015261288681878961275a565b905082810360e084015261289a8186612798565b9150506128ab610100830184612677565b9d9c50505050505050505050505050565b81835281816020850137506000828201602090810191909152601f909101601f19169091010190565b89815261ffff891660208201526001600160a01b03881660408201526001600160e01b03198716606082015260808101869052600061010061292a60a0840188612705565b61293386612667565b8560c08401528060e084015261294c81840185876128bc565b9c9b505050505050505050505050565b6002811061268057612680612651565b8781526001600160a01b038781166020830152861660408201526060810185905260c0608082018190526000906129a690830185876128bc565b905061205b60a083018461295c565b600060e082018a8352602061ffff8b168185015260018060a01b038a16604085015263ffffffff60e01b891660608501528760808501526129f960a0850188612705565b60e060c085015290849052610100600585901b84018101919084018660005b87811015612a875786850360ff190183528135368a9003601e19018112612a3e57600080fd5b890184810190356001600160401b03811115612a5957600080fd5b803603821315612a6857600080fd5b612a738782846128bc565b965050509183019190830190600101612a18565b50929d9c50505050505050505050505050565b600080600060608486031215612aaf57600080fd5b8351612aba81611cc2565b6020850151909350612acb81611cc2565b6040850151909250611d7381611cc2565b634e487b7160e01b600052603260045260246000fd5b600060208284031215612b0457600080fd5b8135611d0481612380565b600060208284031215612b2157600080fd5b611d0482611d0b565b634e487b7160e01b600052601160045260246000fd5b600061ffff808316818103612b5757612b57612b2a565b6001019392505050565b6001600160a01b038616815260606020808301829052908201859052600090869060808401835b88811015612baf5761ffff612b9c85611d0b565b1682529282019290820190600101612b88565b508481036040860152858152810191508560005b86811015612bea578135612bd681612380565b151584529282019290820190600101612bc3565b50919998505050505050505050565b600060018201612c0b57612c0b612b2a565b5060010190565b600060208284031215612c2457600080fd5b8151611d0481612380565b6001600160a01b038c81168252602082018c905261016060408301819052600091612c5c8483018e612339565b9150612c6b606085018d61295c565b8a60808501528960a08501528860c085015280881660e0850152808716610100850152838203610120850152612ca18287612339565b925080851661014085015250509c9b505050505050505050505050565b60018060a01b0385168152836020820152608060408201526000612ce56080830185612339565b9050610aee606083018461295c565b60008060408385031215612d0757600080fd5b8251612d1281612380565b60208401519092506001600160401b03811115612d2e57600080fd5b8301601f81018513612d3f57600080fd5b8051612d4d611f9282611f4c565b818152866020838501011115612d6257600080fd5b612d73826020830160208601612315565b8093505050509250929050565b634e487b7160e01b600052600160045260246000fdfea2646970667358221220cf1c488ad2d72b45bb3832aa4771be28324c81449c40ed3f62cfed1d2779dfd364736f6c63430008110033",
    "linkReferences": {
      "contracts/zodiac-mod-roles/Permissions.sol": {
        "Permissions": [
          {
            "start": 1460,
            "length": 20
          },
          {
            "start": 1712,
            "length": 20
          },
          {
            "start": 1903,
            "length": 20
          },
          {
            "start": 2095,
            "length": 20
          },
          {
            "start": 2172,
            "length": 20
          },
          {
            "start": 2262,
            "length": 20
          },
          {
            "start": 2427,
            "length": 20
          },
          {
            "start": 2652,
            "length": 20
          },
          {
            "start": 2913,
            "length": 20
          },
          {
            "start": 3105,
            "length": 20
          },
          {
            "start": 3368,
            "length": 20
          },
          {
            "start": 3794,
            "length": 20
          },
          {
            "start": 4262,
            "length": 20
          },
          {
            "start": 4947,
            "length": 20
          }
        ]
      }
    }
  },
  "methodIdentifiers": {
    "allowTarget(uint16,address,uint8)": "0de729c7",
    "assignRoles(address,uint16[],bool[])": "a6edf38f",
    "avatar()": "5aef7de6",
    "defaultRoles(address)": "2d3c2547",
    "disableModule(address,address)": "e009cfde",
    "enableModule(address)": "610b5925",
    "execTransactionFromModule(address,uint256,bytes,uint8)": "468721a7",
    "execTransactionFromModuleReturnData(address,uint256,bytes,uint8)": "5229073f",
    "execTransactionWithRole(address,uint256,bytes,uint8,uint16,bool)": "6928e74b",
    "execTransactionWithRoleReturnData(address,uint256,bytes,uint8,uint16,bool)": "b0c19912",
    "getGuard()": "c9106389",
    "getModulesPaginated(address,uint256)": "cc2f8452",
    "guard()": "7ceab3b1",
    "initialize(address,address,address)": "c0c53b8b",
    "isModuleEnabled(address)": "2d9ad53d",
    "multisend()": "294402cc",
    "owner()": "8da5cb5b",
    "renounceOwnership()": "715018a6",
    "revokeTarget(uint16,address)": "51fa1d73",
    "scopeAllowFunction(uint16,address,bytes4,uint8)": "2fcf52d1",
    "scopeFunction(uint16,address,bytes4,bool[],uint8[],uint8[],bytes[],uint8)": "33a0480c",
    "scopeFunctionExecutionOptions(uint16,address,bytes4,uint8)": "15b77d3f",
    "scopeParameter(uint16,address,bytes4,uint256,uint8,uint8,bytes)": "3c1952b8",
    "scopeParameterAsOneOf(uint16,address,bytes4,uint256,uint8,bytes[])": "93933772",
    "scopeRevokeFunction(uint16,address,bytes4)": "2933ef1c",
    "scopeTarget(uint16,address)": "5e826695",
    "setAvatar(address)": "086cfca8",
    "setDefaultRole(address,uint16)": "102b7fe6",
    "setGuard(address)": "e19a9dd9",
    "setMultisend(address)": "8b95eccd",
    "setTarget(address)": "776d1a01",
    "setUp(bytes)": "a4f9edbf",
    "target()": "d4b83992",
    "transferOwnership(address)": "f2fde38b",
    "unscopeParameter(uint16,address,bytes4,uint8)": "2e506a48"
  },
  "id": 13
}