{
  "abi": [
    {
      "inputs": [],
      "stateMutability": "nonpayable",
      "type": "constructor"
    },
    {
      "anonymous": false,
      "inputs": [
        {
          "indexed": false,
          "internalType": "uint8",
          "name": "version",
          "type": "uint8"
        }
      ],
      "name": "Initialized",
      "type": "event"
    },
    {
      "inputs": [
        {
          "internalType": "address[]",
          "name": "tokens",
          "type": "address[]"
        }
      ],
      "name": "addSafeHoldings",
      "outputs": [],
      "stateMutability": "nonpayable",
      "type": "function"
    },
    {
      "inputs": [],
      "name": "avatar",
      "outputs": [
        {
          "internalType": "contract IAvatar",
          "name": "",
          "type": "address"
        }
      ],
      "stateMutability": "view",
      "type": "function"
    },
    {
      "inputs": [],
      "name": "baal",
      "outputs": [
        {
          "internalType": "contract IBaal",
          "name": "",
          "type": "address"
        }
      ],
      "stateMutability": "view",
      "type": "function"
    },
    {
      "inputs": [
        {
          "internalType": "uint256",
          "name": "score",
          "type": "uint256"
        }
      ],
      "name": "chainlinkResult",
      "outputs": [],
      "stateMutability": "nonpayable",
      "type": "function"
    },
    {
      "inputs": [],
      "name": "consumer",
      "outputs": [
        {
          "internalType": "contract ReaperConsumer",
          "name": "",
          "type": "address"
        }
      ],
      "stateMutability": "view",
      "type": "function"
    },
    {
      "inputs": [
        {
          "components": [
            {
              "internalType": "address",
              "name": "baalDao",
              "type": "address"
            },
            {
              "internalType": "address",
              "name": "liquidationTarget",
              "type": "address"
            },
            {
              "internalType": "uint256",
              "name": "interval",
              "type": "uint256"
            },
            {
              "internalType": "uint256",
              "name": "threshold",
              "type": "uint256"
            }
          ],
          "internalType": "struct IInitData.InitData",
          "name": "initData",
          "type": "tuple"
        },
        {
          "internalType": "address",
          "name": "chainlinkConsumer",
          "type": "address"
        },
        {
          "internalType": "address",
          "name": "rolesModifier",
          "type": "address"
        }
      ],
      "name": "initialize",
      "outputs": [],
      "stateMutability": "nonpayable",
      "type": "function"
    },
    {
      "inputs": [],
      "name": "interval",
      "outputs": [
        {
          "internalType": "uint256",
          "name": "",
          "type": "uint256"
        }
      ],
      "stateMutability": "view",
      "type": "function"
    },
    {
      "inputs": [],
      "name": "lastAnalysis",
      "outputs": [
        {
          "internalType": "uint256",
          "name": "",
          "type": "uint256"
        }
      ],
      "stateMutability": "view",
      "type": "function"
    },
    {
      "inputs": [],
      "name": "liquidationTarget",
      "outputs": [
        {
          "internalType": "address",
          "name": "",
          "type": "address"
        }
      ],
      "stateMutability": "view",
      "type": "function"
    },
    {
      "inputs": [
        {
          "internalType": "string",
          "name": "source",
          "type": "string"
        },
        {
          "internalType": "bytes",
          "name": "secrets",
          "type": "bytes"
        },
        {
          "internalType": "enum Functions.Location",
          "name": "secretsLocation",
          "type": "uint8"
        },
        {
          "internalType": "string[]",
          "name": "args",
          "type": "string[]"
        },
        {
          "internalType": "uint64",
          "name": "subscriptionId",
          "type": "uint64"
        },
        {
          "internalType": "uint32",
          "name": "gasLimit",
          "type": "uint32"
        }
      ],
      "name": "pokeReaper",
      "outputs": [],
      "stateMutability": "nonpayable",
      "type": "function"
    },
    {
      "inputs": [
        {
          "internalType": "bool",
          "name": "pass",
          "type": "bool"
        }
      ],
      "name": "pokeReaperTest",
      "outputs": [],
      "stateMutability": "nonpayable",
      "type": "function"
    },
    {
      "inputs": [
        {
          "internalType": "address",
          "name": "",
          "type": "address"
        }
      ],
      "name": "redundancyCheck",
      "outputs": [
        {
          "internalType": "bool",
          "name": "",
          "type": "bool"
        }
      ],
      "stateMutability": "view",
      "type": "function"
    },
    {
      "inputs": [],
      "name": "reputationScore",
      "outputs": [
        {
          "internalType": "uint256",
          "name": "",
          "type": "uint256"
        }
      ],
      "stateMutability": "view",
      "type": "function"
    },
    {
      "inputs": [],
      "name": "roles",
      "outputs": [
        {
          "internalType": "contract Roles",
          "name": "",
          "type": "address"
        }
      ],
      "stateMutability": "view",
      "type": "function"
    },
    {
      "inputs": [
        {
          "internalType": "uint256",
          "name": "",
          "type": "uint256"
        }
      ],
      "name": "safeERC20s",
      "outputs": [
        {
          "internalType": "address",
          "name": "",
          "type": "address"
        }
      ],
      "stateMutability": "view",
      "type": "function"
    },
    {
      "inputs": [],
      "name": "sharesToken",
      "outputs": [
        {
          "internalType": "contract IERC20",
          "name": "",
          "type": "address"
        }
      ],
      "stateMutability": "view",
      "type": "function"
    },
    {
      "inputs": [],
      "name": "threshold",
      "outputs": [
        {
          "internalType": "uint256",
          "name": "",
          "type": "uint256"
        }
      ],
      "stateMutability": "view",
      "type": "function"
    }
  ],
  "bytecode": {
    "object": "0x608060405234801561001057600080fd5b5061001961001e565b6100de565b600054610100900460ff161561008a5760405162461bcd60e51b815260206004820152602760248201527f496e697469616c697a61626c653a20636f6e747261637420697320696e697469604482015266616c697a696e6760c81b606482015260840160405180910390fd5b60005460ff90811610156100dc576000805460ff191660ff9081179091556040519081527f7f26b83ff96e1f2b6a682f133852f6798a09c465da95921460cefb38474024989060200160405180910390a15b565b611919806100ed6000396000f3fe608060405234801561001057600080fd5b506004361061010b5760003560e01c80638009ba1f116100a25780639fc073e0116100715780639fc073e014610219578063b4fd72961461022c578063c32013701461023f578063e5a2a2a514610252578063e6bcb3aa1461026557600080fd5b80638009ba1f146101e1578063947a36fb146101f45780639701c3a0146101fd5780639c0fd1d11461021057600080fd5b806360a7fc1f116100de57806360a7fc1f1461017f57806361b0ff071461018857806370f616201461019b57806374606fc6146101ce57600080fd5b80633912797e14610110578063392f5f641461012557806342cde4e8146101555780635aef7de61461016c575b600080fd5b61012361011e36600461111b565b61028e565b005b600654610138906001600160a01b031681565b6040516001600160a01b0390911681526020015b60405180910390f35b61015e600b5481565b60405190815260200161014c565b600454610138906001600160a01b031681565b61015e600a5481565b6101236101963660046111b8565b610669565b6101be6101a93660046111fa565b600d6020526000908152604090205460ff1681565b604051901515815260200161014c565b6101236101dc36600461122c565b6107b3565b600354610138906001600160a01b031681565b61015e60085481565b61012361020b366004611249565b610820565b61015e60095481565b600754610138906001600160a01b031681565b600554610138906001600160a01b031681565b61012361024d3660046112d5565b61084b565b600254610138906001600160a01b031681565b610138610273366004611249565b600c602052600090815260409020546001600160a01b031681565b600054610100900460ff16158080156102ae5750600054600160ff909116105b806102c85750303b1580156102c8575060005460ff166001145b6103305760405162461bcd60e51b815260206004820152602e60248201527f496e697469616c697a61626c653a20636f6e747261637420697320616c72656160448201526d191e481a5b9a5d1a585b1a5e995960921b60648201526084015b60405180910390fd5b6000805460ff191660011790558015610353576000805461ff0019166101001790555b61036060208501856111fa565b600280546001600160a01b0319166001600160a01b0392909216918217905560408051638009ba1f60e01b81529051638009ba1f9160048082019260209290919082900301816000875af11580156103bc573d6000803e3d6000fd5b505050506040513d601f19601f820116820180604052508101906103e091906113a8565b600380546001600160a01b0319166001600160a01b0392831617905560025460408051632d77bef360e11b815290519190921691635aef7de691600480830192602092919082900301816000875af1158015610440573d6000803e3d6000fd5b505050506040513d601f19601f8201168201806040525081019061046491906113a8565b600480546001600160a01b0319166001600160a01b039290921691909117905561049460408501602086016111fa565b600780546001600160a01b03199081166001600160a01b03938416179091556040860135600855606080870135600b5542600955600a8055600580548316878516179055600680549092169285169290921790556104f130610902565b9050606061050030600261094e565b6040805160028082526060820190925291925060009190816020015b606081526020019060019003908161051c5790505090508181600081518110610547576105476113c5565b60200260200101819052508281600181518110610566576105666113c5565b602090810291909101015260408051600280825260608201909252600091816020016020820280368337505060025482519293506001600160a01b0316918391506000906105b6576105b66113c5565b6001600160a01b0392831660209182029290920101526006548251911690829060019081106105e7576105e76113c5565b60200260200101906001600160a01b031690816001600160a01b0316815250506106196106148383610a2d565b610b0e565b505050508015610663576000805461ff0019169055604051600181527f7f26b83ff96e1f2b6a682f133852f6798a09c465da95921460cefb38474024989060200160405180910390a15b50505050565b8060005b81811015610663576000848483818110610689576106896113c5565b905060200201602081019061069e91906111fa565b600480546040516370a0823160e01b81526001600160a01b03918216928101929092529192506000918316906370a0823190602401602060405180830381865afa1580156106f0573d6000803e3d6000fd5b505050506040513d601f19601f8201168201806040525081019061071491906113db565b11156107a0576001600160a01b0381166000908152600d602052604090205460ff1615156001146107a0576001600160a01b038116600052600d60205261075f600180546001019055565b80600c600061076d60015490565b815260200190815260200160002060006101000a8154816001600160a01b0302191690836001600160a01b031602179055505b50806107ab8161140a565b91505061066d565b6107bb610c58565b60085460095442916107cc91611423565b8110156107d857600080fd5b81151560000361080857600a80546107f09190611436565b600a818155111561080357610803610d8f565b61081a565b600a54610816906005611423565b600a555b60095550565b600b5481101561083d57600a80546108389190611436565b505b50565b600a54610838906005611423565b610853610c58565b600854600954429161086491611423565b81101561087057600080fd5b600554604051636915912560e11b81526001600160a01b039091169063d22b224a906108b0908d908d908d908d908d908d908d908d908d90600401611490565b6020604051808303816000875af11580156108cf573d6000803e3d6000fd5b505050506040513d601f19601f820116820180604052508101906108f391906113db565b50600955505050505050505050565b606080606083828260405160240161091c9392919061158c565b60408051601f198184030181529190526020810180516001600160e01b031663a6edf38f60e01b179052949350505050565b60408051600180825281830190925260609160009190602080830190803683370190505090508381600081518110610988576109886113c5565b6001600160a01b03929092166020928302919091019091015260408051600180825281830190925260009181602001602082028036833701905050905083816000815181106109d9576109d96113c5565b60200260200101818152505081816040516024016109f8929190611620565b60408051601f198184030181529190526020810180516001600160e01b0316630f656a2160e01b179052925050505b92915050565b60608060005b8451811015610ac957816000858381518110610a5157610a516113c5565b60200260200101516000888581518110610a6d57610a6d6113c5565b602002602001015151898681518110610a8857610a886113c5565b6020026020010151604051602001610aa5969594939291906116c8565b60405160208183030381529060405291508080610ac19061140a565b915050610a33565b5080604051602401610adb919061175e565b60408051601f198184030181529190526020810180516001600160e01b03166346c07f8560e11b17905291505092915050565b60025460408051639a2f747f60e01b815290516000926001600160a01b031691639a2f747f916004808301926020929190829003018187875af1158015610b59573d6000803e3d6000fd5b505050506040513d601f19601f82011682018060405250810190610b7d91906113db565b9050803414610bc05760405162461bcd60e51b815260206004820152600f60248201526e4d697373696e67207472696275746560881b6044820152606401610327565b60006040518060a00160405280607e8152602001611866607e91396002546040516307505ff960e31b81529192506001600160a01b031690633a82ffc8908490610c1590879060009081908890600401611771565b60206040518083038185885af1158015610c33573d6000803e3d6000fd5b50505050506040513d601f19601f8201168201806040525081019061066391906113db565b6003546040516370a0823160e01b81523360048201526000916001600160a01b0316906370a0823190602401602060405180830381865afa158015610ca1573d6000803e3d6000fd5b505050506040513d601f19601f82011682018060405250810190610cc591906113db565b9050600260009054906101000a90046001600160a01b03166001600160a01b0316635cfd6f7e6040518163ffffffff1660e01b81526004016020604051808303816000875af1158015610d1c573d6000803e3d6000fd5b505050506040513d601f19601f82011682018060405250810190610d4091906113db565b81101561083a5760405162461bcd60e51b815260206004820181905260248201527f596f75206d75737420706f7373657373206d696e696d756d20736861726573216044820152606401610327565b600354604080516318160ddd60e01b815290516000926001600160a01b0316916318160ddd9160048083019260209291908290030181865afa158015610dd9573d6000803e3d6000fd5b505050506040513d601f19601f82011682018060405250810190610dfd91906113db565b60408051600180825281830190925291925060009190602080830190803683370190505090503081600081518110610e3757610e376113c5565b6001600160a01b039290921660209283029190910190910152604080516001808252818301909252600091816020016020820280368337019050509050610e80836103e86117b3565b81600081518110610e9357610e936113c5565b6020908102919091010152600254604051632c78fd0360e21b81526001600160a01b039091169063b1e3f40c90610ed09085908590600401611620565b600060405180830381600087803b158015610eea57600080fd5b505af1158015610efe573d6000803e3d6000fd5b505050506000610f0d60015490565b905060015b818111611083576000818152600c6020526040808220546004805492516370a0823160e01b81526001600160a01b03938416918101919091529116919082906370a0823190602401602060405180830381865afa158015610f77573d6000803e3d6000fd5b505050506040513d601f19601f82011682018060405250810190610f9b91906113db565b9050801561106e576007546040516001600160a01b0390911660248201526044810182905260009060640160408051601f198184030181529181526020820180516001600160e01b031663a9059cbb60e01b17905260048054915163468721a760e01b81529293506001600160a01b039091169163468721a79161102891879160009187918391016117ca565b6020604051808303816000875af1158015611047573d6000803e3d6000fd5b505050506040513d601f19601f8201168201806040525081019061106b919061180b565b50505b5050808061107b9061140a565b915050610f12565b506004805460075460405163468721a760e01b81526001600160a01b039283169363468721a7936110bc93169185319160009101611828565b6020604051808303816000875af11580156110db573d6000803e3d6000fd5b505050506040513d601f19601f820116820180604052508101906110ff919061180b565b5050505050565b6001600160a01b038116811461083a57600080fd5b600080600083850360c081121561113157600080fd5b608081121561113f57600080fd5b50839250608084013561115181611106565b915060a084013561116181611106565b809150509250925092565b60008083601f84011261117e57600080fd5b50813567ffffffffffffffff81111561119657600080fd5b6020830191508360208260051b85010111156111b157600080fd5b9250929050565b600080602083850312156111cb57600080fd5b823567ffffffffffffffff8111156111e257600080fd5b6111ee8582860161116c565b90969095509350505050565b60006020828403121561120c57600080fd5b813561121781611106565b9392505050565b801515811461083a57600080fd5b60006020828403121561123e57600080fd5b81356112178161121e565b60006020828403121561125b57600080fd5b5035919050565b60008083601f84011261127457600080fd5b50813567ffffffffffffffff81111561128c57600080fd5b6020830191508360208285010111156111b157600080fd5b803567ffffffffffffffff811681146112bc57600080fd5b919050565b803563ffffffff811681146112bc57600080fd5b600080600080600080600080600060c08a8c0312156112f357600080fd5b893567ffffffffffffffff8082111561130b57600080fd5b6113178d838e01611262565b909b50995060208c013591508082111561133057600080fd5b61133c8d838e01611262565b909950975060408c013591506002821061135557600080fd5b90955060608b0135908082111561136b57600080fd5b506113788c828d0161116c565b909550935061138b905060808b016112a4565b915061139960a08b016112c1565b90509295985092959850929598565b6000602082840312156113ba57600080fd5b815161121781611106565b634e487b7160e01b600052603260045260246000fd5b6000602082840312156113ed57600080fd5b5051919050565b634e487b7160e01b600052601160045260246000fd5b60006001820161141c5761141c6113f4565b5060010190565b80820180821115610a2757610a276113f4565b81810381811115610a2757610a276113f4565b81835281816020850137506000828201602090810191909152601f909101601f19169091010190565b6002811061083a57634e487b7160e01b600052602160045260246000fd5b60c0815260006114a460c083018b8d611449565b6020838203818501526114b8828b8d611449565b91506114c389611472565b604084018990528382036060850152868252808201600588901b830182018960005b8a81101561155557858303601f190184528135368d9003601e1901811261150b57600080fd5b8c01858101903567ffffffffffffffff81111561152757600080fd5b80360382131561153657600080fd5b611541858284611449565b9587019594505050908401906001016114e5565b505067ffffffffffffffff88166080870152935061157292505050565b63ffffffff831660a08301529a9950505050505050505050565b6001600160a01b038416815260606020808301829052845191830182905260009185820191906080850190845b818110156115d957845161ffff16835293830193918301916001016115b9565b50508481036040860152855180825290820192508186019060005b818110156116125782511515855293830193918301916001016115f4565b509298975050505050505050565b604080825283519082018190526000906020906060840190828701845b828110156116625781516001600160a01b03168452928401929084019060010161163d565b5050508381038285015284518082528583019183019060005b818110156116975783518352928401929184019160010161167b565b5090979650505050505050565b60005b838110156116bf5781810151838201526020016116a7565b50506000910152565b600087516116da818460208c016116a4565b808301905060ff60f81b8860f81b1681526bffffffffffffffffffffffff198760601b16600182015285601582015284603582015283516117228160558401602088016116a4565b0160550198975050505050505050565b6000815180845261174a8160208601602086016116a4565b601f01601f19169290920160200192915050565b6020815260006112176020830184611732565b6080815260006117846080830187611732565b63ffffffff8616602084015284604084015282810360608401526117a88185611732565b979650505050505050565b8082028115828204841417610a2757610a276113f4565b60018060a01b03851681528360208201526080604082015260006117f16080830185611732565b90506117fc83611472565b82606083015295945050505050565b60006020828403121561181d57600080fd5b81516112178161121e565b6001600160a01b03841681526020810183905260806040820181905260009082015260a0810161185783611472565b82606083015294935050505056fe7b2270726f706f73616c54797065223a20224144445f5348414d414e222c20227469746c65223a2022526561706572222c20226465736372697074696f6e223a202241737369676e2052656170657220636f6e74726163742061732061204d616e616765722d5368616d616e20616e6420536166652d4d6f64756c65227da26469706673582212208d1d423fe5fccdd053e58d5a8da90d72d4d32eff71300b06baa4f83579b1a8e364736f6c63430008110033",
    "linkReferences": {}
  },
  "methodIdentifiers": {
    "addSafeHoldings(address[])": "61b0ff07",
    "avatar()": "5aef7de6",
    "baal()": "e5a2a2a5",
    "chainlinkResult(uint256)": "9701c3a0",
    "consumer()": "b4fd7296",
    "initialize((address,address,uint256,uint256),address,address)": "3912797e",
    "interval()": "947a36fb",
    "lastAnalysis()": "9c0fd1d1",
    "liquidationTarget()": "9fc073e0",
    "pokeReaper(string,bytes,uint8,string[],uint64,uint32)": "c3201370",
    "pokeReaperTest(bool)": "74606fc6",
    "redundancyCheck(address)": "70f61620",
    "reputationScore()": "60a7fc1f",
    "roles()": "392f5f64",
    "safeERC20s(uint256)": "e6bcb3aa",
    "sharesToken()": "8009ba1f",
    "threshold()": "42cde4e8"
  },
  "id": 12
}