{
  "_format": "hh-sol-artifact-1",
  "contractName": "ReaperFactory",
  "sourceName": "contracts/ReaperFactory.sol",
  "abi": [
    {
      "inputs": [],
      "stateMutability": "nonpayable",
      "type": "constructor"
    },
    {
      "anonymous": false,
      "inputs": [
        {
          "indexed": false,
          "internalType": "address",
          "name": "reaper",
          "type": "address"
        }
      ],
      "name": "newReaper",
      "type": "event"
    },
    {
      "inputs": [
        {
          "components": [
            {
              "internalType": "address",
              "name": "baalDao",
              "type": "address"
            },
            {
              "internalType": "address",
              "name": "liquidationTarget",
              "type": "address"
            },
            {
              "internalType": "uint256",
              "name": "interval",
              "type": "uint256"
            },
            {
              "internalType": "uint256",
              "name": "threshold",
              "type": "uint256"
            }
          ],
          "internalType": "struct IInitData.InitData",
          "name": "initData",
          "type": "tuple"
        }
      ],
      "name": "deployReaper",
      "outputs": [
        {
          "internalType": "address",
          "name": "",
          "type": "address"
        }
      ],
      "stateMutability": "nonpayable",
      "type": "function"
    },
    {
      "inputs": [],
      "name": "linkToken",
      "outputs": [
        {
          "internalType": "contract ERC20",
          "name": "",
          "type": "address"
        }
      ],
      "stateMutability": "view",
      "type": "function"
    },
    {
      "inputs": [],
      "name": "reaperConsumerGoerli",
      "outputs": [
        {
          "internalType": "address",
          "name": "",
          "type": "address"
        }
      ],
      "stateMutability": "view",
      "type": "function"
    },
    {
      "inputs": [],
      "name": "reaperConsumerMumbai",
      "outputs": [
        {
          "internalType": "address",
          "name": "",
          "type": "address"
        }
      ],
      "stateMutability": "view",
      "type": "function"
    },
    {
      "inputs": [],
      "name": "reaperSingleton",
      "outputs": [
        {
          "internalType": "address",
          "name": "",
          "type": "address"
        }
      ],
      "stateMutability": "view",
      "type": "function"
    },
    {
      "inputs": [],
      "name": "testToken",
      "outputs": [
        {
          "internalType": "contract ERC20",
          "name": "",
          "type": "address"
        }
      ],
      "stateMutability": "view",
      "type": "function"
    }
  ],
  "bytecode": "0x6080604052600180546001600160a01b031990811673a1f4e605585d8e7a3160938cbe873d03525a95d817909155600280548216739106e3feb7a83c090d324460f487b09f773c1c9917905560038054821673326c977e6efc84e512bb9c30f76e30c160ed06fb1790556004805490911673a49df10dd5b84257de634f4350218f615471fc69179055670de0b6b3a76400006005553480156100a057600080fd5b506040516100ad906100ef565b604051809103906000f0801580156100c9573d6000803e3d6000fd5b50600080546001600160a01b0319166001600160a01b03929092169190911790556100fc565b611b828061057283390190565b6104678061010b6000396000f3fe608060405234801561001057600080fd5b50600436106100725760003560e01c80638e26d88c116100505780638e26d88c146100cc578063c4d1fca0146100df578063d912492d146100f257600080fd5b8063307d99f11461007757806357970e93146100a65780636895179d146100b9575b600080fd5b60015461008a906001600160a01b031681565b6040516001600160a01b03909116815260200160405180910390f35b60035461008a906001600160a01b031681565b60045461008a906001600160a01b031681565b60005461008a906001600160a01b031681565b61008a6100ed3660046103b8565b610105565b60025461008a906001600160a01b031681565b60008054819061011d906001600160a01b031661023a565b6002546040517f5ec502240000000000000000000000000000000000000000000000000000000081529192506001600160a01b0380841692635ec502249261016c9288929116906004016103d0565b600060405180830381600087803b15801561018657600080fd5b505af115801561019a573d6000803e3d6000fd5b505050506101a7306102db565b6101f85760405162461bcd60e51b815260206004820152601560248201527f4d697373696e67204c494e4b206465706f73697421000000000000000000000060448201526064015b60405180910390fd5b6040516001600160a01b03821681527f76543b6afd7b316567ca9e8757160611431aac018c899b968b7ab783782345199060200160405180910390a192915050565b6000763d602d80600a3d3981f3363d3d373d3d3d363d730000008260601b60e81c176000526e5af43d82803e903d91602b57fd5bf38260781b17602052603760096000f090506001600160a01b0381166102d65760405162461bcd60e51b815260206004820152601660248201527f455243313136373a20637265617465206661696c65640000000000000000000060448201526064016101ef565b919050565b600480546005546040517f23b872dd00000000000000000000000000000000000000000000000000000000815233938101939093526001600160a01b03848116602485015260448401919091526000929116906323b872dd90606401602060405180830381600087803b15801561035157600080fd5b505af1158015610365573d6000803e3d6000fd5b505050506040513d601f19601f82011682018060405250810190610389919061038f565b92915050565b6000602082840312156103a157600080fd5b815180151581146103b157600080fd5b9392505050565b6000608082840312156103ca57600080fd5b50919050565b60a0810183356001600160a01b038082168083146103ed57600080fd5b84526020860135915080821680831461040557600080fd5b80602086015250604086013560408501526060860135606085015280851660808501525050939250505056fea264697066735822122076a508a57b0a46dab0e68d4e51edc58bbd19981cab6ce0053462b956c82536a264736f6c63430008070033608060405234801561001057600080fd5b5061001961001e565b6100de565b600054610100900460ff161561008a5760405162461bcd60e51b815260206004820152602760248201527f496e697469616c697a61626c653a20636f6e747261637420697320696e697469604482015266616c697a696e6760c81b606482015260840160405180910390fd5b60005460ff90811610156100dc576000805460ff191660ff9081179091556040519081527f7f26b83ff96e1f2b6a682f133852f6798a09c465da95921460cefb38474024989060200160405180910390a15b565b611a95806100ed6000396000f3fe608060405234801561001057600080fd5b50600436106101005760003560e01c8063947a36fb11610097578063b4fd729611610066578063b4fd72961461020e578063c320137014610221578063e5a2a2a514610234578063e6bcb3aa1461024757600080fd5b8063947a36fb146101d65780639701c3a0146101df5780639c0fd1d1146101f25780639fc073e0146101fb57600080fd5b806361b0ff07116100d357806361b0ff071461016a57806370f616201461017d57806374606fc6146101b05780638009ba1f146101c357600080fd5b806342cde4e8146101055780635aef7de6146101215780635ec502241461014c57806360a7fc1f14610161575b600080fd5b61010e600a5481565b6040519081526020015b60405180910390f35b600454610134906001600160a01b031681565b6040516001600160a01b039091168152602001610118565b61015f61015a366004611557565b610270565b005b61010e60095481565b61015f6101783660046113ef565b61072e565b6101a061018b3660046113ae565b600c6020526000908152604090205460ff1681565b6040519015158152602001610118565b61015f6101be366004611431565b61088d565b600354610134906001600160a01b031681565b61010e60075481565b61015f6101ed366004611596565b6108f8565b61010e60085481565b600654610134906001600160a01b031681565b600554610134906001600160a01b031681565b61015f61022f366004611484565b610924565b600254610134906001600160a01b031681565b610134610255366004611596565b600b602052600090815260409020546001600160a01b031681565b600054610100900460ff16158080156102905750600054600160ff909116105b806102aa5750303b1580156102aa575060005460ff166001145b6103215760405162461bcd60e51b815260206004820152602e60248201527f496e697469616c697a61626c653a20636f6e747261637420697320616c72656160448201527f647920696e697469616c697a656400000000000000000000000000000000000060648201526084015b60405180910390fd5b6000805460ff191660011790558015610344576000805461ff0019166101001790555b61035160208401846113ae565b6002805473ffffffffffffffffffffffffffffffffffffffff19166001600160a01b03929092169182179055604080517f8009ba1f0000000000000000000000000000000000000000000000000000000081529051638009ba1f916004808201926020929091908290030181600087803b1580156103ce57600080fd5b505af11580156103e2573d6000803e3d6000fd5b505050506040513d601f19601f8201168201806040525081019061040691906113d2565b6003805473ffffffffffffffffffffffffffffffffffffffff19166001600160a01b03928316179055600254604080517f5aef7de600000000000000000000000000000000000000000000000000000000815290519190921691635aef7de69160048083019260209291908290030181600087803b15801561048757600080fd5b505af115801561049b573d6000803e3d6000fd5b505050506040513d601f19601f820116820180604052508101906104bf91906113d2565b6004805473ffffffffffffffffffffffffffffffffffffffff19166001600160a01b03929092169190911790556104fc60408401602085016113ae565b6006805473ffffffffffffffffffffffffffffffffffffffff199081166001600160a01b03938416179091556040850135600755606080860135600a90815542600855600955600580549092169285169290921790556105b7306040516001600160a01b038216602482015260609060440160408051601f198184030181529190526020810180516001600160e01b03167f610b59250000000000000000000000000000000000000000000000000000000017905292915050565b905060606105c6306002610a03565b6040805160028082526060820190925291925060009190816020015b60608152602001906001900390816105e2579050509050818160008151811061060d5761060d61198a565b6020026020010181905250828160018151811061062c5761062c61198a565b602090810291909101015260408051600280825260608201909252600091816020016020820280368337505060025482519293506001600160a01b03169183915060009061067c5761067c61198a565b6001600160a01b0392831660209182029290920101526004548251911690829060019081106106ad576106ad61198a565b60200260200101906001600160a01b031690816001600160a01b0316815250506106df6106da8383610afa565b610bf4565b505050508015610729576000805461ff0019169055604051600181527f7f26b83ff96e1f2b6a682f133852f6798a09c465da95921460cefb38474024989060200160405180910390a15b505050565b8060005b8181101561088757600084848381811061074e5761074e61198a565b905060200201602081019061076391906113ae565b600480546040516370a0823160e01b81526001600160a01b03918216928101929092529192506000918316906370a082319060240160206040518083038186803b1580156107b057600080fd5b505afa1580156107c4573d6000803e3d6000fd5b505050506040513d601f19601f820116820180604052508101906107e8919061146b565b1115610874576001600160a01b0381166000908152600c602052604090205460ff161515600114610874576001600160a01b038116600052600c602052610833600180546001019055565b80600b600061084160015490565b815260200190815260200160002060006101000a8154816001600160a01b0302191690836001600160a01b031602179055505b508061087f81611959565b915050610732565b50505050565b610895610d9c565b60075460085442916108a6916118df565b8110156108b257600080fd5b816108e057600a6009546108c69190611916565b6009819055600a11156108db576108db610ef1565b6108f2565b6009546108ee9060056118df565b6009555b60085550565b600a5481101561091657600a6009546109119190611916565b505b50565b6009546109119060056118df565b61092c610d9c565b600754600854429161093d916118df565b81101561094957600080fd5b6005546040517fd22b224a0000000000000000000000000000000000000000000000000000000081526001600160a01b039091169063d22b224a906109a2908d908d908d908d908d908d908d908d908d906004016117e4565b602060405180830381600087803b1580156109bc57600080fd5b505af11580156109d0573d6000803e3d6000fd5b505050506040513d601f19601f820116820180604052508101906109f4919061146b565b50600855505050505050505050565b60408051600180825281830190925260609160009190602080830190803683370190505090508381600081518110610a3d57610a3d61198a565b6001600160a01b0392909216602092830291909101909101526040805160018082528183019092526000918160200160208202803683370190505090508381600081518110610a8e57610a8e61198a565b6020026020010181815250508181604051602401610aad92919061170b565b60408051601f198184030181529190526020810180516001600160e01b03167f0f656a21000000000000000000000000000000000000000000000000000000001790529250505092915050565b60608060005b8451811015610b9657816000858381518110610b1e57610b1e61198a565b60200260200101516000888581518110610b3a57610b3a61198a565b602002602001015151898681518110610b5557610b5561198a565b6020026020010151604051602001610b7296959493929190611604565b60405160208183030381529060405291508080610b8e90611959565b915050610b00565b5080604051602401610ba8919061178f565b60408051601f198184030181529190526020810180516001600160e01b03167f8d80ff0a0000000000000000000000000000000000000000000000000000000017905291505092915050565b600254604080517f9a2f747f00000000000000000000000000000000000000000000000000000000815290516000926001600160a01b031691639a2f747f91600480830192602092919082900301818787803b158015610c5357600080fd5b505af1158015610c67573d6000803e3d6000fd5b505050506040513d601f19601f82011682018060405250810190610c8b919061146b565b9050803414610cdc5760405162461bcd60e51b815260206004820152600f60248201527f4d697373696e67207472696275746500000000000000000000000000000000006044820152606401610318565b60006040518060a00160405280607e81526020016119e2607e91396002546040517f3a82ffc80000000000000000000000000000000000000000000000000000000081529192506001600160a01b031690633a82ffc8908490610d4a908790600090819088906004016117a2565b6020604051808303818588803b158015610d6357600080fd5b505af1158015610d77573d6000803e3d6000fd5b50505050506040513d601f19601f82011682018060405250810190610887919061146b565b6003546040516370a0823160e01b81523360048201526000916001600160a01b0316906370a082319060240160206040518083038186803b158015610de057600080fd5b505afa158015610df4573d6000803e3d6000fd5b505050506040513d601f19601f82011682018060405250810190610e18919061146b565b9050600260009054906101000a90046001600160a01b03166001600160a01b0316635cfd6f7e6040518163ffffffff1660e01b8152600401602060405180830381600087803b158015610e6a57600080fd5b505af1158015610e7e573d6000803e3d6000fd5b505050506040513d601f19601f82011682018060405250810190610ea2919061146b565b8110156109135760405162461bcd60e51b815260206004820181905260248201527f596f75206d75737420706f7373657373206d696e696d756d20736861726573216044820152606401610318565b600354604080517f18160ddd00000000000000000000000000000000000000000000000000000000815290516000926001600160a01b0316916318160ddd916004808301926020929190829003018186803b158015610f4f57600080fd5b505afa158015610f63573d6000803e3d6000fd5b505050506040513d601f19601f82011682018060405250810190610f87919061146b565b60408051600180825281830190925291925060009190602080830190803683370190505090503081600081518110610fc157610fc161198a565b6001600160a01b03929092166020928302919091019091015260408051600180825281830190925260009181602001602082028036833701905050905061100a836103e86118f7565b8160008151811061101d5761101d61198a565b60209081029190910101526002546040517fb1e3f40c0000000000000000000000000000000000000000000000000000000081526001600160a01b039091169063b1e3f40c90611073908590859060040161170b565b600060405180830381600087803b15801561108d57600080fd5b505af11580156110a1573d6000803e3d6000fd5b5050505060006110b060015490565b905060015b81811161125d576000818152600b6020526040808220546004805492516370a0823160e01b81526001600160a01b03938416918101919091529116919082906370a082319060240160206040518083038186803b15801561111557600080fd5b505afa158015611129573d6000803e3d6000fd5b505050506040513d601f19601f8201168201806040525081019061114d919061146b565b90508015611248576006546040516001600160a01b0390911660248201526044810182905260009060640160408051601f198184030181529181526020820180516001600160e01b03167fa9059cbb0000000000000000000000000000000000000000000000000000000017905260048054915163468721a760e01b81529293506001600160a01b039091169163468721a7916111f3918791600091879183910161168a565b602060405180830381600087803b15801561120d57600080fd5b505af1158015611221573d6000803e3d6000fd5b505050506040513d601f19601f82011682018060405250810190611245919061144e565b50505b5050808061125590611959565b9150506110b5565b506004805460065460405163468721a760e01b81526001600160a01b039283169363468721a793611296931691853191600091016116cc565b602060405180830381600087803b1580156112b057600080fd5b505af11580156112c4573d6000803e3d6000fd5b505050506040513d601f19601f820116820180604052508101906112e8919061144e565b5050505050565b60008083601f84011261130157600080fd5b50813567ffffffffffffffff81111561131957600080fd5b6020830191508360208260051b850101111561133457600080fd5b9250929050565b60008083601f84011261134d57600080fd5b50813567ffffffffffffffff81111561136557600080fd5b60208301915083602082850101111561133457600080fd5b803563ffffffff8116811461139157600080fd5b919050565b803567ffffffffffffffff8116811461139157600080fd5b6000602082840312156113c057600080fd5b81356113cb816119be565b9392505050565b6000602082840312156113e457600080fd5b81516113cb816119be565b6000806020838503121561140257600080fd5b823567ffffffffffffffff81111561141957600080fd5b611425858286016112ef565b90969095509350505050565b60006020828403121561144357600080fd5b81356113cb816119d3565b60006020828403121561146057600080fd5b81516113cb816119d3565b60006020828403121561147d57600080fd5b5051919050565b600080600080600080600080600060c08a8c0312156114a257600080fd5b893567ffffffffffffffff808211156114ba57600080fd5b6114c68d838e0161133b565b909b50995060208c01359150808211156114df57600080fd5b6114eb8d838e0161133b565b909950975060408c013591506002821061150457600080fd5b90955060608b0135908082111561151a57600080fd5b506115278c828d016112ef565b909550935061153a905060808b01611396565b915061154860a08b0161137d565b90509295985092959850929598565b60008082840360a081121561156b57600080fd5b608081121561157957600080fd5b50829150608083013561158b816119be565b809150509250929050565b6000602082840312156115a857600080fd5b5035919050565b81835281816020850137506000828201602090810191909152601f909101601f19169091010190565b600081518084526115f081602086016020860161192d565b601f01601f19169290920160200192915050565b60008751611616818460208c0161192d565b80830190507fff000000000000000000000000000000000000000000000000000000000000008860f81b1681526bffffffffffffffffffffffff198760601b166001820152856015820152846035820152835161167a81605584016020880161192d565b0160550198975050505050505050565b6001600160a01b03851681528360208201526080604082015260006116b260808301856115d8565b90506116bd836119a0565b82606083015295945050505050565b6001600160a01b03841681528260208201526080604082015260006080820152600060a0820190506116fd836119a0565b826060830152949350505050565b604080825283519082018190526000906020906060840190828701845b8281101561174d5781516001600160a01b031684529284019290840190600101611728565b5050508381038285015284518082528583019183019060005b8181101561178257835183529284019291840191600101611766565b5090979650505050505050565b6020815260006113cb60208301846115d8565b6080815260006117b560808301876115d8565b63ffffffff8616602084015284604084015282810360608401526117d981856115d8565b979650505050505050565b60c0815260006117f860c083018b8d6115af565b60208382038185015261180c828b8d6115af565b9150611817896119a0565b604084018990528382036060850152868252808201600588901b830182018960005b8a8110156118a857858303601f190184528135368d9003601e1901811261185f57600080fd5b8c01803567ffffffffffffffff81111561187857600080fd5b8036038e131561188757600080fd5b61189485828985016115af565b958701959450505090840190600101611839565b505067ffffffffffffffff8816608087015293506118c592505050565b63ffffffff831660a08301529a9950505050505050505050565b600082198211156118f2576118f2611974565b500190565b600081600019048311821515161561191157611911611974565b500290565b60008282101561192857611928611974565b500390565b60005b83811015611948578181015183820152602001611930565b838111156108875750506000910152565b600060001982141561196d5761196d611974565b5060010190565b634e487b7160e01b600052601160045260246000fd5b634e487b7160e01b600052603260045260246000fd5b6002811061091357634e487b7160e01b600052602160045260246000fd5b6001600160a01b038116811461091357600080fd5b801515811461091357600080fdfe7b2270726f706f73616c54797065223a20224144445f5348414d414e222c20227469746c65223a2022526561706572222c20226465736372697074696f6e223a202241737369676e2052656170657220636f6e74726163742061732061204d616e616765722d5368616d616e20616e6420536166652d4d6f64756c65227da2646970667358221220c91de8dbdfe32783a6ebf5ecd0bfd23547d13aff60804df0075df000fe934a2d64736f6c63430008070033",
  "linkReferences": {},
  "deployedLinkReferences": {}
}