{
  "abi": [
    {
      "inputs": [],
      "stateMutability": "nonpayable",
      "type": "constructor"
    },
    {
      "anonymous": false,
      "inputs": [
        {
          "indexed": false,
          "internalType": "uint8",
          "name": "version",
          "type": "uint8"
        }
      ],
      "name": "Initialized",
      "type": "event"
    },
    {
      "inputs": [],
      "name": "avatar",
      "outputs": [
        {
          "internalType": "contract IAvatar",
          "name": "",
          "type": "address"
        }
      ],
      "stateMutability": "view",
      "type": "function"
    },
    {
      "inputs": [],
      "name": "baal",
      "outputs": [
        {
          "internalType": "contract IBaal",
          "name": "",
          "type": "address"
        }
      ],
      "stateMutability": "view",
      "type": "function"
    },
    {
      "inputs": [],
      "name": "chainLinkReturn",
      "outputs": [],
      "stateMutability": "nonpayable",
      "type": "function"
    },
    {
      "inputs": [
        {
          "components": [
            {
              "internalType": "address",
              "name": "baalDao",
              "type": "address"
            },
            {
              "internalType": "address",
              "name": "liquidationAsset",
              "type": "address"
            },
            {
              "internalType": "address",
              "name": "liquidationTarget",
              "type": "address"
            },
            {
              "internalType": "uint256",
              "name": "interval",
              "type": "uint256"
            },
            {
              "internalType": "bool",
              "name": "reputationReaper",
              "type": "bool"
            }
          ],
          "internalType": "struct IInitData.InitData",
          "name": "initData",
          "type": "tuple"
        }
      ],
      "name": "initialize",
      "outputs": [],
      "stateMutability": "nonpayable",
      "type": "function"
    },
    {
      "inputs": [],
      "name": "interval",
      "outputs": [
        {
          "internalType": "uint256",
          "name": "",
          "type": "uint256"
        }
      ],
      "stateMutability": "view",
      "type": "function"
    },
    {
      "inputs": [],
      "name": "lastAnalysis",
      "outputs": [
        {
          "internalType": "uint256",
          "name": "",
          "type": "uint256"
        }
      ],
      "stateMutability": "view",
      "type": "function"
    },
    {
      "inputs": [],
      "name": "liquidationAsset",
      "outputs": [
        {
          "internalType": "contract IERC20",
          "name": "",
          "type": "address"
        }
      ],
      "stateMutability": "view",
      "type": "function"
    },
    {
      "inputs": [],
      "name": "liquidationTarget",
      "outputs": [
        {
          "internalType": "address",
          "name": "",
          "type": "address"
        }
      ],
      "stateMutability": "view",
      "type": "function"
    },
    {
      "inputs": [],
      "name": "pokeReaper",
      "outputs": [],
      "stateMutability": "nonpayable",
      "type": "function"
    },
    {
      "inputs": [],
      "name": "reputationReaper",
      "outputs": [
        {
          "internalType": "bool",
          "name": "",
          "type": "bool"
        }
      ],
      "stateMutability": "view",
      "type": "function"
    },
    {
      "inputs": [],
      "name": "reputationScore",
      "outputs": [
        {
          "internalType": "uint256",
          "name": "",
          "type": "uint256"
        }
      ],
      "stateMutability": "view",
      "type": "function"
    },
    {
      "inputs": [],
      "name": "sharesToken",
      "outputs": [
        {
          "internalType": "contract IERC20",
          "name": "",
          "type": "address"
        }
      ],
      "stateMutability": "view",
      "type": "function"
    }
  ],
  "bytecode": {
    "object": "0x608060405234801561001057600080fd5b5061001961001e565b6100de565b600054610100900460ff161561008a5760405162461bcd60e51b815260206004820152602760248201527f496e697469616c697a61626c653a20636f6e747261637420697320696e697469604482015266616c697a696e6760c81b606482015260840160405180910390fd5b60005460ff90811610156100dc576000805460ff191660ff9081179091556040519081527f7f26b83ff96e1f2b6a682f133852f6798a09c465da95921460cefb38474024989060200160405180910390a15b565b6110fd806100ed6000396000f3fe608060405234801561001057600080fd5b50600436106100b45760003560e01c80639c0fd1d1116100715780639c0fd1d11461014c5780639fc073e014610155578063a7764c7414610168578063c84acf581461017b578063e5a2a2a51461017d578063f521a6c91461019657600080fd5b80630ef52b46146100b957806344662349146100db5780635aef7de61461010657806360a7fc1f146101195780638009ba1f14610130578063947a36fb14610143575b600080fd5b6007546100c69060ff1681565b60405190151581526020015b60405180910390f35b6003546100ee906001600160a01b031681565b6040516001600160a01b0390911681526020016100d2565b6002546100ee906001600160a01b031681565b61012260085481565b6040519081526020016100d2565b6001546100ee906001600160a01b031681565b61012260055481565b61012260065481565b6004546100ee906001600160a01b031681565b61017b610176366004610d58565b61019e565b005b6000546100ee906201000090046001600160a01b031681565b61017b610601565b600054610100900460ff16158080156101be5750600054600160ff909116105b806101d85750303b1580156101d8575060005460ff166001145b6102405760405162461bcd60e51b815260206004820152602e60248201527f496e697469616c697a61626c653a20636f6e747261637420697320616c72656160448201526d191e481a5b9a5d1a585b1a5e995960921b60648201526084015b60405180910390fd5b6000805460ff191660011790558015610263576000805461ff0019166101001790555b6102706020830183610d85565b600060026101000a8154816001600160a01b0302191690836001600160a01b03160217905550600060029054906101000a90046001600160a01b03166001600160a01b0316638009ba1f6040518163ffffffff1660e01b81526004016020604051808303816000875af11580156102eb573d6000803e3d6000fd5b505050506040513d601f19601f8201168201806040525081019061030f9190610da9565b600160006101000a8154816001600160a01b0302191690836001600160a01b03160217905550600060029054906101000a90046001600160a01b03166001600160a01b0316635aef7de66040518163ffffffff1660e01b81526004016020604051808303816000875af115801561038a573d6000803e3d6000fd5b505050506040513d601f19601f820116820180604052508101906103ae9190610da9565b600280546001600160a01b0319166001600160a01b03929092169190911790556103de6040830160208401610d85565b600380546001600160a01b0319166001600160a01b039290921691909117905561040e6060830160408401610d85565b600480546001600160a01b0319166001600160a01b039290921691909117905560608281013560055542600655610487306040516001600160a01b038216602482015260609060440160408051601f198184030181529190526020810180516001600160e01b031663610b592560e01b17905292915050565b90506060610496306002610633565b6040805160028082526060820190925291925060009190816020015b60608152602001906001900390816104b257905050905081816000815181106104dd576104dd610dc6565b602002602001018190525082816001815181106104fc576104fc610dc6565b60209081029190910101526040805160028082526060820190925260009181602001602082028036833750506000805483519394506201000090046001600160a01b03169284925061055057610550610dc6565b6001600160a01b03928316602091820292909201015260025482519116908290600190811061058157610581610dc6565b60200260200101906001600160a01b031690816001600160a01b0316815250506105b36105ae8383610712565b6107f3565b5050505080156105fd576000805461ff0019169055604051600181527f7f26b83ff96e1f2b6a682f133852f6798a09c465da95921460cefb38474024989060200160405180910390a15b5050565b610609610952565b600554600654429161061a91610df2565b81101561062657600080fd5b61062e610a8c565b600655565b6040805160018082528183019092526060916000919060208083019080368337019050509050838160008151811061066d5761066d610dc6565b6001600160a01b03929092166020928302919091019091015260408051600180825281830190925260009181602001602082028036833701905050905083816000815181106106be576106be610dc6565b60200260200101818152505081816040516024016106dd929190610e05565b60408051601f198184030181529190526020810180516001600160e01b0316630f656a2160e01b179052925050505b92915050565b60608060005b84518110156107ae5781600085838151811061073657610736610dc6565b6020026020010151600088858151811061075257610752610dc6565b60200260200101515189868151811061076d5761076d610dc6565b602002602001015160405160200161078a96959493929190610ead565b604051602081830303815290604052915080806107a690610f17565b915050610718565b50806040516024016107c09190610f5c565b60408051601f198184030181529190526020810180516001600160e01b03166346c07f8560e11b17905291505092915050565b60008060029054906101000a90046001600160a01b03166001600160a01b0316639a2f747f6040518163ffffffff1660e01b81526004016020604051808303816000875af1158015610849573d6000803e3d6000fd5b505050506040513d601f19601f8201168201806040525081019061086d9190610f6f565b90508034146108b05760405162461bcd60e51b815260206004820152600f60248201526e4d697373696e67207472696275746560881b6044820152606401610237565b60006040518060a00160405280606e815260200161105a606e9139600080546040516307505ff960e31b81529293506201000090046001600160a01b031691633a82ffc891859161090991889181908890600401610f88565b60206040518083038185885af1158015610927573d6000803e3d6000fd5b50505050506040513d601f19601f8201168201806040525081019061094c9190610f6f565b50505050565b6001546040516370a0823160e01b81523360048201526000916001600160a01b0316906370a0823190602401602060405180830381865afa15801561099b573d6000803e3d6000fd5b505050506040513d601f19601f820116820180604052508101906109bf9190610f6f565b9050600060029054906101000a90046001600160a01b03166001600160a01b0316635cfd6f7e6040518163ffffffff1660e01b81526004016020604051808303816000875af1158015610a16573d6000803e3d6000fd5b505050506040513d601f19601f82011682018060405250810190610a3a9190610f6f565b811015610a895760405162461bcd60e51b815260206004820181905260248201527f596f75206d75737420706f7373657373206d696e696d756d20736861726573216044820152606401610237565b50565b600154604080516318160ddd60e01b815290516000926001600160a01b0316916318160ddd9160048083019260209291908290030181865afa158015610ad6573d6000803e3d6000fd5b505050506040513d601f19601f82011682018060405250810190610afa9190610f6f565b60408051600180825281830190925291925060009190602080830190803683370190505090503081600081518110610b3457610b34610dc6565b6001600160a01b039290921660209283029190910190910152604080516001808252818301909252600091816020016020820280368337019050509050610b87836b033b2e3c9fd0803ce8000000610fca565b81600081518110610b9a57610b9a610dc6565b6020908102919091010152600054604051632c78fd0360e21b8152620100009091046001600160a01b03169063b1e3f40c90610bdc9085908590600401610e05565b600060405180830381600087803b158015610bf657600080fd5b505af1158015610c0a573d6000803e3d6000fd5b50506003546002546040516370a0823160e01b81526001600160a01b03918216600482015260009450911691506370a0823190602401602060405180830381865afa158015610c5d573d6000803e3d6000fd5b505050506040513d601f19601f82011682018060405250810190610c819190610f6f565b6004546040516001600160a01b0390911660248201526044810182905290915060009060640160408051601f198184030181529181526020820180516001600160e01b031663a9059cbb60e01b179052600254600354915163468721a760e01b81529293506001600160a01b039081169263468721a792610d0d92169060009086908290600401610fe1565b6020604051808303816000875af1158015610d2c573d6000803e3d6000fd5b505050506040513d601f19601f82011682018060405250810190610d509190611037565b505050505050565b600060a08284031215610d6a57600080fd5b50919050565b6001600160a01b0381168114610a8957600080fd5b600060208284031215610d9757600080fd5b8135610da281610d70565b9392505050565b600060208284031215610dbb57600080fd5b8151610da281610d70565b634e487b7160e01b600052603260045260246000fd5b634e487b7160e01b600052601160045260246000fd5b8082018082111561070c5761070c610ddc565b604080825283519082018190526000906020906060840190828701845b82811015610e475781516001600160a01b031684529284019290840190600101610e22565b5050508381038285015284518082528583019183019060005b81811015610e7c57835183529284019291840191600101610e60565b5090979650505050505050565b60005b83811015610ea4578181015183820152602001610e8c565b50506000910152565b60008751610ebf818460208c01610e89565b808301905060ff60f81b8860f81b1681526bffffffffffffffffffffffff198760601b1660018201528560158201528460358201528351610f07816055840160208801610e89565b0160550198975050505050505050565b600060018201610f2957610f29610ddc565b5060010190565b60008151808452610f48816020860160208601610e89565b601f01601f19169290920160200192915050565b602081526000610da26020830184610f30565b600060208284031215610f8157600080fd5b5051919050565b608081526000610f9b6080830187610f30565b63ffffffff861660208401528460408401528281036060840152610fbf8185610f30565b979650505050505050565b808202811582820484141761070c5761070c610ddc565b60018060a01b03851681528360208201526080604082015260006110086080830185610f30565b90506002831061102857634e487b7160e01b600052602160045260246000fd5b82606083015295945050505050565b60006020828403121561104957600080fd5b81518015158114610da257600080fdfe7b2270726f706f73616c54797065223a20224144445f5348414d414e222c20227469746c65223a2022526561706572222c20226465736372697074696f6e223a202241737369676e2052656170657220636f6e74726163742061732061204d616e616765722d5368616d616e227da26469706673582212200eee9898ae0a8a8da9d7638655a443d9ebb29e98c089ece90b0c9b19832df56c64736f6c63430008110033",
    "linkReferences": {}
  },
  "methodIdentifiers": {
    "avatar()": "5aef7de6",
    "baal()": "e5a2a2a5",
    "chainLinkReturn()": "c84acf58",
    "initialize((address,address,address,uint256,bool))": "a7764c74",
    "interval()": "947a36fb",
    "lastAnalysis()": "9c0fd1d1",
    "liquidationAsset()": "44662349",
    "liquidationTarget()": "9fc073e0",
    "pokeReaper()": "f521a6c9",
    "reputationReaper()": "0ef52b46",
    "reputationScore()": "60a7fc1f",
    "sharesToken()": "8009ba1f"
  },
  "id": 0
}