{
  "abi": [
    {
      "inputs": [],
      "name": "AlreadySet",
      "type": "error"
    },
    {
      "inputs": [],
      "name": "CannotSelfTransfer",
      "type": "error"
    },
    {
      "inputs": [],
      "name": "EmptyBillingRegistry",
      "type": "error"
    },
    {
      "inputs": [],
      "name": "EmptyPublicKey",
      "type": "error"
    },
    {
      "inputs": [],
      "name": "EmptyRequestData",
      "type": "error"
    },
    {
      "inputs": [],
      "name": "EmptySendersList",
      "type": "error"
    },
    {
      "inputs": [],
      "name": "InconsistentReportData",
      "type": "error"
    },
    {
      "inputs": [],
      "name": "InvalidRequestID",
      "type": "error"
    },
    {
      "inputs": [],
      "name": "NotAllowedToSetSenders",
      "type": "error"
    },
    {
      "inputs": [],
      "name": "NotProposedOwner",
      "type": "error"
    },
    {
      "inputs": [],
      "name": "OnlyCallableByOwner",
      "type": "error"
    },
    {
      "inputs": [],
      "name": "OwnerMustBeSet",
      "type": "error"
    },
    {
      "inputs": [],
      "name": "ReportInvalid",
      "type": "error"
    },
    {
      "inputs": [],
      "name": "UnauthorizedPublicKeyChange",
      "type": "error"
    },
    {
      "inputs": [],
      "name": "UnauthorizedSender",
      "type": "error"
    },
    {
      "anonymous": false,
      "inputs": [
        {
          "indexed": false,
          "internalType": "address",
          "name": "account",
          "type": "address"
        }
      ],
      "name": "AuthorizedSendersActive",
      "type": "event"
    },
    {
      "anonymous": false,
      "inputs": [
        {
          "indexed": false,
          "internalType": "address[]",
          "name": "senders",
          "type": "address[]"
        },
        {
          "indexed": false,
          "internalType": "address",
          "name": "changedBy",
          "type": "address"
        }
      ],
      "name": "AuthorizedSendersChanged",
      "type": "event"
    },
    {
      "anonymous": false,
      "inputs": [
        {
          "indexed": false,
          "internalType": "address",
          "name": "account",
          "type": "address"
        }
      ],
      "name": "AuthorizedSendersDeactive",
      "type": "event"
    },
    {
      "anonymous": false,
      "inputs": [
        {
          "indexed": false,
          "internalType": "uint32",
          "name": "previousConfigBlockNumber",
          "type": "uint32"
        },
        {
          "indexed": false,
          "internalType": "bytes32",
          "name": "configDigest",
          "type": "bytes32"
        },
        {
          "indexed": false,
          "internalType": "uint64",
          "name": "configCount",
          "type": "uint64"
        },
        {
          "indexed": false,
          "internalType": "address[]",
          "name": "signers",
          "type": "address[]"
        },
        {
          "indexed": false,
          "internalType": "address[]",
          "name": "transmitters",
          "type": "address[]"
        },
        {
          "indexed": false,
          "internalType": "uint8",
          "name": "f",
          "type": "uint8"
        },
        {
          "indexed": false,
          "internalType": "bytes",
          "name": "onchainConfig",
          "type": "bytes"
        },
        {
          "indexed": false,
          "internalType": "uint64",
          "name": "offchainConfigVersion",
          "type": "uint64"
        },
        {
          "indexed": false,
          "internalType": "bytes",
          "name": "offchainConfig",
          "type": "bytes"
        }
      ],
      "name": "ConfigSet",
      "type": "event"
    },
    {
      "anonymous": false,
      "inputs": [
        {
          "indexed": false,
          "internalType": "uint8",
          "name": "version",
          "type": "uint8"
        }
      ],
      "name": "Initialized",
      "type": "event"
    },
    {
      "anonymous": false,
      "inputs": [
        {
          "indexed": true,
          "internalType": "bytes32",
          "name": "requestId",
          "type": "bytes32"
        },
        {
          "indexed": false,
          "internalType": "address",
          "name": "requestingContract",
          "type": "address"
        },
        {
          "indexed": false,
          "internalType": "address",
          "name": "requestInitiator",
          "type": "address"
        },
        {
          "indexed": false,
          "internalType": "uint64",
          "name": "subscriptionId",
          "type": "uint64"
        },
        {
          "indexed": false,
          "internalType": "address",
          "name": "subscriptionOwner",
          "type": "address"
        },
        {
          "indexed": false,
          "internalType": "bytes",
          "name": "data",
          "type": "bytes"
        }
      ],
      "name": "OracleRequest",
      "type": "event"
    },
    {
      "anonymous": false,
      "inputs": [
        {
          "indexed": true,
          "internalType": "bytes32",
          "name": "requestId",
          "type": "bytes32"
        }
      ],
      "name": "OracleResponse",
      "type": "event"
    },
    {
      "anonymous": false,
      "inputs": [
        {
          "indexed": true,
          "internalType": "address",
          "name": "from",
          "type": "address"
        },
        {
          "indexed": true,
          "internalType": "address",
          "name": "to",
          "type": "address"
        }
      ],
      "name": "OwnershipTransferRequested",
      "type": "event"
    },
    {
      "anonymous": false,
      "inputs": [
        {
          "indexed": true,
          "internalType": "address",
          "name": "from",
          "type": "address"
        },
        {
          "indexed": true,
          "internalType": "address",
          "name": "to",
          "type": "address"
        }
      ],
      "name": "OwnershipTransferred",
      "type": "event"
    },
    {
      "anonymous": false,
      "inputs": [
        {
          "indexed": false,
          "internalType": "bytes32",
          "name": "configDigest",
          "type": "bytes32"
        },
        {
          "indexed": false,
          "internalType": "uint32",
          "name": "epoch",
          "type": "uint32"
        }
      ],
      "name": "Transmitted",
      "type": "event"
    },
    {
      "anonymous": false,
      "inputs": [
        {
          "indexed": true,
          "internalType": "bytes32",
          "name": "requestId",
          "type": "bytes32"
        },
        {
          "indexed": false,
          "internalType": "string",
          "name": "reason",
          "type": "string"
        }
      ],
      "name": "UserCallbackError",
      "type": "event"
    },
    {
      "anonymous": false,
      "inputs": [
        {
          "indexed": true,
          "internalType": "bytes32",
          "name": "requestId",
          "type": "bytes32"
        },
        {
          "indexed": false,
          "internalType": "bytes",
          "name": "lowLevelData",
          "type": "bytes"
        }
      ],
      "name": "UserCallbackRawError",
      "type": "event"
    },
    {
      "inputs": [],
      "name": "acceptOwnership",
      "outputs": [],
      "stateMutability": "nonpayable",
      "type": "function"
    },
    {
      "inputs": [],
      "name": "activateAuthorizedReceiver",
      "outputs": [],
      "stateMutability": "nonpayable",
      "type": "function"
    },
    {
      "inputs": [
        {
          "internalType": "address[]",
          "name": "senders",
          "type": "address[]"
        }
      ],
      "name": "addAuthorizedSenders",
      "outputs": [],
      "stateMutability": "nonpayable",
      "type": "function"
    },
    {
      "inputs": [],
      "name": "authorizedReceiverActive",
      "outputs": [
        {
          "internalType": "bool",
          "name": "",
          "type": "bool"
        }
      ],
      "stateMutability": "view",
      "type": "function"
    },
    {
      "inputs": [],
      "name": "deactivateAuthorizedReceiver",
      "outputs": [],
      "stateMutability": "nonpayable",
      "type": "function"
    },
    {
      "inputs": [
        {
          "internalType": "address",
          "name": "node",
          "type": "address"
        }
      ],
      "name": "deleteNodePublicKey",
      "outputs": [],
      "stateMutability": "nonpayable",
      "type": "function"
    },
    {
      "inputs": [
        {
          "internalType": "uint64",
          "name": "subscriptionId",
          "type": "uint64"
        },
        {
          "internalType": "bytes",
          "name": "data",
          "type": "bytes"
        },
        {
          "internalType": "uint32",
          "name": "gasLimit",
          "type": "uint32"
        },
        {
          "internalType": "uint256",
          "name": "gasPrice",
          "type": "uint256"
        }
      ],
      "name": "estimateCost",
      "outputs": [
        {
          "internalType": "uint96",
          "name": "",
          "type": "uint96"
        }
      ],
      "stateMutability": "view",
      "type": "function"
    },
    {
      "inputs": [],
      "name": "getAllNodePublicKeys",
      "outputs": [
        {
          "internalType": "address[]",
          "name": "",
          "type": "address[]"
        },
        {
          "internalType": "bytes[]",
          "name": "",
          "type": "bytes[]"
        }
      ],
      "stateMutability": "view",
      "type": "function"
    },
    {
      "inputs": [],
      "name": "getAuthorizedSenders",
      "outputs": [
        {
          "internalType": "address[]",
          "name": "",
          "type": "address[]"
        }
      ],
      "stateMutability": "view",
      "type": "function"
    },
    {
      "inputs": [],
      "name": "getDONPublicKey",
      "outputs": [
        {
          "internalType": "bytes",
          "name": "",
          "type": "bytes"
        }
      ],
      "stateMutability": "view",
      "type": "function"
    },
    {
      "inputs": [],
      "name": "getRegistry",
      "outputs": [
        {
          "internalType": "address",
          "name": "",
          "type": "address"
        }
      ],
      "stateMutability": "view",
      "type": "function"
    },
    {
      "inputs": [
        {
          "internalType": "bytes",
          "name": "",
          "type": "bytes"
        },
        {
          "components": [
            {
              "internalType": "uint64",
              "name": "subscriptionId",
              "type": "uint64"
            },
            {
              "internalType": "address",
              "name": "client",
              "type": "address"
            },
            {
              "internalType": "uint32",
              "name": "gasLimit",
              "type": "uint32"
            },
            {
              "internalType": "uint256",
              "name": "gasPrice",
              "type": "uint256"
            }
          ],
          "internalType": "struct FunctionsBillingRegistryInterface.RequestBilling",
          "name": "",
          "type": "tuple"
        }
      ],
      "name": "getRequiredFee",
      "outputs": [
        {
          "internalType": "uint96",
          "name": "",
          "type": "uint96"
        }
      ],
      "stateMutability": "pure",
      "type": "function"
    },
    {
      "inputs": [],
      "name": "initialize",
      "outputs": [],
      "stateMutability": "nonpayable",
      "type": "function"
    },
    {
      "inputs": [
        {
          "internalType": "address",
          "name": "sender",
          "type": "address"
        }
      ],
      "name": "isAuthorizedSender",
      "outputs": [
        {
          "internalType": "bool",
          "name": "",
          "type": "bool"
        }
      ],
      "stateMutability": "view",
      "type": "function"
    },
    {
      "inputs": [],
      "name": "latestConfigDetails",
      "outputs": [
        {
          "internalType": "uint32",
          "name": "configCount",
          "type": "uint32"
        },
        {
          "internalType": "uint32",
          "name": "blockNumber",
          "type": "uint32"
        },
        {
          "internalType": "bytes32",
          "name": "configDigest",
          "type": "bytes32"
        }
      ],
      "stateMutability": "view",
      "type": "function"
    },
    {
      "inputs": [],
      "name": "latestConfigDigestAndEpoch",
      "outputs": [
        {
          "internalType": "bool",
          "name": "scanLogs",
          "type": "bool"
        },
        {
          "internalType": "bytes32",
          "name": "configDigest",
          "type": "bytes32"
        },
        {
          "internalType": "uint32",
          "name": "epoch",
          "type": "uint32"
        }
      ],
      "stateMutability": "view",
      "type": "function"
    },
    {
      "inputs": [],
      "name": "owner",
      "outputs": [
        {
          "internalType": "address",
          "name": "",
          "type": "address"
        }
      ],
      "stateMutability": "view",
      "type": "function"
    },
    {
      "inputs": [
        {
          "internalType": "address[]",
          "name": "senders",
          "type": "address[]"
        }
      ],
      "name": "removeAuthorizedSenders",
      "outputs": [],
      "stateMutability": "nonpayable",
      "type": "function"
    },
    {
      "inputs": [
        {
          "internalType": "uint64",
          "name": "subscriptionId",
          "type": "uint64"
        },
        {
          "internalType": "bytes",
          "name": "data",
          "type": "bytes"
        },
        {
          "internalType": "uint32",
          "name": "gasLimit",
          "type": "uint32"
        }
      ],
      "name": "sendRequest",
      "outputs": [
        {
          "internalType": "bytes32",
          "name": "",
          "type": "bytes32"
        }
      ],
      "stateMutability": "nonpayable",
      "type": "function"
    },
    {
      "inputs": [
        {
          "internalType": "address[]",
          "name": "_signers",
          "type": "address[]"
        },
        {
          "internalType": "address[]",
          "name": "_transmitters",
          "type": "address[]"
        },
        {
          "internalType": "uint8",
          "name": "_f",
          "type": "uint8"
        },
        {
          "internalType": "bytes",
          "name": "_onchainConfig",
          "type": "bytes"
        },
        {
          "internalType": "uint64",
          "name": "_offchainConfigVersion",
          "type": "uint64"
        },
        {
          "internalType": "bytes",
          "name": "_offchainConfig",
          "type": "bytes"
        }
      ],
      "name": "setConfig",
      "outputs": [],
      "stateMutability": "nonpayable",
      "type": "function"
    },
    {
      "inputs": [
        {
          "internalType": "bytes",
          "name": "donPublicKey",
          "type": "bytes"
        }
      ],
      "name": "setDONPublicKey",
      "outputs": [],
      "stateMutability": "nonpayable",
      "type": "function"
    },
    {
      "inputs": [
        {
          "internalType": "address",
          "name": "node",
          "type": "address"
        },
        {
          "internalType": "bytes",
          "name": "publicKey",
          "type": "bytes"
        }
      ],
      "name": "setNodePublicKey",
      "outputs": [],
      "stateMutability": "nonpayable",
      "type": "function"
    },
    {
      "inputs": [
        {
          "internalType": "address",
          "name": "registryAddress",
          "type": "address"
        }
      ],
      "name": "setRegistry",
      "outputs": [],
      "stateMutability": "nonpayable",
      "type": "function"
    },
    {
      "inputs": [
        {
          "internalType": "address",
          "name": "to",
          "type": "address"
        }
      ],
      "name": "transferOwnership",
      "outputs": [],
      "stateMutability": "nonpayable",
      "type": "function"
    },
    {
      "inputs": [
        {
          "internalType": "bytes32[3]",
          "name": "reportContext",
          "type": "bytes32[3]"
        },
        {
          "internalType": "bytes",
          "name": "report",
          "type": "bytes"
        },
        {
          "internalType": "bytes32[]",
          "name": "rs",
          "type": "bytes32[]"
        },
        {
          "internalType": "bytes32[]",
          "name": "ss",
          "type": "bytes32[]"
        },
        {
          "internalType": "bytes32",
          "name": "rawVs",
          "type": "bytes32"
        }
      ],
      "name": "transmit",
      "outputs": [],
      "stateMutability": "nonpayable",
      "type": "function"
    },
    {
      "inputs": [],
      "name": "transmitters",
      "outputs": [
        {
          "internalType": "address[]",
          "name": "",
          "type": "address[]"
        }
      ],
      "stateMutability": "view",
      "type": "function"
    },
    {
      "inputs": [],
      "name": "typeAndVersion",
      "outputs": [
        {
          "internalType": "string",
          "name": "",
          "type": "string"
        }
      ],
      "stateMutability": "pure",
      "type": "function"
    }
  ],
  "bytecode": {
    "object": "0x608060405234801561001057600080fd5b5061379a806100206000396000f3fe608060405234801561001057600080fd5b50600436106101a95760003560e01c80638129fc1c116100f9578063b1dc65a411610097578063e3d0e71211610071578063e3d0e712146103c2578063f1e14a21146103d5578063f2fde38b146103ec578063fa00763a146103ff57600080fd5b8063b1dc65a41461037c578063d227d2451461038f578063d328a91e146103ba57600080fd5b80638da5cb5b116100d35780638da5cb5b1461032a57806391bb64eb14610341578063a91ee0dc14610349578063afcb95d71461035c57600080fd5b80638129fc1c146102ea57806381411834146102f257806381ff7048146102fa57600080fd5b80634b4fa0c1116101665780635ab1bd53116101405780635ab1bd531461029757806379ba5097146102bc5780637f15e166146102c457806380756031146102d757600080fd5b80634b4fa0c1146102575780634dcef4041461026e578063533989871461028157600080fd5b806303e1bf23146101ae578063110254c8146101c3578063181f5a77146101cb5780632408afaa1461020e57806326ceabac1461022357806328242b0414610236575b600080fd5b6101c16101bc366004612822565b610412565b005b6101c1610633565b604080518082019091526015815274046756e6374696f6e734f7261636c6520302e302e3605c1b60208201525b60405161020591906128a9565b60405180910390f35b6102166106cb565b6040516102059190612900565b6101c1610231366004612928565b61072d565b6102496102443660046129b6565b6107a7565b604051908152602001610205565b60085460ff165b6040519015158152602001610205565b6101c161027c366004612822565b610966565b610289610a6f565b604051610205929190612a1a565b600d546001600160a01b03165b6040516001600160a01b039091168152602001610205565b6101c1610c3a565b6101c16102d2366004612a8c565b610ccc565b6101c16102e5366004612ac1565b610d08565b6101c1610d97565b610216610eb8565b6004546002546040805163ffffffff80851682526401000000009094049093166020840152820152606001610205565b6000546201000090046001600160a01b03166102a4565b6101c1610f18565b6101c1610357366004612928565b610fa6565b604080516001815260006020820181905291810191909152606001610205565b6101c161038a366004612b15565b610ff7565b6103a261039d366004612bcb565b6115df565b6040516001600160601b039091168152602001610205565b6101f8611750565b6101c16103d0366004612d94565b6117d9565b6103a26103e3366004612e60565b60009392505050565b6101c16103fa366004612928565b611efd565b61025e61040d366004612928565b611f0e565b6000546201000090046001600160a01b031633146104435760405163ad77f06160e01b815260040160405180910390fd5b6000819003610465576040516375158c3b60e01b815260040160405180910390fd5b60005b818110156105f35760006104a484848481811061048757610487612f1c565b905060200201602081019061049c9190612928565b600990611f39565b905080156105e05760005b600b548110156105de578484848181106104cb576104cb612f1c565b90506020020160208101906104e09190612928565b6001600160a01b0316600b82815481106104fc576104fc612f1c565b6000918252602090912001546001600160a01b0316036105cc57600b80546000919061052a90600190612f48565b8154811061053a5761053a612f1c565b600091825260209091200154600b80546001600160a01b03909216925082918690811061056957610569612f1c565b9060005260206000200160006101000a8154816001600160a01b0302191690836001600160a01b03160217905550600b8054806105a8576105a8612f5b565b600082815260209020810160001990810180546001600160a01b0319169055019055505b806105d681612f71565b9150506104af565b505b50806105eb81612f71565b915050610468565b507ff263cfb3e4298332e776194610cf9fdc09ccb3ada8b9aa39764d882e11fbf0a082823360405161062793929190612f8a565b60405180910390a15050565b6000546201000090046001600160a01b031633146106645760405163ad77f06160e01b815260040160405180910390fd5b60085460ff16156106885760405163a741a04560e01b815260040160405180910390fd5b6008805460ff191660011790556040513381527fae51766a982895b0c444fc99fc1a560762b464d709e6c78376c85617f7eeb5ce906020015b60405180910390a1565b6060600b80548060200260200160405190810160405280929190818152602001828054801561072357602002820191906000526020600020905b81546001600160a01b03168152600190910190602001808311610705575b5050505050905090565b6000546201000090046001600160a01b03166001600160a01b0316336001600160a01b031614806107665750336001600160a01b038216145b6107835760405163ed6dd19b60e01b815260040160405180910390fd5b6001600160a01b0381166000908152600e602052604081206107a491612765565b50565b600d546000906001600160a01b03166107d357604051632717f8c960e21b815260040160405180910390fd5b6107db611f55565b60008390036107fc576040516203073f60e61b815260040160405180910390fd5b600d54604080516080810182526001600160401b038816815233602082015263ffffffff8516818301523a6060820152905163a9d03c0560e01b81526000926001600160a01b03169163a9d03c059161085c918991899190600401613016565b6020604051808303816000875af115801561087b573d6000803e3d6000fd5b505050506040513d601f19601f8201168201806040525081019061089f9190613070565b600d5460405163b2a489ff60e01b81526001600160401b038916600482015291925082917fa1ec73989d79578cd6f67d4f593ac3e0a4d1020e5c0164db52108d7ff785406c91339132918b916001600160a01b039091169063b2a489ff90602401602060405180830381865afa15801561091d573d6000803e3d6000fd5b505050506040513d601f19601f820116820180604052508101906109419190613089565b8a8a604051610955969594939291906130a6565b60405180910390a295945050505050565b6000546201000090046001600160a01b031633146109975760405163ad77f06160e01b815260040160405180910390fd5b60008190036109b9576040516375158c3b60e01b815260040160405180910390fd5b60005b818110156105f35760006109f88484848181106109db576109db612f1c565b90506020020160208101906109f09190612928565b600990611f7d565b90508015610a5c57600b848484818110610a1457610a14612f1c565b9050602002016020810190610a299190612928565b81546001810183556000928352602090922090910180546001600160a01b0319166001600160a01b039092169190911790555b5080610a6781612f71565b9150506109bc565b6060806000306001600160a01b031663814118346040518163ffffffff1660e01b8152600401600060405180830381865afa158015610ab2573d6000803e3d6000fd5b505050506040513d6000823e601f3d908101601f19168201604052610ada91908101906130f6565b9050600081516001600160401b03811115610af757610af7612c37565b604051908082528060200260200182016040528015610b2a57816020015b6060815260200190600190039081610b155790505b50905060005b8251811015610c3057600e6000848381518110610b4f57610b4f612f1c565b60200260200101516001600160a01b03166001600160a01b031681526020019081526020016000208054610b829061318f565b80601f0160208091040260200160405190810160405280929190818152602001828054610bae9061318f565b8015610bfb5780601f10610bd057610100808354040283529160200191610bfb565b820191906000526020600020905b815481529060010190602001808311610bde57829003601f168201915b5050505050828281518110610c1257610c12612f1c565b60200260200101819052508080610c2890612f71565b915050610b30565b5090939092509050565b6001546001600160a01b03163314610c6557604051630f22ca5f60e01b815260040160405180910390fd5b60008054336201000081810262010000600160b01b03198416178455600180546001600160a01b03191690556040516001600160a01b03919093041692909183917f8be0079c531659141344cd1fd0a4f28419497f9722a3daafe3b4186f6b6457e091a350565b610cd4611f92565b6000819003610cf657604051634f42be3d60e01b815260040160405180910390fd5b600c610d03828483613217565b505050565b6000546201000090046001600160a01b03166001600160a01b0316336001600160a01b03161480610d515750610d3d33611fc3565b8015610d515750336001600160a01b038416145b610d6e5760405163ed6dd19b60e01b815260040160405180910390fd5b6001600160a01b0383166000908152600e60205260409020610d91828483613217565b50505050565b600054610100900460ff1615808015610db75750600054600160ff909116105b80610dd15750303b158015610dd1575060005460ff166001145b610e395760405162461bcd60e51b815260206004820152602e60248201527f496e697469616c697a61626c653a20636f6e747261637420697320616c72656160448201526d191e481a5b9a5d1a585b1a5e995960921b60648201526084015b60405180910390fd5b6000805460ff191660011790558015610e5c576000805461ff0019166101001790555b610e666001612092565b610e7060016120e2565b80156107a4576000805461ff0019169055604051600181527f7f26b83ff96e1f2b6a682f133852f6798a09c465da95921460cefb38474024989060200160405180910390a150565b60606007805480602002602001604051908101604052809291908181526020018280548015610723576020028201919060005260206000209081546001600160a01b03168152600190910190602001808311610705575050505050905090565b6000546201000090046001600160a01b03163314610f495760405163ad77f06160e01b815260040160405180910390fd5b60085460ff16610f6c5760405163a741a04560e01b815260040160405180910390fd5b6008805460ff191690556040513381527fea3828816a323b8d7ff49d755efd105e7719166d6c76fad97a28eee5eccc3d9a906020016106c1565b610fae611f92565b6001600160a01b038116610fd557604051632717f8c960e21b815260040160405180910390fd5b600d80546001600160a01b0319166001600160a01b0392909216919091179055565b60005a604080516020601f8b018190048102820181019092528981529192508a3591818c01359161104d91849163ffffffff851691908e908e908190840183828082843760009201919091525061211c92505050565b61106a5760405163017c6c6560e31b815260040160405180910390fd5b6040805183815262ffffff600884901c1660208201527fb04e63db38c49950639fa09d29872f21f5d49d614f3a969d8adf3d4b52e41a62910160405180910390a16040805160608101825260025480825260035460ff8082166020850152610100909104169282019290925290831461111d5760405162461bcd60e51b81526020600482015260156024820152740c6dedcccd2ce88d2cecae6e840dad2e6dac2e8c6d605b1b6044820152606401610e30565b61112b8b8b8b8b8b8b612125565b600154600090600160a01b900460ff16156111755760028260200151836040015161115691906132d7565b6111609190613306565b61116b9060016132d7565b60ff16905061118b565b60208201516111859060016132d7565b60ff1690505b8881146111da5760405162461bcd60e51b815260206004820152601a60248201527f77726f6e67206e756d626572206f66207369676e6174757265730000000000006044820152606401610e30565b8887146112295760405162461bcd60e51b815260206004820152601e60248201527f7369676e617475726573206f7574206f6620726567697374726174696f6e00006044820152606401610e30565b3360009081526005602090815260408083208151808301909252805460ff8082168452929391929184019161010090910416600281111561126c5761126c613328565b600281111561127d5761127d613328565b905250905060028160200151600281111561129a5761129a613328565b1480156112d457506007816000015160ff16815481106112bc576112bc612f1c565b6000918252602090912001546001600160a01b031633145b6113205760405162461bcd60e51b815260206004820152601860248201527f756e617574686f72697a6564207472616e736d697474657200000000000000006044820152606401610e30565b505050505061132d61279f565b6000808a8a60405161134092919061333e565b604051908190038120611357918e9060200161334e565b60408051601f198184030181528282528051602091820120838301909252600080845290830152915060005b898110156115c15760006001848984602081106113a2576113a2612f1c565b6113af91901a601b6132d7565b8e8e868181106113c1576113c1612f1c565b905060200201358d8d878181106113da576113da612f1c565b9050602002013560405160008152602001604052604051611417949392919093845260ff9290921660208401526040830152606082015260800190565b6020604051602081039080840390855afa158015611439573d6000803e3d6000fd5b505060408051601f198101516001600160a01b03811660009081526005602090815290849020838501909452835460ff8082168552929650929450840191610100900416600281111561148e5761148e613328565b600281111561149f5761149f613328565b90525092506001836020015160028111156114bc576114bc613328565b146115095760405162461bcd60e51b815260206004820152601e60248201527f61646472657373206e6f7420617574686f72697a656420746f207369676e00006044820152606401610e30565b8251600090879060ff16601f811061152357611523612f1c565b60200201516001600160a01b0316146115755760405162461bcd60e51b81526020600482015260146024820152736e6f6e2d756e69717565207369676e617475726560601b6044820152606401610e30565b8086846000015160ff16601f811061158f5761158f612f1c565b6001600160a01b0390921660209290920201526115ad6001866132d7565b945050806115ba90612f71565b9050611383565b5050506115d2833383858e8e6121c2565b5050505050505050505050565b600d546000906001600160a01b031661160b57604051632717f8c960e21b815260040160405180910390fd5b604080516080810182526001600160401b038816815233602082015263ffffffff85168183015260608101849052600d54915163f1e14a2160e01b8152909160009182916001600160a01b03169063f1e14a2190611671908b908b908890600401613016565b602060405180830381865afa15801561168e573d6000803e3d6000fd5b505050506040513d601f19601f820116820180604052508101906116b29190613362565b600d5460405163a1a6d04160e01b815263ffffffff89166004820152602481018890526001600160601b038086166044830152831660648201529192506001600160a01b03169063a1a6d04190608401602060405180830381865afa15801561171f573d6000803e3d6000fd5b505050506040513d601f19601f820116820180604052508101906117439190613362565b9998505050505050505050565b6060600c805461175f9061318f565b80601f016020809104026020016040519081016040528092919081815260200182805461178b9061318f565b80156107235780601f106117ad57610100808354040283529160200191610723565b820191906000526020600020905b8154815290600101906020018083116117bb57509395945050505050565b855185518560ff16601f8311156118255760405162461bcd60e51b815260206004820152601060248201526f746f6f206d616e79207369676e65727360801b6044820152606401610e30565b6000811161186a5760405162461bcd60e51b815260206004820152601260248201527166206d75737420626520706f73697469766560701b6044820152606401610e30565b8183146118c55760405162461bcd60e51b8152602060048201526024808201527f6f7261636c6520616464726573736573206f7574206f662072656769737472616044820152633a34b7b760e11b6064820152608401610e30565b6118d081600361338b565b831161191e5760405162461bcd60e51b815260206004820152601860248201527f6661756c74792d6f7261636c65206620746f6f206869676800000000000000006044820152606401610e30565b611926611f92565b6040805160c0810182528a8152602081018a905260ff891691810191909152606081018790526001600160401b038616608082015260a081018590525b60065415611a755760065460009061197d90600190612f48565b905060006006828154811061199457611994612f1c565b6000918252602082200154600780546001600160a01b03909216935090849081106119c1576119c1612f1c565b60009182526020808320909101546001600160a01b03858116845260059092526040808420805461ffff1990811690915592909116808452922080549091169055600680549192509080611a1757611a17612f5b565b600082815260209020810160001990810180546001600160a01b03191690550190556007805480611a4a57611a4a612f5b565b600082815260209020810160001990810180546001600160a01b031916905501905550611963915050565b60005b815151811015611db25760006005600084600001518481518110611a9e57611a9e612f1c565b6020908102919091018101516001600160a01b0316825281019190915260400160002054610100900460ff166002811115611adb57611adb613328565b14611b285760405162461bcd60e51b815260206004820152601760248201527f7265706561746564207369676e657220616464726573730000000000000000006044820152606401610e30565b6040805180820190915260ff82168152600160208201528251805160059160009185908110611b5957611b59612f1c565b6020908102919091018101516001600160a01b03168252818101929092526040016000208251815460ff90911660ff19821681178355928401519192839161ffff191617610100836002811115611bb257611bb2613328565b021790555060009150611bc29050565b6005600084602001518481518110611bdc57611bdc612f1c565b6020908102919091018101516001600160a01b0316825281019190915260400160002054610100900460ff166002811115611c1957611c19613328565b14611c665760405162461bcd60e51b815260206004820152601c60248201527f7265706561746564207472616e736d69747465722061646472657373000000006044820152606401610e30565b6040805180820190915260ff821681526020810160028152506005600084602001518481518110611c9957611c99612f1c565b6020908102919091018101516001600160a01b03168252818101929092526040016000208251815460ff90911660ff19821681178355928401519192839161ffff191617610100836002811115611cf257611cf2613328565b021790555050825180516006925083908110611d1057611d10612f1c565b602090810291909101810151825460018101845560009384529282902090920180546001600160a01b0319166001600160a01b039093169290921790915582015180516007919083908110611d6757611d67612f1c565b60209081029190910181015182546001810184556000938452919092200180546001600160a01b0319166001600160a01b03909216919091179055611dab81612f71565b9050611a78565b5060408101516003805460ff191660ff9092169190911790556004805467ffffffff0000000019811664010000000063ffffffff438116820292831785559083048116936001939092600092611e0f9286929082169116176133a2565b92506101000a81548163ffffffff021916908363ffffffff160217905550611e6e4630600460009054906101000a900463ffffffff1663ffffffff16856000015186602001518760400151886060015189608001518a60a00151612497565b6002819055825180516003805460ff9092166101000261ff001990921691909117905560045460208501516040808701516060880151608089015160a08a015193517f1591690b8638f5fb2dbec82ac741805ac5da8b45dc5263f4875b0496fdce4e0598611ef0988b98919763ffffffff9092169690959194919391926133bf565b60405180910390a16115d2565b611f05611f92565b6107a4816124f2565b6000611f1c60085460ff1690565b611f2857506001919050565b611f33600983612573565b92915050565b6000611f4e836001600160a01b038416612595565b9392505050565b611f5e32611f0e565b611f7b57604051630101292160e31b815260040160405180910390fd5b565b6000611f4e836001600160a01b03841661268f565b6000546201000090046001600160a01b03163314611f7b576040516315ae3a6f60e11b815260040160405180910390fd5b600080306001600160a01b031663814118346040518163ffffffff1660e01b8152600401600060405180830381865afa158015612004573d6000803e3d6000fd5b505050506040513d6000823e601f3d908101601f1916820160405261202c91908101906130f6565b905060005b815181101561208857836001600160a01b031682828151811061205657612056612f1c565b60200260200101516001600160a01b031603612076575060019392505050565b8061208081612f71565b915050612031565b5060009392505050565b600054610100900460ff166120b95760405162461bcd60e51b8152600401610e3090613454565b6120c43360006126de565b60018054911515600160a01b0260ff60a01b19909216919091179055565b600054610100900460ff166121095760405162461bcd60e51b8152600401610e3090613454565b6008805460ff1916911515919091179055565b60019392505050565b600061213282602061338b565b61213d85602061338b565b6121498861014461349f565b612153919061349f565b61215d919061349f565b61216890600061349f565b90503681146121b95760405162461bcd60e51b815260206004820152601860248201527f63616c6c64617461206c656e677468206d69736d6174636800000000000000006044820152606401610e30565b50505050505050565b600d546001600160a01b03166121eb57604051632717f8c960e21b815260040160405180910390fd5b606080806121fb84860186613531565b82519295509093509150158061221357508151835114155b8061222057508051835114155b1561223e5760405163017c6c6560e31b815260040160405180910390fd5b600083515a61224d908c612f48565b612257919061360d565b905060005b84518110156115d257600d5485516001600160a01b0390911690630739e4f19087908490811061228e5761228e612f1c565b60200260200101518684815181106122a8576122a8612f1c565b60200260200101518685815181106122c2576122c2612f1c565b60200260200101518e8d8f895a6040518963ffffffff1660e01b81526004016122f2989796959493929190613621565b6020604051808303816000875af192505050801561232d575060408051601f3d908101601f1916820190925261232a918101906136b9565b60015b6123b8573d80801561235b576040519150601f19603f3d011682016040523d82523d6000602084013e612360565b606091505b5085828151811061237357612373612f1c565b60200260200101517fe0b838ffe6ee22a0d3acf19a85db6a41b34a1ab739e2d6c759a2e42d95bdccb2826040516123aa91906128a9565b60405180910390a250612481565b8015612409578582815181106123d0576123d0612f1c565b60200260200101517f9e9bc7616d42c2835d05ae617e508454e63b30b934be8aa932ebc125e0e58a6460405160405180910390a261247f565b85828151811061241b5761241b612f1c565b60200260200101517fb2931868c372fe17a25643458add467d60ec5c51125a99b7309f41f5bcd2da6c604051612476906020808252601190820152706572726f7220696e2063616c6c6261636b60781b604082015260600190565b60405180910390a25b505b8061248b81612f71565b91505061225c565b5050565b6000808a8a8a8a8a8a8a8a8a6040516020016124bb999897969594939291906136db565b60408051601f1981840301815291905280516020909101206001600160f01b0316600160f01b179150509998505050505050505050565b336001600160a01b0382160361251b5760405163282010c360e01b815260040160405180910390fd5b600180546001600160a01b0319166001600160a01b038381169182179092556000805460405192936201000090910416917fed8889f560326eb138920d842192f0eb3dd22b4f139c87a2c57538e05bae12789190a350565b6001600160a01b03811660009081526001830160205260408120541515611f4e565b6000818152600183016020526040812054801561267e5760006125b9600183612f48565b85549091506000906125cd90600190612f48565b90508181146126325760008660000182815481106125ed576125ed612f1c565b906000526020600020015490508087600001848154811061261057612610612f1c565b6000918252602080832090910192909255918252600188019052604090208390555b855486908061264357612643612f5b565b600190038181906000526020600020016000905590558560010160008681526020019081526020016000206000905560019350505050611f33565b6000915050611f33565b5092915050565b60008181526001830160205260408120546126d657508154600181810184556000848152602080822090930184905584548482528286019093526040902091909155611f33565b506000611f33565b600054610100900460ff166127055760405162461bcd60e51b8152600401610e3090613454565b6001600160a01b03821661272c57604051635b5a8afd60e11b815260040160405180910390fd5b600080546001600160a01b03808516620100000262010000600160b01b03199092169190911790915581161561249357612493816124f2565b5080546127719061318f565b6000825580601f10612781575050565b601f0160209004906000526020600020908101906107a491906127be565b604051806103e00160405280601f906020820280368337509192915050565b5b808211156127d357600081556001016127bf565b5090565b60008083601f8401126127e957600080fd5b5081356001600160401b0381111561280057600080fd5b6020830191508360208260051b850101111561281b57600080fd5b9250929050565b6000806020838503121561283557600080fd5b82356001600160401b0381111561284b57600080fd5b612857858286016127d7565b90969095509350505050565b6000815180845260005b818110156128895760208185018101518683018201520161286d565b506000602082860101526020601f19601f83011685010191505092915050565b602081526000611f4e6020830184612863565b600081518084526020808501945080840160005b838110156128f55781516001600160a01b0316875295820195908201906001016128d0565b509495945050505050565b602081526000611f4e60208301846128bc565b6001600160a01b03811681146107a457600080fd5b60006020828403121561293a57600080fd5b8135611f4e81612913565b80356001600160401b038116811461295c57600080fd5b919050565b60008083601f84011261297357600080fd5b5081356001600160401b0381111561298a57600080fd5b60208301915083602082850101111561281b57600080fd5b803563ffffffff8116811461295c57600080fd5b600080600080606085870312156129cc57600080fd5b6129d585612945565b935060208501356001600160401b038111156129f057600080fd5b6129fc87828801612961565b9094509250612a0f9050604086016129a2565b905092959194509250565b604081526000612a2d60408301856128bc565b6020838203818501528185518084528284019150828160051b85010183880160005b83811015612a7d57601f19878403018552612a6b838351612863565b94860194925090850190600101612a4f565b50909998505050505050505050565b60008060208385031215612a9f57600080fd5b82356001600160401b03811115612ab557600080fd5b61285785828601612961565b600080600060408486031215612ad657600080fd5b8335612ae181612913565b925060208401356001600160401b03811115612afc57600080fd5b612b0886828701612961565b9497909650939450505050565b60008060008060008060008060e0898b031215612b3157600080fd5b606089018a811115612b4257600080fd5b899850356001600160401b0380821115612b5b57600080fd5b612b678c838d01612961565b909950975060808b0135915080821115612b8057600080fd5b612b8c8c838d016127d7565b909750955060a08b0135915080821115612ba557600080fd5b50612bb28b828c016127d7565b999c989b50969995989497949560c00135949350505050565b600080600080600060808688031215612be357600080fd5b612bec86612945565b945060208601356001600160401b03811115612c0757600080fd5b612c1388828901612961565b9095509350612c269050604087016129a2565b949793965091946060013592915050565b634e487b7160e01b600052604160045260246000fd5b604051601f8201601f191681016001600160401b0381118282101715612c7557612c75612c37565b604052919050565b60006001600160401b03821115612c9657612c96612c37565b5060051b60200190565b600082601f830112612cb157600080fd5b81356020612cc6612cc183612c7d565b612c4d565b82815260059290921b84018101918181019086841115612ce557600080fd5b8286015b84811015612d09578035612cfc81612913565b8352918301918301612ce9565b509695505050505050565b803560ff8116811461295c57600080fd5b600082601f830112612d3657600080fd5b81356001600160401b03811115612d4f57612d4f612c37565b612d62601f8201601f1916602001612c4d565b818152846020838601011115612d7757600080fd5b816020850160208301376000918101602001919091529392505050565b60008060008060008060c08789031215612dad57600080fd5b86356001600160401b0380821115612dc457600080fd5b612dd08a838b01612ca0565b97506020890135915080821115612de657600080fd5b612df28a838b01612ca0565b9650612e0060408a01612d14565b95506060890135915080821115612e1657600080fd5b612e228a838b01612d25565b9450612e3060808a01612945565b935060a0890135915080821115612e4657600080fd5b50612e5389828a01612d25565b9150509295509295509295565b600080600083850360a0811215612e7657600080fd5b84356001600160401b0380821115612e8d57600080fd5b612e9988838901612961565b90965094508491506080601f1984011215612eb357600080fd5b60405192506080830191508282108183111715612ed257612ed2612c37565b50604052612ee260208601612945565b81526040850135612ef281612913565b6020820152612f03606086016129a2565b6040820152608094909401356060850152509093909250565b634e487b7160e01b600052603260045260246000fd5b634e487b7160e01b600052601160045260246000fd5b81810381811115611f3357611f33612f32565b634e487b7160e01b600052603160045260246000fd5b600060018201612f8357612f83612f32565b5060010190565b6040808252810183905260008460608301825b86811015612fcd578235612fb081612913565b6001600160a01b0316825260209283019290910190600101612f9d565b506001600160a01b03949094166020939093019290925250909392505050565b81835281816020850137506000828201602090810191909152601f909101601f19169091010190565b60a08152600061302a60a083018587612fed565b90506001600160401b03835116602083015260018060a01b03602084015116604083015263ffffffff604084015116606083015260608301516080830152949350505050565b60006020828403121561308257600080fd5b5051919050565b60006020828403121561309b57600080fd5b8151611f4e81612913565b6001600160a01b03878116825286811660208301526001600160401b03861660408301528416606082015260a0608082018190526000906130ea9083018486612fed565b98975050505050505050565b6000602080838503121561310957600080fd5b82516001600160401b0381111561311f57600080fd5b8301601f8101851361313057600080fd5b805161313e612cc182612c7d565b81815260059190911b8201830190838101908783111561315d57600080fd5b928401925b8284101561318457835161317581612913565b82529284019290840190613162565b979650505050505050565b600181811c908216806131a357607f821691505b6020821081036131c357634e487b7160e01b600052602260045260246000fd5b50919050565b601f821115610d0357600081815260208120601f850160051c810160208610156131f05750805b601f850160051c820191505b8181101561320f578281556001016131fc565b505050505050565b6001600160401b0383111561322e5761322e612c37565b6132428361323c835461318f565b836131c9565b6000601f841160018114613276576000851561325e5750838201355b600019600387901b1c1916600186901b1783556132d0565b600083815260209020601f19861690835b828110156132a75786850135825560209485019460019092019101613287565b50868210156132c45760001960f88860031b161c19848701351681555b505060018560011b0183555b5050505050565b60ff8181168382160190811115611f3357611f33612f32565b634e487b7160e01b600052601260045260246000fd5b600060ff831680613319576133196132f0565b8060ff84160491505092915050565b634e487b7160e01b600052602160045260246000fd5b8183823760009101908152919050565b828152606082602083013760800192915050565b60006020828403121561337457600080fd5b81516001600160601b0381168114611f4e57600080fd5b8082028115828204841417611f3357611f33612f32565b63ffffffff81811683821601908082111561268857612688612f32565b600061012063ffffffff808d1684528b6020850152808b166040850152508060608401526133ef8184018a6128bc565b9050828103608084015261340381896128bc565b905060ff871660a084015282810360c08401526134208187612863565b90506001600160401b03851660e08401528281036101008401526134448185612863565b9c9b505050505050505050505050565b6020808252602b908201527f496e697469616c697a61626c653a20636f6e7472616374206973206e6f74206960408201526a6e697469616c697a696e6760a81b606082015260800190565b80820180821115611f3357611f33612f32565b600082601f8301126134c357600080fd5b813560206134d3612cc183612c7d565b82815260059290921b840181019181810190868411156134f257600080fd5b8286015b84811015612d095780356001600160401b038111156135155760008081fd5b6135238986838b0101612d25565b8452509183019183016134f6565b60008060006060848603121561354657600080fd5b83356001600160401b038082111561355d57600080fd5b818601915086601f83011261357157600080fd5b81356020613581612cc183612c7d565b82815260059290921b8401810191818101908a8411156135a057600080fd5b948201945b838610156135be578535825294820194908201906135a5565b975050870135925050808211156135d457600080fd5b6135e0878388016134b2565b935060408601359150808211156135f657600080fd5b50613603868287016134b2565b9150509250925092565b60008261361c5761361c6132f0565b500490565b60006104c08a83526020818185015261363c8285018c612863565b91508382036040850152613650828b612863565b6001600160a01b038a811660608701529093509150608084018860005b601f81101561368c57815185168352918301919083019060010161366d565b50505050506136a161046083018660ff169052565b6104808201939093526104a001529695505050505050565b6000602082840312156136cb57600080fd5b81518015158114611f4e57600080fd5b8981526001600160a01b03891660208201526001600160401b038881166040830152610120606083018190526000916137168483018b6128bc565b9150838203608085015261372a828a6128bc565b915060ff881660a085015283820360c08501526137478288612863565b90861660e08501528381036101008501529050613444818561286356fea26469706673582212201dbd4d166b1bfcb139cf23d7c70afab3d69bc821c6e99adf776d285882458f4764736f6c63430008110033",
    "linkReferences": {}
  },
  "methodIdentifiers": {
    "acceptOwnership()": "79ba5097",
    "activateAuthorizedReceiver()": "110254c8",
    "addAuthorizedSenders(address[])": "4dcef404",
    "authorizedReceiverActive()": "4b4fa0c1",
    "deactivateAuthorizedReceiver()": "91bb64eb",
    "deleteNodePublicKey(address)": "26ceabac",
    "estimateCost(uint64,bytes,uint32,uint256)": "d227d245",
    "getAllNodePublicKeys()": "53398987",
    "getAuthorizedSenders()": "2408afaa",
    "getDONPublicKey()": "d328a91e",
    "getRegistry()": "5ab1bd53",
    "getRequiredFee(bytes,(uint64,address,uint32,uint256))": "f1e14a21",
    "initialize()": "8129fc1c",
    "isAuthorizedSender(address)": "fa00763a",
    "latestConfigDetails()": "81ff7048",
    "latestConfigDigestAndEpoch()": "afcb95d7",
    "owner()": "8da5cb5b",
    "removeAuthorizedSenders(address[])": "03e1bf23",
    "sendRequest(uint64,bytes,uint32)": "28242b04",
    "setConfig(address[],address[],uint8,bytes,uint64,bytes)": "e3d0e712",
    "setDONPublicKey(bytes)": "7f15e166",
    "setNodePublicKey(address,bytes)": "80756031",
    "setRegistry(address)": "a91ee0dc",
    "transferOwnership(address)": "f2fde38b",
    "transmit(bytes32[3],bytes,bytes32[],bytes32[],bytes32)": "b1dc65a4",
    "transmitters()": "81411834",
    "typeAndVersion()": "181f5a77"
  },
  "id": 10
}