{
  "abi": [
    {
      "inputs": [
        {
          "internalType": "uint256",
          "name": "internalBalance",
          "type": "uint256"
        },
        {
          "internalType": "uint256",
          "name": "externalBalance",
          "type": "uint256"
        }
      ],
      "name": "BalanceInvariantViolated",
      "type": "error"
    },
    {
      "inputs": [],
      "name": "CannotSelfTransfer",
      "type": "error"
    },
    {
      "inputs": [],
      "name": "EmptySendersList",
      "type": "error"
    },
    {
      "inputs": [
        {
          "internalType": "uint32",
          "name": "have",
          "type": "uint32"
        },
        {
          "internalType": "uint32",
          "name": "want",
          "type": "uint32"
        }
      ],
      "name": "GasLimitTooBig",
      "type": "error"
    },
    {
      "inputs": [],
      "name": "IncorrectRequestID",
      "type": "error"
    },
    {
      "inputs": [],
      "name": "InsufficientBalance",
      "type": "error"
    },
    {
      "inputs": [],
      "name": "InvalidCalldata",
      "type": "error"
    },
    {
      "inputs": [
        {
          "internalType": "uint64",
          "name": "subscriptionId",
          "type": "uint64"
        },
        {
          "internalType": "address",
          "name": "consumer",
          "type": "address"
        }
      ],
      "name": "InvalidConsumer",
      "type": "error"
    },
    {
      "inputs": [
        {
          "internalType": "int256",
          "name": "linkWei",
          "type": "int256"
        }
      ],
      "name": "InvalidLinkWeiPrice",
      "type": "error"
    },
    {
      "inputs": [],
      "name": "InvalidSubscription",
      "type": "error"
    },
    {
      "inputs": [
        {
          "internalType": "address",
          "name": "proposedOwner",
          "type": "address"
        }
      ],
      "name": "MustBeRequestedOwner",
      "type": "error"
    },
    {
      "inputs": [
        {
          "internalType": "address",
          "name": "owner",
          "type": "address"
        }
      ],
      "name": "MustBeSubOwner",
      "type": "error"
    },
    {
      "inputs": [],
      "name": "NotAllowedToSetSenders",
      "type": "error"
    },
    {
      "inputs": [],
      "name": "NotProposedOwner",
      "type": "error"
    },
    {
      "inputs": [],
      "name": "OnlyCallableByOwner",
      "type": "error"
    },
    {
      "inputs": [],
      "name": "OnlyCallableFromLink",
      "type": "error"
    },
    {
      "inputs": [],
      "name": "OwnerMustBeSet",
      "type": "error"
    },
    {
      "inputs": [],
      "name": "PaymentTooLarge",
      "type": "error"
    },
    {
      "inputs": [],
      "name": "PendingRequestExists",
      "type": "error"
    },
    {
      "inputs": [],
      "name": "Reentrant",
      "type": "error"
    },
    {
      "inputs": [],
      "name": "TooManyConsumers",
      "type": "error"
    },
    {
      "inputs": [],
      "name": "UnauthorizedSender",
      "type": "error"
    },
    {
      "anonymous": false,
      "inputs": [
        {
          "indexed": false,
          "internalType": "address[]",
          "name": "senders",
          "type": "address[]"
        },
        {
          "indexed": false,
          "internalType": "address",
          "name": "changedBy",
          "type": "address"
        }
      ],
      "name": "AuthorizedSendersChanged",
      "type": "event"
    },
    {
      "anonymous": false,
      "inputs": [
        {
          "indexed": true,
          "internalType": "bytes32",
          "name": "requestId",
          "type": "bytes32"
        },
        {
          "indexed": false,
          "internalType": "uint64",
          "name": "subscriptionId",
          "type": "uint64"
        },
        {
          "indexed": false,
          "internalType": "uint96",
          "name": "signerPayment",
          "type": "uint96"
        },
        {
          "indexed": false,
          "internalType": "uint96",
          "name": "transmitterPayment",
          "type": "uint96"
        },
        {
          "indexed": false,
          "internalType": "uint96",
          "name": "totalCost",
          "type": "uint96"
        },
        {
          "indexed": false,
          "internalType": "bool",
          "name": "success",
          "type": "bool"
        }
      ],
      "name": "BillingEnd",
      "type": "event"
    },
    {
      "anonymous": false,
      "inputs": [
        {
          "indexed": true,
          "internalType": "bytes32",
          "name": "requestId",
          "type": "bytes32"
        },
        {
          "components": [
            {
              "internalType": "uint64",
              "name": "subscriptionId",
              "type": "uint64"
            },
            {
              "internalType": "address",
              "name": "client",
              "type": "address"
            },
            {
              "internalType": "uint32",
              "name": "gasLimit",
              "type": "uint32"
            },
            {
              "internalType": "uint256",
              "name": "gasPrice",
              "type": "uint256"
            },
            {
              "internalType": "address",
              "name": "don",
              "type": "address"
            },
            {
              "internalType": "uint96",
              "name": "donFee",
              "type": "uint96"
            },
            {
              "internalType": "uint96",
              "name": "registryFee",
              "type": "uint96"
            },
            {
              "internalType": "uint96",
              "name": "estimatedCost",
              "type": "uint96"
            },
            {
              "internalType": "uint256",
              "name": "timestamp",
              "type": "uint256"
            }
          ],
          "indexed": false,
          "internalType": "struct FunctionsBillingRegistry.Commitment",
          "name": "commitment",
          "type": "tuple"
        }
      ],
      "name": "BillingStart",
      "type": "event"
    },
    {
      "anonymous": false,
      "inputs": [
        {
          "indexed": false,
          "internalType": "uint32",
          "name": "maxGasLimit",
          "type": "uint32"
        },
        {
          "indexed": false,
          "internalType": "uint32",
          "name": "stalenessSeconds",
          "type": "uint32"
        },
        {
          "indexed": false,
          "internalType": "uint256",
          "name": "gasAfterPaymentCalculation",
          "type": "uint256"
        },
        {
          "indexed": false,
          "internalType": "int256",
          "name": "fallbackWeiPerUnitLink",
          "type": "int256"
        },
        {
          "indexed": false,
          "internalType": "uint32",
          "name": "gasOverhead",
          "type": "uint32"
        }
      ],
      "name": "ConfigSet",
      "type": "event"
    },
    {
      "anonymous": false,
      "inputs": [
        {
          "indexed": false,
          "internalType": "address",
          "name": "to",
          "type": "address"
        },
        {
          "indexed": false,
          "internalType": "uint256",
          "name": "amount",
          "type": "uint256"
        }
      ],
      "name": "FundsRecovered",
      "type": "event"
    },
    {
      "anonymous": false,
      "inputs": [
        {
          "indexed": false,
          "internalType": "uint8",
          "name": "version",
          "type": "uint8"
        }
      ],
      "name": "Initialized",
      "type": "event"
    },
    {
      "anonymous": false,
      "inputs": [
        {
          "indexed": true,
          "internalType": "address",
          "name": "from",
          "type": "address"
        },
        {
          "indexed": true,
          "internalType": "address",
          "name": "to",
          "type": "address"
        }
      ],
      "name": "OwnershipTransferRequested",
      "type": "event"
    },
    {
      "anonymous": false,
      "inputs": [
        {
          "indexed": true,
          "internalType": "address",
          "name": "from",
          "type": "address"
        },
        {
          "indexed": true,
          "internalType": "address",
          "name": "to",
          "type": "address"
        }
      ],
      "name": "OwnershipTransferred",
      "type": "event"
    },
    {
      "anonymous": false,
      "inputs": [
        {
          "indexed": false,
          "internalType": "address",
          "name": "account",
          "type": "address"
        }
      ],
      "name": "Paused",
      "type": "event"
    },
    {
      "anonymous": false,
      "inputs": [
        {
          "indexed": true,
          "internalType": "bytes32",
          "name": "requestId",
          "type": "bytes32"
        }
      ],
      "name": "RequestTimedOut",
      "type": "event"
    },
    {
      "anonymous": false,
      "inputs": [
        {
          "indexed": true,
          "internalType": "uint64",
          "name": "subscriptionId",
          "type": "uint64"
        },
        {
          "indexed": false,
          "internalType": "address",
          "name": "to",
          "type": "address"
        },
        {
          "indexed": false,
          "internalType": "uint256",
          "name": "amount",
          "type": "uint256"
        }
      ],
      "name": "SubscriptionCanceled",
      "type": "event"
    },
    {
      "anonymous": false,
      "inputs": [
        {
          "indexed": true,
          "internalType": "uint64",
          "name": "subscriptionId",
          "type": "uint64"
        },
        {
          "indexed": false,
          "internalType": "address",
          "name": "consumer",
          "type": "address"
        }
      ],
      "name": "SubscriptionConsumerAdded",
      "type": "event"
    },
    {
      "anonymous": false,
      "inputs": [
        {
          "indexed": true,
          "internalType": "uint64",
          "name": "subscriptionId",
          "type": "uint64"
        },
        {
          "indexed": false,
          "internalType": "address",
          "name": "consumer",
          "type": "address"
        }
      ],
      "name": "SubscriptionConsumerRemoved",
      "type": "event"
    },
    {
      "anonymous": false,
      "inputs": [
        {
          "indexed": true,
          "internalType": "uint64",
          "name": "subscriptionId",
          "type": "uint64"
        },
        {
          "indexed": false,
          "internalType": "address",
          "name": "owner",
          "type": "address"
        }
      ],
      "name": "SubscriptionCreated",
      "type": "event"
    },
    {
      "anonymous": false,
      "inputs": [
        {
          "indexed": true,
          "internalType": "uint64",
          "name": "subscriptionId",
          "type": "uint64"
        },
        {
          "indexed": false,
          "internalType": "uint256",
          "name": "oldBalance",
          "type": "uint256"
        },
        {
          "indexed": false,
          "internalType": "uint256",
          "name": "newBalance",
          "type": "uint256"
        }
      ],
      "name": "SubscriptionFunded",
      "type": "event"
    },
    {
      "anonymous": false,
      "inputs": [
        {
          "indexed": true,
          "internalType": "uint64",
          "name": "subscriptionId",
          "type": "uint64"
        },
        {
          "indexed": false,
          "internalType": "address",
          "name": "from",
          "type": "address"
        },
        {
          "indexed": false,
          "internalType": "address",
          "name": "to",
          "type": "address"
        }
      ],
      "name": "SubscriptionOwnerTransferRequested",
      "type": "event"
    },
    {
      "anonymous": false,
      "inputs": [
        {
          "indexed": true,
          "internalType": "uint64",
          "name": "subscriptionId",
          "type": "uint64"
        },
        {
          "indexed": false,
          "internalType": "address",
          "name": "from",
          "type": "address"
        },
        {
          "indexed": false,
          "internalType": "address",
          "name": "to",
          "type": "address"
        }
      ],
      "name": "SubscriptionOwnerTransferred",
      "type": "event"
    },
    {
      "anonymous": false,
      "inputs": [
        {
          "indexed": false,
          "internalType": "address",
          "name": "account",
          "type": "address"
        }
      ],
      "name": "Unpaused",
      "type": "event"
    },
    {
      "inputs": [],
      "name": "MAX_CONSUMERS",
      "outputs": [
        {
          "internalType": "uint16",
          "name": "",
          "type": "uint16"
        }
      ],
      "stateMutability": "view",
      "type": "function"
    },
    {
      "inputs": [],
      "name": "acceptOwnership",
      "outputs": [],
      "stateMutability": "nonpayable",
      "type": "function"
    },
    {
      "inputs": [
        {
          "internalType": "uint64",
          "name": "subscriptionId",
          "type": "uint64"
        }
      ],
      "name": "acceptSubscriptionOwnerTransfer",
      "outputs": [],
      "stateMutability": "nonpayable",
      "type": "function"
    },
    {
      "inputs": [
        {
          "internalType": "uint64",
          "name": "subscriptionId",
          "type": "uint64"
        },
        {
          "internalType": "address",
          "name": "consumer",
          "type": "address"
        }
      ],
      "name": "addConsumer",
      "outputs": [],
      "stateMutability": "nonpayable",
      "type": "function"
    },
    {
      "inputs": [
        {
          "internalType": "uint64",
          "name": "subscriptionId",
          "type": "uint64"
        },
        {
          "internalType": "address",
          "name": "to",
          "type": "address"
        }
      ],
      "name": "cancelSubscription",
      "outputs": [],
      "stateMutability": "nonpayable",
      "type": "function"
    },
    {
      "inputs": [],
      "name": "createSubscription",
      "outputs": [
        {
          "internalType": "uint64",
          "name": "",
          "type": "uint64"
        }
      ],
      "stateMutability": "nonpayable",
      "type": "function"
    },
    {
      "inputs": [
        {
          "internalType": "uint32",
          "name": "gasLimit",
          "type": "uint32"
        },
        {
          "internalType": "uint256",
          "name": "gasPrice",
          "type": "uint256"
        },
        {
          "internalType": "uint96",
          "name": "donFee",
          "type": "uint96"
        },
        {
          "internalType": "uint96",
          "name": "registryFee",
          "type": "uint96"
        }
      ],
      "name": "estimateCost",
      "outputs": [
        {
          "internalType": "uint96",
          "name": "",
          "type": "uint96"
        }
      ],
      "stateMutability": "view",
      "type": "function"
    },
    {
      "inputs": [
        {
          "internalType": "bytes32",
          "name": "requestId",
          "type": "bytes32"
        },
        {
          "internalType": "bytes",
          "name": "response",
          "type": "bytes"
        },
        {
          "internalType": "bytes",
          "name": "err",
          "type": "bytes"
        },
        {
          "internalType": "address",
          "name": "transmitter",
          "type": "address"
        },
        {
          "internalType": "address[31]",
          "name": "signers",
          "type": "address[31]"
        },
        {
          "internalType": "uint8",
          "name": "signerCount",
          "type": "uint8"
        },
        {
          "internalType": "uint256",
          "name": "reportValidationGas",
          "type": "uint256"
        },
        {
          "internalType": "uint256",
          "name": "initialGas",
          "type": "uint256"
        }
      ],
      "name": "fulfillAndBill",
      "outputs": [
        {
          "internalType": "bool",
          "name": "success",
          "type": "bool"
        }
      ],
      "stateMutability": "nonpayable",
      "type": "function"
    },
    {
      "inputs": [],
      "name": "getAuthorizedSenders",
      "outputs": [
        {
          "internalType": "address[]",
          "name": "",
          "type": "address[]"
        }
      ],
      "stateMutability": "view",
      "type": "function"
    },
    {
      "inputs": [],
      "name": "getConfig",
      "outputs": [
        {
          "internalType": "uint32",
          "name": "maxGasLimit",
          "type": "uint32"
        },
        {
          "internalType": "uint32",
          "name": "stalenessSeconds",
          "type": "uint32"
        },
        {
          "internalType": "uint256",
          "name": "gasAfterPaymentCalculation",
          "type": "uint256"
        },
        {
          "internalType": "int256",
          "name": "fallbackWeiPerUnitLink",
          "type": "int256"
        },
        {
          "internalType": "uint32",
          "name": "gasOverhead",
          "type": "uint32"
        },
        {
          "internalType": "address",
          "name": "linkAddress",
          "type": "address"
        },
        {
          "internalType": "address",
          "name": "linkPriceFeed",
          "type": "address"
        }
      ],
      "stateMutability": "view",
      "type": "function"
    },
    {
      "inputs": [],
      "name": "getCurrentsubscriptionId",
      "outputs": [
        {
          "internalType": "uint64",
          "name": "",
          "type": "uint64"
        }
      ],
      "stateMutability": "view",
      "type": "function"
    },
    {
      "inputs": [],
      "name": "getRequestConfig",
      "outputs": [
        {
          "internalType": "uint32",
          "name": "",
          "type": "uint32"
        },
        {
          "internalType": "address[]",
          "name": "",
          "type": "address[]"
        }
      ],
      "stateMutability": "view",
      "type": "function"
    },
    {
      "inputs": [
        {
          "internalType": "bytes",
          "name": "",
          "type": "bytes"
        },
        {
          "components": [
            {
              "internalType": "uint64",
              "name": "subscriptionId",
              "type": "uint64"
            },
            {
              "internalType": "address",
              "name": "client",
              "type": "address"
            },
            {
              "internalType": "uint32",
              "name": "gasLimit",
              "type": "uint32"
            },
            {
              "internalType": "uint256",
              "name": "gasPrice",
              "type": "uint256"
            }
          ],
          "internalType": "struct FunctionsBillingRegistryInterface.RequestBilling",
          "name": "",
          "type": "tuple"
        }
      ],
      "name": "getRequiredFee",
      "outputs": [
        {
          "internalType": "uint96",
          "name": "",
          "type": "uint96"
        }
      ],
      "stateMutability": "pure",
      "type": "function"
    },
    {
      "inputs": [
        {
          "internalType": "uint64",
          "name": "subscriptionId",
          "type": "uint64"
        }
      ],
      "name": "getSubscription",
      "outputs": [
        {
          "internalType": "uint96",
          "name": "balance",
          "type": "uint96"
        },
        {
          "internalType": "address",
          "name": "owner",
          "type": "address"
        },
        {
          "internalType": "address[]",
          "name": "consumers",
          "type": "address[]"
        }
      ],
      "stateMutability": "view",
      "type": "function"
    },
    {
      "inputs": [
        {
          "internalType": "uint64",
          "name": "subscriptionId",
          "type": "uint64"
        }
      ],
      "name": "getSubscriptionOwner",
      "outputs": [
        {
          "internalType": "address",
          "name": "owner",
          "type": "address"
        }
      ],
      "stateMutability": "view",
      "type": "function"
    },
    {
      "inputs": [],
      "name": "getTotalBalance",
      "outputs": [
        {
          "internalType": "uint256",
          "name": "",
          "type": "uint256"
        }
      ],
      "stateMutability": "view",
      "type": "function"
    },
    {
      "inputs": [
        {
          "internalType": "address",
          "name": "link",
          "type": "address"
        },
        {
          "internalType": "address",
          "name": "linkEthFeed",
          "type": "address"
        },
        {
          "internalType": "address",
          "name": "oracle",
          "type": "address"
        }
      ],
      "name": "initialize",
      "outputs": [],
      "stateMutability": "nonpayable",
      "type": "function"
    },
    {
      "inputs": [
        {
          "internalType": "address",
          "name": "sender",
          "type": "address"
        }
      ],
      "name": "isAuthorizedSender",
      "outputs": [
        {
          "internalType": "bool",
          "name": "",
          "type": "bool"
        }
      ],
      "stateMutability": "view",
      "type": "function"
    },
    {
      "inputs": [
        {
          "internalType": "address",
          "name": "",
          "type": "address"
        },
        {
          "internalType": "uint256",
          "name": "amount",
          "type": "uint256"
        },
        {
          "internalType": "bytes",
          "name": "data",
          "type": "bytes"
        }
      ],
      "name": "onTokenTransfer",
      "outputs": [],
      "stateMutability": "nonpayable",
      "type": "function"
    },
    {
      "inputs": [
        {
          "internalType": "address",
          "name": "recipient",
          "type": "address"
        },
        {
          "internalType": "uint96",
          "name": "amount",
          "type": "uint96"
        }
      ],
      "name": "oracleWithdraw",
      "outputs": [],
      "stateMutability": "nonpayable",
      "type": "function"
    },
    {
      "inputs": [],
      "name": "owner",
      "outputs": [
        {
          "internalType": "address",
          "name": "",
          "type": "address"
        }
      ],
      "stateMutability": "view",
      "type": "function"
    },
    {
      "inputs": [
        {
          "internalType": "uint64",
          "name": "subscriptionId",
          "type": "uint64"
        }
      ],
      "name": "ownerCancelSubscription",
      "outputs": [],
      "stateMutability": "nonpayable",
      "type": "function"
    },
    {
      "inputs": [],
      "name": "pause",
      "outputs": [],
      "stateMutability": "nonpayable",
      "type": "function"
    },
    {
      "inputs": [],
      "name": "paused",
      "outputs": [
        {
          "internalType": "bool",
          "name": "",
          "type": "bool"
        }
      ],
      "stateMutability": "view",
      "type": "function"
    },
    {
      "inputs": [
        {
          "internalType": "uint64",
          "name": "subscriptionId",
          "type": "uint64"
        }
      ],
      "name": "pendingRequestExists",
      "outputs": [
        {
          "internalType": "bool",
          "name": "",
          "type": "bool"
        }
      ],
      "stateMutability": "view",
      "type": "function"
    },
    {
      "inputs": [
        {
          "internalType": "address",
          "name": "to",
          "type": "address"
        }
      ],
      "name": "recoverFunds",
      "outputs": [],
      "stateMutability": "nonpayable",
      "type": "function"
    },
    {
      "inputs": [
        {
          "internalType": "uint64",
          "name": "subscriptionId",
          "type": "uint64"
        },
        {
          "internalType": "address",
          "name": "consumer",
          "type": "address"
        }
      ],
      "name": "removeConsumer",
      "outputs": [],
      "stateMutability": "nonpayable",
      "type": "function"
    },
    {
      "inputs": [
        {
          "internalType": "uint64",
          "name": "subscriptionId",
          "type": "uint64"
        },
        {
          "internalType": "address",
          "name": "newOwner",
          "type": "address"
        }
      ],
      "name": "requestSubscriptionOwnerTransfer",
      "outputs": [],
      "stateMutability": "nonpayable",
      "type": "function"
    },
    {
      "inputs": [
        {
          "internalType": "address[]",
          "name": "senders",
          "type": "address[]"
        }
      ],
      "name": "setAuthorizedSenders",
      "outputs": [],
      "stateMutability": "nonpayable",
      "type": "function"
    },
    {
      "inputs": [
        {
          "internalType": "uint32",
          "name": "maxGasLimit",
          "type": "uint32"
        },
        {
          "internalType": "uint32",
          "name": "stalenessSeconds",
          "type": "uint32"
        },
        {
          "internalType": "uint256",
          "name": "gasAfterPaymentCalculation",
          "type": "uint256"
        },
        {
          "internalType": "int256",
          "name": "fallbackWeiPerUnitLink",
          "type": "int256"
        },
        {
          "internalType": "uint32",
          "name": "gasOverhead",
          "type": "uint32"
        },
        {
          "internalType": "uint32",
          "name": "requestTimeoutSeconds",
          "type": "uint32"
        }
      ],
      "name": "setConfig",
      "outputs": [],
      "stateMutability": "nonpayable",
      "type": "function"
    },
    {
      "inputs": [
        {
          "internalType": "bytes",
          "name": "data",
          "type": "bytes"
        },
        {
          "components": [
            {
              "internalType": "uint64",
              "name": "subscriptionId",
              "type": "uint64"
            },
            {
              "internalType": "address",
              "name": "client",
              "type": "address"
            },
            {
              "internalType": "uint32",
              "name": "gasLimit",
              "type": "uint32"
            },
            {
              "internalType": "uint256",
              "name": "gasPrice",
              "type": "uint256"
            }
          ],
          "internalType": "struct FunctionsBillingRegistryInterface.RequestBilling",
          "name": "billing",
          "type": "tuple"
        }
      ],
      "name": "startBilling",
      "outputs": [
        {
          "internalType": "bytes32",
          "name": "",
          "type": "bytes32"
        }
      ],
      "stateMutability": "nonpayable",
      "type": "function"
    },
    {
      "inputs": [
        {
          "internalType": "bytes32[]",
          "name": "requestIdsToTimeout",
          "type": "bytes32[]"
        }
      ],
      "name": "timeoutRequests",
      "outputs": [],
      "stateMutability": "nonpayable",
      "type": "function"
    },
    {
      "inputs": [
        {
          "internalType": "address",
          "name": "to",
          "type": "address"
        }
      ],
      "name": "transferOwnership",
      "outputs": [],
      "stateMutability": "nonpayable",
      "type": "function"
    },
    {
      "inputs": [],
      "name": "unpause",
      "outputs": [],
      "stateMutability": "nonpayable",
      "type": "function"
    }
  ],
  "bytecode": {
    "object": "0x608060405234801561001057600080fd5b50614388806100206000396000f3fe608060405234801561001057600080fd5b50600436106102055760003560e01c80638da5cb5b1161011a578063c0c53b8b116100ad578063e82ad7d41161007c578063e82ad7d4146104da578063ee56997b146104ed578063f1e14a2114610500578063f2fde38b1461051e578063fa00763a1461053157600080fd5b8063c0c53b8b14610439578063c3f909d41461044c578063d7ae1d30146104b4578063e72f6e30146104c757600080fd5b8063a47c7696116100e9578063a47c7696146103de578063a4c0ed3614610400578063a9d03c0514610413578063b2a489ff1461042657600080fd5b80638da5cb5b1461036d5780639f87fad714610398578063a1a6d041146103ab578063a21a23e4146103d657600080fd5b80633f4ba83a1161019d578063665871ec1161016c578063665871ec146103245780637341c10c1461033757806379ba50971461034a57806382359740146103525780638456cb591461036557600080fd5b80633f4ba83a146102e35780635c975abb146102eb57806364d51a2a146102f657806366316d8d1461031157600080fd5b806312b58349116101d957806312b58349146102745780632408afaa1461029657806327923e41146102ab57806333652e3e146102be57600080fd5b80620122911461020a57806302bcc5b61461022957806304c357cb1461023e5780630739e4f114610251575b600080fd5b610212610544565b6040516102209291906138b3565b60405180910390f35b61023c6102373660046138f6565b610563565b005b61023c61024c366004613928565b6105b9565b61026461025f3660046139ca565b61070c565b6040519015158152602001610220565b606f54600160401b90046001600160601b03165b604051908152602001610220565b61029e610c36565b6040516102209190613ae8565b61023c6102b9366004613b0f565b610c98565b606f546001600160401b03165b6040516001600160401b039091168152602001610220565b61023c610da4565b60345460ff16610264565b6102fe606481565b60405161ffff9091168152602001610220565b61023c61031f366004613b8a565b610db6565b61023c610332366004613c05565b610f76565b61023c610345366004613928565b6111a3565b61023c611358565b61023c6103603660046138f6565b6113ea565b61023c611658565b6000546201000090046001600160a01b03165b6040516001600160a01b039091168152602001610220565b61023c6103a6366004613928565b611668565b6103be6103b9366004613c46565b61199b565b6040516001600160601b039091168152602001610220565b6102cb611a88565b6103f16103ec3660046138f6565b611d40565b60405161022093929190613c97565b61023c61040e366004613cd3565b611e2a565b610288610421366004613d2c565b611fe3565b6103806104343660046138f6565b6125bb565b61023c610447366004613d8a565b61261f565b607354607454607254607554606954606a546040805163ffffffff80891682526501000000000090980488166020820152908101959095526060850193909352931660808301526001600160a01b0392831660a08301529190911660c082015260e001610220565b61023c6104c2366004613928565b61277b565b61023c6104d5366004613dcd565b612855565b6102646104e83660046138f6565b6129d8565b61023c6104fb366004613c05565b612b82565b6103be61050e366004613e60565b6702c68af0bb1400009392505050565b61023c61052c366004613dcd565b612cba565b61026461053f366004613dcd565b612cce565b60735460009060609063ffffffff1661055b610c36565b915091509091565b61056b612ce1565b6001600160401b0381166000908152606d60205260409020546001600160a01b0316806105ab57604051630fb532db60e11b815260040160405180910390fd5b6105b58282612d12565b5050565b6001600160401b0382166000908152606d602052604090205482906001600160a01b0316806105fb57604051630fb532db60e11b815260040160405180910390fd5b336001600160a01b0382161461063457604051636c51fda960e11b81526001600160a01b03821660048201526024015b60405180910390fd5b607354600160201b900460ff161561065f5760405163769dd35360e11b815260040160405180910390fd5b610667613017565b6001600160401b0384166000908152606d60205260409020600101546001600160a01b03848116911614610706576001600160401b0384166000818152606d602090815260409182902060010180546001600160a01b0319166001600160a01b0388169081179091558251338152918201527f69436ea6df009049404f564eff6622cd00522b0bd6a89efd9e52a355c4a879be91015b60405180910390a25b50505050565b600061071661305d565b607354600160201b900460ff16156107415760405163769dd35360e11b815260040160405180910390fd5b610749613017565b60008b81526071602090815260409182902082516101208101845281546001600160401b0381168252600160401b81046001600160a01b0390811694830194909452600160e01b900463ffffffff169381019390935260018101546060840152600281015491821660808401819052600160a01b9092046001600160601b0390811660a0850152600382015480821660c0860152600160601b90041660e0840152600401546101008301526108115760405163da7aa3e160e01b815260040160405180910390fd5b60008c81526071602052604080822082815560018101839055600281018390556003810180546001600160c01b031916905560040182905551630ca7617560e01b90610869908f908f908f908f908f90602401613ed4565b60408051601f19818403018152918152602080830180516001600160e01b03166001600160e01b0319909516949094179093526073805464ff000000001916600160201b179055840151918401519092506108cb9163ffffffff169083613083565b6073805464ff000000001916905560745460a084015160c08501519295506000926108fd92889290918b908b3a6130cf565b60408082015185516001600160401b03166000908152606e60205291909120549192506001600160601b039081169116101561094c57604051631e9acf1760e31b815260040160405180910390fd5b60408082015184516001600160401b03166000908152606e6020529182208054919290916109849084906001600160601b0316613f23565b92506101000a8154816001600160601b0302191690836001600160601b0316021790555060005b8760ff16811015610a7a57896001600160a01b03168982601f81106109d2576109d2613f43565b60200201516001600160a01b031614610a68578151607060008b84601f81106109fd576109fd613f43565b60200201516001600160a01b03166001600160a01b0316815260200190815260200160002060008282829054906101000a90046001600160601b0316610a439190613f59565b92506101000a8154816001600160601b0302191690836001600160601b031602179055505b80610a7281613f79565b9150506109ab565b508260c0015160706000610a9d6000546001600160a01b03620100009091041690565b6001600160a01b03168152602081019190915260400160009081208054909190610ad19084906001600160601b0316613f59565b82546101009290920a6001600160601b038181021990931691831602179091556020838101516001600160a01b038d166000908152607090925260408220805491945092610b2191859116613f59565b82546101009290920a6001600160601b0381810219909316918316021790915560e085015185516001600160401b03166000908152606e60205260409020805491935091600c91610b7b918591600160601b900416613f23565b92506101000a8154816001600160601b0302191690836001600160601b031602179055508d7fc8dc973332de19a5f71b6026983110e9c2e04b0c98b87eb771ccb78607fd114f846000015183600001518460200151856040015189604051610c1d9594939291906001600160401b039590951685526001600160601b039384166020860152918316604085015290911660608301521515608082015260a00190565b60405180910390a25050509a9950505050505050505050565b60606068805480602002602001604051908101604052809291908181526020018280548015610c8e57602002820191906000526020600020905b81546001600160a01b03168152600190910190602001808311610c70575b5050505050905090565b610ca0612ce1565b60008313610cc4576040516321ea67b360e11b81526004810184905260240161062b565b6040805160c08101825263ffffffff888116808352600060208085019190915289831684860181905260608086018b9052888516608080880182905295891660a09788018190526073805468ffffffffffffffffff1916871765010000000000860217905560748d90556075805467ffffffffffffffff19168317600160201b90920291909117905560728b9055875194855292840191909152948201899052938101879052908101929092527f24d3d934adfef9b9029d6ffa463c07d0139ed47d26ee23506f85ece2879d2bd4910160405180910390a1505050505050565b610dac612ce1565b610db4613220565b565b607354600160201b900460ff1615610de15760405163769dd35360e11b815260040160405180910390fd5b610de9613017565b806001600160601b0316600003610e155750336000908152607060205260409020546001600160601b03165b336000908152607060205260409020546001600160601b0380831691161015610e5157604051631e9acf1760e31b815260040160405180910390fd5b3360009081526070602052604081208054839290610e799084906001600160601b0316613f23565b92506101000a8154816001600160601b0302191690836001600160601b0316021790555080606f60088282829054906101000a90046001600160601b0316610ec19190613f23565b82546101009290920a6001600160601b0381810219909316918316021790915560695460405163a9059cbb60e01b81526001600160a01b03868116600483015292851660248201529116915063a9059cbb906044016020604051808303816000875af1158015610f35573d6000803e3d6000fd5b505050506040513d601f19601f82011682018060405250810190610f599190613f92565b6105b557604051631e9acf1760e31b815260040160405180910390fd5b610f7e613017565b60005b8181101561119e576000838383818110610f9d57610f9d613f43565b60209081029290920135600081815260718452604080822081516101208101835281546001600160401b038116808352600160401b82046001600160a01b03908116848b0152600160e01b90920463ffffffff16838601526001840154606084015260028401548083166080850152600160a01b90046001600160601b0390811660a0850152600385015480821660c0860152600160601b90041660e0840152600490930154610100830152918452606d90965291205491945016331490506110a05780516001600160401b03166000908152606d602052604090819020549051636c51fda960e11b81526001600160a01b03909116600482015260240161062b565b60755461010082015142916110c391600160201b90910463ffffffff1690613fb4565b11156111895760e081015181516001600160401b03166000908152606e602052604090208054600c90611107908490600160601b90046001600160601b0316613f23565b82546001600160601b039182166101009390930a92830291909202199091161790555060008281526071602052604080822082815560018101839055600281018390556003810180546001600160c01b03191690556004018290555183917ff1ca1e9147be737b04a2b018a79405f687a97de8dd8a2559bbe62357343af41491a25b5050808061119690613f79565b915050610f81565b505050565b6001600160401b0382166000908152606d602052604090205482906001600160a01b0316806111e557604051630fb532db60e11b815260040160405180910390fd5b336001600160a01b0382161461121957604051636c51fda960e11b81526001600160a01b038216600482015260240161062b565b607354600160201b900460ff16156112445760405163769dd35360e11b815260040160405180910390fd5b61124c613017565b6001600160401b0384166000908152606d602052604090206002015460631901611289576040516305a48e0f60e01b815260040160405180910390fd5b6001600160a01b0383166000908152606c602090815260408083206001600160401b0380891685529252822054169003610706576001600160a01b0383166000818152606c602090815260408083206001600160401b038916808552908352818420805467ffffffffffffffff19166001908117909155606d84528285206002018054918201815585529383902090930180546001600160a01b031916851790555192835290917f43dc749a04ac8fb825cbd514f7c0e13f13bc6f2ee66043b76629d51776cff8e091016106fd565b6001546001600160a01b0316331461138357604051630f22ca5f60e01b815260040160405180910390fd5b60008054336201000081810262010000600160b01b03198416178455600180546001600160a01b03191690556040516001600160a01b03919093041692909183917f8be0079c531659141344cd1fd0a4f28419497f9722a3daafe3b4186f6b6457e091a350565b607354600160201b900460ff16156114155760405163769dd35360e11b815260040160405180910390fd5b61141d613017565b606b60009054906101000a90046001600160a01b03166001600160a01b0316634b4fa0c16040518163ffffffff1660e01b8152600401602060405180830381865afa158015611470573d6000803e3d6000fd5b505050506040513d601f19601f820116820180604052508101906114949190613f92565b80156115095750606b54604051637d003b1d60e11b81523360048201526001600160a01b039091169063fa00763a90602401602060405180830381865afa1580156114e3573d6000803e3d6000fd5b505050506040513d601f19601f820116820180604052508101906115079190613f92565b155b1561152757604051630101292160e31b815260040160405180910390fd5b6001600160401b0381166000908152606d60205260409020546001600160a01b031661156657604051630fb532db60e11b815260040160405180910390fd5b6001600160401b0381166000908152606d60205260409020600101546001600160a01b031633146115d3576001600160401b0381166000908152606d60205260409081902060010154905163d084e97560e01b81526001600160a01b03909116600482015260240161062b565b6001600160401b0381166000818152606d60209081526040918290208054336001600160a01b0319808316821784556001909301805490931690925583516001600160a01b03909116808252928101919091529092917f6f1dc65165ffffedfd8e507b4a0f1fcfdada045ed11f6c26ba27cedfe87802f0910160405180910390a25050565b611660612ce1565b610db4613272565b6001600160401b0382166000908152606d602052604090205482906001600160a01b0316806116aa57604051630fb532db60e11b815260040160405180910390fd5b336001600160a01b038216146116de57604051636c51fda960e11b81526001600160a01b038216600482015260240161062b565b607354600160201b900460ff16156117095760405163769dd35360e11b815260040160405180910390fd5b611711613017565b6001600160a01b0383166000908152606c602090815260408083206001600160401b038089168552925282205416900361177857604051637800cff360e11b81526001600160401b03851660048201526001600160a01b038416602482015260440161062b565b6001600160401b0384166000908152606d60209081526040808320600201805482518185028101850190935280835291929091908301828280156117e557602002820191906000526020600020905b81546001600160a01b031681526001909101906020018083116117c7575b505050505090506000600182516117fc9190613fc7565b905060005b825181101561192257856001600160a01b031683828151811061182657611826613f43565b60200260200101516001600160a01b03160361191057600083838151811061185057611850613f43565b6020026020010151905080606d60008a6001600160401b03166001600160401b03168152602001908152602001600020600201838154811061189457611894613f43565b600091825260208083209190910180546001600160a01b0319166001600160a01b0394909416939093179092556001600160401b038a168152606d909152604090206002018054806118e8576118e8613fda565b600082815260209020810160001990810180546001600160a01b031916905501905550611922565b8061191a81613f79565b915050611801565b506001600160a01b0385166000818152606c602090815260408083206001600160401b038b1680855290835292819020805467ffffffffffffffff191690555192835290917f182bff9831466789164ca77075fffd84916d35a8180ba73c27e45634549b445b91015b60405180910390a2505050505050565b6000806119a66132af565b9050600081136119cc576040516321ea67b360e11b81526004810182905260240161062b565b60745460755460009163ffffffff808a16926119e9929116613fb4565b6119f39190613fb4565b905060008282611a0b89670de0b6b3a7640000613ff0565b611a159190613ff0565b611a1f919061401d565b90506000611a396001600160601b03808816908916613fb4565b9050611a51816b033b2e3c9fd0803ce8000000613fc7565b821115611a715760405163e80fa38160e01b815260040160405180910390fd5b611a7b8183613fb4565b9998505050505050505050565b607354600090600160201b900460ff1615611ab65760405163769dd35360e11b815260040160405180910390fd5b611abe613017565b606b60009054906101000a90046001600160a01b03166001600160a01b0316634b4fa0c16040518163ffffffff1660e01b8152600401602060405180830381865afa158015611b11573d6000803e3d6000fd5b505050506040513d601f19601f82011682018060405250810190611b359190613f92565b8015611baa5750606b54604051637d003b1d60e11b81523360048201526001600160a01b039091169063fa00763a90602401602060405180830381865afa158015611b84573d6000803e3d6000fd5b505050506040513d601f19601f82011682018060405250810190611ba89190613f92565b155b15611bc857604051630101292160e31b815260040160405180910390fd5b606f80546001600160401b0316906000611be183614031565b82546101009290920a6001600160401b03818102199093169183160217909155606f54169050600080604051908082528060200260200182016040528015611c33578160200160208202803683370190505b50604080518082018252600080825260208083018281526001600160401b038816808452606e83528584209451855492516001600160601b03908116600160601b026001600160c01b0319909416911617919091179093558351606081018552338152808201838152818601878152948452606d835294909220825181546001600160a01b039182166001600160a01b0319918216178355955160018301805491909216961695909517909455915180519495509093611cf9926002850192019061378c565b50506040513381526001600160401b03841691507f464722b4166576d3dcbba877b999bc35cf911f4eaf434b7eba68fa113951d0bf9060200160405180910390a250905090565b6001600160401b0381166000908152606d602052604081205481906060906001600160a01b0316611d8457604051630fb532db60e11b815260040160405180910390fd5b6001600160401b0384166000908152606e6020908152604080832054606d8352928190208054600290910180548351818602810186019094528084526001600160601b03909516946001600160a01b03909216939092918391830182828015611e1657602002820191906000526020600020905b81546001600160a01b03168152600190910190602001808311611df8575b505050505090509250925092509193909250565b607354600160201b900460ff1615611e555760405163769dd35360e11b815260040160405180910390fd5b611e5d613017565b6069546001600160a01b03163314611e88576040516344b0e3c360e01b815260040160405180910390fd5b60208114611ea957604051638129bbcd60e01b815260040160405180910390fd5b6000611eb7828401846138f6565b6001600160401b0381166000908152606d60205260409020549091506001600160a01b0316611ef957604051630fb532db60e11b815260040160405180910390fd5b6001600160401b0381166000908152606e6020526040812080546001600160601b031691869190611f2a8385613f59565b92506101000a8154816001600160601b0302191690836001600160601b0316021790555084606f60088282829054906101000a90046001600160601b0316611f729190613f59565b92506101000a8154816001600160601b0302191690836001600160601b03160217905550816001600160401b03167fd39ec07f4e209f627a4c427971473820dc129761ba28de8906bd56f57101d4f8828784611fce9190613fb4565b6040805192835260208301919091520161198b565b6000611fed61305d565b607354600160201b900460ff16156120185760405163769dd35360e11b815260040160405180910390fd5b612020613017565b6000606d8161203260208601866138f6565b6001600160401b031681526020810191909152604001600020546001600160a01b03160361207357604051630fb532db60e11b815260040160405180910390fd5b6000606c816120886040860160208701613dcd565b6001600160a01b031681526020808201929092526040016000908120916120b1908601866138f6565b6001600160401b0390811682526020820192909252604001600090812054909116915081900361212b576120e860208401846138f6565b6120f86040850160208601613dcd565b604051637800cff360e11b81526001600160401b0390921660048301526001600160a01b0316602482015260440161062b565b60735463ffffffff166121446060850160408601614057565b63ffffffff16111561218c576121606060840160408501614057565b607354604051637aebf00f60e11b815263ffffffff92831660048201529116602482015260440161062b565b60405163f1e14a2160e01b8152600090339063f1e14a21906121b690899089908990600401614072565b602060405180830381865afa1580156121d3573d6000803e3d6000fd5b505050506040513d601f19601f820116820180604052508101906121f791906140e1565b9050600061220f878761050e368990038901896140fe565b905060006122326122266060880160408901614057565b8760600135858561199b565b90506000606e8161224660208a018a6138f6565b6001600160401b03168152602080820192909252604001600090812054600160601b90046001600160601b031691606e9190612284908b018b6138f6565b6001600160401b031681526020810191909152604001600020546122b191906001600160601b0316613f23565b9050816001600160601b0316816001600160601b031610156122e657604051631e9acf1760e31b815260040160405180910390fd5b60006122f386600161411a565b9050600061231e3361230b60408c0160208d01613dcd565b61231860208d018d6138f6565b8561336d565b6040805161012081019091529091506000908061233e60208d018d6138f6565b6001600160401b031681526020018b602001602081019061235f9190613dcd565b6001600160a01b0316815260200161237d60608d0160408e01614057565b63ffffffff90811682526060808e0135602080850191909152336040808601919091526001600160601b03808e16848701528c81166080808801919091528c821660a0808901919091524260c09889015260008b8152607186528481208a5181548c890151978d0151909a16600160e01b026001600160e01b036001600160a01b03988916600160401b026001600160e01b0319909c166001600160401b03909316929092179a909a171698909817885595890151600188015590880151908801518216600160a01b0292169190911760028501559385015160038401805460e08801518716600160601b026001600160c01b03199091169290961691909117949094179093556101008401516004909201919091559192508691606e916124a7908e018e6138f6565b6001600160401b0316815260208101919091526040016000208054600c906124e0908490600160601b90046001600160601b0316613f59565b92506101000a8154816001600160601b0302191690836001600160601b03160217905550817f99f7f4e65b4b9fbabd4e357c47ed3099b36e57ecd3a43e84662f34c207d0ebe482604051612534919061413a565b60405180910390a282606c600061255160408e0160208f01613dcd565b6001600160a01b0316815260208082019290925260400160009081209161257a908e018e6138f6565b6001600160401b0390811682526020820192909252604001600020805467ffffffffffffffff191692909116919091179055509a9950505050505050505050565b6001600160401b0381166000908152606d60205260408120546001600160a01b03166125fa57604051630fb532db60e11b815260040160405180910390fd5b506001600160401b03166000908152606d60205260409020546001600160a01b031690565b600054610100900460ff161580801561263f5750600054600160ff909116105b806126595750303b158015612659575060005460ff166001145b6126bc5760405162461bcd60e51b815260206004820152602e60248201527f496e697469616c697a61626c653a20636f6e747261637420697320616c72656160448201526d191e481a5b9a5d1a585b1a5e995960921b606482015260840161062b565b6000805460ff1916600117905580156126df576000805461ff0019166101001790555b6126e76133c1565b6126f23360006133f0565b606980546001600160a01b038087166001600160a01b031992831617909255606a8054868416908316179055606b8054928516929091169190911790558015610706576000805461ff0019169055604051600181527f7f26b83ff96e1f2b6a682f133852f6798a09c465da95921460cefb3847402498906020015b60405180910390a150505050565b6001600160401b0382166000908152606d602052604090205482906001600160a01b0316806127bd57604051630fb532db60e11b815260040160405180910390fd5b336001600160a01b038216146127f157604051636c51fda960e11b81526001600160a01b038216600482015260240161062b565b607354600160201b900460ff161561281c5760405163769dd35360e11b815260040160405180910390fd5b612824613017565b61282d846129d8565b1561284b57604051631685ecdd60e31b815260040160405180910390fd5b6107068484612d12565b61285d612ce1565b6069546040516370a0823160e01b81523060048201526000916001600160a01b0316906370a0823190602401602060405180830381865afa1580156128a6573d6000803e3d6000fd5b505050506040513d601f19601f820116820180604052508101906128ca91906141fd565b606f54909150600160401b90046001600160601b03168181111561290b576040516354ced18160e11b8152600481018290526024810183905260440161062b565b8181101561119e57600061291f8284613fc7565b60695460405163a9059cbb60e01b81526001600160a01b0387811660048301526024820184905292935091169063a9059cbb906044016020604051808303816000875af1158015612974573d6000803e3d6000fd5b505050506040513d601f19601f820116820180604052508101906129989190613f92565b50604080516001600160a01b0386168152602081018390527f59bfc682b673f8cbf945f1e454df9334834abf7dfe7f92237ca29ecb9b436600910161276d565b6001600160401b0381166000908152606d6020908152604080832060020180548251818502810185019093528083528493830182828015612a4257602002820191906000526020600020905b81546001600160a01b03168152600190910190602001808311612a24575b505050505090506000612a53610c36565b905060005b8251811015612b775760005b8251811015612b64576000612b21848381518110612a8457612a84613f43565b6020026020010151868581518110612a9e57612a9e613f43565b602002602001015189606c60008a8981518110612abd57612abd613f43565b60200260200101516001600160a01b03166001600160a01b0316815260200190815260200160002060008c6001600160401b03166001600160401b0316815260200190815260200160002060009054906101000a90046001600160401b031661336d565b6000818152607160205260409020600201549091506001600160a01b031615612b51575060019695505050505050565b5080612b5c81613f79565b915050612a64565b5080612b6f81613f79565b915050612a58565b506000949350505050565b612b8a613477565b612ba75760405163ad77f06160e01b815260040160405180910390fd5b6000819003612bc9576040516375158c3b60e01b815260040160405180910390fd5b60005b606854811015612c1c57612c0960688281548110612bec57612bec613f43565b6000918252602090912001546066906001600160a01b0316613487565b5080612c1481613f79565b915050612bcc565b5060005b81811015612c6d57612c5a838383818110612c3d57612c3d613f43565b9050602002016020810190612c529190613dcd565b6066906134a3565b5080612c6581613f79565b915050612c20565b50612c7a606883836137ed565b507ff263cfb3e4298332e776194610cf9fdc09ccb3ada8b9aa39764d882e11fbf0a0828233604051612cae93929190614216565b60405180910390a15050565b612cc2612ce1565b612ccb816134b8565b50565b6000612cdb606683613539565b92915050565b6000546201000090046001600160a01b03163314610db4576040516315ae3a6f60e11b815260040160405180910390fd5b607354600160201b900460ff1615612d3d5760405163769dd35360e11b815260040160405180910390fd5b6001600160401b0382166000908152606d60209081526040808320815160608101835281546001600160a01b03908116825260018301541681850152600282018054845181870281018701865281815292959394860193830182828015612dcd57602002820191906000526020600020905b81546001600160a01b03168152600190910190602001808311612daf575b505050919092525050506001600160401b0384166000908152606e60205260408120549192506001600160601b03909116905b826040015151811015612e8157606c600084604001518381518110612e2757612e27613f43565b6020908102919091018101516001600160a01b0316825281810192909252604090810160009081206001600160401b03891682529092529020805467ffffffffffffffff1916905580612e7981613f79565b915050612e00565b506001600160401b0384166000908152606d6020526040812080546001600160a01b03199081168255600182018054909116905590612ec36002830182613840565b50506001600160401b0384166000908152606e6020526040902080546001600160c01b0319169055606f8054829190600890612f10908490600160401b90046001600160601b0316613f23565b82546101009290920a6001600160601b0381810219909316918316021790915560695460405163a9059cbb60e01b81526001600160a01b03878116600483015292851660248201529116915063a9059cbb906044016020604051808303816000875af1158015612f84573d6000803e3d6000fd5b505050506040513d601f19601f82011682018060405250810190612fa89190613f92565b612fc557604051631e9acf1760e31b815260040160405180910390fd5b604080516001600160a01b03851681526001600160601b03831660208201526001600160401b038616917fe8ed5b475a5b5987aa9165e8731bb78043f39eee32ec5a1169a89e27fcd4981591016106fd565b60345460ff1615610db45760405162461bcd60e51b815260206004820152601060248201526f14185d5cd8589b194e881c185d5cd95960821b604482015260640161062b565b61306633612cce565b610db457604051630101292160e31b815260040160405180910390fd5b60005a61138881101561309557600080fd5b6113888103905084604082048203116130ad57600080fd5b50823b6130b957600080fd5b60008083516020850160008789f1949350505050565b60408051606081018252600080825260208201819052918101829052906130f46132af565b90506000811361311a576040516321ea67b360e11b81526004810182905260240161062b565b6000815a8b6131298c89613fb4565b6131339190613fb4565b61313d9190613fc7565b61314f86670de0b6b3a7640000613ff0565b6131599190613ff0565b613163919061401d565b9050600061317d6001600160601b03808916908b16613fb4565b9050613195816b033b2e3c9fd0803ce8000000613fc7565b8211156131b55760405163e80fa38160e01b815260040160405180910390fd5b60006131c460ff8a168b614277565b905060006131d28285613f59565b905060006131e86131e38587613fb4565b61355b565b604080516060810182526001600160601b03958616815293851660208501529316928201929092529c9b505050505050505050505050565b6132286135c7565b6034805460ff191690557f5db9ee0a495bf2e6ff9c91a7834c1ba4fdd244a5e8aa4e537bd38aeae4b073aa335b6040516001600160a01b03909116815260200160405180910390a1565b61327a613017565b6034805460ff191660011790557f62e78cea01bee320cd4e420270b5ea74000d11b0c9f74754ebdbfc544b05a2586132553390565b607354606a5460408051633fabe5a360e21b8152905160009365010000000000900463ffffffff169283151592859283926001600160a01b03169163feaf968c9160048083019260a09291908290030181865afa158015613314573d6000803e3d6000fd5b505050506040513d601f19601f8201168201806040525081019061333891906142b7565b5093505092505082801561335a57506133518142613fc7565b8463ffffffff16105b156133655760725491505b509392505050565b604080516001600160a01b0395861660208083019190915294909516858201526001600160401b03928316606086015291166080808501919091528151808503909101815260a09093019052815191012090565b600054610100900460ff166133e85760405162461bcd60e51b815260040161062b90614307565b610db4613610565b600054610100900460ff166134175760405162461bcd60e51b815260040161062b90614307565b6001600160a01b03821661343e57604051635b5a8afd60e11b815260040160405180910390fd5b600080546001600160a01b03808516620100000262010000600160b01b0319909216919091179091558116156105b5576105b5816134b8565b6000613481612ce1565b50600190565b600061349c836001600160a01b038416613643565b9392505050565b600061349c836001600160a01b03841661373d565b336001600160a01b038216036134e15760405163282010c360e01b815260040160405180910390fd5b600180546001600160a01b0319166001600160a01b038381169182179092556000805460405192936201000090910416917fed8889f560326eb138920d842192f0eb3dd22b4f139c87a2c57538e05bae12789190a350565b6001600160a01b0381166000908152600183016020526040812054151561349c565b60006001600160601b038211156135c35760405162461bcd60e51b815260206004820152602660248201527f53616665436173743a2076616c756520646f65736e27742066697420696e203960448201526536206269747360d01b606482015260840161062b565b5090565b60345460ff16610db45760405162461bcd60e51b815260206004820152601460248201527314185d5cd8589b194e881b9bdd081c185d5cd95960621b604482015260640161062b565b600054610100900460ff166136375760405162461bcd60e51b815260040161062b90614307565b6034805460ff19169055565b6000818152600183016020526040812054801561372c576000613667600183613fc7565b855490915060009061367b90600190613fc7565b90508181146136e057600086600001828154811061369b5761369b613f43565b90600052602060002001549050808760000184815481106136be576136be613f43565b6000918252602080832090910192909255918252600188019052604090208390555b85548690806136f1576136f1613fda565b600190038181906000526020600020016000905590558560010160008681526020019081526020016000206000905560019350505050612cdb565b6000915050612cdb565b5092915050565b600081815260018301602052604081205461378457508154600181810184556000848152602080822090930184905584548482528286019093526040902091909155612cdb565b506000612cdb565b8280548282559060005260206000209081019282156137e1579160200282015b828111156137e157825182546001600160a01b0319166001600160a01b039091161782556020909201916001909101906137ac565b506135c392915061385a565b8280548282559060005260206000209081019282156137e1579160200282015b828111156137e15781546001600160a01b0319166001600160a01b0384351617825560209092019160019091019061380d565b5080546000825590600052602060002090810190612ccb91905b5b808211156135c3576000815560010161385b565b600081518084526020808501945080840160005b838110156138a85781516001600160a01b031687529582019590820190600101613883565b509495945050505050565b63ffffffff831681526040602082015260006138d2604083018461386f565b949350505050565b80356001600160401b03811681146138f157600080fd5b919050565b60006020828403121561390857600080fd5b61349c826138da565b80356001600160a01b03811681146138f157600080fd5b6000806040838503121561393b57600080fd5b613944836138da565b915061395260208401613911565b90509250929050565b60008083601f84011261396d57600080fd5b5081356001600160401b0381111561398457600080fd5b60208301915083602082850101111561399c57600080fd5b9250929050565b634e487b7160e01b600052604160045260246000fd5b803560ff811681146138f157600080fd5b6000806000806000806000806000806104c08b8d0312156139ea57600080fd5b8a35995060208b01356001600160401b0380821115613a0857600080fd5b613a148e838f0161395b565b909b50995060408d0135915080821115613a2d57600080fd5b613a398e838f0161395b565b9099509750879150613a4d60608e01613911565b96508d609f8e0112613a5e57600080fd5b60405191506103e082018281108282111715613a7c57613a7c6139a3565b60405250806104608d018e811115613a9357600080fd5b60808e015b81811015613ab757613aa981613911565b835260209283019201613a98565b50829650613ac4816139b9565b95505050506104808b013591506104a08b013590509295989b9194979a5092959850565b60208152600061349c602083018461386f565b803563ffffffff811681146138f157600080fd5b60008060008060008060c08789031215613b2857600080fd5b613b3187613afb565b9550613b3f60208801613afb565b94506040870135935060608701359250613b5b60808801613afb565b9150613b6960a08801613afb565b90509295509295509295565b6001600160601b0381168114612ccb57600080fd5b60008060408385031215613b9d57600080fd5b613ba683613911565b91506020830135613bb681613b75565b809150509250929050565b60008083601f840112613bd357600080fd5b5081356001600160401b03811115613bea57600080fd5b6020830191508360208260051b850101111561399c57600080fd5b60008060208385031215613c1857600080fd5b82356001600160401b03811115613c2e57600080fd5b613c3a85828601613bc1565b90969095509350505050565b60008060008060808587031215613c5c57600080fd5b613c6585613afb565b9350602085013592506040850135613c7c81613b75565b91506060850135613c8c81613b75565b939692955090935050565b6001600160601b03841681526001600160a01b0383166020820152606060408201819052600090613cca9083018461386f565b95945050505050565b60008060008060608587031215613ce957600080fd5b613cf285613911565b93506020850135925060408501356001600160401b03811115613d1457600080fd5b613d208782880161395b565b95989497509550505050565b600080600083850360a0811215613d4257600080fd5b84356001600160401b03811115613d5857600080fd5b613d648782880161395b565b9095509350506080601f1982011215613d7c57600080fd5b506020840190509250925092565b600080600060608486031215613d9f57600080fd5b613da884613911565b9250613db660208501613911565b9150613dc460408501613911565b90509250925092565b600060208284031215613ddf57600080fd5b61349c82613911565b600060808284031215613dfa57600080fd5b604051608081018181106001600160401b0382111715613e1c57613e1c6139a3565b604052905080613e2b836138da565b8152613e3960208401613911565b6020820152613e4a60408401613afb565b6040820152606083013560608201525092915050565b600080600060a08486031215613e7557600080fd5b83356001600160401b03811115613e8b57600080fd5b613e978682870161395b565b9094509250613dc490508560208601613de8565b81835281816020850137506000828201602090810191909152601f909101601f19169091010190565b858152606060208201526000613eee606083018688613eab565b8281036040840152613f01818587613eab565b98975050505050505050565b634e487b7160e01b600052601160045260246000fd5b6001600160601b0382811682821603908082111561373657613736613f0d565b634e487b7160e01b600052603260045260246000fd5b6001600160601b0381811683821601908082111561373657613736613f0d565b600060018201613f8b57613f8b613f0d565b5060010190565b600060208284031215613fa457600080fd5b8151801515811461349c57600080fd5b80820180821115612cdb57612cdb613f0d565b81810381811115612cdb57612cdb613f0d565b634e487b7160e01b600052603160045260246000fd5b8082028115828204841417612cdb57612cdb613f0d565b634e487b7160e01b600052601260045260246000fd5b60008261402c5761402c614007565b500490565b60006001600160401b0380831681810361404d5761404d613f0d565b6001019392505050565b60006020828403121561406957600080fd5b61349c82613afb565b60a08152600061408660a083018587613eab565b90506001600160401b03614099846138da565b16602083015260018060a01b036140b260208501613911565b16604083015263ffffffff6140c960408501613afb565b16606083015260608301356080830152949350505050565b6000602082840312156140f357600080fd5b815161349c81613b75565b60006080828403121561411057600080fd5b61349c8383613de8565b6001600160401b0381811683821601908082111561373657613736613f0d565b81516001600160401b031681526020808301516001600160a01b0316908201526040808301516101208301916141779084018263ffffffff169052565b5060608301516060830152608083015161419c60808401826001600160a01b03169052565b5060a08301516141b760a08401826001600160601b03169052565b5060c08301516141d260c08401826001600160601b03169052565b5060e08301516141ed60e08401826001600160601b03169052565b5061010092830151919092015290565b60006020828403121561420f57600080fd5b5051919050565b6040808252810183905260008460608301825b86811015614257576001600160a01b0361424284613911565b16825260209283019290910190600101614229565b506001600160a01b03949094166020939093019290925250909392505050565b60006001600160601b038084168061429157614291614007565b92169190910492915050565b805169ffffffffffffffffffff811681146138f157600080fd5b600080600080600060a086880312156142cf57600080fd5b6142d88661429d565b94506020860151935060408601519250606086015191506142fb6080870161429d565b90509295509295909350565b6020808252602b908201527f496e697469616c697a61626c653a20636f6e7472616374206973206e6f74206960408201526a6e697469616c697a696e6760a81b60608201526080019056fea2646970667358221220f3ceb172ec9897136930cdc45dda123d4d2ace5c74e85b82fc1be125b114424c64736f6c63430008110033",
    "linkReferences": {}
  },
  "methodIdentifiers": {
    "MAX_CONSUMERS()": "64d51a2a",
    "acceptOwnership()": "79ba5097",
    "acceptSubscriptionOwnerTransfer(uint64)": "82359740",
    "addConsumer(uint64,address)": "7341c10c",
    "cancelSubscription(uint64,address)": "d7ae1d30",
    "createSubscription()": "a21a23e4",
    "estimateCost(uint32,uint256,uint96,uint96)": "a1a6d041",
    "fulfillAndBill(bytes32,bytes,bytes,address,address[31],uint8,uint256,uint256)": "0739e4f1",
    "getAuthorizedSenders()": "2408afaa",
    "getConfig()": "c3f909d4",
    "getCurrentsubscriptionId()": "33652e3e",
    "getRequestConfig()": "00012291",
    "getRequiredFee(bytes,(uint64,address,uint32,uint256))": "f1e14a21",
    "getSubscription(uint64)": "a47c7696",
    "getSubscriptionOwner(uint64)": "b2a489ff",
    "getTotalBalance()": "12b58349",
    "initialize(address,address,address)": "c0c53b8b",
    "isAuthorizedSender(address)": "fa00763a",
    "onTokenTransfer(address,uint256,bytes)": "a4c0ed36",
    "oracleWithdraw(address,uint96)": "66316d8d",
    "owner()": "8da5cb5b",
    "ownerCancelSubscription(uint64)": "02bcc5b6",
    "pause()": "8456cb59",
    "paused()": "5c975abb",
    "pendingRequestExists(uint64)": "e82ad7d4",
    "recoverFunds(address)": "e72f6e30",
    "removeConsumer(uint64,address)": "9f87fad7",
    "requestSubscriptionOwnerTransfer(uint64,address)": "04c357cb",
    "setAuthorizedSenders(address[])": "ee56997b",
    "setConfig(uint32,uint32,uint256,int256,uint32,uint32)": "27923e41",
    "startBilling(bytes,(uint64,address,uint32,uint256))": "a9d03c05",
    "timeoutRequests(bytes32[])": "665871ec",
    "transferOwnership(address)": "f2fde38b",
    "unpause()": "3f4ba83a"
  },
  "id": 8
}