{
  "abi": [
    {
      "inputs": [],
      "stateMutability": "nonpayable",
      "type": "constructor"
    },
    {
      "anonymous": false,
      "inputs": [
        {
          "indexed": false,
          "internalType": "uint8",
          "name": "version",
          "type": "uint8"
        }
      ],
      "name": "Initialized",
      "type": "event"
    },
    {
      "inputs": [
        {
          "internalType": "address[]",
          "name": "tokens",
          "type": "address[]"
        }
      ],
      "name": "addSafeHoldings",
      "outputs": [],
      "stateMutability": "nonpayable",
      "type": "function"
    },
    {
      "inputs": [],
      "name": "avatar",
      "outputs": [
        {
          "internalType": "contract IAvatar",
          "name": "",
          "type": "address"
        }
      ],
      "stateMutability": "view",
      "type": "function"
    },
    {
      "inputs": [],
      "name": "baal",
      "outputs": [
        {
          "internalType": "contract IBaal",
          "name": "",
          "type": "address"
        }
      ],
      "stateMutability": "view",
      "type": "function"
    },
    {
      "inputs": [
        {
          "internalType": "uint256",
          "name": "score",
          "type": "uint256"
        }
      ],
      "name": "chainlinkResult",
      "outputs": [],
      "stateMutability": "nonpayable",
      "type": "function"
    },
    {
      "inputs": [],
      "name": "consumer",
      "outputs": [
        {
          "internalType": "contract ReaperConsumer",
          "name": "",
          "type": "address"
        }
      ],
      "stateMutability": "view",
      "type": "function"
    },
    {
      "inputs": [
        {
          "components": [
            {
              "internalType": "address",
              "name": "baalDao",
              "type": "address"
            },
            {
              "internalType": "address",
              "name": "liquidationTarget",
              "type": "address"
            },
            {
              "internalType": "uint256",
              "name": "interval",
              "type": "uint256"
            },
            {
              "internalType": "uint256",
              "name": "threshold",
              "type": "uint256"
            }
          ],
          "internalType": "struct IInitData.InitData",
          "name": "initData",
          "type": "tuple"
        },
        {
          "internalType": "address",
          "name": "chainlinkConsumer",
          "type": "address"
        }
      ],
      "name": "initialize",
      "outputs": [],
      "stateMutability": "nonpayable",
      "type": "function"
    },
    {
      "inputs": [],
      "name": "interval",
      "outputs": [
        {
          "internalType": "uint256",
          "name": "",
          "type": "uint256"
        }
      ],
      "stateMutability": "view",
      "type": "function"
    },
    {
      "inputs": [],
      "name": "lastAnalysis",
      "outputs": [
        {
          "internalType": "uint256",
          "name": "",
          "type": "uint256"
        }
      ],
      "stateMutability": "view",
      "type": "function"
    },
    {
      "inputs": [],
      "name": "liquidationTarget",
      "outputs": [
        {
          "internalType": "address",
          "name": "",
          "type": "address"
        }
      ],
      "stateMutability": "view",
      "type": "function"
    },
    {
      "inputs": [
        {
          "internalType": "string",
          "name": "source",
          "type": "string"
        },
        {
          "internalType": "bytes",
          "name": "secrets",
          "type": "bytes"
        },
        {
          "internalType": "enum Functions.Location",
          "name": "secretsLocation",
          "type": "uint8"
        },
        {
          "internalType": "string[]",
          "name": "args",
          "type": "string[]"
        },
        {
          "internalType": "uint64",
          "name": "subscriptionId",
          "type": "uint64"
        },
        {
          "internalType": "uint32",
          "name": "gasLimit",
          "type": "uint32"
        }
      ],
      "name": "pokeReaper",
      "outputs": [],
      "stateMutability": "nonpayable",
      "type": "function"
    },
    {
      "inputs": [
        {
          "internalType": "bool",
          "name": "pass",
          "type": "bool"
        }
      ],
      "name": "pokeReaperTest",
      "outputs": [],
      "stateMutability": "nonpayable",
      "type": "function"
    },
    {
      "inputs": [
        {
          "internalType": "address",
          "name": "",
          "type": "address"
        }
      ],
      "name": "redundancyCheck",
      "outputs": [
        {
          "internalType": "bool",
          "name": "",
          "type": "bool"
        }
      ],
      "stateMutability": "view",
      "type": "function"
    },
    {
      "inputs": [],
      "name": "reputationScore",
      "outputs": [
        {
          "internalType": "uint256",
          "name": "",
          "type": "uint256"
        }
      ],
      "stateMutability": "view",
      "type": "function"
    },
    {
      "inputs": [
        {
          "internalType": "uint256",
          "name": "",
          "type": "uint256"
        }
      ],
      "name": "safeERC20s",
      "outputs": [
        {
          "internalType": "address",
          "name": "",
          "type": "address"
        }
      ],
      "stateMutability": "view",
      "type": "function"
    },
    {
      "inputs": [],
      "name": "sharesToken",
      "outputs": [
        {
          "internalType": "contract IERC20",
          "name": "",
          "type": "address"
        }
      ],
      "stateMutability": "view",
      "type": "function"
    },
    {
      "inputs": [],
      "name": "threshold",
      "outputs": [
        {
          "internalType": "uint256",
          "name": "",
          "type": "uint256"
        }
      ],
      "stateMutability": "view",
      "type": "function"
    }
  ],
  "bytecode": {
    "object": "0x608060405234801561001057600080fd5b5061001961001e565b6100de565b600054610100900460ff161561008a5760405162461bcd60e51b815260206004820152602760248201527f496e697469616c697a61626c653a20636f6e747261637420697320696e697469604482015266616c697a696e6760c81b606482015260840160405180910390fd5b60005460ff90811610156100dc576000805460ff191660ff9081179091556040519081527f7f26b83ff96e1f2b6a682f133852f6798a09c465da95921460cefb38474024989060200160405180910390a15b565b61184a806100ed6000396000f3fe608060405234801561001057600080fd5b50600436106101005760003560e01c8063947a36fb11610097578063b4fd729611610066578063b4fd72961461020e578063c320137014610221578063e5a2a2a514610234578063e6bcb3aa1461024757600080fd5b8063947a36fb146101d65780639701c3a0146101df5780639c0fd1d1146101f25780639fc073e0146101fb57600080fd5b806361b0ff07116100d357806361b0ff071461016a57806370f616201461017d57806374606fc6146101b05780638009ba1f146101c357600080fd5b806342cde4e8146101055780635aef7de6146101215780635ec502241461014c57806360a7fc1f14610161575b600080fd5b61010e600a5481565b6040519081526020015b60405180910390f35b600454610134906001600160a01b031681565b6040516001600160a01b039091168152602001610118565b61015f61015a3660046110f2565b610270565b005b61010e60095481565b61015f61017836600461117d565b610682565b6101a061018b3660046111bf565b600c6020526000908152604090205460ff1681565b6040519015158152602001610118565b61015f6101be3660046111f1565b6107d2565b600354610134906001600160a01b031681565b61010e60075481565b61015f6101ed36600461120e565b610842565b61010e60085481565b600654610134906001600160a01b031681565b600554610134906001600160a01b031681565b61015f61022f36600461129a565b61086e565b600254610134906001600160a01b031681565b61013461025536600461120e565b600b602052600090815260409020546001600160a01b031681565b600054610100900460ff16158080156102905750600054600160ff909116105b806102aa5750303b1580156102aa575060005460ff166001145b6103125760405162461bcd60e51b815260206004820152602e60248201527f496e697469616c697a61626c653a20636f6e747261637420697320616c72656160448201526d191e481a5b9a5d1a585b1a5e995960921b60648201526084015b60405180910390fd5b6000805460ff191660011790558015610335576000805461ff0019166101001790555b61034260208401846111bf565b600280546001600160a01b0319166001600160a01b0392909216918217905560408051638009ba1f60e01b81529051638009ba1f9160048082019260209290919082900301816000875af115801561039e573d6000803e3d6000fd5b505050506040513d601f19601f820116820180604052508101906103c2919061136d565b600380546001600160a01b0319166001600160a01b0392831617905560025460408051632d77bef360e11b815290519190921691635aef7de691600480830192602092919082900301816000875af1158015610422573d6000803e3d6000fd5b505050506040513d601f19601f82011682018060405250810190610446919061136d565b600480546001600160a01b0319166001600160a01b039290921691909117905561047660408401602085016111bf565b600680546001600160a01b03199081166001600160a01b03938416179091556040850135600755606080860135600a908155426008556009556005805490921692851692909217905561050b306040516001600160a01b038216602482015260609060440160408051601f198184030181529190526020810180516001600160e01b031663610b592560e01b17905292915050565b9050606061051a306002610925565b6040805160028082526060820190925291925060009190816020015b606081526020019060019003908161053657905050905081816000815181106105615761056161138a565b602002602001018190525082816001815181106105805761058061138a565b602090810291909101015260408051600280825260608201909252600091816020016020820280368337505060025482519293506001600160a01b0316918391506000906105d0576105d061138a565b6001600160a01b0392831660209182029290920101526004548251911690829060019081106106015761060161138a565b60200260200101906001600160a01b031690816001600160a01b03168152505061063361062e8383610a04565b610ae5565b50505050801561067d576000805461ff0019169055604051600181527f7f26b83ff96e1f2b6a682f133852f6798a09c465da95921460cefb38474024989060200160405180910390a15b505050565b8060005b818110156107cc5760008484838181106106a2576106a261138a565b90506020020160208101906106b791906111bf565b600480546040516370a0823160e01b81526001600160a01b03918216928101929092529192506000918316906370a0823190602401602060405180830381865afa158015610709573d6000803e3d6000fd5b505050506040513d601f19601f8201168201806040525081019061072d91906113a0565b11156107b9576001600160a01b0381166000908152600c602052604090205460ff1615156001146107b9576001600160a01b038116600052600c602052610778600180546001019055565b80600b600061078660015490565b815260200190815260200160002060006101000a8154816001600160a01b0302191690836001600160a01b031602179055505b50806107c4816113cf565b915050610686565b50505050565b6107da610c2f565b60075460085442916107eb916113e8565b8110156107f757600080fd5b81151560000361082a57600a60095461081091906113fb565b6009819055600a111561082557610825610d66565b61083c565b6009546108389060056113e8565b6009555b60085550565b600a5481101561086057600a60095461085b91906113fb565b505b50565b60095461085b9060056113e8565b610876610c2f565b6007546008544291610887916113e8565b81101561089357600080fd5b600554604051636915912560e11b81526001600160a01b039091169063d22b224a906108d3908d908d908d908d908d908d908d908d908d90600401611455565b6020604051808303816000875af11580156108f2573d6000803e3d6000fd5b505050506040513d601f19601f8201168201806040525081019061091691906113a0565b50600855505050505050505050565b6040805160018082528183019092526060916000919060208083019080368337019050509050838160008151811061095f5761095f61138a565b6001600160a01b03929092166020928302919091019091015260408051600180825281830190925260009181602001602082028036833701905050905083816000815181106109b0576109b061138a565b60200260200101818152505081816040516024016109cf929190611551565b60408051601f198184030181529190526020810180516001600160e01b0316630f656a2160e01b179052925050505b92915050565b60608060005b8451811015610aa057816000858381518110610a2857610a2861138a565b60200260200101516000888581518110610a4457610a4461138a565b602002602001015151898681518110610a5f57610a5f61138a565b6020026020010151604051602001610a7c969594939291906115f9565b60405160208183030381529060405291508080610a98906113cf565b915050610a0a565b5080604051602401610ab2919061168f565b60408051601f198184030181529190526020810180516001600160e01b03166346c07f8560e11b17905291505092915050565b60025460408051639a2f747f60e01b815290516000926001600160a01b031691639a2f747f916004808301926020929190829003018187875af1158015610b30573d6000803e3d6000fd5b505050506040513d601f19601f82011682018060405250810190610b5491906113a0565b9050803414610b975760405162461bcd60e51b815260206004820152600f60248201526e4d697373696e67207472696275746560881b6044820152606401610309565b60006040518060a00160405280607e8152602001611797607e91396002546040516307505ff960e31b81529192506001600160a01b031690633a82ffc8908490610bec908790600090819088906004016116a2565b60206040518083038185885af1158015610c0a573d6000803e3d6000fd5b50505050506040513d601f19601f820116820180604052508101906107cc91906113a0565b6003546040516370a0823160e01b81523360048201526000916001600160a01b0316906370a0823190602401602060405180830381865afa158015610c78573d6000803e3d6000fd5b505050506040513d601f19601f82011682018060405250810190610c9c91906113a0565b9050600260009054906101000a90046001600160a01b03166001600160a01b0316635cfd6f7e6040518163ffffffff1660e01b81526004016020604051808303816000875af1158015610cf3573d6000803e3d6000fd5b505050506040513d601f19601f82011682018060405250810190610d1791906113a0565b81101561085d5760405162461bcd60e51b815260206004820181905260248201527f596f75206d75737420706f7373657373206d696e696d756d20736861726573216044820152606401610309565b600354604080516318160ddd60e01b815290516000926001600160a01b0316916318160ddd9160048083019260209291908290030181865afa158015610db0573d6000803e3d6000fd5b505050506040513d601f19601f82011682018060405250810190610dd491906113a0565b60408051600180825281830190925291925060009190602080830190803683370190505090503081600081518110610e0e57610e0e61138a565b6001600160a01b039290921660209283029190910190910152604080516001808252818301909252600091816020016020820280368337019050509050610e57836103e86116e4565b81600081518110610e6a57610e6a61138a565b6020908102919091010152600254604051632c78fd0360e21b81526001600160a01b039091169063b1e3f40c90610ea79085908590600401611551565b600060405180830381600087803b158015610ec157600080fd5b505af1158015610ed5573d6000803e3d6000fd5b505050506000610ee460015490565b905060015b81811161105a576000818152600b6020526040808220546004805492516370a0823160e01b81526001600160a01b03938416918101919091529116919082906370a0823190602401602060405180830381865afa158015610f4e573d6000803e3d6000fd5b505050506040513d601f19601f82011682018060405250810190610f7291906113a0565b90508015611045576006546040516001600160a01b0390911660248201526044810182905260009060640160408051601f198184030181529181526020820180516001600160e01b031663a9059cbb60e01b17905260048054915163468721a760e01b81529293506001600160a01b039091169163468721a791610fff91879160009187918391016116fb565b6020604051808303816000875af115801561101e573d6000803e3d6000fd5b505050506040513d601f19601f82011682018060405250810190611042919061173c565b50505b50508080611052906113cf565b915050610ee9565b506004805460065460405163468721a760e01b81526001600160a01b039283169363468721a79361109393169185319160009101611759565b6020604051808303816000875af11580156110b2573d6000803e3d6000fd5b505050506040513d601f19601f820116820180604052508101906110d6919061173c565b5050505050565b6001600160a01b038116811461085d57600080fd5b60008082840360a081121561110657600080fd5b608081121561111457600080fd5b508291506080830135611126816110dd565b809150509250929050565b60008083601f84011261114357600080fd5b50813567ffffffffffffffff81111561115b57600080fd5b6020830191508360208260051b850101111561117657600080fd5b9250929050565b6000806020838503121561119057600080fd5b823567ffffffffffffffff8111156111a757600080fd5b6111b385828601611131565b90969095509350505050565b6000602082840312156111d157600080fd5b81356111dc816110dd565b9392505050565b801515811461085d57600080fd5b60006020828403121561120357600080fd5b81356111dc816111e3565b60006020828403121561122057600080fd5b5035919050565b60008083601f84011261123957600080fd5b50813567ffffffffffffffff81111561125157600080fd5b60208301915083602082850101111561117657600080fd5b803567ffffffffffffffff8116811461128157600080fd5b919050565b803563ffffffff8116811461128157600080fd5b600080600080600080600080600060c08a8c0312156112b857600080fd5b893567ffffffffffffffff808211156112d057600080fd5b6112dc8d838e01611227565b909b50995060208c01359150808211156112f557600080fd5b6113018d838e01611227565b909950975060408c013591506002821061131a57600080fd5b90955060608b0135908082111561133057600080fd5b5061133d8c828d01611131565b9095509350611350905060808b01611269565b915061135e60a08b01611286565b90509295985092959850929598565b60006020828403121561137f57600080fd5b81516111dc816110dd565b634e487b7160e01b600052603260045260246000fd5b6000602082840312156113b257600080fd5b5051919050565b634e487b7160e01b600052601160045260246000fd5b6000600182016113e1576113e16113b9565b5060010190565b808201808211156109fe576109fe6113b9565b818103818111156109fe576109fe6113b9565b81835281816020850137506000828201602090810191909152601f909101601f19169091010190565b6002811061085d57634e487b7160e01b600052602160045260246000fd5b60c08152600061146960c083018b8d61140e565b60208382038185015261147d828b8d61140e565b915061148889611437565b604084018990528382036060850152868252808201600588901b830182018960005b8a81101561151a57858303601f190184528135368d9003601e190181126114d057600080fd5b8c01858101903567ffffffffffffffff8111156114ec57600080fd5b8036038213156114fb57600080fd5b61150685828461140e565b9587019594505050908401906001016114aa565b505067ffffffffffffffff88166080870152935061153792505050565b63ffffffff831660a08301529a9950505050505050505050565b604080825283519082018190526000906020906060840190828701845b828110156115935781516001600160a01b03168452928401929084019060010161156e565b5050508381038285015284518082528583019183019060005b818110156115c8578351835292840192918401916001016115ac565b5090979650505050505050565b60005b838110156115f05781810151838201526020016115d8565b50506000910152565b6000875161160b818460208c016115d5565b808301905060ff60f81b8860f81b1681526bffffffffffffffffffffffff198760601b16600182015285601582015284603582015283516116538160558401602088016115d5565b0160550198975050505050505050565b6000815180845261167b8160208601602086016115d5565b601f01601f19169290920160200192915050565b6020815260006111dc6020830184611663565b6080815260006116b56080830187611663565b63ffffffff8616602084015284604084015282810360608401526116d98185611663565b979650505050505050565b80820281158282048414176109fe576109fe6113b9565b60018060a01b03851681528360208201526080604082015260006117226080830185611663565b905061172d83611437565b82606083015295945050505050565b60006020828403121561174e57600080fd5b81516111dc816111e3565b6001600160a01b03841681526020810183905260806040820181905260009082015260a0810161178883611437565b82606083015294935050505056fe7b2270726f706f73616c54797065223a20224144445f5348414d414e222c20227469746c65223a2022526561706572222c20226465736372697074696f6e223a202241737369676e2052656170657220636f6e74726163742061732061204d616e616765722d5368616d616e20616e6420536166652d4d6f64756c65227da2646970667358221220121f9042457aea0770bdb6f3047045abb04335cf432d338c697d9cf568ac43de64736f6c63430008110033",
    "linkReferences": {}
  },
  "methodIdentifiers": {
    "addSafeHoldings(address[])": "61b0ff07",
    "avatar()": "5aef7de6",
    "baal()": "e5a2a2a5",
    "chainlinkResult(uint256)": "9701c3a0",
    "consumer()": "b4fd7296",
    "initialize((address,address,uint256,uint256),address)": "5ec50224",
    "interval()": "947a36fb",
    "lastAnalysis()": "9c0fd1d1",
    "liquidationTarget()": "9fc073e0",
    "pokeReaper(string,bytes,uint8,string[],uint64,uint32)": "c3201370",
    "pokeReaperTest(bool)": "74606fc6",
    "redundancyCheck(address)": "70f61620",
    "reputationScore()": "60a7fc1f",
    "safeERC20s(uint256)": "e6bcb3aa",
    "sharesToken()": "8009ba1f",
    "threshold()": "42cde4e8"
  },
  "id": 0
}