{
  "abi": [
    {
      "inputs": [],
      "stateMutability": "nonpayable",
      "type": "constructor"
    },
    {
      "anonymous": false,
      "inputs": [
        {
          "indexed": false,
          "internalType": "uint8",
          "name": "version",
          "type": "uint8"
        }
      ],
      "name": "Initialized",
      "type": "event"
    },
    {
      "inputs": [
        {
          "internalType": "address[]",
          "name": "tokens",
          "type": "address[]"
        }
      ],
      "name": "addSafeHoldings",
      "outputs": [],
      "stateMutability": "nonpayable",
      "type": "function"
    },
    {
      "inputs": [],
      "name": "avatar",
      "outputs": [
        {
          "internalType": "contract IAvatar",
          "name": "",
          "type": "address"
        }
      ],
      "stateMutability": "view",
      "type": "function"
    },
    {
      "inputs": [],
      "name": "baal",
      "outputs": [
        {
          "internalType": "contract IBaal",
          "name": "",
          "type": "address"
        }
      ],
      "stateMutability": "view",
      "type": "function"
    },
    {
      "inputs": [
        {
          "internalType": "uint256",
          "name": "score",
          "type": "uint256"
        }
      ],
      "name": "chainlinkResult",
      "outputs": [],
      "stateMutability": "nonpayable",
      "type": "function"
    },
    {
      "inputs": [],
      "name": "consumer",
      "outputs": [
        {
          "internalType": "contract ReaperConsumer",
          "name": "",
          "type": "address"
        }
      ],
      "stateMutability": "view",
      "type": "function"
    },
    {
      "inputs": [
        {
          "components": [
            {
              "internalType": "address",
              "name": "baalDao",
              "type": "address"
            },
            {
              "internalType": "address",
              "name": "liquidationTarget",
              "type": "address"
            },
            {
              "internalType": "uint256",
              "name": "interval",
              "type": "uint256"
            },
            {
              "internalType": "uint256",
              "name": "threshold",
              "type": "uint256"
            }
          ],
          "internalType": "struct IInitData.InitData",
          "name": "initData",
          "type": "tuple"
        },
        {
          "internalType": "address",
          "name": "chainlinkConsumer",
          "type": "address"
        }
      ],
      "name": "initialize",
      "outputs": [],
      "stateMutability": "nonpayable",
      "type": "function"
    },
    {
      "inputs": [],
      "name": "interval",
      "outputs": [
        {
          "internalType": "uint256",
          "name": "",
          "type": "uint256"
        }
      ],
      "stateMutability": "view",
      "type": "function"
    },
    {
      "inputs": [],
      "name": "lastAnalysis",
      "outputs": [
        {
          "internalType": "uint256",
          "name": "",
          "type": "uint256"
        }
      ],
      "stateMutability": "view",
      "type": "function"
    },
    {
      "inputs": [],
      "name": "liquidationTarget",
      "outputs": [
        {
          "internalType": "address",
          "name": "",
          "type": "address"
        }
      ],
      "stateMutability": "view",
      "type": "function"
    },
    {
      "inputs": [
        {
          "internalType": "string",
          "name": "source",
          "type": "string"
        },
        {
          "internalType": "bytes",
          "name": "secrets",
          "type": "bytes"
        },
        {
          "internalType": "enum Functions.Location",
          "name": "secretsLocation",
          "type": "uint8"
        },
        {
          "internalType": "string[]",
          "name": "args",
          "type": "string[]"
        },
        {
          "internalType": "uint64",
          "name": "subscriptionId",
          "type": "uint64"
        },
        {
          "internalType": "uint32",
          "name": "gasLimit",
          "type": "uint32"
        }
      ],
      "name": "pokeReaper",
      "outputs": [],
      "stateMutability": "nonpayable",
      "type": "function"
    },
    {
      "inputs": [
        {
          "internalType": "bool",
          "name": "pass",
          "type": "bool"
        }
      ],
      "name": "pokeReaperTest",
      "outputs": [],
      "stateMutability": "nonpayable",
      "type": "function"
    },
    {
      "inputs": [
        {
          "internalType": "address",
          "name": "",
          "type": "address"
        }
      ],
      "name": "redundancyCheck",
      "outputs": [
        {
          "internalType": "bool",
          "name": "",
          "type": "bool"
        }
      ],
      "stateMutability": "view",
      "type": "function"
    },
    {
      "inputs": [],
      "name": "reputationScore",
      "outputs": [
        {
          "internalType": "uint256",
          "name": "",
          "type": "uint256"
        }
      ],
      "stateMutability": "view",
      "type": "function"
    },
    {
      "inputs": [
        {
          "internalType": "uint256",
          "name": "",
          "type": "uint256"
        }
      ],
      "name": "safeERC20s",
      "outputs": [
        {
          "internalType": "address",
          "name": "",
          "type": "address"
        }
      ],
      "stateMutability": "view",
      "type": "function"
    },
    {
      "inputs": [],
      "name": "sharesToken",
      "outputs": [
        {
          "internalType": "contract IERC20",
          "name": "",
          "type": "address"
        }
      ],
      "stateMutability": "view",
      "type": "function"
    },
    {
      "inputs": [],
      "name": "threshold",
      "outputs": [
        {
          "internalType": "uint256",
          "name": "",
          "type": "uint256"
        }
      ],
      "stateMutability": "view",
      "type": "function"
    }
  ],
  "bytecode": {
    "object": "0x608060405234801561001057600080fd5b5061001961001e565b6100de565b600054610100900460ff161561008a5760405162461bcd60e51b815260206004820152602760248201527f496e697469616c697a61626c653a20636f6e747261637420697320696e697469604482015266616c697a696e6760c81b606482015260840160405180910390fd5b60005460ff90811610156100dc576000805460ff191660ff9081179091556040519081527f7f26b83ff96e1f2b6a682f133852f6798a09c465da95921460cefb38474024989060200160405180910390a15b565b6117e7806100ed6000396000f3fe608060405234801561001057600080fd5b50600436106101005760003560e01c8063947a36fb11610097578063b4fd729611610066578063b4fd72961461020e578063c320137014610221578063e5a2a2a514610234578063e6bcb3aa1461024757600080fd5b8063947a36fb146101d65780639701c3a0146101df5780639c0fd1d1146101f25780639fc073e0146101fb57600080fd5b806361b0ff07116100d357806361b0ff071461016a57806370f616201461017d57806374606fc6146101b05780638009ba1f146101c357600080fd5b806342cde4e8146101055780635aef7de6146101215780635ec502241461014c57806360a7fc1f14610161575b600080fd5b61010e600a5481565b6040519081526020015b60405180910390f35b600454610134906001600160a01b031681565b6040516001600160a01b039091168152602001610118565b61015f61015a36600461108f565b610270565b005b61010e60095481565b61015f61017836600461111a565b610682565b6101a061018b36600461115c565b600c6020526000908152604090205460ff1681565b6040519015158152602001610118565b61015f6101be36600461118e565b6107d2565b600354610134906001600160a01b031681565b61010e60075481565b61015f6101ed3660046111ab565b610842565b61010e60085481565b600654610134906001600160a01b031681565b600554610134906001600160a01b031681565b61015f61022f366004611237565b61086e565b600254610134906001600160a01b031681565b6101346102553660046111ab565b600b602052600090815260409020546001600160a01b031681565b600054610100900460ff16158080156102905750600054600160ff909116105b806102aa5750303b1580156102aa575060005460ff166001145b6103125760405162461bcd60e51b815260206004820152602e60248201527f496e697469616c697a61626c653a20636f6e747261637420697320616c72656160448201526d191e481a5b9a5d1a585b1a5e995960921b60648201526084015b60405180910390fd5b6000805460ff191660011790558015610335576000805461ff0019166101001790555b610342602084018461115c565b600280546001600160a01b0319166001600160a01b0392909216918217905560408051638009ba1f60e01b81529051638009ba1f9160048082019260209290919082900301816000875af115801561039e573d6000803e3d6000fd5b505050506040513d601f19601f820116820180604052508101906103c2919061130a565b600380546001600160a01b0319166001600160a01b0392831617905560025460408051632d77bef360e11b815290519190921691635aef7de691600480830192602092919082900301816000875af1158015610422573d6000803e3d6000fd5b505050506040513d601f19601f82011682018060405250810190610446919061130a565b600480546001600160a01b0319166001600160a01b0392909216919091179055610476604084016020850161115c565b600680546001600160a01b03199081166001600160a01b03938416179091556040850135600755606080860135600a908155426008556009556005805490921692851692909217905561050b306040516001600160a01b038216602482015260609060440160408051601f198184030181529190526020810180516001600160e01b031663610b592560e01b17905292915050565b9050606061051a306002610925565b6040805160028082526060820190925291925060009190816020015b6060815260200190600190039081610536579050509050818160008151811061056157610561611327565b6020026020010181905250828160018151811061058057610580611327565b602090810291909101015260408051600280825260608201909252600091816020016020820280368337505060025482519293506001600160a01b0316918391506000906105d0576105d0611327565b6001600160a01b03928316602091820292909201015260045482519116908290600190811061060157610601611327565b60200260200101906001600160a01b031690816001600160a01b03168152505061063361062e8383610a04565b610ae5565b50505050801561067d576000805461ff0019169055604051600181527f7f26b83ff96e1f2b6a682f133852f6798a09c465da95921460cefb38474024989060200160405180910390a15b505050565b8060005b818110156107cc5760008484838181106106a2576106a2611327565b90506020020160208101906106b7919061115c565b600480546040516370a0823160e01b81526001600160a01b03918216928101929092529192506000918316906370a0823190602401602060405180830381865afa158015610709573d6000803e3d6000fd5b505050506040513d601f19601f8201168201806040525081019061072d919061133d565b11156107b9576001600160a01b0381166000908152600c602052604090205460ff1615156001146107b9576001600160a01b038116600052600c602052610778600180546001019055565b80600b600061078660015490565b815260200190815260200160002060006101000a8154816001600160a01b0302191690836001600160a01b031602179055505b50806107c48161136c565b915050610686565b50505050565b6107da610c2f565b60075460085442916107eb91611385565b8110156107f757600080fd5b81151560000361082a57600a6009546108109190611398565b6009819055600a111561082557610825610d66565b61083c565b600954610838906005611385565b6009555b60085550565b600a5481101561086057600a60095461085b9190611398565b505b50565b60095461085b906005611385565b610876610c2f565b600754600854429161088791611385565b81101561089357600080fd5b600554604051636915912560e11b81526001600160a01b039091169063d22b224a906108d3908d908d908d908d908d908d908d908d908d906004016113f2565b6020604051808303816000875af11580156108f2573d6000803e3d6000fd5b505050506040513d601f19601f82011682018060405250810190610916919061133d565b50600855505050505050505050565b6040805160018082528183019092526060916000919060208083019080368337019050509050838160008151811061095f5761095f611327565b6001600160a01b03929092166020928302919091019091015260408051600180825281830190925260009181602001602082028036833701905050905083816000815181106109b0576109b0611327565b60200260200101818152505081816040516024016109cf9291906114ee565b60408051601f198184030181529190526020810180516001600160e01b0316630f656a2160e01b179052925050505b92915050565b60608060005b8451811015610aa057816000858381518110610a2857610a28611327565b60200260200101516000888581518110610a4457610a44611327565b602002602001015151898681518110610a5f57610a5f611327565b6020026020010151604051602001610a7c96959493929190611596565b60405160208183030381529060405291508080610a989061136c565b915050610a0a565b5080604051602401610ab2919061162c565b60408051601f198184030181529190526020810180516001600160e01b03166346c07f8560e11b17905291505092915050565b60025460408051639a2f747f60e01b815290516000926001600160a01b031691639a2f747f916004808301926020929190829003018187875af1158015610b30573d6000803e3d6000fd5b505050506040513d601f19601f82011682018060405250810190610b54919061133d565b9050803414610b975760405162461bcd60e51b815260206004820152600f60248201526e4d697373696e67207472696275746560881b6044820152606401610309565b60006040518060a00160405280607e8152602001611734607e91396002546040516307505ff960e31b81529192506001600160a01b031690633a82ffc8908490610bec9087906000908190889060040161163f565b60206040518083038185885af1158015610c0a573d6000803e3d6000fd5b50505050506040513d601f19601f820116820180604052508101906107cc919061133d565b6003546040516370a0823160e01b81523360048201526000916001600160a01b0316906370a0823190602401602060405180830381865afa158015610c78573d6000803e3d6000fd5b505050506040513d601f19601f82011682018060405250810190610c9c919061133d565b9050600260009054906101000a90046001600160a01b03166001600160a01b0316635cfd6f7e6040518163ffffffff1660e01b81526004016020604051808303816000875af1158015610cf3573d6000803e3d6000fd5b505050506040513d601f19601f82011682018060405250810190610d17919061133d565b81101561085d5760405162461bcd60e51b815260206004820181905260248201527f596f75206d75737420706f7373657373206d696e696d756d20736861726573216044820152606401610309565b600354604080516318160ddd60e01b815290516000926001600160a01b0316916318160ddd9160048083019260209291908290030181865afa158015610db0573d6000803e3d6000fd5b505050506040513d601f19601f82011682018060405250810190610dd4919061133d565b60408051600180825281830190925291925060009190602080830190803683370190505090503081600081518110610e0e57610e0e611327565b6001600160a01b039290921660209283029190910190910152604080516001808252818301909252600091816020016020820280368337019050509050610e57836103e8611681565b81600081518110610e6a57610e6a611327565b6020026020010181815250506000610e8160015490565b905060015b818111610ff7576000818152600b6020526040808220546004805492516370a0823160e01b81526001600160a01b03938416918101919091529116919082906370a0823190602401602060405180830381865afa158015610eeb573d6000803e3d6000fd5b505050506040513d601f19601f82011682018060405250810190610f0f919061133d565b90508015610fe2576006546040516001600160a01b0390911660248201526044810182905260009060640160408051601f198184030181529181526020820180516001600160e01b031663a9059cbb60e01b17905260048054915163468721a760e01b81529293506001600160a01b039091169163468721a791610f9c9187916000918791839101611698565b6020604051808303816000875af1158015610fbb573d6000803e3d6000fd5b505050506040513d601f19601f82011682018060405250810190610fdf91906116d9565b50505b50508080610fef9061136c565b915050610e86565b506004805460065460405163468721a760e01b81526001600160a01b039283169363468721a793611030931691853191600091016116f6565b6020604051808303816000875af115801561104f573d6000803e3d6000fd5b505050506040513d601f19601f8201168201806040525081019061107391906116d9565b5050505050565b6001600160a01b038116811461085d57600080fd5b60008082840360a08112156110a357600080fd5b60808112156110b157600080fd5b5082915060808301356110c38161107a565b809150509250929050565b60008083601f8401126110e057600080fd5b50813567ffffffffffffffff8111156110f857600080fd5b6020830191508360208260051b850101111561111357600080fd5b9250929050565b6000806020838503121561112d57600080fd5b823567ffffffffffffffff81111561114457600080fd5b611150858286016110ce565b90969095509350505050565b60006020828403121561116e57600080fd5b81356111798161107a565b9392505050565b801515811461085d57600080fd5b6000602082840312156111a057600080fd5b813561117981611180565b6000602082840312156111bd57600080fd5b5035919050565b60008083601f8401126111d657600080fd5b50813567ffffffffffffffff8111156111ee57600080fd5b60208301915083602082850101111561111357600080fd5b803567ffffffffffffffff8116811461121e57600080fd5b919050565b803563ffffffff8116811461121e57600080fd5b600080600080600080600080600060c08a8c03121561125557600080fd5b893567ffffffffffffffff8082111561126d57600080fd5b6112798d838e016111c4565b909b50995060208c013591508082111561129257600080fd5b61129e8d838e016111c4565b909950975060408c01359150600282106112b757600080fd5b90955060608b013590808211156112cd57600080fd5b506112da8c828d016110ce565b90955093506112ed905060808b01611206565b91506112fb60a08b01611223565b90509295985092959850929598565b60006020828403121561131c57600080fd5b81516111798161107a565b634e487b7160e01b600052603260045260246000fd5b60006020828403121561134f57600080fd5b5051919050565b634e487b7160e01b600052601160045260246000fd5b60006001820161137e5761137e611356565b5060010190565b808201808211156109fe576109fe611356565b818103818111156109fe576109fe611356565b81835281816020850137506000828201602090810191909152601f909101601f19169091010190565b6002811061085d57634e487b7160e01b600052602160045260246000fd5b60c08152600061140660c083018b8d6113ab565b60208382038185015261141a828b8d6113ab565b9150611425896113d4565b604084018990528382036060850152868252808201600588901b830182018960005b8a8110156114b757858303601f190184528135368d9003601e1901811261146d57600080fd5b8c01858101903567ffffffffffffffff81111561148957600080fd5b80360382131561149857600080fd5b6114a38582846113ab565b958701959450505090840190600101611447565b505067ffffffffffffffff8816608087015293506114d492505050565b63ffffffff831660a08301529a9950505050505050505050565b604080825283519082018190526000906020906060840190828701845b828110156115305781516001600160a01b03168452928401929084019060010161150b565b5050508381038285015284518082528583019183019060005b8181101561156557835183529284019291840191600101611549565b5090979650505050505050565b60005b8381101561158d578181015183820152602001611575565b50506000910152565b600087516115a8818460208c01611572565b808301905060ff60f81b8860f81b1681526bffffffffffffffffffffffff198760601b16600182015285601582015284603582015283516115f0816055840160208801611572565b0160550198975050505050505050565b60008151808452611618816020860160208601611572565b601f01601f19169290920160200192915050565b6020815260006111796020830184611600565b6080815260006116526080830187611600565b63ffffffff8616602084015284604084015282810360608401526116768185611600565b979650505050505050565b80820281158282048414176109fe576109fe611356565b60018060a01b03851681528360208201526080604082015260006116bf6080830185611600565b90506116ca836113d4565b82606083015295945050505050565b6000602082840312156116eb57600080fd5b815161117981611180565b6001600160a01b03841681526020810183905260806040820181905260009082015260a08101611725836113d4565b82606083015294935050505056fe7b2270726f706f73616c54797065223a20224144445f5348414d414e222c20227469746c65223a2022526561706572222c20226465736372697074696f6e223a202241737369676e2052656170657220636f6e74726163742061732061204d616e616765722d5368616d616e20616e6420536166652d4d6f64756c65227da2646970667358221220ba6e4cc914bc6fc55bd4592aff0c7363f0935d6eeb1a999f8a71de2cc1592c6c64736f6c63430008110033",
    "linkReferences": {}
  },
  "methodIdentifiers": {
    "addSafeHoldings(address[])": "61b0ff07",
    "avatar()": "5aef7de6",
    "baal()": "e5a2a2a5",
    "chainlinkResult(uint256)": "9701c3a0",
    "consumer()": "b4fd7296",
    "initialize((address,address,uint256,uint256),address)": "5ec50224",
    "interval()": "947a36fb",
    "lastAnalysis()": "9c0fd1d1",
    "liquidationTarget()": "9fc073e0",
    "pokeReaper(string,bytes,uint8,string[],uint64,uint32)": "c3201370",
    "pokeReaperTest(bool)": "74606fc6",
    "redundancyCheck(address)": "70f61620",
    "reputationScore()": "60a7fc1f",
    "safeERC20s(uint256)": "e6bcb3aa",
    "sharesToken()": "8009ba1f",
    "threshold()": "42cde4e8"
  },
  "id": 0
}