{
  "abi": [
    {
      "inputs": [
        {
          "internalType": "address",
          "name": "oracle",
          "type": "address"
        }
      ],
      "stateMutability": "nonpayable",
      "type": "constructor"
    },
    {
      "inputs": [],
      "name": "EmptyArgs",
      "type": "error"
    },
    {
      "inputs": [],
      "name": "EmptySecrets",
      "type": "error"
    },
    {
      "inputs": [],
      "name": "EmptySource",
      "type": "error"
    },
    {
      "inputs": [],
      "name": "RequestIsAlreadyPending",
      "type": "error"
    },
    {
      "inputs": [],
      "name": "RequestIsNotPending",
      "type": "error"
    },
    {
      "inputs": [],
      "name": "SenderIsNotRegistry",
      "type": "error"
    },
    {
      "anonymous": false,
      "inputs": [
        {
          "indexed": true,
          "internalType": "bytes32",
          "name": "requestId",
          "type": "bytes32"
        },
        {
          "indexed": false,
          "internalType": "bytes",
          "name": "result",
          "type": "bytes"
        },
        {
          "indexed": false,
          "internalType": "bytes",
          "name": "err",
          "type": "bytes"
        }
      ],
      "name": "OCRResponse",
      "type": "event"
    },
    {
      "anonymous": false,
      "inputs": [
        {
          "indexed": true,
          "internalType": "address",
          "name": "from",
          "type": "address"
        },
        {
          "indexed": true,
          "internalType": "address",
          "name": "to",
          "type": "address"
        }
      ],
      "name": "OwnershipTransferRequested",
      "type": "event"
    },
    {
      "anonymous": false,
      "inputs": [
        {
          "indexed": true,
          "internalType": "address",
          "name": "from",
          "type": "address"
        },
        {
          "indexed": true,
          "internalType": "address",
          "name": "to",
          "type": "address"
        }
      ],
      "name": "OwnershipTransferred",
      "type": "event"
    },
    {
      "anonymous": false,
      "inputs": [
        {
          "indexed": true,
          "internalType": "bytes32",
          "name": "id",
          "type": "bytes32"
        }
      ],
      "name": "RequestFulfilled",
      "type": "event"
    },
    {
      "anonymous": false,
      "inputs": [
        {
          "indexed": true,
          "internalType": "bytes32",
          "name": "id",
          "type": "bytes32"
        }
      ],
      "name": "RequestSent",
      "type": "event"
    },
    {
      "inputs": [],
      "name": "acceptOwnership",
      "outputs": [],
      "stateMutability": "nonpayable",
      "type": "function"
    },
    {
      "inputs": [
        {
          "internalType": "address",
          "name": "oracleAddress",
          "type": "address"
        },
        {
          "internalType": "bytes32",
          "name": "requestId",
          "type": "bytes32"
        }
      ],
      "name": "addSimulatedRequestId",
      "outputs": [],
      "stateMutability": "nonpayable",
      "type": "function"
    },
    {
      "inputs": [
        {
          "components": [
            {
              "internalType": "enum Functions.Location",
              "name": "codeLocation",
              "type": "uint8"
            },
            {
              "internalType": "enum Functions.Location",
              "name": "secretsLocation",
              "type": "uint8"
            },
            {
              "internalType": "enum Functions.CodeLanguage",
              "name": "language",
              "type": "uint8"
            },
            {
              "internalType": "string",
              "name": "source",
              "type": "string"
            },
            {
              "internalType": "bytes",
              "name": "secrets",
              "type": "bytes"
            },
            {
              "internalType": "string[]",
              "name": "args",
              "type": "string[]"
            }
          ],
          "internalType": "struct Functions.Request",
          "name": "req",
          "type": "tuple"
        },
        {
          "internalType": "uint64",
          "name": "subscriptionId",
          "type": "uint64"
        },
        {
          "internalType": "uint32",
          "name": "gasLimit",
          "type": "uint32"
        },
        {
          "internalType": "uint256",
          "name": "gasPrice",
          "type": "uint256"
        }
      ],
      "name": "estimateCost",
      "outputs": [
        {
          "internalType": "uint96",
          "name": "",
          "type": "uint96"
        }
      ],
      "stateMutability": "view",
      "type": "function"
    },
    {
      "inputs": [
        {
          "internalType": "string",
          "name": "source",
          "type": "string"
        },
        {
          "internalType": "bytes",
          "name": "secrets",
          "type": "bytes"
        },
        {
          "internalType": "enum Functions.Location",
          "name": "secretsLocation",
          "type": "uint8"
        },
        {
          "internalType": "string[]",
          "name": "args",
          "type": "string[]"
        },
        {
          "internalType": "uint64",
          "name": "subscriptionId",
          "type": "uint64"
        },
        {
          "internalType": "uint32",
          "name": "gasLimit",
          "type": "uint32"
        }
      ],
      "name": "executeRequest",
      "outputs": [
        {
          "internalType": "bytes32",
          "name": "",
          "type": "bytes32"
        }
      ],
      "stateMutability": "nonpayable",
      "type": "function"
    },
    {
      "inputs": [],
      "name": "getDONPublicKey",
      "outputs": [
        {
          "internalType": "bytes",
          "name": "",
          "type": "bytes"
        }
      ],
      "stateMutability": "view",
      "type": "function"
    },
    {
      "inputs": [
        {
          "internalType": "bytes32",
          "name": "requestId",
          "type": "bytes32"
        },
        {
          "internalType": "bytes",
          "name": "response",
          "type": "bytes"
        },
        {
          "internalType": "bytes",
          "name": "err",
          "type": "bytes"
        }
      ],
      "name": "handleOracleFulfillment",
      "outputs": [],
      "stateMutability": "nonpayable",
      "type": "function"
    },
    {
      "inputs": [
        {
          "internalType": "address",
          "name": "_reaper",
          "type": "address"
        }
      ],
      "name": "init",
      "outputs": [],
      "stateMutability": "nonpayable",
      "type": "function"
    },
    {
      "inputs": [],
      "name": "latestError",
      "outputs": [
        {
          "internalType": "bytes",
          "name": "",
          "type": "bytes"
        }
      ],
      "stateMutability": "view",
      "type": "function"
    },
    {
      "inputs": [],
      "name": "latestRequestId",
      "outputs": [
        {
          "internalType": "bytes32",
          "name": "",
          "type": "bytes32"
        }
      ],
      "stateMutability": "view",
      "type": "function"
    },
    {
      "inputs": [],
      "name": "latestResponse",
      "outputs": [
        {
          "internalType": "bytes",
          "name": "",
          "type": "bytes"
        }
      ],
      "stateMutability": "view",
      "type": "function"
    },
    {
      "inputs": [],
      "name": "owner",
      "outputs": [
        {
          "internalType": "address",
          "name": "",
          "type": "address"
        }
      ],
      "stateMutability": "view",
      "type": "function"
    },
    {
      "inputs": [],
      "name": "reaper",
      "outputs": [
        {
          "internalType": "contract Reaper",
          "name": "",
          "type": "address"
        }
      ],
      "stateMutability": "view",
      "type": "function"
    },
    {
      "inputs": [
        {
          "internalType": "address",
          "name": "to",
          "type": "address"
        }
      ],
      "name": "transferOwnership",
      "outputs": [],
      "stateMutability": "nonpayable",
      "type": "function"
    },
    {
      "inputs": [
        {
          "internalType": "address",
          "name": "oracle",
          "type": "address"
        }
      ],
      "name": "updateOracleAddress",
      "outputs": [],
      "stateMutability": "nonpayable",
      "type": "function"
    }
  ],
  "bytecode": {
    "object": "0x60806040523480156200001157600080fd5b5060405162001dca38038062001dca833981016040819052620000349162000198565b600080546001600160a01b0319166001600160a01b038316178155339081906001600160a01b038216620000af5760405162461bcd60e51b815260206004820152601860248201527f43616e6e6f7420736574206f776e657220746f207a65726f000000000000000060448201526064015b60405180910390fd5b600280546001600160a01b0319166001600160a01b0384811691909117909155811615620000e257620000e281620000ec565b50505050620001ca565b336001600160a01b03821603620001465760405162461bcd60e51b815260206004820152601760248201527f43616e6e6f74207472616e7366657220746f2073656c660000000000000000006044820152606401620000a6565b600380546001600160a01b0319166001600160a01b03838116918217909255600254604051919216907fed8889f560326eb138920d842192f0eb3dd22b4f139c87a2c57538e05bae127890600090a350565b600060208284031215620001ab57600080fd5b81516001600160a01b0381168114620001c357600080fd5b9392505050565b611bf080620001da6000396000f3fe608060405234801561001057600080fd5b50600436106100ea5760003560e01c8063bef3a2f01161008c578063d4b3917511610066578063d4b39175146101d7578063f2fde38b14610207578063f7023bb61461021a578063fffeb84e1461022d57600080fd5b8063bef3a2f0146101a7578063d22b224a146101bc578063d328a91e146101cf57600080fd5b80631aa46f59116100c85780631aa46f591461016457806330bda99d1461017b57806379ba50971461018e5780638da5cb5b1461019657600080fd5b80630ca76175146100ef5780631121e3e11461010457806319ab453c14610134575b600080fd5b6101026100fd3660046112a3565b610235565b005b600754610117906001600160a01b031681565b6040516001600160a01b0390911681526020015b60405180910390f35b610102610142366004611324565b600780546001600160a01b0319166001600160a01b0392909216919091179055565b61016d60045481565b60405190815260200161012b565b610102610189366004611341565b6102c2565b6101026102d8565b6002546001600160a01b0316610117565b6101af61038b565b60405161012b91906113bd565b61016d6101ca366004611457565b610419565b6101af610588565b6101ea6101e5366004611607565b6105fe565b6040516bffffffffffffffffffffffff909116815260200161012b565b610102610215366004611324565b610685565b610102610228366004611324565b610699565b6101af6106bf565b60008381526001602052604090205483906001600160a01b0316331461026e5760405163a0c5ec6360e01b815260040160405180910390fd5b60008181526001602052604080822080546001600160a01b03191690555182917f85e1543bf2f84fe80c6badbce3648c8539ad1df4d2b3d822938ca0538be727e691a26102bc8484846106cc565b50505050565b6102ca610737565b6102d4828261078c565b5050565b6003546001600160a01b031633146103305760405162461bcd60e51b815260206004820152601660248201527526bab9ba10313290383937b837b9b2b21037bbb732b960511b60448201526064015b60405180910390fd5b600280546001600160a01b0319808216339081179093556003805490911690556040516001600160a01b03909116919082907f8be0079c531659141344cd1fd0a4f28419497f9722a3daafe3b4186f6b6457e090600090a350565b6005805461039890611718565b80601f01602080910402602001604051908101604052809291908181526020018280546103c490611718565b80156104115780601f106103e657610100808354040283529160200191610411565b820191906000526020600020905b8154815290600101906020018083116103f457829003601f168201915b505050505081565b6000610423610737565b61045d6040805160c08101909152806000815260200160008152602001600081526020016060815260200160608152602001606081525090565b6104a46000808d8d8080601f016020809104026020016040519081016040528093929190818152602001838380828437600092019190915250879594939250506107f39050565b871561054c5760008760018111156104be576104be61174c565b0361050a5761050589898080601f01602080910402602001604051908101604052809392919081815260200183838082843760009201919091525085939250506108719050565b61054c565b61054c89898080601f01602080910402602001604051908101604052809392919081815260200183838082843760009201919091525085939250506108b89050565b84156105665761056661055f8688611762565b82906108e5565b600061057382868661090f565b60048190559c9b505050505050505050505050565b6000805460408051636994548f60e11b815290516060936001600160a01b039093169263d328a91e92600480820193918290030181865afa1580156105d1573d6000803e3d6000fd5b505050506040513d6000823e601f3d908101601f191682016040526105f9919081019061176f565b905090565b600080546001600160a01b031663d227d2458561061a88610a63565b86866040518563ffffffff1660e01b815260040161063b94939291906117dc565b602060405180830381865afa158015610658573d6000803e3d6000fd5b505050506040513d601f19601f8201168201806040525081019061067c9190611817565b95945050505050565b61068d610737565b61069681610c7f565b50565b6106a1610737565b600080546001600160a01b0319166001600160a01b03831617905550565b6006805461039890611718565b60056106d88382611893565b5060066106e58282611893565b5060006106f26005611952565b60001c9050837f7bab0ec163b5c132c72b8146ac4d6e067e82ed58f8b131150aa71c92589115628484604051610729929190611993565b60405180910390a250505050565b6002546001600160a01b0316331461078a5760405162461bcd60e51b815260206004820152601660248201527527b7363c9031b0b63630b1363290313c9037bbb732b960511b6044820152606401610327565b565b60008181526001602052604090205481906001600160a01b0316156107c4576040516345a2bd6960e11b815260040160405180910390fd5b50600090815260016020526040902080546001600160a01b0319166001600160a01b0392909216919091179055565b8051600003610815576040516322ce3edd60e01b815260040160405180910390fd5b838360018111156108285761082861174c565b9081600181111561083b5761083b61174c565b905250604084018280156108515761085161174c565b908180156108615761086161174c565b9052506060909301929092525050565b80516000036108935760405163e889636f60e01b815260040160405180910390fd5b6020820160005b908160018111156108ad576108ad61174c565b905250608090910152565b80516000036108da5760405163e889636f60e01b815260040160405180910390fd5b60208201600161089a565b80516000036109075760405163fe936cb760e01b815260040160405180910390fd5b60a090910152565b6000805481906001600160a01b03166328242b048561092d88610a63565b866040518463ffffffff1660e01b815260040161094c939291906119b8565b6020604051808303816000875af115801561096b573d6000803e3d6000fd5b505050506040513d601f19601f8201168201806040525081019061098f91906119f0565b905060008054906101000a90046001600160a01b03166001600160a01b0316635ab1bd536040518163ffffffff1660e01b8152600401602060405180830381865afa1580156109e2573d6000803e3d6000fd5b505050506040513d601f19601f82011682018060405250810190610a069190611a09565b60008281526001602052604080822080546001600160a01b0319166001600160a01b039490941693909317909255905182917f1131472297a800fee664d1d89cfa8f7676ff07189ecc53f80bbb5f4969099db891a2949350505050565b6060610a82604051806040016040528060608152602001600081525090565b610a8e81610100610d29565b5060408051808201909152600c81526b31b7b232a637b1b0ba34b7b760a11b6020820152610abd908290610d94565b8251610adb906001811115610ad457610ad461174c565b8290610db0565b6040805180820190915260088152676c616e677561676560c01b6020820152610b05908290610d94565b6040830151610b1c908015610ad457610ad461174c565b604080518082019091526006815265736f7572636560d01b6020820152610b44908290610d94565b6060830151610b54908290610d94565b60a08301515115610bea576040805180820190915260048152636172677360e01b6020820152610b85908290610d94565b610b8e81610dd5565b60005b8360a0015151811015610be057610bce8460a001518281518110610bb757610bb7611a26565b602002602001015183610d9490919063ffffffff16565b80610bd881611a52565b915050610b91565b50610bea81610de0565b60808301515115610c785760408051808201909152600f81526e39b2b1b932ba39a637b1b0ba34b7b760891b6020820152610c26908290610d94565b610c3f83602001516001811115610ad457610ad461174c565b6040805180820190915260078152667365637265747360c81b6020820152610c68908290610d94565b6080830151610c78908290610deb565b5192915050565b336001600160a01b03821603610cd75760405162461bcd60e51b815260206004820152601760248201527f43616e6e6f74207472616e7366657220746f2073656c660000000000000000006044820152606401610327565b600380546001600160a01b0319166001600160a01b03838116918217909255600254604051919216907fed8889f560326eb138920d842192f0eb3dd22b4f139c87a2c57538e05bae127890600090a350565b604080518082019091526060815260006020820152610d49602083611a6b565b15610d7157610d59602083611a6b565b610d64906020611a8d565b610d6e9083611aa0565b91505b506020808301829052604080518085526000815283019091019052815b92915050565b610da18260038351610df4565b610dab8282610efb565b505050565b6001600160401b03811115610dc9576102d48282610f29565b6102d482600083610df4565b610696816004610f60565b610696816007610f60565b610da182600283515b6017816001600160401b031611610e18576102bc8360e0600585901b168317610f71565b60ff816001600160401b031611610e5457610e3e836018611fe0600586901b1617610f71565b506102bc836001600160401b0383166001610f96565b61ffff816001600160401b031611610e9157610e7b836019611fe0600586901b1617610f71565b506102bc836001600160401b0383166002610f96565b63ffffffff816001600160401b031611610ed057610eba83601a611fe0600586901b1617610f71565b506102bc836001600160401b0383166004610f96565b610ee583601b611fe0600586901b1617610f71565b506102bc836001600160401b0383166008610f96565b604080518082019091526060815260006020820152610f2283846000015151848551610fc4565b9392505050565b610f348260c2610f71565b506102d48282604051602001610f4c91815260200190565b604051602081830303815290604052610deb565b610dab82601f611fe0600585901b16175b604080518082019091526060815260006020820152610f2283846000015151846110ae565b604080518082019091526060815260006020820152610fbc848560000151518585611109565b949350505050565b6040805180820190915260608152600060208201528251821115610fe757600080fd5b6020850151610ff68386611aa0565b11156110295761102985611019876020015187866110149190611aa0565b61118a565b611024906002611ab3565b6111a1565b6000808651805187602083010193508088870111156110485787860182525b505050602084015b602084106110885780518252611067602083611aa0565b9150611074602082611aa0565b9050611081602085611a8d565b9350611050565b51815160001960208690036101000a019081169019919091161790525083949350505050565b604080518082019091526060815260006020820152836020015183106110e3576110e384856020015160026110249190611ab3565b83518051602085830101848153508085036110ff576001810182525b5093949350505050565b604080518082019091526060815260006020820152602085015161112d8584611aa0565b111561114157611141856110198685611aa0565b6000600161115184610100611bae565b61115b9190611a8d565b905085518386820101858319825116178152508051848701111561117f5783860181525b509495945050505050565b60008183111561119b575081610d8e565b50919050565b81516111ad8383610d29565b506102bc8382610efb565b634e487b7160e01b600052604160045260246000fd5b60405160c081016001600160401b03811182821017156111f0576111f06111b8565b60405290565b604051601f8201601f191681016001600160401b038111828210171561121e5761121e6111b8565b604052919050565b60006001600160401b0382111561123f5761123f6111b8565b50601f01601f191660200190565b600082601f83011261125e57600080fd5b813561127161126c82611226565b6111f6565b81815284602083860101111561128657600080fd5b816020850160208301376000918101602001919091529392505050565b6000806000606084860312156112b857600080fd5b8335925060208401356001600160401b03808211156112d657600080fd5b6112e28783880161124d565b935060408601359150808211156112f857600080fd5b506113058682870161124d565b9150509250925092565b6001600160a01b038116811461069657600080fd5b60006020828403121561133657600080fd5b8135610f228161130f565b6000806040838503121561135457600080fd5b823561135f8161130f565b946020939093013593505050565b60005b83811015611388578181015183820152602001611370565b50506000910152565b600081518084526113a981602086016020860161136d565b601f01601f19169290920160200192915050565b602081526000610f226020830184611391565b60008083601f8401126113e257600080fd5b5081356001600160401b038111156113f957600080fd5b60208301915083602082850101111561141157600080fd5b9250929050565b80356002811061142757600080fd5b919050565b80356001600160401b038116811461142757600080fd5b803563ffffffff8116811461142757600080fd5b600080600080600080600080600060c08a8c03121561147557600080fd5b89356001600160401b038082111561148c57600080fd5b6114988d838e016113d0565b909b50995060208c01359150808211156114b157600080fd5b6114bd8d838e016113d0565b90995097508791506114d160408d01611418565b965060608c01359150808211156114e757600080fd5b818c0191508c601f8301126114fb57600080fd5b81358181111561150a57600080fd5b8d60208260051b850101111561151f57600080fd5b60208301965080955050505061153760808b0161142c565b915061154560a08b01611443565b90509295985092959850929598565b80356001811061142757600080fd5b60006001600160401b038084111561157d5761157d6111b8565b8360051b602061158e8183016111f6565b868152935090840190808401878311156115a757600080fd5b855b838110156115db578035858111156115c15760008081fd5b6115cd8a828a0161124d565b8352509082019082016115a9565b50505050509392505050565b600082601f8301126115f857600080fd5b610f2283833560208501611563565b6000806000806080858703121561161d57600080fd5b84356001600160401b038082111561163457600080fd5b9086019060c0828903121561164857600080fd5b6116506111ce565b61165983611418565b815261166760208401611418565b602082015261167860408401611554565b604082015260608301358281111561168f57600080fd5b61169b8a82860161124d565b6060830152506080830135828111156116b357600080fd5b6116bf8a82860161124d565b60808301525060a0830135828111156116d757600080fd5b6116e38a8286016115e7565b60a08301525095506116fa9150506020860161142c565b925061170860408601611443565b9396929550929360600135925050565b600181811c9082168061172c57607f821691505b60208210810361119b57634e487b7160e01b600052602260045260246000fd5b634e487b7160e01b600052602160045260246000fd5b6000610f22368484611563565b60006020828403121561178157600080fd5b81516001600160401b0381111561179757600080fd5b8201601f810184136117a857600080fd5b80516117b661126c82611226565b8181528560208385010111156117cb57600080fd5b61067c82602083016020860161136d565b6001600160401b03851681526080602082015260006117fe6080830186611391565b63ffffffff949094166040830152506060015292915050565b60006020828403121561182957600080fd5b81516bffffffffffffffffffffffff81168114610f2257600080fd5b601f821115610dab57600081815260208120601f850160051c8101602086101561186c5750805b601f850160051c820191505b8181101561188b57828155600101611878565b505050505050565b81516001600160401b038111156118ac576118ac6111b8565b6118c0816118ba8454611718565b84611845565b602080601f8311600181146118f557600084156118dd5750858301515b600019600386901b1c1916600185901b17855561188b565b600085815260208120601f198616915b8281101561192457888601518255948401946001909101908401611905565b50858210156119425787850151600019600388901b60f8161c191681555b5050505050600190811b01905550565b600061195e8254611718565b82601f8211156119745783600052602060002090505b549150602081101561119b5760001960209190910360031b1b16919050565b6040815260006119a66040830185611391565b828103602084015261067c8185611391565b6001600160401b03841681526060602082015260006119da6060830185611391565b905063ffffffff83166040830152949350505050565b600060208284031215611a0257600080fd5b5051919050565b600060208284031215611a1b57600080fd5b8151610f228161130f565b634e487b7160e01b600052603260045260246000fd5b634e487b7160e01b600052601160045260246000fd5b600060018201611a6457611a64611a3c565b5060010190565b600082611a8857634e487b7160e01b600052601260045260246000fd5b500690565b81810381811115610d8e57610d8e611a3c565b80820180821115610d8e57610d8e611a3c565b8082028115828204841417610d8e57610d8e611a3c565b600181815b80851115611b05578160001904821115611aeb57611aeb611a3c565b80851615611af857918102915b93841c9390800290611acf565b509250929050565b600082611b1c57506001610d8e565b81611b2957506000610d8e565b8160018114611b3f5760028114611b4957611b65565b6001915050610d8e565b60ff841115611b5a57611b5a611a3c565b50506001821b610d8e565b5060208310610133831016604e8410600b8410161715611b88575081810a610d8e565b611b928383611aca565b8060001904821115611ba657611ba6611a3c565b029392505050565b6000610f228383611b0d56fea2646970667358221220728a0c300485d2a2c4327ca2976226ff4730d1ad09a82e367768f687cc7e63d764736f6c63430008110033",
    "linkReferences": {}
  },
  "methodIdentifiers": {
    "acceptOwnership()": "79ba5097",
    "addSimulatedRequestId(address,bytes32)": "30bda99d",
    "estimateCost((uint8,uint8,uint8,string,bytes,string[]),uint64,uint32,uint256)": "d4b39175",
    "executeRequest(string,bytes,uint8,string[],uint64,uint32)": "d22b224a",
    "getDONPublicKey()": "d328a91e",
    "handleOracleFulfillment(bytes32,bytes,bytes)": "0ca76175",
    "init(address)": "19ab453c",
    "latestError()": "fffeb84e",
    "latestRequestId()": "1aa46f59",
    "latestResponse()": "bef3a2f0",
    "owner()": "8da5cb5b",
    "reaper()": "1121e3e1",
    "transferOwnership(address)": "f2fde38b",
    "updateOracleAddress(address)": "f7023bb6"
  },
  "id": 2
}