{
  "abi": [
    {
      "inputs": [
        {
          "internalType": "address",
          "name": "oracle",
          "type": "address"
        }
      ],
      "stateMutability": "nonpayable",
      "type": "constructor"
    },
    {
      "inputs": [],
      "name": "EmptyArgs",
      "type": "error"
    },
    {
      "inputs": [],
      "name": "EmptySecrets",
      "type": "error"
    },
    {
      "inputs": [],
      "name": "EmptySource",
      "type": "error"
    },
    {
      "inputs": [],
      "name": "RequestIsAlreadyPending",
      "type": "error"
    },
    {
      "inputs": [],
      "name": "RequestIsNotPending",
      "type": "error"
    },
    {
      "inputs": [],
      "name": "SenderIsNotRegistry",
      "type": "error"
    },
    {
      "anonymous": false,
      "inputs": [
        {
          "indexed": true,
          "internalType": "bytes32",
          "name": "requestId",
          "type": "bytes32"
        },
        {
          "indexed": false,
          "internalType": "bytes",
          "name": "result",
          "type": "bytes"
        },
        {
          "indexed": false,
          "internalType": "bytes",
          "name": "err",
          "type": "bytes"
        }
      ],
      "name": "OCRResponse",
      "type": "event"
    },
    {
      "anonymous": false,
      "inputs": [
        {
          "indexed": true,
          "internalType": "address",
          "name": "from",
          "type": "address"
        },
        {
          "indexed": true,
          "internalType": "address",
          "name": "to",
          "type": "address"
        }
      ],
      "name": "OwnershipTransferRequested",
      "type": "event"
    },
    {
      "anonymous": false,
      "inputs": [
        {
          "indexed": true,
          "internalType": "address",
          "name": "from",
          "type": "address"
        },
        {
          "indexed": true,
          "internalType": "address",
          "name": "to",
          "type": "address"
        }
      ],
      "name": "OwnershipTransferred",
      "type": "event"
    },
    {
      "anonymous": false,
      "inputs": [
        {
          "indexed": true,
          "internalType": "bytes32",
          "name": "id",
          "type": "bytes32"
        }
      ],
      "name": "RequestFulfilled",
      "type": "event"
    },
    {
      "anonymous": false,
      "inputs": [
        {
          "indexed": true,
          "internalType": "bytes32",
          "name": "id",
          "type": "bytes32"
        }
      ],
      "name": "RequestSent",
      "type": "event"
    },
    {
      "inputs": [],
      "name": "acceptOwnership",
      "outputs": [],
      "stateMutability": "nonpayable",
      "type": "function"
    },
    {
      "inputs": [
        {
          "internalType": "address",
          "name": "oracleAddress",
          "type": "address"
        },
        {
          "internalType": "bytes32",
          "name": "requestId",
          "type": "bytes32"
        }
      ],
      "name": "addSimulatedRequestId",
      "outputs": [],
      "stateMutability": "nonpayable",
      "type": "function"
    },
    {
      "inputs": [
        {
          "components": [
            {
              "internalType": "enum Functions.Location",
              "name": "codeLocation",
              "type": "uint8"
            },
            {
              "internalType": "enum Functions.Location",
              "name": "secretsLocation",
              "type": "uint8"
            },
            {
              "internalType": "enum Functions.CodeLanguage",
              "name": "language",
              "type": "uint8"
            },
            {
              "internalType": "string",
              "name": "source",
              "type": "string"
            },
            {
              "internalType": "bytes",
              "name": "secrets",
              "type": "bytes"
            },
            {
              "internalType": "string[]",
              "name": "args",
              "type": "string[]"
            }
          ],
          "internalType": "struct Functions.Request",
          "name": "req",
          "type": "tuple"
        },
        {
          "internalType": "uint64",
          "name": "subscriptionId",
          "type": "uint64"
        },
        {
          "internalType": "uint32",
          "name": "gasLimit",
          "type": "uint32"
        },
        {
          "internalType": "uint256",
          "name": "gasPrice",
          "type": "uint256"
        }
      ],
      "name": "estimateCost",
      "outputs": [
        {
          "internalType": "uint96",
          "name": "",
          "type": "uint96"
        }
      ],
      "stateMutability": "view",
      "type": "function"
    },
    {
      "inputs": [
        {
          "internalType": "string",
          "name": "source",
          "type": "string"
        },
        {
          "internalType": "bytes",
          "name": "secrets",
          "type": "bytes"
        },
        {
          "internalType": "enum Functions.Location",
          "name": "secretsLocation",
          "type": "uint8"
        },
        {
          "internalType": "string[]",
          "name": "args",
          "type": "string[]"
        },
        {
          "internalType": "uint64",
          "name": "subscriptionId",
          "type": "uint64"
        },
        {
          "internalType": "uint32",
          "name": "gasLimit",
          "type": "uint32"
        }
      ],
      "name": "executeRequest",
      "outputs": [
        {
          "internalType": "bytes32",
          "name": "",
          "type": "bytes32"
        }
      ],
      "stateMutability": "nonpayable",
      "type": "function"
    },
    {
      "inputs": [],
      "name": "getDONPublicKey",
      "outputs": [
        {
          "internalType": "bytes",
          "name": "",
          "type": "bytes"
        }
      ],
      "stateMutability": "view",
      "type": "function"
    },
    {
      "inputs": [
        {
          "internalType": "bytes32",
          "name": "requestId",
          "type": "bytes32"
        },
        {
          "internalType": "bytes",
          "name": "response",
          "type": "bytes"
        },
        {
          "internalType": "bytes",
          "name": "err",
          "type": "bytes"
        }
      ],
      "name": "handleOracleFulfillment",
      "outputs": [],
      "stateMutability": "nonpayable",
      "type": "function"
    },
    {
      "inputs": [
        {
          "internalType": "address",
          "name": "_reaper",
          "type": "address"
        }
      ],
      "name": "init",
      "outputs": [],
      "stateMutability": "nonpayable",
      "type": "function"
    },
    {
      "inputs": [],
      "name": "latestError",
      "outputs": [
        {
          "internalType": "bytes",
          "name": "",
          "type": "bytes"
        }
      ],
      "stateMutability": "view",
      "type": "function"
    },
    {
      "inputs": [],
      "name": "latestRequestId",
      "outputs": [
        {
          "internalType": "bytes32",
          "name": "",
          "type": "bytes32"
        }
      ],
      "stateMutability": "view",
      "type": "function"
    },
    {
      "inputs": [],
      "name": "latestResponse",
      "outputs": [
        {
          "internalType": "bytes",
          "name": "",
          "type": "bytes"
        }
      ],
      "stateMutability": "view",
      "type": "function"
    },
    {
      "inputs": [],
      "name": "owner",
      "outputs": [
        {
          "internalType": "address",
          "name": "",
          "type": "address"
        }
      ],
      "stateMutability": "view",
      "type": "function"
    },
    {
      "inputs": [],
      "name": "reaper",
      "outputs": [
        {
          "internalType": "contract Reaper",
          "name": "",
          "type": "address"
        }
      ],
      "stateMutability": "view",
      "type": "function"
    },
    {
      "inputs": [
        {
          "internalType": "address",
          "name": "to",
          "type": "address"
        }
      ],
      "name": "transferOwnership",
      "outputs": [],
      "stateMutability": "nonpayable",
      "type": "function"
    },
    {
      "inputs": [
        {
          "internalType": "address",
          "name": "oracle",
          "type": "address"
        }
      ],
      "name": "updateOracleAddress",
      "outputs": [],
      "stateMutability": "nonpayable",
      "type": "function"
    }
  ],
  "bytecode": {
    "object": "0x60806040523480156200001157600080fd5b5060405162001e2438038062001e24833981016040819052620000349162000198565b600080546001600160a01b0319166001600160a01b038316178155339081906001600160a01b038216620000af5760405162461bcd60e51b815260206004820152601860248201527f43616e6e6f7420736574206f776e657220746f207a65726f000000000000000060448201526064015b60405180910390fd5b600280546001600160a01b0319166001600160a01b0384811691909117909155811615620000e257620000e281620000ec565b50505050620001ca565b336001600160a01b03821603620001465760405162461bcd60e51b815260206004820152601760248201527f43616e6e6f74207472616e7366657220746f2073656c660000000000000000006044820152606401620000a6565b600380546001600160a01b0319166001600160a01b03838116918217909255600254604051919216907fed8889f560326eb138920d842192f0eb3dd22b4f139c87a2c57538e05bae127890600090a350565b600060208284031215620001ab57600080fd5b81516001600160a01b0381168114620001c357600080fd5b9392505050565b611c4a80620001da6000396000f3fe608060405234801561001057600080fd5b50600436106100ea5760003560e01c8063bef3a2f01161008c578063d4b3917511610066578063d4b39175146101d7578063f2fde38b14610207578063f7023bb61461021a578063fffeb84e1461022d57600080fd5b8063bef3a2f0146101a7578063d22b224a146101bc578063d328a91e146101cf57600080fd5b80631aa46f59116100c85780631aa46f591461016457806330bda99d1461017b57806379ba50971461018e5780638da5cb5b1461019657600080fd5b80630ca76175146100ef5780631121e3e11461010457806319ab453c14610134575b600080fd5b6101026100fd3660046112fd565b610235565b005b600754610117906001600160a01b031681565b6040516001600160a01b0390911681526020015b60405180910390f35b61010261014236600461137e565b600780546001600160a01b0319166001600160a01b0392909216919091179055565b61016d60045481565b60405190815260200161012b565b61010261018936600461139b565b6102c2565b6101026102d8565b6002546001600160a01b0316610117565b6101af61038b565b60405161012b9190611417565b61016d6101ca3660046114b1565b610419565b6101af610588565b6101ea6101e5366004611661565b6105fe565b6040516bffffffffffffffffffffffff909116815260200161012b565b61010261021536600461137e565b610685565b61010261022836600461137e565b610699565b6101af6106bf565b60008381526001602052604090205483906001600160a01b0316331461026e5760405163a0c5ec6360e01b815260040160405180910390fd5b60008181526001602052604080822080546001600160a01b03191690555182917f85e1543bf2f84fe80c6badbce3648c8539ad1df4d2b3d822938ca0538be727e691a26102bc8484846106cc565b50505050565b6102ca610791565b6102d482826107e6565b5050565b6003546001600160a01b031633146103305760405162461bcd60e51b815260206004820152601660248201527526bab9ba10313290383937b837b9b2b21037bbb732b960511b60448201526064015b60405180910390fd5b600280546001600160a01b0319808216339081179093556003805490911690556040516001600160a01b03909116919082907f8be0079c531659141344cd1fd0a4f28419497f9722a3daafe3b4186f6b6457e090600090a350565b6005805461039890611772565b80601f01602080910402602001604051908101604052809291908181526020018280546103c490611772565b80156104115780601f106103e657610100808354040283529160200191610411565b820191906000526020600020905b8154815290600101906020018083116103f457829003601f168201915b505050505081565b6000610423610791565b61045d6040805160c08101909152806000815260200160008152602001600081526020016060815260200160608152602001606081525090565b6104a46000808d8d8080601f0160208091040260200160405190810160405280939291908181526020018383808284376000920191909152508795949392505061084d9050565b871561054c5760008760018111156104be576104be6117a6565b0361050a5761050589898080601f01602080910402602001604051908101604052809392919081815260200183838082843760009201919091525085939250506108cb9050565b61054c565b61054c89898080601f01602080910402602001604051908101604052809392919081815260200183838082843760009201919091525085939250506109129050565b84156105665761056661055f86886117bc565b829061093f565b6000610573828686610969565b60048190559c9b505050505050505050505050565b6000805460408051636994548f60e11b815290516060936001600160a01b039093169263d328a91e92600480820193918290030181865afa1580156105d1573d6000803e3d6000fd5b505050506040513d6000823e601f3d908101601f191682016040526105f991908101906117c9565b905090565b600080546001600160a01b031663d227d2458561061a88610abd565b86866040518563ffffffff1660e01b815260040161063b9493929190611836565b602060405180830381865afa158015610658573d6000803e3d6000fd5b505050506040513d601f19601f8201168201806040525081019061067c9190611871565b95945050505050565b61068d610791565b61069681610cd9565b50565b6106a1610791565b600080546001600160a01b0319166001600160a01b03831617905550565b6006805461039890611772565b60056106d883826118ed565b5060066106e582826118ed565b5060006106f260056119ac565b600754604051638a12102b60e01b8152600481018390529192506001600160a01b031690638a12102b90602401600060405180830381600087803b15801561073957600080fd5b505af115801561074d573d6000803e3d6000fd5b50505050837f7bab0ec163b5c132c72b8146ac4d6e067e82ed58f8b131150aa71c925891156284846040516107839291906119ed565b60405180910390a250505050565b6002546001600160a01b031633146107e45760405162461bcd60e51b815260206004820152601660248201527527b7363c9031b0b63630b1363290313c9037bbb732b960511b6044820152606401610327565b565b60008181526001602052604090205481906001600160a01b03161561081e576040516345a2bd6960e11b815260040160405180910390fd5b50600090815260016020526040902080546001600160a01b0319166001600160a01b0392909216919091179055565b805160000361086f576040516322ce3edd60e01b815260040160405180910390fd5b83836001811115610882576108826117a6565b90816001811115610895576108956117a6565b905250604084018280156108ab576108ab6117a6565b908180156108bb576108bb6117a6565b9052506060909301929092525050565b80516000036108ed5760405163e889636f60e01b815260040160405180910390fd5b6020820160005b90816001811115610907576109076117a6565b905250608090910152565b80516000036109345760405163e889636f60e01b815260040160405180910390fd5b6020820160016108f4565b80516000036109615760405163fe936cb760e01b815260040160405180910390fd5b60a090910152565b6000805481906001600160a01b03166328242b048561098788610abd565b866040518463ffffffff1660e01b81526004016109a693929190611a12565b6020604051808303816000875af11580156109c5573d6000803e3d6000fd5b505050506040513d601f19601f820116820180604052508101906109e99190611a4a565b905060008054906101000a90046001600160a01b03166001600160a01b0316635ab1bd536040518163ffffffff1660e01b8152600401602060405180830381865afa158015610a3c573d6000803e3d6000fd5b505050506040513d601f19601f82011682018060405250810190610a609190611a63565b60008281526001602052604080822080546001600160a01b0319166001600160a01b039490941693909317909255905182917f1131472297a800fee664d1d89cfa8f7676ff07189ecc53f80bbb5f4969099db891a2949350505050565b6060610adc604051806040016040528060608152602001600081525090565b610ae881610100610d83565b5060408051808201909152600c81526b31b7b232a637b1b0ba34b7b760a11b6020820152610b17908290610dee565b8251610b35906001811115610b2e57610b2e6117a6565b8290610e0a565b6040805180820190915260088152676c616e677561676560c01b6020820152610b5f908290610dee565b6040830151610b76908015610b2e57610b2e6117a6565b604080518082019091526006815265736f7572636560d01b6020820152610b9e908290610dee565b6060830151610bae908290610dee565b60a08301515115610c44576040805180820190915260048152636172677360e01b6020820152610bdf908290610dee565b610be881610e2f565b60005b8360a0015151811015610c3a57610c288460a001518281518110610c1157610c11611a80565b602002602001015183610dee90919063ffffffff16565b80610c3281611aac565b915050610beb565b50610c4481610e3a565b60808301515115610cd25760408051808201909152600f81526e39b2b1b932ba39a637b1b0ba34b7b760891b6020820152610c80908290610dee565b610c9983602001516001811115610b2e57610b2e6117a6565b6040805180820190915260078152667365637265747360c81b6020820152610cc2908290610dee565b6080830151610cd2908290610e45565b5192915050565b336001600160a01b03821603610d315760405162461bcd60e51b815260206004820152601760248201527f43616e6e6f74207472616e7366657220746f2073656c660000000000000000006044820152606401610327565b600380546001600160a01b0319166001600160a01b03838116918217909255600254604051919216907fed8889f560326eb138920d842192f0eb3dd22b4f139c87a2c57538e05bae127890600090a350565b604080518082019091526060815260006020820152610da3602083611ac5565b15610dcb57610db3602083611ac5565b610dbe906020611ae7565b610dc89083611afa565b91505b506020808301829052604080518085526000815283019091019052815b92915050565b610dfb8260038351610e4e565b610e058282610f55565b505050565b6001600160401b03811115610e23576102d48282610f83565b6102d482600083610e4e565b610696816004610fba565b610696816007610fba565b610dfb82600283515b6017816001600160401b031611610e72576102bc8360e0600585901b168317610fcb565b60ff816001600160401b031611610eae57610e98836018611fe0600586901b1617610fcb565b506102bc836001600160401b0383166001610ff0565b61ffff816001600160401b031611610eeb57610ed5836019611fe0600586901b1617610fcb565b506102bc836001600160401b0383166002610ff0565b63ffffffff816001600160401b031611610f2a57610f1483601a611fe0600586901b1617610fcb565b506102bc836001600160401b0383166004610ff0565b610f3f83601b611fe0600586901b1617610fcb565b506102bc836001600160401b0383166008610ff0565b604080518082019091526060815260006020820152610f7c8384600001515184855161101e565b9392505050565b610f8e8260c2610fcb565b506102d48282604051602001610fa691815260200190565b604051602081830303815290604052610e45565b610e0582601f611fe0600585901b16175b604080518082019091526060815260006020820152610f7c8384600001515184611108565b604080518082019091526060815260006020820152611016848560000151518585611163565b949350505050565b604080518082019091526060815260006020820152825182111561104157600080fd5b60208501516110508386611afa565b111561108357611083856110738760200151878661106e9190611afa565b6111e4565b61107e906002611b0d565b6111fb565b6000808651805187602083010193508088870111156110a25787860182525b505050602084015b602084106110e257805182526110c1602083611afa565b91506110ce602082611afa565b90506110db602085611ae7565b93506110aa565b51815160001960208690036101000a019081169019919091161790525083949350505050565b6040805180820190915260608152600060208201528360200151831061113d5761113d848560200151600261107e9190611b0d565b8351805160208583010184815350808503611159576001810182525b5093949350505050565b60408051808201909152606081526000602082015260208501516111878584611afa565b111561119b5761119b856110738685611afa565b600060016111ab84610100611c08565b6111b59190611ae7565b90508551838682010185831982511617815250805184870111156111d95783860181525b509495945050505050565b6000818311156111f5575081610de8565b50919050565b81516112078383610d83565b506102bc8382610f55565b634e487b7160e01b600052604160045260246000fd5b60405160c081016001600160401b038111828210171561124a5761124a611212565b60405290565b604051601f8201601f191681016001600160401b038111828210171561127857611278611212565b604052919050565b60006001600160401b0382111561129957611299611212565b50601f01601f191660200190565b600082601f8301126112b857600080fd5b81356112cb6112c682611280565b611250565b8181528460208386010111156112e057600080fd5b816020850160208301376000918101602001919091529392505050565b60008060006060848603121561131257600080fd5b8335925060208401356001600160401b038082111561133057600080fd5b61133c878388016112a7565b9350604086013591508082111561135257600080fd5b5061135f868287016112a7565b9150509250925092565b6001600160a01b038116811461069657600080fd5b60006020828403121561139057600080fd5b8135610f7c81611369565b600080604083850312156113ae57600080fd5b82356113b981611369565b946020939093013593505050565b60005b838110156113e25781810151838201526020016113ca565b50506000910152565b600081518084526114038160208601602086016113c7565b601f01601f19169290920160200192915050565b602081526000610f7c60208301846113eb565b60008083601f84011261143c57600080fd5b5081356001600160401b0381111561145357600080fd5b60208301915083602082850101111561146b57600080fd5b9250929050565b80356002811061148157600080fd5b919050565b80356001600160401b038116811461148157600080fd5b803563ffffffff8116811461148157600080fd5b600080600080600080600080600060c08a8c0312156114cf57600080fd5b89356001600160401b03808211156114e657600080fd5b6114f28d838e0161142a565b909b50995060208c013591508082111561150b57600080fd5b6115178d838e0161142a565b909950975087915061152b60408d01611472565b965060608c013591508082111561154157600080fd5b818c0191508c601f83011261155557600080fd5b81358181111561156457600080fd5b8d60208260051b850101111561157957600080fd5b60208301965080955050505061159160808b01611486565b915061159f60a08b0161149d565b90509295985092959850929598565b80356001811061148157600080fd5b60006001600160401b03808411156115d7576115d7611212565b8360051b60206115e8818301611250565b8681529350908401908084018783111561160157600080fd5b855b838110156116355780358581111561161b5760008081fd5b6116278a828a016112a7565b835250908201908201611603565b50505050509392505050565b600082601f83011261165257600080fd5b610f7c838335602085016115bd565b6000806000806080858703121561167757600080fd5b84356001600160401b038082111561168e57600080fd5b9086019060c082890312156116a257600080fd5b6116aa611228565b6116b383611472565b81526116c160208401611472565b60208201526116d2604084016115ae565b60408201526060830135828111156116e957600080fd5b6116f58a8286016112a7565b60608301525060808301358281111561170d57600080fd5b6117198a8286016112a7565b60808301525060a08301358281111561173157600080fd5b61173d8a828601611641565b60a083015250955061175491505060208601611486565b92506117626040860161149d565b9396929550929360600135925050565b600181811c9082168061178657607f821691505b6020821081036111f557634e487b7160e01b600052602260045260246000fd5b634e487b7160e01b600052602160045260246000fd5b6000610f7c3684846115bd565b6000602082840312156117db57600080fd5b81516001600160401b038111156117f157600080fd5b8201601f8101841361180257600080fd5b80516118106112c682611280565b81815285602083850101111561182557600080fd5b61067c8260208301602086016113c7565b6001600160401b038516815260806020820152600061185860808301866113eb565b63ffffffff949094166040830152506060015292915050565b60006020828403121561188357600080fd5b81516bffffffffffffffffffffffff81168114610f7c57600080fd5b601f821115610e0557600081815260208120601f850160051c810160208610156118c65750805b601f850160051c820191505b818110156118e5578281556001016118d2565b505050505050565b81516001600160401b0381111561190657611906611212565b61191a816119148454611772565b8461189f565b602080601f83116001811461194f57600084156119375750858301515b600019600386901b1c1916600185901b1785556118e5565b600085815260208120601f198616915b8281101561197e5788860151825594840194600190910190840161195f565b508582101561199c5787850151600019600388901b60f8161c191681555b5050505050600190811b01905550565b60006119b88254611772565b82601f8211156119ce5783600052602060002090505b54915060208110156111f55760001960209190910360031b1b16919050565b604081526000611a0060408301856113eb565b828103602084015261067c81856113eb565b6001600160401b0384168152606060208201526000611a3460608301856113eb565b905063ffffffff83166040830152949350505050565b600060208284031215611a5c57600080fd5b5051919050565b600060208284031215611a7557600080fd5b8151610f7c81611369565b634e487b7160e01b600052603260045260246000fd5b634e487b7160e01b600052601160045260246000fd5b600060018201611abe57611abe611a96565b5060010190565b600082611ae257634e487b7160e01b600052601260045260246000fd5b500690565b81810381811115610de857610de8611a96565b80820180821115610de857610de8611a96565b8082028115828204841417610de857610de8611a96565b600181815b80851115611b5f578160001904821115611b4557611b45611a96565b80851615611b5257918102915b93841c9390800290611b29565b509250929050565b600082611b7657506001610de8565b81611b8357506000610de8565b8160018114611b995760028114611ba357611bbf565b6001915050610de8565b60ff841115611bb457611bb4611a96565b50506001821b610de8565b5060208310610133831016604e8410600b8410161715611be2575081810a610de8565b611bec8383611b24565b8060001904821115611c0057611c00611a96565b029392505050565b6000610f7c8383611b6756fea26469706673582212204377cd02f0fb81f54b651025c047b353bcff8490dab79cd45ee92040f0801afc64736f6c63430008110033",
    "linkReferences": {}
  },
  "methodIdentifiers": {
    "acceptOwnership()": "79ba5097",
    "addSimulatedRequestId(address,bytes32)": "30bda99d",
    "estimateCost((uint8,uint8,uint8,string,bytes,string[]),uint64,uint32,uint256)": "d4b39175",
    "executeRequest(string,bytes,uint8,string[],uint64,uint32)": "d22b224a",
    "getDONPublicKey()": "d328a91e",
    "handleOracleFulfillment(bytes32,bytes,bytes)": "0ca76175",
    "init(address)": "19ab453c",
    "latestError()": "fffeb84e",
    "latestRequestId()": "1aa46f59",
    "latestResponse()": "bef3a2f0",
    "owner()": "8da5cb5b",
    "reaper()": "1121e3e1",
    "transferOwnership(address)": "f2fde38b",
    "updateOracleAddress(address)": "f7023bb6"
  },
  "id": 1
}