{
  "abi": [
    {
      "inputs": [],
      "stateMutability": "nonpayable",
      "type": "constructor"
    },
    {
      "anonymous": false,
      "inputs": [
        {
          "indexed": false,
          "internalType": "address",
          "name": "reaper",
          "type": "address"
        }
      ],
      "name": "newReaper",
      "type": "event"
    },
    {
      "inputs": [
        {
          "components": [
            {
              "internalType": "address",
              "name": "baalDao",
              "type": "address"
            },
            {
              "internalType": "address",
              "name": "liquidationTarget",
              "type": "address"
            },
            {
              "internalType": "uint256",
              "name": "interval",
              "type": "uint256"
            },
            {
              "internalType": "uint256",
              "name": "threshold",
              "type": "uint256"
            }
          ],
          "internalType": "struct IInitData.InitData",
          "name": "initData",
          "type": "tuple"
        }
      ],
      "name": "deployReaper",
      "outputs": [
        {
          "internalType": "address",
          "name": "",
          "type": "address"
        }
      ],
      "stateMutability": "nonpayable",
      "type": "function"
    },
    {
      "inputs": [
        {
          "components": [
            {
              "internalType": "address",
              "name": "baalDao",
              "type": "address"
            },
            {
              "internalType": "address",
              "name": "liquidationTarget",
              "type": "address"
            },
            {
              "internalType": "uint256",
              "name": "interval",
              "type": "uint256"
            },
            {
              "internalType": "uint256",
              "name": "threshold",
              "type": "uint256"
            }
          ],
          "internalType": "struct IInitData.InitData",
          "name": "initData",
          "type": "tuple"
        }
      ],
      "name": "deployReaperWithRoleModifier",
      "outputs": [
        {
          "internalType": "address",
          "name": "",
          "type": "address"
        }
      ],
      "stateMutability": "nonpayable",
      "type": "function"
    },
    {
      "inputs": [],
      "name": "linkToken",
      "outputs": [
        {
          "internalType": "contract ERC20",
          "name": "",
          "type": "address"
        }
      ],
      "stateMutability": "view",
      "type": "function"
    },
    {
      "inputs": [],
      "name": "reaperConsumerGoerli",
      "outputs": [
        {
          "internalType": "address",
          "name": "",
          "type": "address"
        }
      ],
      "stateMutability": "view",
      "type": "function"
    },
    {
      "inputs": [],
      "name": "reaperConsumerMumbai",
      "outputs": [
        {
          "internalType": "address",
          "name": "",
          "type": "address"
        }
      ],
      "stateMutability": "view",
      "type": "function"
    },
    {
      "inputs": [],
      "name": "reaperRoleModSingleton",
      "outputs": [
        {
          "internalType": "address",
          "name": "",
          "type": "address"
        }
      ],
      "stateMutability": "view",
      "type": "function"
    },
    {
      "inputs": [],
      "name": "reaperSingleton",
      "outputs": [
        {
          "internalType": "address",
          "name": "",
          "type": "address"
        }
      ],
      "stateMutability": "view",
      "type": "function"
    },
    {
      "inputs": [],
      "name": "roles",
      "outputs": [
        {
          "internalType": "address",
          "name": "",
          "type": "address"
        }
      ],
      "stateMutability": "view",
      "type": "function"
    },
    {
      "inputs": [],
      "name": "testToken",
      "outputs": [
        {
          "internalType": "contract ERC20",
          "name": "",
          "type": "address"
        }
      ],
      "stateMutability": "view",
      "type": "function"
    }
  ],
  "bytecode": {
    "object": "0x6080604052600380546001600160a01b031990811673a1f4e605585d8e7a3160938cbe873d03525a95d817909155600480548216739106e3feb7a83c090d324460f487b09f773c1c9917905560058054821673326c977e6efc84e512bb9c30f76e30c160ed06fb1790556006805490911673a49df10dd5b84257de634f4350218f615471fc69179055670de0b6b3a76400006007553480156100a057600080fd5b506040516100ad90610181565b604051809103906000f0801580156100c9573d6000803e3d6000fd5b50600080546001600160a01b0319166001600160a01b03929092169190911790556040516100f69061018e565b604051809103906000f080158015610112573d6000803e3d6000fd5b50600180546001600160a01b0319166001600160a01b039290921691909117905560405161013f9061019b565b604051809103906000f08015801561015b573d6000803e3d6000fd5b50600280546001600160a01b0319166001600160a01b03929092169190911790556101a8565b611937806108c883390190565b611a06806121ff83390190565b612dec80613c0583390190565b610711806101b76000396000f3fe608060405234801561001057600080fd5b50600436106100935760003560e01c80638e26d88c116100665780638e26d88c146101005780639c41ae6214610113578063b584953814610126578063c4d1fca014610139578063d912492d1461014c57600080fd5b8063307d99f114610098578063392f5f64146100c757806357970e93146100da5780636895179d146100ed575b600080fd5b6003546100ab906001600160a01b031681565b6040516001600160a01b03909116815260200160405180910390f35b6002546100ab906001600160a01b031681565b6005546100ab906001600160a01b031681565b6006546100ab906001600160a01b031681565b6000546100ab906001600160a01b031681565b6100ab6101213660046105b0565b61015f565b6001546100ab906001600160a01b031681565b6100ab6101473660046105b0565b61037e565b6004546100ab906001600160a01b031681565b60008061016f60208401846105e0565b90506000816001600160a01b0316635aef7de66040518163ffffffff1660e01b81526004016020604051808303816000875af11580156101b3573d6000803e3d6000fd5b505050506040513d601f19601f820116820180604052508101906101d79190610604565b6002549091506000906101f2906001600160a01b031661048b565b60025460405163c0c53b8b60e01b81526001600160a01b03868116600483015285811660248301819052604483015292935091169063c0c53b8b90606401600060405180830381600087803b15801561024a57600080fd5b505af115801561025e573d6000803e3d6000fd5b50506001546000925061027a91506001600160a01b031661048b565b60048054600254604051631c893cbf60e11b81529394506001600160a01b0380861694633912797e946102b5948d9490841693169101610663565b600060405180830381600087803b1580156102cf57600080fd5b505af11580156102e3573d6000803e3d6000fd5b505050506102f030610525565b6103395760405162461bcd60e51b81526020600482015260156024820152744d697373696e67204c494e4b206465706f7369742160581b60448201526064015b60405180910390fd5b6040516001600160a01b03821681527f76543b6afd7b316567ca9e8757160611431aac018c899b968b7ab783782345199060200160405180910390a195945050505050565b600080548190610396906001600160a01b031661048b565b600480546040516317b1408960e21b81529293506001600160a01b0380851693635ec50224936103ca938993169101610693565b600060405180830381600087803b1580156103e457600080fd5b505af11580156103f8573d6000803e3d6000fd5b5050505061040530610525565b6104495760405162461bcd60e51b81526020600482015260156024820152744d697373696e67204c494e4b206465706f7369742160581b6044820152606401610330565b6040516001600160a01b03821681527f76543b6afd7b316567ca9e8757160611431aac018c899b968b7ab783782345199060200160405180910390a192915050565b6000763d602d80600a3d3981f3363d3d373d3d3d363d730000008260601b60e81c176000526e5af43d82803e903d91602b57fd5bf38260781b17602052603760096000f090506001600160a01b0381166105205760405162461bcd60e51b8152602060048201526016602482015275115490cc4c4d8dce8818dc99585d194819985a5b195960521b6044820152606401610330565b919050565b6006546007546040516323b872dd60e01b81523360048201526001600160a01b038481166024830152604482019290925260009291909116906323b872dd906064016020604051808303816000875af1158015610586573d6000803e3d6000fd5b505050506040513d601f19601f820116820180604052508101906105aa91906106b9565b92915050565b6000608082840312156105c257600080fd5b50919050565b6001600160a01b03811681146105dd57600080fd5b50565b6000602082840312156105f257600080fd5b81356105fd816105c8565b9392505050565b60006020828403121561061657600080fd5b81516105fd816105c8565b803561062c816105c8565b6001600160a01b039081168352602082013590610648826105c8565b16602083015260408181013590830152606090810135910152565b60c081016106718286610621565b6001600160a01b0393841660808301529190921660a090920191909152919050565b60a081016106a18285610621565b6001600160a01b039290921660809190910152919050565b6000602082840312156106cb57600080fd5b815180151581146105fd57600080fdfea2646970667358221220b33416906c4dac58beb195f16d706248a82ad469ae588cfda55a89d5a388e71164736f6c63430008110033608060405234801561001057600080fd5b5061001961001e565b6100de565b600054610100900460ff161561008a5760405162461bcd60e51b815260206004820152602760248201527f496e697469616c697a61626c653a20636f6e747261637420697320696e697469604482015266616c697a696e6760c81b606482015260840160405180910390fd5b60005460ff90811610156100dc576000805460ff191660ff9081179091556040519081527f7f26b83ff96e1f2b6a682f133852f6798a09c465da95921460cefb38474024989060200160405180910390a15b565b61184a806100ed6000396000f3fe608060405234801561001057600080fd5b50600436106101005760003560e01c8063947a36fb11610097578063b4fd729611610066578063b4fd72961461020e578063c320137014610221578063e5a2a2a514610234578063e6bcb3aa1461024757600080fd5b8063947a36fb146101d65780639701c3a0146101df5780639c0fd1d1146101f25780639fc073e0146101fb57600080fd5b806361b0ff07116100d357806361b0ff071461016a57806370f616201461017d57806374606fc6146101b05780638009ba1f146101c357600080fd5b806342cde4e8146101055780635aef7de6146101215780635ec502241461014c57806360a7fc1f14610161575b600080fd5b61010e600a5481565b6040519081526020015b60405180910390f35b600454610134906001600160a01b031681565b6040516001600160a01b039091168152602001610118565b61015f61015a3660046110f2565b610270565b005b61010e60095481565b61015f61017836600461117d565b610682565b6101a061018b3660046111bf565b600c6020526000908152604090205460ff1681565b6040519015158152602001610118565b61015f6101be3660046111f1565b6107d2565b600354610134906001600160a01b031681565b61010e60075481565b61015f6101ed36600461120e565b610842565b61010e60085481565b600654610134906001600160a01b031681565b600554610134906001600160a01b031681565b61015f61022f36600461129a565b61086e565b600254610134906001600160a01b031681565b61013461025536600461120e565b600b602052600090815260409020546001600160a01b031681565b600054610100900460ff16158080156102905750600054600160ff909116105b806102aa5750303b1580156102aa575060005460ff166001145b6103125760405162461bcd60e51b815260206004820152602e60248201527f496e697469616c697a61626c653a20636f6e747261637420697320616c72656160448201526d191e481a5b9a5d1a585b1a5e995960921b60648201526084015b60405180910390fd5b6000805460ff191660011790558015610335576000805461ff0019166101001790555b61034260208401846111bf565b600280546001600160a01b0319166001600160a01b0392909216918217905560408051638009ba1f60e01b81529051638009ba1f9160048082019260209290919082900301816000875af115801561039e573d6000803e3d6000fd5b505050506040513d601f19601f820116820180604052508101906103c2919061136d565b600380546001600160a01b0319166001600160a01b0392831617905560025460408051632d77bef360e11b815290519190921691635aef7de691600480830192602092919082900301816000875af1158015610422573d6000803e3d6000fd5b505050506040513d601f19601f82011682018060405250810190610446919061136d565b600480546001600160a01b0319166001600160a01b039290921691909117905561047660408401602085016111bf565b600680546001600160a01b03199081166001600160a01b03938416179091556040850135600755606080860135600a908155426008556009556005805490921692851692909217905561050b306040516001600160a01b038216602482015260609060440160408051601f198184030181529190526020810180516001600160e01b031663610b592560e01b17905292915050565b9050606061051a306002610925565b6040805160028082526060820190925291925060009190816020015b606081526020019060019003908161053657905050905081816000815181106105615761056161138a565b602002602001018190525082816001815181106105805761058061138a565b602090810291909101015260408051600280825260608201909252600091816020016020820280368337505060025482519293506001600160a01b0316918391506000906105d0576105d061138a565b6001600160a01b0392831660209182029290920101526004548251911690829060019081106106015761060161138a565b60200260200101906001600160a01b031690816001600160a01b03168152505061063361062e8383610a04565b610ae5565b50505050801561067d576000805461ff0019169055604051600181527f7f26b83ff96e1f2b6a682f133852f6798a09c465da95921460cefb38474024989060200160405180910390a15b505050565b8060005b818110156107cc5760008484838181106106a2576106a261138a565b90506020020160208101906106b791906111bf565b600480546040516370a0823160e01b81526001600160a01b03918216928101929092529192506000918316906370a0823190602401602060405180830381865afa158015610709573d6000803e3d6000fd5b505050506040513d601f19601f8201168201806040525081019061072d91906113a0565b11156107b9576001600160a01b0381166000908152600c602052604090205460ff1615156001146107b9576001600160a01b038116600052600c602052610778600180546001019055565b80600b600061078660015490565b815260200190815260200160002060006101000a8154816001600160a01b0302191690836001600160a01b031602179055505b50806107c4816113cf565b915050610686565b50505050565b6107da610c2f565b60075460085442916107eb916113e8565b8110156107f757600080fd5b81151560000361082a57600a60095461081091906113fb565b6009819055600a111561082557610825610d66565b61083c565b6009546108389060056113e8565b6009555b60085550565b600a5481101561086057600a60095461085b91906113fb565b505b50565b60095461085b9060056113e8565b610876610c2f565b6007546008544291610887916113e8565b81101561089357600080fd5b600554604051636915912560e11b81526001600160a01b039091169063d22b224a906108d3908d908d908d908d908d908d908d908d908d90600401611455565b6020604051808303816000875af11580156108f2573d6000803e3d6000fd5b505050506040513d601f19601f8201168201806040525081019061091691906113a0565b50600855505050505050505050565b6040805160018082528183019092526060916000919060208083019080368337019050509050838160008151811061095f5761095f61138a565b6001600160a01b03929092166020928302919091019091015260408051600180825281830190925260009181602001602082028036833701905050905083816000815181106109b0576109b061138a565b60200260200101818152505081816040516024016109cf929190611551565b60408051601f198184030181529190526020810180516001600160e01b0316630f656a2160e01b179052925050505b92915050565b60608060005b8451811015610aa057816000858381518110610a2857610a2861138a565b60200260200101516000888581518110610a4457610a4461138a565b602002602001015151898681518110610a5f57610a5f61138a565b6020026020010151604051602001610a7c969594939291906115f9565b60405160208183030381529060405291508080610a98906113cf565b915050610a0a565b5080604051602401610ab2919061168f565b60408051601f198184030181529190526020810180516001600160e01b03166346c07f8560e11b17905291505092915050565b60025460408051639a2f747f60e01b815290516000926001600160a01b031691639a2f747f916004808301926020929190829003018187875af1158015610b30573d6000803e3d6000fd5b505050506040513d601f19601f82011682018060405250810190610b5491906113a0565b9050803414610b975760405162461bcd60e51b815260206004820152600f60248201526e4d697373696e67207472696275746560881b6044820152606401610309565b60006040518060a00160405280607e8152602001611797607e91396002546040516307505ff960e31b81529192506001600160a01b031690633a82ffc8908490610bec908790600090819088906004016116a2565b60206040518083038185885af1158015610c0a573d6000803e3d6000fd5b50505050506040513d601f19601f820116820180604052508101906107cc91906113a0565b6003546040516370a0823160e01b81523360048201526000916001600160a01b0316906370a0823190602401602060405180830381865afa158015610c78573d6000803e3d6000fd5b505050506040513d601f19601f82011682018060405250810190610c9c91906113a0565b9050600260009054906101000a90046001600160a01b03166001600160a01b0316635cfd6f7e6040518163ffffffff1660e01b81526004016020604051808303816000875af1158015610cf3573d6000803e3d6000fd5b505050506040513d601f19601f82011682018060405250810190610d1791906113a0565b81101561085d5760405162461bcd60e51b815260206004820181905260248201527f596f75206d75737420706f7373657373206d696e696d756d20736861726573216044820152606401610309565b600354604080516318160ddd60e01b815290516000926001600160a01b0316916318160ddd9160048083019260209291908290030181865afa158015610db0573d6000803e3d6000fd5b505050506040513d601f19601f82011682018060405250810190610dd491906113a0565b60408051600180825281830190925291925060009190602080830190803683370190505090503081600081518110610e0e57610e0e61138a565b6001600160a01b039290921660209283029190910190910152604080516001808252818301909252600091816020016020820280368337019050509050610e57836103e86116e4565b81600081518110610e6a57610e6a61138a565b6020908102919091010152600254604051632c78fd0360e21b81526001600160a01b039091169063b1e3f40c90610ea79085908590600401611551565b600060405180830381600087803b158015610ec157600080fd5b505af1158015610ed5573d6000803e3d6000fd5b505050506000610ee460015490565b905060015b81811161105a576000818152600b6020526040808220546004805492516370a0823160e01b81526001600160a01b03938416918101919091529116919082906370a0823190602401602060405180830381865afa158015610f4e573d6000803e3d6000fd5b505050506040513d601f19601f82011682018060405250810190610f7291906113a0565b90508015611045576006546040516001600160a01b0390911660248201526044810182905260009060640160408051601f198184030181529181526020820180516001600160e01b031663a9059cbb60e01b17905260048054915163468721a760e01b81529293506001600160a01b039091169163468721a791610fff91879160009187918391016116fb565b6020604051808303816000875af115801561101e573d6000803e3d6000fd5b505050506040513d601f19601f82011682018060405250810190611042919061173c565b50505b50508080611052906113cf565b915050610ee9565b506004805460065460405163468721a760e01b81526001600160a01b039283169363468721a79361109393169185319160009101611759565b6020604051808303816000875af11580156110b2573d6000803e3d6000fd5b505050506040513d601f19601f820116820180604052508101906110d6919061173c565b5050505050565b6001600160a01b038116811461085d57600080fd5b60008082840360a081121561110657600080fd5b608081121561111457600080fd5b508291506080830135611126816110dd565b809150509250929050565b60008083601f84011261114357600080fd5b50813567ffffffffffffffff81111561115b57600080fd5b6020830191508360208260051b850101111561117657600080fd5b9250929050565b6000806020838503121561119057600080fd5b823567ffffffffffffffff8111156111a757600080fd5b6111b385828601611131565b90969095509350505050565b6000602082840312156111d157600080fd5b81356111dc816110dd565b9392505050565b801515811461085d57600080fd5b60006020828403121561120357600080fd5b81356111dc816111e3565b60006020828403121561122057600080fd5b5035919050565b60008083601f84011261123957600080fd5b50813567ffffffffffffffff81111561125157600080fd5b60208301915083602082850101111561117657600080fd5b803567ffffffffffffffff8116811461128157600080fd5b919050565b803563ffffffff8116811461128157600080fd5b600080600080600080600080600060c08a8c0312156112b857600080fd5b893567ffffffffffffffff808211156112d057600080fd5b6112dc8d838e01611227565b909b50995060208c01359150808211156112f557600080fd5b6113018d838e01611227565b909950975060408c013591506002821061131a57600080fd5b90955060608b0135908082111561133057600080fd5b5061133d8c828d01611131565b9095509350611350905060808b01611269565b915061135e60a08b01611286565b90509295985092959850929598565b60006020828403121561137f57600080fd5b81516111dc816110dd565b634e487b7160e01b600052603260045260246000fd5b6000602082840312156113b257600080fd5b5051919050565b634e487b7160e01b600052601160045260246000fd5b6000600182016113e1576113e16113b9565b5060010190565b808201808211156109fe576109fe6113b9565b818103818111156109fe576109fe6113b9565b81835281816020850137506000828201602090810191909152601f909101601f19169091010190565b6002811061085d57634e487b7160e01b600052602160045260246000fd5b60c08152600061146960c083018b8d61140e565b60208382038185015261147d828b8d61140e565b915061148889611437565b604084018990528382036060850152868252808201600588901b830182018960005b8a81101561151a57858303601f190184528135368d9003601e190181126114d057600080fd5b8c01858101903567ffffffffffffffff8111156114ec57600080fd5b8036038213156114fb57600080fd5b61150685828461140e565b9587019594505050908401906001016114aa565b505067ffffffffffffffff88166080870152935061153792505050565b63ffffffff831660a08301529a9950505050505050505050565b604080825283519082018190526000906020906060840190828701845b828110156115935781516001600160a01b03168452928401929084019060010161156e565b5050508381038285015284518082528583019183019060005b818110156115c8578351835292840192918401916001016115ac565b5090979650505050505050565b60005b838110156115f05781810151838201526020016115d8565b50506000910152565b6000875161160b818460208c016115d5565b808301905060ff60f81b8860f81b1681526bffffffffffffffffffffffff198760601b16600182015285601582015284603582015283516116538160558401602088016115d5565b0160550198975050505050505050565b6000815180845261167b8160208601602086016115d5565b601f01601f19169290920160200192915050565b6020815260006111dc6020830184611663565b6080815260006116b56080830187611663565b63ffffffff8616602084015284604084015282810360608401526116d98185611663565b979650505050505050565b80820281158282048414176109fe576109fe6113b9565b60018060a01b03851681528360208201526080604082015260006117226080830185611663565b905061172d83611437565b82606083015295945050505050565b60006020828403121561174e57600080fd5b81516111dc816111e3565b6001600160a01b03841681526020810183905260806040820181905260009082015260a0810161178883611437565b82606083015294935050505056fe7b2270726f706f73616c54797065223a20224144445f5348414d414e222c20227469746c65223a2022526561706572222c20226465736372697074696f6e223a202241737369676e2052656170657220636f6e74726163742061732061204d616e616765722d5368616d616e20616e6420536166652d4d6f64756c65227da2646970667358221220121f9042457aea0770bdb6f3047045abb04335cf432d338c697d9cf568ac43de64736f6c63430008110033608060405234801561001057600080fd5b5061001961001e565b6100de565b600054610100900460ff161561008a5760405162461bcd60e51b815260206004820152602760248201527f496e697469616c697a61626c653a20636f6e747261637420697320696e697469604482015266616c697a696e6760c81b606482015260840160405180910390fd5b60005460ff90811610156100dc576000805460ff191660ff9081179091556040519081527f7f26b83ff96e1f2b6a682f133852f6798a09c465da95921460cefb38474024989060200160405180910390a15b565b611919806100ed6000396000f3fe608060405234801561001057600080fd5b506004361061010b5760003560e01c80638009ba1f116100a25780639fc073e0116100715780639fc073e014610219578063b4fd72961461022c578063c32013701461023f578063e5a2a2a514610252578063e6bcb3aa1461026557600080fd5b80638009ba1f146101e1578063947a36fb146101f45780639701c3a0146101fd5780639c0fd1d11461021057600080fd5b806360a7fc1f116100de57806360a7fc1f1461017f57806361b0ff071461018857806370f616201461019b57806374606fc6146101ce57600080fd5b80633912797e14610110578063392f5f641461012557806342cde4e8146101555780635aef7de61461016c575b600080fd5b61012361011e36600461111b565b61028e565b005b600654610138906001600160a01b031681565b6040516001600160a01b0390911681526020015b60405180910390f35b61015e600b5481565b60405190815260200161014c565b600454610138906001600160a01b031681565b61015e600a5481565b6101236101963660046111b8565b610669565b6101be6101a93660046111fa565b600d6020526000908152604090205460ff1681565b604051901515815260200161014c565b6101236101dc36600461122c565b6107b3565b600354610138906001600160a01b031681565b61015e60085481565b61012361020b366004611249565b610820565b61015e60095481565b600754610138906001600160a01b031681565b600554610138906001600160a01b031681565b61012361024d3660046112d5565b61084b565b600254610138906001600160a01b031681565b610138610273366004611249565b600c602052600090815260409020546001600160a01b031681565b600054610100900460ff16158080156102ae5750600054600160ff909116105b806102c85750303b1580156102c8575060005460ff166001145b6103305760405162461bcd60e51b815260206004820152602e60248201527f496e697469616c697a61626c653a20636f6e747261637420697320616c72656160448201526d191e481a5b9a5d1a585b1a5e995960921b60648201526084015b60405180910390fd5b6000805460ff191660011790558015610353576000805461ff0019166101001790555b61036060208501856111fa565b600280546001600160a01b0319166001600160a01b0392909216918217905560408051638009ba1f60e01b81529051638009ba1f9160048082019260209290919082900301816000875af11580156103bc573d6000803e3d6000fd5b505050506040513d601f19601f820116820180604052508101906103e091906113a8565b600380546001600160a01b0319166001600160a01b0392831617905560025460408051632d77bef360e11b815290519190921691635aef7de691600480830192602092919082900301816000875af1158015610440573d6000803e3d6000fd5b505050506040513d601f19601f8201168201806040525081019061046491906113a8565b600480546001600160a01b0319166001600160a01b039290921691909117905561049460408501602086016111fa565b600780546001600160a01b03199081166001600160a01b03938416179091556040860135600855606080870135600b5542600955600a8055600580548316878516179055600680549092169285169290921790556104f130610902565b9050606061050030600261094e565b6040805160028082526060820190925291925060009190816020015b606081526020019060019003908161051c5790505090508181600081518110610547576105476113c5565b60200260200101819052508281600181518110610566576105666113c5565b602090810291909101015260408051600280825260608201909252600091816020016020820280368337505060025482519293506001600160a01b0316918391506000906105b6576105b66113c5565b6001600160a01b0392831660209182029290920101526006548251911690829060019081106105e7576105e76113c5565b60200260200101906001600160a01b031690816001600160a01b0316815250506106196106148383610a2d565b610b0e565b505050508015610663576000805461ff0019169055604051600181527f7f26b83ff96e1f2b6a682f133852f6798a09c465da95921460cefb38474024989060200160405180910390a15b50505050565b8060005b81811015610663576000848483818110610689576106896113c5565b905060200201602081019061069e91906111fa565b600480546040516370a0823160e01b81526001600160a01b03918216928101929092529192506000918316906370a0823190602401602060405180830381865afa1580156106f0573d6000803e3d6000fd5b505050506040513d601f19601f8201168201806040525081019061071491906113db565b11156107a0576001600160a01b0381166000908152600d602052604090205460ff1615156001146107a0576001600160a01b038116600052600d60205261075f600180546001019055565b80600c600061076d60015490565b815260200190815260200160002060006101000a8154816001600160a01b0302191690836001600160a01b031602179055505b50806107ab8161140a565b91505061066d565b6107bb610c58565b60085460095442916107cc91611423565b8110156107d857600080fd5b81151560000361080857600a80546107f09190611436565b600a818155111561080357610803610d8f565b61081a565b600a54610816906005611423565b600a555b60095550565b600b5481101561083d57600a80546108389190611436565b505b50565b600a54610838906005611423565b610853610c58565b600854600954429161086491611423565b81101561087057600080fd5b600554604051636915912560e11b81526001600160a01b039091169063d22b224a906108b0908d908d908d908d908d908d908d908d908d90600401611490565b6020604051808303816000875af11580156108cf573d6000803e3d6000fd5b505050506040513d601f19601f820116820180604052508101906108f391906113db565b50600955505050505050505050565b606080606083828260405160240161091c9392919061158c565b60408051601f198184030181529190526020810180516001600160e01b031663a6edf38f60e01b179052949350505050565b60408051600180825281830190925260609160009190602080830190803683370190505090508381600081518110610988576109886113c5565b6001600160a01b03929092166020928302919091019091015260408051600180825281830190925260009181602001602082028036833701905050905083816000815181106109d9576109d96113c5565b60200260200101818152505081816040516024016109f8929190611620565b60408051601f198184030181529190526020810180516001600160e01b0316630f656a2160e01b179052925050505b92915050565b60608060005b8451811015610ac957816000858381518110610a5157610a516113c5565b60200260200101516000888581518110610a6d57610a6d6113c5565b602002602001015151898681518110610a8857610a886113c5565b6020026020010151604051602001610aa5969594939291906116c8565b60405160208183030381529060405291508080610ac19061140a565b915050610a33565b5080604051602401610adb919061175e565b60408051601f198184030181529190526020810180516001600160e01b03166346c07f8560e11b17905291505092915050565b60025460408051639a2f747f60e01b815290516000926001600160a01b031691639a2f747f916004808301926020929190829003018187875af1158015610b59573d6000803e3d6000fd5b505050506040513d601f19601f82011682018060405250810190610b7d91906113db565b9050803414610bc05760405162461bcd60e51b815260206004820152600f60248201526e4d697373696e67207472696275746560881b6044820152606401610327565b60006040518060a00160405280607e8152602001611866607e91396002546040516307505ff960e31b81529192506001600160a01b031690633a82ffc8908490610c1590879060009081908890600401611771565b60206040518083038185885af1158015610c33573d6000803e3d6000fd5b50505050506040513d601f19601f8201168201806040525081019061066391906113db565b6003546040516370a0823160e01b81523360048201526000916001600160a01b0316906370a0823190602401602060405180830381865afa158015610ca1573d6000803e3d6000fd5b505050506040513d601f19601f82011682018060405250810190610cc591906113db565b9050600260009054906101000a90046001600160a01b03166001600160a01b0316635cfd6f7e6040518163ffffffff1660e01b81526004016020604051808303816000875af1158015610d1c573d6000803e3d6000fd5b505050506040513d601f19601f82011682018060405250810190610d4091906113db565b81101561083a5760405162461bcd60e51b815260206004820181905260248201527f596f75206d75737420706f7373657373206d696e696d756d20736861726573216044820152606401610327565b600354604080516318160ddd60e01b815290516000926001600160a01b0316916318160ddd9160048083019260209291908290030181865afa158015610dd9573d6000803e3d6000fd5b505050506040513d601f19601f82011682018060405250810190610dfd91906113db565b60408051600180825281830190925291925060009190602080830190803683370190505090503081600081518110610e3757610e376113c5565b6001600160a01b039290921660209283029190910190910152604080516001808252818301909252600091816020016020820280368337019050509050610e80836103e86117b3565b81600081518110610e9357610e936113c5565b6020908102919091010152600254604051632c78fd0360e21b81526001600160a01b039091169063b1e3f40c90610ed09085908590600401611620565b600060405180830381600087803b158015610eea57600080fd5b505af1158015610efe573d6000803e3d6000fd5b505050506000610f0d60015490565b905060015b818111611083576000818152600c6020526040808220546004805492516370a0823160e01b81526001600160a01b03938416918101919091529116919082906370a0823190602401602060405180830381865afa158015610f77573d6000803e3d6000fd5b505050506040513d601f19601f82011682018060405250810190610f9b91906113db565b9050801561106e576007546040516001600160a01b0390911660248201526044810182905260009060640160408051601f198184030181529181526020820180516001600160e01b031663a9059cbb60e01b17905260048054915163468721a760e01b81529293506001600160a01b039091169163468721a79161102891879160009187918391016117ca565b6020604051808303816000875af1158015611047573d6000803e3d6000fd5b505050506040513d601f19601f8201168201806040525081019061106b919061180b565b50505b5050808061107b9061140a565b915050610f12565b506004805460075460405163468721a760e01b81526001600160a01b039283169363468721a7936110bc93169185319160009101611828565b6020604051808303816000875af11580156110db573d6000803e3d6000fd5b505050506040513d601f19601f820116820180604052508101906110ff919061180b565b5050505050565b6001600160a01b038116811461083a57600080fd5b600080600083850360c081121561113157600080fd5b608081121561113f57600080fd5b50839250608084013561115181611106565b915060a084013561116181611106565b809150509250925092565b60008083601f84011261117e57600080fd5b50813567ffffffffffffffff81111561119657600080fd5b6020830191508360208260051b85010111156111b157600080fd5b9250929050565b600080602083850312156111cb57600080fd5b823567ffffffffffffffff8111156111e257600080fd5b6111ee8582860161116c565b90969095509350505050565b60006020828403121561120c57600080fd5b813561121781611106565b9392505050565b801515811461083a57600080fd5b60006020828403121561123e57600080fd5b81356112178161121e565b60006020828403121561125b57600080fd5b5035919050565b60008083601f84011261127457600080fd5b50813567ffffffffffffffff81111561128c57600080fd5b6020830191508360208285010111156111b157600080fd5b803567ffffffffffffffff811681146112bc57600080fd5b919050565b803563ffffffff811681146112bc57600080fd5b600080600080600080600080600060c08a8c0312156112f357600080fd5b893567ffffffffffffffff8082111561130b57600080fd5b6113178d838e01611262565b909b50995060208c013591508082111561133057600080fd5b61133c8d838e01611262565b909950975060408c013591506002821061135557600080fd5b90955060608b0135908082111561136b57600080fd5b506113788c828d0161116c565b909550935061138b905060808b016112a4565b915061139960a08b016112c1565b90509295985092959850929598565b6000602082840312156113ba57600080fd5b815161121781611106565b634e487b7160e01b600052603260045260246000fd5b6000602082840312156113ed57600080fd5b5051919050565b634e487b7160e01b600052601160045260246000fd5b60006001820161141c5761141c6113f4565b5060010190565b80820180821115610a2757610a276113f4565b81810381811115610a2757610a276113f4565b81835281816020850137506000828201602090810191909152601f909101601f19169091010190565b6002811061083a57634e487b7160e01b600052602160045260246000fd5b60c0815260006114a460c083018b8d611449565b6020838203818501526114b8828b8d611449565b91506114c389611472565b604084018990528382036060850152868252808201600588901b830182018960005b8a81101561155557858303601f190184528135368d9003601e1901811261150b57600080fd5b8c01858101903567ffffffffffffffff81111561152757600080fd5b80360382131561153657600080fd5b611541858284611449565b9587019594505050908401906001016114e5565b505067ffffffffffffffff88166080870152935061157292505050565b63ffffffff831660a08301529a9950505050505050505050565b6001600160a01b038416815260606020808301829052845191830182905260009185820191906080850190845b818110156115d957845161ffff16835293830193918301916001016115b9565b50508481036040860152855180825290820192508186019060005b818110156116125782511515855293830193918301916001016115f4565b509298975050505050505050565b604080825283519082018190526000906020906060840190828701845b828110156116625781516001600160a01b03168452928401929084019060010161163d565b5050508381038285015284518082528583019183019060005b818110156116975783518352928401929184019160010161167b565b5090979650505050505050565b60005b838110156116bf5781810151838201526020016116a7565b50506000910152565b600087516116da818460208c016116a4565b808301905060ff60f81b8860f81b1681526bffffffffffffffffffffffff198760601b16600182015285601582015284603582015283516117228160558401602088016116a4565b0160550198975050505050505050565b6000815180845261174a8160208601602086016116a4565b601f01601f19169290920160200192915050565b6020815260006112176020830184611732565b6080815260006117846080830187611732565b63ffffffff8616602084015284604084015282810360608401526117a88185611732565b979650505050505050565b8082028115828204841417610a2757610a276113f4565b60018060a01b03851681528360208201526080604082015260006117f16080830185611732565b90506117fc83611472565b82606083015295945050505050565b60006020828403121561181d57600080fd5b81516112178161121e565b6001600160a01b03841681526020810183905260806040820181905260009082015260a0810161185783611472565b82606083015294935050505056fe7b2270726f706f73616c54797065223a20224144445f5348414d414e222c20227469746c65223a2022526561706572222c20226465736372697074696f6e223a202241737369676e2052656170657220636f6e74726163742061732061204d616e616765722d5368616d616e20616e6420536166652d4d6f64756c65227da26469706673582212208d1d423fe5fccdd053e58d5a8da90d72d4d32eff71300b06baa4f83579b1a8e364736f6c63430008110033608060405234801561001057600080fd5b50612dcc806100206000396000f3fe608060405234801561001057600080fd5b50600436106102115760003560e01c8063610b592511610125578063a6edf38f116100ad578063cc2f84521161007c578063cc2f8452146104a2578063d4b83992146104c3578063e009cfde146104d6578063e19a9dd9146104e9578063f2fde38b146104fc57600080fd5b8063a6edf38f14610458578063b0c199121461046b578063c0c53b8b1461047e578063c91063891461049157600080fd5b80637ceab3b1116100f45780637ceab3b1146103fb5780638b95eccd1461040e5780638da5cb5b146104215780639393377214610432578063a4f9edbf1461044557600080fd5b8063610b5925146103ba5780636928e74b146103cd578063715018a6146103e0578063776d1a01146103e857600080fd5b80632e506a48116101a8578063468721a711610177578063468721a71461034d57806351fa1d73146103605780635229073f146103735780635aef7de6146103945780635e826695146103a757600080fd5b80632e506a48146103015780632fcf52d11461031457806333a0480c146103275780633c1952b81461033a57600080fd5b80632933ef1c116101e45780632933ef1c14610264578063294402cc146102775780632d3c2547146102a75780632d9ad53d146102de57600080fd5b8063086cfca8146102165780630de729c71461022b578063102b7fe61461023e57806315b77d3f14610251575b600080fd5b610229610224366004611ce7565b61050f565b005b610229610239366004611d35565b610569565b61022961024c366004611d7e565b6105f6565b61022961025f366004611dcb565b610665565b610229610272366004611e23565b6106f5565b60695461028a906001600160a01b031681565b6040516001600160a01b0390911681526020015b60405180910390f35b6102cb6102b5366004611ce7565b606a6020526000908152604090205461ffff1681565b60405161ffff909116815260200161029e565b6102f16102ec366004611ce7565b610771565b604051901515815260200161029e565b61022961030f366004611e68565b6107ac565b610229610322366004611dcb565b610831565b610229610335366004612067565b61088b565b6102296103483660046121bc565b610930565b6102f161035b36600461226e565b6109cc565b61022961036e3660046122de565b610af7565b61038661038136600461226e565b610b93565b60405161029e929190612365565b60665461028a906001600160a01b031681565b6102296103b53660046122de565b610cbe565b6102296103c8366004611ce7565b610d2a565b6102f16103db36600461238e565b610e54565b610229610f97565b6102296103f6366004611ce7565b610fab565b60655461028a906001600160a01b031681565b61022961041c366004611ce7565b611005565b6033546001600160a01b031661028a565b610229610440366004612423565b61105b565b6102296104533660046124b4565b6110f4565b6102296104663660046124e8565b611199565b61038661047936600461238e565b6112d2565b61022961048c36600461256a565b61141c565b6065546001600160a01b031661028a565b6104b56104b03660046125aa565b6114cb565b60405161029e9291906125d6565b60675461028a906001600160a01b031681565b6102296104e4366004612633565b6115c4565b6102296104f7366004611ce7565b6116d1565b61022961050a366004611ce7565b6117cd565b610517611846565b606680546001600160a01b038381166001600160a01b0319831681179093556040519116919082907f52ae88b092de36f87fb43fe794eb1381023b9c1bce563a871154022c63dce34290600090a35050565b610571611846565b61ffff83166000908152606b6020526040908190209051630a2f6f6d60e41b815273__$5153cb8becad9661cecdfd8bb0abac3da0$__9163a2f6f6d0916105c19190879087908790600401612684565b60006040518083038186803b1580156105d957600080fd5b505af41580156105ed573d6000803e3d6000fd5b50505050505050565b6105fe611846565b6001600160a01b0382166000818152606a6020908152604091829020805461ffff191661ffff86169081179091558251938452908301527f197e61bb67ba4b0f657afcb5d2dbed385d50b697c51090f466cdbcc4c30a21ce91015b60405180910390a15050565b61066d611846565b61ffff84166000908152606b602052604090819020905163163592dd60e01b815273__$5153cb8becad9661cecdfd8bb0abac3da0$__9163163592dd916106bf919088908890889088906004016126bc565b60006040518083038186803b1580156106d757600080fd5b505af41580156106eb573d6000803e3d6000fd5b5050505050505050565b6106fd611846565b61ffff83166000818152606b6020526040908190209051631df3fe0160e21b8152600481019190915260248101919091526001600160a01b03831660448201526001600160e01b03198216606482015273__$5153cb8becad9661cecdfd8bb0abac3da0$__906377cff804906084016105c1565b600060016001600160a01b038316148015906107a657506001600160a01b038281166000908152606860205260409020541615155b92915050565b6107b4611846565b61ffff84166000818152606b6020526040908190209051631e2d127160e11b8152600481019190915260248101919091526001600160a01b03841660448201526001600160e01b03198316606482015260ff8216608482015273__$5153cb8becad9661cecdfd8bb0abac3da0$__90633c5a24e29060a4016106bf565b610839611846565b61ffff84166000908152606b6020526040908190209051630bd7754d60e31b815273__$5153cb8becad9661cecdfd8bb0abac3da0$__91635ebbaa68916106bf919088908890889088906004016126bc565b610893611846565b61ffff8b166000908152606b6020526040908190209051632af6aecb60e01b815273__$5153cb8becad9661cecdfd8bb0abac3da0$__91632af6aecb916108f391908f908f908f908f908f908f908f908f908f908f908f906004016127ed565b60006040518083038186803b15801561090b57600080fd5b505af415801561091f573d6000803e3d6000fd5b505050505050505050505050505050565b610938611846565b61ffff88166000908152606b602052604090819020905163edf909e360e01b815273__$5153cb8becad9661cecdfd8bb0abac3da0$__9163edf909e39161099291908c908c908c908c908c908c908c908c906004016128e5565b60006040518083038186803b1580156109aa57600080fd5b505af41580156109be573d6000803e3d6000fd5b505050505050505050505050565b336000908152606860205260408120546001600160a01b0316610a0957604051634a0bfec160e01b81523360048201526024015b60405180910390fd5b336000908152606a602090815260408083205461ffff168352606b90915290819020606954915163db50e57560e01b815273__$5153cb8becad9661cecdfd8bb0abac3da0$__9263db50e57592610a789290916001600160a01b0316908b908b908b908b908b9060040161296c565b60006040518083038186803b158015610a9057600080fd5b505af4158015610aa4573d6000803e3d6000fd5b50505050610aeb868686868080601f0160208091040260200160405190810160405280939291908181526020018383808284376000920191909152508892506118a0915050565b90505b95945050505050565b610aff611846565b61ffff82166000818152606b60205260409081902090516367f218bd60e11b8152600481019190915260248101919091526001600160a01b038216604482015273__$5153cb8becad9661cecdfd8bb0abac3da0$__9063cfe4317a906064015b60006040518083038186803b158015610b7757600080fd5b505af4158015610b8b573d6000803e3d6000fd5b505050505050565b336000908152606860205260408120546060906001600160a01b0316610bce57604051634a0bfec160e01b8152336004820152602401610a00565b336000908152606a602090815260408083205461ffff168352606b90915290819020606954915163db50e57560e01b815273__$5153cb8becad9661cecdfd8bb0abac3da0$__9263db50e57592610c3d9290916001600160a01b0316908c908c908c908c908c9060040161296c565b60006040518083038186803b158015610c5557600080fd5b505af4158015610c69573d6000803e3d6000fd5b50505050610cb0878787878080601f016020809104026020016040519081016040528093929190818152602001838380828437600092019190915250899250611a42915050565b915091509550959350505050565b610cc6611846565b61ffff82166000818152606b602052604090819020905163ee54ca5360e01b8152600481019190915260248101919091526001600160a01b038216604482015273__$5153cb8becad9661cecdfd8bb0abac3da0$__9063ee54ca5390606401610b5f565b610d32611846565b6001600160a01b0381161580610d5157506001600160a01b0381166001145b15610d7a57604051635c93ff2f60e11b81526001600160a01b0382166004820152602401610a00565b6001600160a01b038181166000908152606860205260409020541615610dbe57604051632061897360e01b81526001600160a01b0382166004820152602401610a00565b606860209081527f82eaf0fca2207f91f5027fcf68136c84edb7e928c081c42aa5bbc2a771c7d37680546001600160a01b03848116600081815260408082208054949095166001600160a01b0319948516179094556001905283549091168117909255519081527fecdf3a3effea5783a3c4c2140e677577666428d44ed9d474a0b3a4c9943f844091015b60405180910390a150565b336000908152606860205260408120546001600160a01b0316610e8c57604051634a0bfec160e01b8152336004820152602401610a00565b61ffff83166000908152606b602052604090819020606954915163db50e57560e01b815273__$5153cb8becad9661cecdfd8bb0abac3da0$__9263db50e57592610eee9290916001600160a01b0316908d908d908d908d908d9060040161296c565b60006040518083038186803b158015610f0657600080fd5b505af4158015610f1a573d6000803e3d6000fd5b50505050610f61888888888080601f0160208091040260200160405190810160405280939291908181526020018383808284376000920191909152508a92506118a0915050565b9050818015610f6e575080155b15610f8c5760405163d27b44a960e01b815260040160405180910390fd5b979650505050505050565b610f9f611846565b610fa96000611bee565b565b610fb3611846565b606780546001600160a01b038381166001600160a01b0319831681179093556040519116919082907f90cc2f570a6eb594b1580ea3e41247d2d73a55281889e86bd4ec2fc29c7e62d690600090a35050565b61100d611846565b606980546001600160a01b0319166001600160a01b0383169081179091556040519081527f5fe6aabf4e790843df43ae0e22b58620066fb389295bedc06a92df6c3b28777d90602001610e49565b611063611846565b61ffff87166000908152606b6020526040908190209051632896707960e11b815273__$5153cb8becad9661cecdfd8bb0abac3da0$__9163512ce0f2916110bb91908b908b908b908b908b908b908b906004016129b5565b60006040518083038186803b1580156110d357600080fd5b505af41580156110e7573d6000803e3d6000fd5b5050505050505050505050565b60008060008380602001905181019061110d9190612a9a565b606680546001600160a01b038085166001600160a01b03199283161790925560678054928416929091169190911790559194509250905061114c611c40565b6040516001600160a01b038281168252808416919085169033907f34d3b96a088381c6843a1f9d94d251afa88f83cc7a0d17fc23a7057506a3fc6d9060200160405180910390a450505050565b6111a1611846565b8281146111c1576040516374f4d53760e01b815260040160405180910390fd5b60005b61ffff81168411156112755782828261ffff168181106111e6576111e6612adc565b90506020020160208101906111fb9190612af2565b606b600087878561ffff1681811061121557611215612adc565b905060200201602081019061122a9190612b0f565b61ffff168152602080820192909252604090810160009081206001600160a01b038b1682529092529020805460ff19169115159190911790558061126d81612b40565b9150506111c4565b5061127f85610771565b61128c5761128c85610d2a565b7f4dcd99505817a4d3e4d3f751a4a49739ec38cb0f83319ff1224a3b289597e86c85858585856040516112c3959493929190612b61565b60405180910390a15050505050565b336000908152606860205260408120546060906001600160a01b031661130d57604051634a0bfec160e01b8152336004820152602401610a00565b61ffff84166000908152606b602052604090819020606954915163db50e57560e01b815273__$5153cb8becad9661cecdfd8bb0abac3da0$__9263db50e5759261136f9290916001600160a01b0316908e908e908e908e908e9060040161296c565b60006040518083038186803b15801561138757600080fd5b505af415801561139b573d6000803e3d6000fd5b505050506113e2898989898080601f0160208091040260200160405190810160405280939291908181526020018383808284376000920191909152508b9250611a42915050565b90925090508280156113f2575081155b156114105760405163d27b44a960e01b815260040160405180910390fd5b97509795505050505050565b606954600160a01b900460ff161561146c5760405162461bcd60e51b8152602060048201526013602482015272105b1c9958591e481a5b9a5d1a585b1a5e9959606a1b6044820152606401610a00565b6069805460ff60a01b1916600160a01b179055604080516001600160a01b03858116602083015284811692820192909252908216606082015260009060800160405160208183030381529060405290506114c5816110f4565b50505050565b60606000826001600160401b038111156114e7576114e7611f06565b604051908082528060200260200182016040528015611510578160200160208202803683370190505b506001600160a01b0380861660009081526068602052604081205492945091165b6001600160a01b0381161580159061155357506001600160a01b038116600114155b801561155e57508482105b156115b6578084838151811061157657611576612adc565b6001600160a01b039283166020918202929092018101919091529181166000908152606890925260409091205416816115ae81612bf9565b925050611531565b908352919491935090915050565b6115cc611846565b6001600160a01b03811615806115eb57506001600160a01b0381166001145b1561161457604051635c93ff2f60e11b81526001600160a01b0382166004820152602401610a00565b6001600160a01b0382811660009081526068602052604090205481169082161461165c57604051638b4189ff60e01b81526001600160a01b0382166004820152602401610a00565b6001600160a01b038181166000818152606860209081526040808320805488871685528285208054919097166001600160a01b03199182161790965592849052825490941690915591519081527faab4fa2b463f581b2b32cb3b7e3b704b9ce37cc209b5fb4d77e593ace40542769101610659565b6116d9611846565b6001600160a01b0381161561177f576040516301ffc9a760e01b815263736bd41d60e11b60048201526001600160a01b038216906301ffc9a790602401602060405180830381865afa158015611733573d6000803e3d6000fd5b505050506040513d601f19601f820116820180604052508101906117579190612c12565b61177f576040516358b7533f60e11b81526001600160a01b0382166004820152602401610a00565b606580546001600160a01b0319166001600160a01b0383169081179091556040519081527f1151116914515bc0891ff9047a6cb32cf902546f83066499bcf8ba33d2353fa290602001610e49565b6117d5611846565b6001600160a01b03811661183a5760405162461bcd60e51b815260206004820152602660248201527f4f776e61626c653a206e6577206f776e657220697320746865207a65726f206160448201526564647265737360d01b6064820152608401610a00565b61184381611bee565b50565b6033546001600160a01b03163314610fa95760405162461bcd60e51b815260206004820181905260248201527f4f776e61626c653a2063616c6c6572206973206e6f7420746865206f776e65726044820152606401610a00565b6065546000906001600160a01b031615611942576065546040805180820182526002815261060f60f31b60208201529051633af85da960e11b81526001600160a01b03909216916375f0bb529161190f9189918991899189916000918291829182918291903390600401612c2f565b600060405180830381600087803b15801561192957600080fd5b505af115801561193d573d6000803e3d6000fd5b505050505b60675460405163468721a760e01b81526001600160a01b039091169063468721a790611978908890889088908890600401612cbe565b6020604051808303816000875af1158015611997573d6000803e3d6000fd5b505050506040513d601f19601f820116820180604052508101906119bb9190612c12565b6065549091506001600160a01b031615611a3a57606554604051631264e26d60e31b815261060f60f31b600482015282151560248201526001600160a01b0390911690639327136890604401600060405180830381600087803b158015611a2157600080fd5b505af1158015611a35573d6000803e3d6000fd5b505050505b949350505050565b6065546000906060906001600160a01b031615611ae7576065546040805180820182526002815261060f60f31b60208201529051633af85da960e11b81526001600160a01b03909216916375f0bb5291611ab4918a918a918a918a916000918291829182918291903390600401612c2f565b600060405180830381600087803b158015611ace57600080fd5b505af1158015611ae2573d6000803e3d6000fd5b505050505b606754604051635229073f60e01b81526001600160a01b0390911690635229073f90611b1d908990899089908990600401612cbe565b6000604051808303816000875af1158015611b3c573d6000803e3d6000fd5b505050506040513d6000823e601f3d908101601f19168201604052611b649190810190612cf4565b60655491935091506001600160a01b031615611be557606554604051631264e26d60e31b815261060f60f31b600482015283151560248201526001600160a01b0390911690639327136890604401600060405180830381600087803b158015611bcc57600080fd5b505af1158015611be0573d6000803e3d6000fd5b505050505b94509492505050565b603380546001600160a01b038381166001600160a01b0319831681179093556040519116919082907f8be0079c531659141344cd1fd0a4f28419497f9722a3daafe3b4186f6b6457e090600090a35050565b600160005260686020527f82eaf0fca2207f91f5027fcf68136c84edb7e928c081c42aa5bbc2a771c7d376546001600160a01b031615611c8257611c82612d80565b6001600081905260686020527f82eaf0fca2207f91f5027fcf68136c84edb7e928c081c42aa5bbc2a771c7d37680546001600160a01b0319169091179055565b6001600160a01b038116811461184357600080fd5b8035611ce281611cc2565b919050565b600060208284031215611cf957600080fd5b8135611d0481611cc2565b9392505050565b803561ffff81168114611ce257600080fd5b6004811061184357600080fd5b8035611ce281611d1d565b600080600060608486031215611d4a57600080fd5b611d5384611d0b565b92506020840135611d6381611cc2565b91506040840135611d7381611d1d565b809150509250925092565b60008060408385031215611d9157600080fd5b8235611d9c81611cc2565b9150611daa60208401611d0b565b90509250929050565b80356001600160e01b031981168114611ce257600080fd5b60008060008060808587031215611de157600080fd5b611dea85611d0b565b93506020850135611dfa81611cc2565b9250611e0860408601611db3565b91506060850135611e1881611d1d565b939692955090935050565b600080600060608486031215611e3857600080fd5b611e4184611d0b565b92506020840135611e5181611cc2565b9150611e5f60408501611db3565b90509250925092565b60008060008060808587031215611e7e57600080fd5b611e8785611d0b565b93506020850135611e9781611cc2565b9250611ea560408601611db3565b9150606085013560ff81168114611e1857600080fd5b60008083601f840112611ecd57600080fd5b5081356001600160401b03811115611ee457600080fd5b6020830191508360208260051b8501011115611eff57600080fd5b9250929050565b634e487b7160e01b600052604160045260246000fd5b604051601f8201601f191681016001600160401b0381118282101715611f4457611f44611f06565b604052919050565b60006001600160401b03821115611f6557611f65611f06565b50601f01601f191660200190565b600082601f830112611f8457600080fd5b8135611f97611f9282611f4c565b611f1c565b818152846020838601011115611fac57600080fd5b816020850160208301376000918101602001919091529392505050565b600082601f830112611fda57600080fd5b813560206001600160401b0380831115611ff657611ff6611f06565b8260051b612005838201611f1c565b938452858101830193838101908886111561201f57600080fd5b84880192505b8583101561205b5782358481111561203d5760008081fd5b61204b8a87838c0101611f73565b8352509184019190840190612025565b98975050505050505050565b60008060008060008060008060008060006101008c8e03121561208957600080fd5b6120928c611d0b565b9a506120a060208d01611cd7565b99506120ae60408d01611db3565b98506001600160401b038060608e013511156120c957600080fd5b6120d98e60608f01358f01611ebb565b909950975060808d01358110156120ef57600080fd5b6120ff8e60808f01358f01611ebb565b909750955060a08d013581101561211557600080fd5b6121258e60a08f01358f01611ebb565b909550935060c08d013581101561213b57600080fd5b5061214c8d60c08e01358e01611fc9565b915061215a60e08d01611d2a565b90509295989b509295989b9093969950565b803560038110611ce257600080fd5b60008083601f84011261218d57600080fd5b5081356001600160401b038111156121a457600080fd5b602083019150836020828501011115611eff57600080fd5b60008060008060008060008060e0898b0312156121d857600080fd5b6121e189611d0b565b975060208901356121f181611cc2565b96506121ff60408a01611db3565b95506060890135945061221460808a0161216c565b935060a089013561222481611d1d565b925060c08901356001600160401b0381111561223f57600080fd5b61224b8b828c0161217b565b999c989b5096995094979396929594505050565b803560028110611ce257600080fd5b60008060008060006080868803121561228657600080fd5b853561229181611cc2565b94506020860135935060408601356001600160401b038111156122b357600080fd5b6122bf8882890161217b565b90945092506122d290506060870161225f565b90509295509295909350565b600080604083850312156122f157600080fd5b6122fa83611d0b565b9150602083013561230a81611cc2565b809150509250929050565b60005b83811015612330578181015183820152602001612318565b50506000910152565b60008151808452612351816020860160208601612315565b601f01601f19169290920160200192915050565b8215158152604060208201526000611a3a6040830184612339565b801515811461184357600080fd5b600080600080600080600060c0888a0312156123a957600080fd5b87356123b481611cc2565b96506020880135955060408801356001600160401b038111156123d657600080fd5b6123e28a828b0161217b565b90965094506123f590506060890161225f565b925061240360808901611d0b565b915060a088013561241381612380565b8091505092959891949750929550565b600080600080600080600060c0888a03121561243e57600080fd5b61244788611d0b565b9650602088013561245781611cc2565b955061246560408901611db3565b94506060880135935061247a6080890161216c565b925060a08801356001600160401b0381111561249557600080fd5b6124a18a828b01611ebb565b989b979a50959850939692959293505050565b6000602082840312156124c657600080fd5b81356001600160401b038111156124dc57600080fd5b611a3a84828501611f73565b60008060008060006060868803121561250057600080fd5b853561250b81611cc2565b945060208601356001600160401b038082111561252757600080fd5b61253389838a01611ebb565b9096509450604088013591508082111561254c57600080fd5b5061255988828901611ebb565b969995985093965092949392505050565b60008060006060848603121561257f57600080fd5b833561258a81611cc2565b9250602084013561259a81611cc2565b91506040840135611d7381611cc2565b600080604083850312156125bd57600080fd5b82356125c881611cc2565b946020939093013593505050565b604080825283519082018190526000906020906060840190828701845b828110156126185781516001600160a01b0316845292840192908401906001016125f3565b5050506001600160a01b039490941692019190915250919050565b6000806040838503121561264657600080fd5b82356122fa81611cc2565b634e487b7160e01b600052602160045260246000fd5b6004811061184357611843612651565b61268081612667565b9052565b84815261ffff841660208201526001600160a01b0383166040820152608081016126ad83612667565b82606083015295945050505050565b85815261ffff851660208201526001600160a01b03841660408201526001600160e01b03198316606082015260a081016126f583612667565b8260808301529695505050505050565b6003811061268057612680612651565b8183526000602080850194508260005b8581101561274f5761273f8761273a8461216c565b612705565b9582019590820190600101612725565b509495945050505050565b8183526000602080850194508260005b8581101561274f57813561277d81611d1d565b61278681612667565b8752958201959082019060010161276a565b600081518084526020808501808196508360051b8101915082860160005b858110156127e05782840389526127ce848351612339565b988501989350908401906001016127b6565b5091979650505050505050565b8c815261ffff8c1660208201526001600160a01b038b1660408201526001600160e01b03198a166060820152610120608082018190528101889052600061014082018a825b8b81101561285c57813561284581612380565b151583526020928301929190910190600101612832565b505082810360a084015261287181898b612715565b905082810360c084015261288681878961275a565b905082810360e084015261289a8186612798565b9150506128ab610100830184612677565b9d9c50505050505050505050505050565b81835281816020850137506000828201602090810191909152601f909101601f19169091010190565b89815261ffff891660208201526001600160a01b03881660408201526001600160e01b03198716606082015260808101869052600061010061292a60a0840188612705565b61293386612667565b8560c08401528060e084015261294c81840185876128bc565b9c9b505050505050505050505050565b6002811061268057612680612651565b8781526001600160a01b038781166020830152861660408201526060810185905260c0608082018190526000906129a690830185876128bc565b905061205b60a083018461295c565b600060e082018a8352602061ffff8b168185015260018060a01b038a16604085015263ffffffff60e01b891660608501528760808501526129f960a0850188612705565b60e060c085015290849052610100600585901b84018101919084018660005b87811015612a875786850360ff190183528135368a9003601e19018112612a3e57600080fd5b890184810190356001600160401b03811115612a5957600080fd5b803603821315612a6857600080fd5b612a738782846128bc565b965050509183019190830190600101612a18565b50929d9c50505050505050505050505050565b600080600060608486031215612aaf57600080fd5b8351612aba81611cc2565b6020850151909350612acb81611cc2565b6040850151909250611d7381611cc2565b634e487b7160e01b600052603260045260246000fd5b600060208284031215612b0457600080fd5b8135611d0481612380565b600060208284031215612b2157600080fd5b611d0482611d0b565b634e487b7160e01b600052601160045260246000fd5b600061ffff808316818103612b5757612b57612b2a565b6001019392505050565b6001600160a01b038616815260606020808301829052908201859052600090869060808401835b88811015612baf5761ffff612b9c85611d0b565b1682529282019290820190600101612b88565b508481036040860152858152810191508560005b86811015612bea578135612bd681612380565b151584529282019290820190600101612bc3565b50919998505050505050505050565b600060018201612c0b57612c0b612b2a565b5060010190565b600060208284031215612c2457600080fd5b8151611d0481612380565b6001600160a01b038c81168252602082018c905261016060408301819052600091612c5c8483018e612339565b9150612c6b606085018d61295c565b8a60808501528960a08501528860c085015280881660e0850152808716610100850152838203610120850152612ca18287612339565b925080851661014085015250509c9b505050505050505050505050565b60018060a01b0385168152836020820152608060408201526000612ce56080830185612339565b9050610aee606083018461295c565b60008060408385031215612d0757600080fd5b8251612d1281612380565b60208401519092506001600160401b03811115612d2e57600080fd5b8301601f81018513612d3f57600080fd5b8051612d4d611f9282611f4c565b818152866020838501011115612d6257600080fd5b612d73826020830160208601612315565b8093505050509250929050565b634e487b7160e01b600052600160045260246000fdfea2646970667358221220cf1c488ad2d72b45bb3832aa4771be28324c81449c40ed3f62cfed1d2779dfd364736f6c63430008110033",
    "linkReferences": {
      "contracts/zodiac-mod-roles/Permissions.sol": {
        "Permissions": [
          {
            "start": 16825,
            "length": 20
          },
          {
            "start": 17077,
            "length": 20
          },
          {
            "start": 17268,
            "length": 20
          },
          {
            "start": 17460,
            "length": 20
          },
          {
            "start": 17537,
            "length": 20
          },
          {
            "start": 17627,
            "length": 20
          },
          {
            "start": 17792,
            "length": 20
          },
          {
            "start": 18017,
            "length": 20
          },
          {
            "start": 18278,
            "length": 20
          },
          {
            "start": 18470,
            "length": 20
          },
          {
            "start": 18733,
            "length": 20
          },
          {
            "start": 19159,
            "length": 20
          },
          {
            "start": 19627,
            "length": 20
          },
          {
            "start": 20312,
            "length": 20
          }
        ]
      }
    }
  },
  "methodIdentifiers": {
    "deployReaper((address,address,uint256,uint256))": "c4d1fca0",
    "deployReaperWithRoleModifier((address,address,uint256,uint256))": "9c41ae62",
    "linkToken()": "57970e93",
    "reaperConsumerGoerli()": "d912492d",
    "reaperConsumerMumbai()": "307d99f1",
    "reaperRoleModSingleton()": "b5849538",
    "reaperSingleton()": "8e26d88c",
    "roles()": "392f5f64",
    "testToken()": "6895179d"
  },
  "id": 1
}