{
  "abi": [
    {
      "inputs": [],
      "stateMutability": "nonpayable",
      "type": "constructor"
    },
    {
      "anonymous": false,
      "inputs": [
        {
          "indexed": false,
          "internalType": "address",
          "name": "reaper",
          "type": "address"
        }
      ],
      "name": "newReaper",
      "type": "event"
    },
    {
      "inputs": [
        {
          "components": [
            {
              "internalType": "address",
              "name": "baalDao",
              "type": "address"
            },
            {
              "internalType": "address",
              "name": "liquidationTarget",
              "type": "address"
            },
            {
              "internalType": "uint256",
              "name": "interval",
              "type": "uint256"
            },
            {
              "internalType": "uint256",
              "name": "threshold",
              "type": "uint256"
            }
          ],
          "internalType": "struct IInitData.InitData",
          "name": "initData",
          "type": "tuple"
        }
      ],
      "name": "deployReaper",
      "outputs": [
        {
          "internalType": "address",
          "name": "",
          "type": "address"
        }
      ],
      "stateMutability": "nonpayable",
      "type": "function"
    },
    {
      "inputs": [],
      "name": "linkToken",
      "outputs": [
        {
          "internalType": "contract ERC20",
          "name": "",
          "type": "address"
        }
      ],
      "stateMutability": "view",
      "type": "function"
    },
    {
      "inputs": [],
      "name": "reaperConsumer",
      "outputs": [
        {
          "internalType": "address",
          "name": "",
          "type": "address"
        }
      ],
      "stateMutability": "view",
      "type": "function"
    },
    {
      "inputs": [],
      "name": "reaperSingleton",
      "outputs": [
        {
          "internalType": "address",
          "name": "",
          "type": "address"
        }
      ],
      "stateMutability": "view",
      "type": "function"
    },
    {
      "inputs": [],
      "name": "testToken",
      "outputs": [
        {
          "internalType": "contract ERC20",
          "name": "",
          "type": "address"
        }
      ],
      "stateMutability": "view",
      "type": "function"
    }
  ],
  "bytecode": {
    "object": "0x6080604052600180546001600160a01b031990811673ea6721ac65bced841b8ec3fc5fedea6141a0ade41790915560028054821673326c977e6efc84e512bb9c30f76e30c160ed06fb1790556003805490911673a49df10dd5b84257de634f4350218f615471fc69179055678ac7230489e8000060045534801561008257600080fd5b5060405161008f906100d1565b604051809103906000f0801580156100ab573d6000803e3d6000fd5b50600080546001600160a01b0319166001600160a01b03929092169190911790556100de565b6116df806104d583390190565b6103e8806100ed6000396000f3fe608060405234801561001057600080fd5b50600436106100575760003560e01c806357970e931461005c5780635deb5a611461008b5780636895179d1461009e5780638e26d88c146100b1578063c4d1fca0146100c4575b600080fd5b60025461006f906001600160a01b031681565b6040516001600160a01b03909116815260200160405180910390f35b60015461006f906001600160a01b031681565b60035461006f906001600160a01b031681565b60005461006f906001600160a01b031681565b61006f6100d236600461030a565b6000805481906100ea906001600160a01b03166101e5565b6040516317b1408960e21b8152909150600b906001600160a01b03831690635ec502249061011e9087908590600401610339565b600060405180830381600087803b15801561013857600080fd5b505af115801561014c573d6000803e3d6000fd5b505050506101593061027f565b6101a25760405162461bcd60e51b81526020600482015260156024820152744d697373696e67204c494e4b206465706f7369742160581b60448201526064015b60405180910390fd5b6040516001600160a01b03831681527f76543b6afd7b316567ca9e8757160611431aac018c899b968b7ab783782345199060200160405180910390a15092915050565b6000763d602d80600a3d3981f3363d3d373d3d3d363d730000008260601b60e81c176000526e5af43d82803e903d91602b57fd5bf38260781b17602052603760096000f090506001600160a01b03811661027a5760405162461bcd60e51b8152602060048201526016602482015275115490cc4c4d8dce8818dc99585d194819985a5b195960521b6044820152606401610199565b919050565b600354600480546040516323b872dd60e01b815233928101929092526001600160a01b038481166024840152604483019190915260009216906323b872dd906064016020604051808303816000875af11580156102e0573d6000803e3d6000fd5b505050506040513d601f19601f820116820180604052508101906103049190610389565b92915050565b60006080828403121561031c57600080fd5b50919050565b80356001600160a01b038116811461027a57600080fd5b60a081016001600160a01b038061034f86610322565b1683528061035f60208701610322565b16602084015260408501356040840152606085013560608401528084166080840152509392505050565b60006020828403121561039b57600080fd5b815180151581146103ab57600080fd5b939250505056fea264697066735822122031921786735e52dfc534a7282c8c6bdfa14071f30785f7c1da19c6dd1ac010a664736f6c63430008110033608060405234801561001057600080fd5b5061001961001e565b6100de565b600054610100900460ff161561008a5760405162461bcd60e51b815260206004820152602760248201527f496e697469616c697a61626c653a20636f6e747261637420697320696e697469604482015266616c697a696e6760c81b606482015260840160405180910390fd5b60005460ff90811610156100dc576000805460ff191660ff9081179091556040519081527f7f26b83ff96e1f2b6a682f133852f6798a09c465da95921460cefb38474024989060200160405180910390a15b565b6115f2806100ed6000396000f3fe608060405234801561001057600080fd5b50600436106100ea5760003560e01c80638a12102b1161008c5780639fc073e0116100665780639fc073e0146101b2578063b4fd7296146101c5578063c3201370146101d8578063e5a2a2a5146101eb57600080fd5b80638a12102b1461018d578063947a36fb146101a05780639c0fd1d1146101a957600080fd5b806360a7fc1f116100c857806360a7fc1f1461014b57806361b0ff071461015457806374606fc6146101675780638009ba1f1461017a57600080fd5b806342cde4e8146100ef5780635aef7de61461010b5780635ec5022414610136575b600080fd5b6100f8600a5481565b6040519081526020015b60405180910390f35b60045461011e906001600160a01b031681565b6040516001600160a01b039091168152602001610102565b610149610144366004610eee565b6101fe565b005b6100f860095481565b610149610162366004610f79565b61060b565b610149610175366004610fc9565b61073f565b60035461011e906001600160a01b031681565b61014961019b366004610fed565b6107ab565b6100f860075481565b6100f860085481565b60065461011e906001600160a01b031681565b60055461011e906001600160a01b031681565b6101496101e6366004611079565b6107d7565b60025461011e906001600160a01b031681565b600054610100900460ff161580801561021e5750600054600160ff909116105b806102385750303b158015610238575060005460ff166001145b6102a05760405162461bcd60e51b815260206004820152602e60248201527f496e697469616c697a61626c653a20636f6e747261637420697320616c72656160448201526d191e481a5b9a5d1a585b1a5e995960921b60648201526084015b60405180910390fd5b6000805460ff1916600117905580156102c3576000805461ff0019166101001790555b6102d0602084018461114c565b600280546001600160a01b0319166001600160a01b0392909216918217905560408051638009ba1f60e01b81529051638009ba1f9160048082019260209290919082900301816000875af115801561032c573d6000803e3d6000fd5b505050506040513d601f19601f820116820180604052508101906103509190611169565b600380546001600160a01b0319166001600160a01b0392831617905560025460408051632d77bef360e11b815290519190921691635aef7de691600480830192602092919082900301816000875af11580156103b0573d6000803e3d6000fd5b505050506040513d601f19601f820116820180604052508101906103d49190611169565b600480546001600160a01b0319166001600160a01b0392909216919091179055610404604084016020850161114c565b600680546001600160a01b03199081166001600160a01b03938416179091556040850135600755606080860135600a554260085560058054909216928516929092179055610494306040516001600160a01b038216602482015260609060440160408051601f198184030181529190526020810180516001600160e01b031663610b592560e01b17905292915050565b905060606104a330600261088e565b6040805160028082526060820190925291925060009190816020015b60608152602001906001900390816104bf57905050905081816000815181106104ea576104ea611186565b6020026020010181905250828160018151811061050957610509611186565b602090810291909101015260408051600280825260608201909252600091816020016020820280368337505060025482519293506001600160a01b03169183915060009061055957610559611186565b6001600160a01b03928316602091820292909201015260045482519116908290600190811061058a5761058a611186565b60200260200101906001600160a01b031690816001600160a01b0316815250506105bc6105b7838361096d565b610a4e565b505050508015610606576000805461ff0019169055604051600181527f7f26b83ff96e1f2b6a682f133852f6798a09c465da95921460cefb38474024989060200160405180910390a15b505050565b8060005b8181101561073957600084848381811061062b5761062b611186565b9050602002016020810190610640919061114c565b600480546040516370a0823160e01b81526001600160a01b039182169281019290925291909116906370a0823190602401602060405180830381865afa15801561068e573d6000803e3d6000fd5b505050506040513d601f19601f820116820180604052508101906106b2919061119c565b1115610727576106c6600180546001019055565b60006106d160015490565b90508484838181106106e5576106e5611186565b90506020020160208101906106fa919061114c565b6000918252600b602052604090912080546001600160a01b0319166001600160a01b039092169190911790555b80610731816111cb565b91505061060f565b50505050565b610747610b98565b6007546008544291610758916111e4565b81101561076457600080fd5b8161078c57600a6009600082825461077c91906111f7565b909155506107879050565b6107a5565b60056009600082825461079f91906111e4565b90915550505b60085550565b600a548110156107c957600a6009546107c491906111f7565b505b50565b6009546107c49060056111e4565b6107df610b98565b60075460085442916107f0916111e4565b8110156107fc57600080fd5b600554604051636915912560e11b81526001600160a01b039091169063d22b224a9061083c908d908d908d908d908d908d908d908d908d90600401611251565b6020604051808303816000875af115801561085b573d6000803e3d6000fd5b505050506040513d601f19601f8201168201806040525081019061087f919061119c565b50600855505050505050505050565b604080516001808252818301909252606091600091906020808301908036833701905050905083816000815181106108c8576108c8611186565b6001600160a01b039290921660209283029190910190910152604080516001808252818301909252600091816020016020820280368337019050509050838160008151811061091957610919611186565b602002602001018181525050818160405160240161093892919061134d565b60408051601f198184030181529190526020810180516001600160e01b0316630f656a2160e01b179052925050505b92915050565b60608060005b8451811015610a095781600085838151811061099157610991611186565b602002602001015160008885815181106109ad576109ad611186565b6020026020010151518986815181106109c8576109c8611186565b60200260200101516040516020016109e5969594939291906113f5565b60405160208183030381529060405291508080610a01906111cb565b915050610973565b5080604051602401610a1b919061148b565b60408051601f198184030181529190526020810180516001600160e01b03166346c07f8560e11b17905291505092915050565b60025460408051639a2f747f60e01b815290516000926001600160a01b031691639a2f747f916004808301926020929190829003018187875af1158015610a99573d6000803e3d6000fd5b505050506040513d601f19601f82011682018060405250810190610abd919061119c565b9050803414610b005760405162461bcd60e51b815260206004820152600f60248201526e4d697373696e67207472696275746560881b6044820152606401610297565b60006040518060a00160405280607e815260200161153f607e91396002546040516307505ff960e31b81529192506001600160a01b031690633a82ffc8908490610b559087906000908190889060040161149e565b60206040518083038185885af1158015610b73573d6000803e3d6000fd5b50505050506040513d601f19601f82011682018060405250810190610739919061119c565b6003546040516370a0823160e01b81523360048201526000916001600160a01b0316906370a0823190602401602060405180830381865afa158015610be1573d6000803e3d6000fd5b505050506040513d601f19601f82011682018060405250810190610c05919061119c565b9050600260009054906101000a90046001600160a01b03166001600160a01b0316635cfd6f7e6040518163ffffffff1660e01b81526004016020604051808303816000875af1158015610c5c573d6000803e3d6000fd5b505050506040513d601f19601f82011682018060405250810190610c80919061119c565b8110156107c65760405162461bcd60e51b815260206004820181905260248201527f596f75206d75737420706f7373657373206d696e696d756d20736861726573216044820152606401610297565b81811015610e3b576000818152600b6020526040808220546004805492516370a0823160e01b81526001600160a01b03938416918101919091529116919082906370a0823190602401602060405180830381865afa158015610d35573d6000803e3d6000fd5b505050506040513d601f19601f82011682018060405250810190610d59919061119c565b6006546040516001600160a01b0390911660248201526044810182905290915060009060640160408051601f198184030181529181526020820180516001600160e01b031663a9059cbb60e01b17905260048054915163468721a760e01b81529293506001600160a01b039091169163468721a791610de191879160009187918391016114e0565b6020604051808303816000875af1158015610e00573d6000803e3d6000fd5b505050506040513d601f19601f82011682018060405250810190610e249190611521565b505050508080610e33906111cb565b915050610ccf565b506004546040516000916001600160a01b0316908131908381818185875af1925050503d8060008114610e8a576040519150601f19603f3d011682016040523d82523d6000602084013e610e8f565b606091505b5050905080610ed25760405162461bcd60e51b815260206004820152600f60248201526e115d1a195c881d1e0819985a5b1959608a1b6044820152606401610297565b5050505050565b6001600160a01b03811681146107c657600080fd5b60008082840360a0811215610f0257600080fd5b6080811215610f1057600080fd5b508291506080830135610f2281610ed9565b809150509250929050565b60008083601f840112610f3f57600080fd5b50813567ffffffffffffffff811115610f5757600080fd5b6020830191508360208260051b8501011115610f7257600080fd5b9250929050565b60008060208385031215610f8c57600080fd5b823567ffffffffffffffff811115610fa357600080fd5b610faf85828601610f2d565b90969095509350505050565b80151581146107c657600080fd5b600060208284031215610fdb57600080fd5b8135610fe681610fbb565b9392505050565b600060208284031215610fff57600080fd5b5035919050565b60008083601f84011261101857600080fd5b50813567ffffffffffffffff81111561103057600080fd5b602083019150836020828501011115610f7257600080fd5b803567ffffffffffffffff8116811461106057600080fd5b919050565b803563ffffffff8116811461106057600080fd5b600080600080600080600080600060c08a8c03121561109757600080fd5b893567ffffffffffffffff808211156110af57600080fd5b6110bb8d838e01611006565b909b50995060208c01359150808211156110d457600080fd5b6110e08d838e01611006565b909950975060408c01359150600282106110f957600080fd5b90955060608b0135908082111561110f57600080fd5b5061111c8c828d01610f2d565b909550935061112f905060808b01611048565b915061113d60a08b01611065565b90509295985092959850929598565b60006020828403121561115e57600080fd5b8135610fe681610ed9565b60006020828403121561117b57600080fd5b8151610fe681610ed9565b634e487b7160e01b600052603260045260246000fd5b6000602082840312156111ae57600080fd5b5051919050565b634e487b7160e01b600052601160045260246000fd5b6000600182016111dd576111dd6111b5565b5060010190565b80820180821115610967576109676111b5565b81810381811115610967576109676111b5565b81835281816020850137506000828201602090810191909152601f909101601f19169091010190565b600281106107c657634e487b7160e01b600052602160045260246000fd5b60c08152600061126560c083018b8d61120a565b602083820381850152611279828b8d61120a565b915061128489611233565b604084018990528382036060850152868252808201600588901b830182018960005b8a81101561131657858303601f190184528135368d9003601e190181126112cc57600080fd5b8c01858101903567ffffffffffffffff8111156112e857600080fd5b8036038213156112f757600080fd5b61130285828461120a565b9587019594505050908401906001016112a6565b505067ffffffffffffffff88166080870152935061133392505050565b63ffffffff831660a08301529a9950505050505050505050565b604080825283519082018190526000906020906060840190828701845b8281101561138f5781516001600160a01b03168452928401929084019060010161136a565b5050508381038285015284518082528583019183019060005b818110156113c4578351835292840192918401916001016113a8565b5090979650505050505050565b60005b838110156113ec5781810151838201526020016113d4565b50506000910152565b60008751611407818460208c016113d1565b808301905060ff60f81b8860f81b1681526bffffffffffffffffffffffff198760601b166001820152856015820152846035820152835161144f8160558401602088016113d1565b0160550198975050505050505050565b600081518084526114778160208601602086016113d1565b601f01601f19169290920160200192915050565b602081526000610fe6602083018461145f565b6080815260006114b1608083018761145f565b63ffffffff8616602084015284604084015282810360608401526114d5818561145f565b979650505050505050565b60018060a01b0385168152836020820152608060408201526000611507608083018561145f565b905061151283611233565b82606083015295945050505050565b60006020828403121561153357600080fd5b8151610fe681610fbb56fe7b2270726f706f73616c54797065223a20224144445f5348414d414e222c20227469746c65223a2022526561706572222c20226465736372697074696f6e223a202241737369676e2052656170657220636f6e74726163742061732061204d616e616765722d5368616d616e20616e6420536166652d4d6f64756c65227da264697066735822122068018a48560a89eead8d99a6e53b919e7026d39e95c7d09f422fcbc35fee2aee64736f6c63430008110033",
    "linkReferences": {}
  },
  "methodIdentifiers": {
    "deployReaper((address,address,uint256,uint256))": "c4d1fca0",
    "linkToken()": "57970e93",
    "reaperConsumer()": "5deb5a61",
    "reaperSingleton()": "8e26d88c",
    "testToken()": "6895179d"
  },
  "id": 2
}