{
  "abi": [
    {
      "inputs": [],
      "stateMutability": "nonpayable",
      "type": "constructor"
    },
    {
      "anonymous": false,
      "inputs": [
        {
          "indexed": false,
          "internalType": "address",
          "name": "reaper",
          "type": "address"
        }
      ],
      "name": "newReaper",
      "type": "event"
    },
    {
      "inputs": [
        {
          "components": [
            {
              "internalType": "address",
              "name": "baalDao",
              "type": "address"
            },
            {
              "internalType": "address",
              "name": "liquidationAsset",
              "type": "address"
            },
            {
              "internalType": "address",
              "name": "liquidationTarget",
              "type": "address"
            },
            {
              "internalType": "uint256",
              "name": "interval",
              "type": "uint256"
            },
            {
              "internalType": "uint256",
              "name": "threshold",
              "type": "uint256"
            }
          ],
          "internalType": "struct IInitData.InitData",
          "name": "initData",
          "type": "tuple"
        }
      ],
      "name": "deployReaper",
      "outputs": [
        {
          "internalType": "address",
          "name": "",
          "type": "address"
        }
      ],
      "stateMutability": "nonpayable",
      "type": "function"
    },
    {
      "inputs": [],
      "name": "linkToken",
      "outputs": [
        {
          "internalType": "contract ERC20",
          "name": "",
          "type": "address"
        }
      ],
      "stateMutability": "view",
      "type": "function"
    },
    {
      "inputs": [],
      "name": "reaperConsumer",
      "outputs": [
        {
          "internalType": "address",
          "name": "",
          "type": "address"
        }
      ],
      "stateMutability": "view",
      "type": "function"
    },
    {
      "inputs": [],
      "name": "reaperSingleton",
      "outputs": [
        {
          "internalType": "address",
          "name": "",
          "type": "address"
        }
      ],
      "stateMutability": "view",
      "type": "function"
    },
    {
      "inputs": [],
      "name": "testToken",
      "outputs": [
        {
          "internalType": "contract ERC20",
          "name": "",
          "type": "address"
        }
      ],
      "stateMutability": "view",
      "type": "function"
    }
  ],
  "bytecode": {
    "object": "0x6080604052600180546001600160a01b031990811673ea6721ac65bced841b8ec3fc5fedea6141a0ade41790915560028054821673326c977e6efc84e512bb9c30f76e30c160ed06fb1790556003805490911673a49df10dd5b84257de634f4350218f615471fc69179055678ac7230489e8000060045534801561008257600080fd5b5060405161008f906100d1565b604051809103906000f0801580156100ab573d6000803e3d6000fd5b50600080546001600160a01b0319166001600160a01b03929092169190911790556100de565b611782806104ed83390190565b610400806100ed6000396000f3fe608060405234801561001057600080fd5b50600436106100575760003560e01c8063171dda211461005c57806357970e931461008b5780635deb5a611461009e5780636895179d146100b15780638e26d88c146100c4575b600080fd5b61006f61006a36600461030f565b6100d7565b6040516001600160a01b03909116815260200160405180910390f35b60025461006f906001600160a01b031681565b60015461006f906001600160a01b031681565b60035461006f906001600160a01b031681565b60005461006f906001600160a01b031681565b6000805481906100ef906001600160a01b03166101ea565b604051632532374160e11b8152909150600b906001600160a01b03831690634a646e8290610123908790859060040161033e565b600060405180830381600087803b15801561013d57600080fd5b505af1158015610151573d6000803e3d6000fd5b5050505061015e30610284565b6101a75760405162461bcd60e51b81526020600482015260156024820152744d697373696e67204c494e4b206465706f7369742160581b60448201526064015b60405180910390fd5b6040516001600160a01b03831681527f76543b6afd7b316567ca9e8757160611431aac018c899b968b7ab783782345199060200160405180910390a15092915050565b6000763d602d80600a3d3981f3363d3d373d3d3d363d730000008260601b60e81c176000526e5af43d82803e903d91602b57fd5bf38260781b17602052603760096000f090506001600160a01b03811661027f5760405162461bcd60e51b8152602060048201526016602482015275115490cc4c4d8dce8818dc99585d194819985a5b195960521b604482015260640161019e565b919050565b600354600480546040516323b872dd60e01b815233928101929092526001600160a01b038481166024840152604483019190915260009216906323b872dd906064016020604051808303816000875af11580156102e5573d6000803e3d6000fd5b505050506040513d601f19601f8201168201806040525081019061030991906103a1565b92915050565b600060a0828403121561032157600080fd5b50919050565b80356001600160a01b038116811461027f57600080fd5b60c081016001600160a01b038061035486610327565b1683528061036460208701610327565b1660208401528061037760408701610327565b166040840152606085013560608401526080850135608084015280841660a0840152509392505050565b6000602082840312156103b357600080fd5b815180151581146103c357600080fd5b939250505056fea26469706673582212207c9155dbb284a7a7a0a86653ba62c8a187b5f1a075558e686a4ff36208dba40164736f6c63430008110033608060405234801561001057600080fd5b5061001961001e565b6100de565b600054610100900460ff161561008a5760405162461bcd60e51b815260206004820152602760248201527f496e697469616c697a61626c653a20636f6e747261637420697320696e697469604482015266616c697a696e6760c81b606482015260840160405180910390fd5b60005460ff90811610156100dc576000805460ff191660ff9081179091556040519081527f7f26b83ff96e1f2b6a682f133852f6798a09c465da95921460cefb38474024989060200160405180910390a15b565b611695806100ed6000396000f3fe608060405234801561001057600080fd5b50600436106100f55760003560e01c80638a12102b11610097578063b4fd729611610066578063b4fd7296146101d0578063c3201370146101e3578063cffe4801146101f6578063e5a2a2a5146101fe57600080fd5b80638a12102b14610198578063947a36fb146101ab5780639c0fd1d1146101b45780639fc073e0146101bd57600080fd5b80635aef7de6116100d35780635aef7de61461015657806360a7fc1f1461016957806361b0ff07146101725780638009ba1f1461018557600080fd5b806342cde4e8146100fa57806344662349146101165780634a646e8214610141575b600080fd5b610103600b5481565b6040519081526020015b60405180910390f35b600654610129906001600160a01b031681565b6040516001600160a01b03909116815260200161010d565b61015461014f366004610fa0565b610211565b005b600454610129906001600160a01b031681565b610103600a5481565b61015461018036600461102b565b61063f565b600354610129906001600160a01b031681565b6101546101a636600461106d565b610773565b61010360085481565b61010360095481565b600754610129906001600160a01b031681565b600554610129906001600160a01b031681565b6101546101f13660046110f9565b61079e565b610154610855565b600254610129906001600160a01b031681565b600054610100900460ff16158080156102315750600054600160ff909116105b8061024b5750303b15801561024b575060005460ff166001145b6102b35760405162461bcd60e51b815260206004820152602e60248201527f496e697469616c697a61626c653a20636f6e747261637420697320616c72656160448201526d191e481a5b9a5d1a585b1a5e995960921b60648201526084015b60405180910390fd5b6000805460ff1916600117905580156102d6576000805461ff0019166101001790555b6102e360208401846111cc565b600280546001600160a01b0319166001600160a01b0392909216918217905560408051638009ba1f60e01b81529051638009ba1f9160048082019260209290919082900301816000875af115801561033f573d6000803e3d6000fd5b505050506040513d601f19601f8201168201806040525081019061036391906111f0565b600380546001600160a01b0319166001600160a01b0392831617905560025460408051632d77bef360e11b815290519190921691635aef7de691600480830192602092919082900301816000875af11580156103c3573d6000803e3d6000fd5b505050506040513d601f19601f820116820180604052508101906103e791906111f0565b600480546001600160a01b0319166001600160a01b039290921691909117905561041760408401602085016111cc565b600680546001600160a01b0319166001600160a01b039290921691909117905561044760608401604085016111cc565b600780546001600160a01b0319166001600160a01b03929092169190911790556060838101356008556080840135600b55426009556104c8306040516001600160a01b038216602482015260609060440160408051601f198184030181529190526020810180516001600160e01b031663610b592560e01b17905292915050565b905060606104d7306002610887565b6040805160028082526060820190925291925060009190816020015b60608152602001906001900390816104f3579050509050818160008151811061051e5761051e61120d565b6020026020010181905250828160018151811061053d5761053d61120d565b602090810291909101015260408051600280825260608201909252600091816020016020820280368337505060025482519293506001600160a01b03169183915060009061058d5761058d61120d565b6001600160a01b0392831660209182029290920101526004548251911690829060019081106105be576105be61120d565b60200260200101906001600160a01b031690816001600160a01b0316815250506105f06105eb8383610966565b610a47565b50505050801561063a576000805461ff0019169055604051600181527f7f26b83ff96e1f2b6a682f133852f6798a09c465da95921460cefb38474024989060200160405180910390a15b505050565b8060005b8181101561076d57600084848381811061065f5761065f61120d565b905060200201602081019061067491906111cc565b600480546040516370a0823160e01b81526001600160a01b039182169281019290925291909116906370a0823190602401602060405180830381865afa1580156106c2573d6000803e3d6000fd5b505050506040513d601f19601f820116820180604052508101906106e69190611223565b111561075b576106fa600180546001019055565b600061070560015490565b90508484838181106107195761071961120d565b905060200201602081019061072e91906111cc565b6000918252600c602052604090912080546001600160a01b0319166001600160a01b039092169190911790555b8061076581611252565b915050610643565b50505050565b600b5481101561079057600a805461078b919061126b565b505b50565b600a5461078b90600561127e565b6107a6610e54565b60085460095442916107b79161127e565b8110156107c357600080fd5b600554604051636915912560e11b81526001600160a01b039091169063d22b224a90610803908d908d908d908d908d908d908d908d908d906004016112d8565b6020604051808303816000875af1158015610822573d6000803e3d6000fd5b505050506040513d601f19601f820116820180604052508101906108469190611223565b50600955505050505050505050565b61085d610e54565b600854600954429161086e9161127e565b81101561087a57600080fd5b610882610b91565b600955565b604080516001808252818301909252606091600091906020808301908036833701905050905083816000815181106108c1576108c161120d565b6001600160a01b03929092166020928302919091019091015260408051600180825281830190925260009181602001602082028036833701905050905083816000815181106109125761091261120d565b60200260200101818152505081816040516024016109319291906113d4565b60408051601f198184030181529190526020810180516001600160e01b0316630f656a2160e01b179052925050505b92915050565b60608060005b8451811015610a025781600085838151811061098a5761098a61120d565b602002602001015160008885815181106109a6576109a661120d565b6020026020010151518986815181106109c1576109c161120d565b60200260200101516040516020016109de9695949392919061147c565b604051602081830303815290604052915080806109fa90611252565b91505061096c565b5080604051602401610a149190611512565b60408051601f198184030181529190526020810180516001600160e01b03166346c07f8560e11b17905291505092915050565b60025460408051639a2f747f60e01b815290516000926001600160a01b031691639a2f747f916004808301926020929190829003018187875af1158015610a92573d6000803e3d6000fd5b505050506040513d601f19601f82011682018060405250810190610ab69190611223565b9050803414610af95760405162461bcd60e51b815260206004820152600f60248201526e4d697373696e67207472696275746560881b60448201526064016102aa565b60006040518060a00160405280607e81526020016115e2607e91396002546040516307505ff960e31b81529192506001600160a01b031690633a82ffc8908490610b4e90879060009081908890600401611525565b60206040518083038185885af1158015610b6c573d6000803e3d6000fd5b50505050506040513d601f19601f8201168201806040525081019061076d9190611223565b600354604080516318160ddd60e01b815290516000926001600160a01b0316916318160ddd9160048083019260209291908290030181865afa158015610bdb573d6000803e3d6000fd5b505050506040513d601f19601f82011682018060405250810190610bff9190611223565b60408051600180825281830190925291925060009190602080830190803683370190505090503081600081518110610c3957610c3961120d565b6001600160a01b039290921660209283029190910190910152604080516001808252818301909252600091816020016020820280368337019050509050610c8483633b9aca00611567565b81600081518110610c9757610c9761120d565b6020908102919091010152600254604051632c78fd0360e21b81526001600160a01b039091169063b1e3f40c90610cd490859085906004016113d4565b600060405180830381600087803b158015610cee57600080fd5b505af1158015610d02573d6000803e3d6000fd5b5050600654600480546040516370a0823160e01b81526001600160a01b03918216928101929092526000945090911691506370a0823190602401602060405180830381865afa158015610d59573d6000803e3d6000fd5b505050506040513d601f19601f82011682018060405250810190610d7d9190611223565b6007546040516001600160a01b0390911660248201526044810182905290915060009060640160408051601f198184030181529181526020820180516001600160e01b031663a9059cbb60e01b17905260048054600654925163468721a760e01b81529394506001600160a01b039081169363468721a793610e0993921691600091879183910161157e565b6020604051808303816000875af1158015610e28573d6000803e3d6000fd5b505050506040513d601f19601f82011682018060405250810190610e4c91906115bf565b505050505050565b6003546040516370a0823160e01b81523360048201526000916001600160a01b0316906370a0823190602401602060405180830381865afa158015610e9d573d6000803e3d6000fd5b505050506040513d601f19601f82011682018060405250810190610ec19190611223565b9050600260009054906101000a90046001600160a01b03166001600160a01b0316635cfd6f7e6040518163ffffffff1660e01b81526004016020604051808303816000875af1158015610f18573d6000803e3d6000fd5b505050506040513d601f19601f82011682018060405250810190610f3c9190611223565b81101561078d5760405162461bcd60e51b815260206004820181905260248201527f596f75206d75737420706f7373657373206d696e696d756d207368617265732160448201526064016102aa565b6001600160a01b038116811461078d57600080fd5b60008082840360c0811215610fb457600080fd5b60a0811215610fc257600080fd5b5082915060a0830135610fd481610f8b565b809150509250929050565b60008083601f840112610ff157600080fd5b50813567ffffffffffffffff81111561100957600080fd5b6020830191508360208260051b850101111561102457600080fd5b9250929050565b6000806020838503121561103e57600080fd5b823567ffffffffffffffff81111561105557600080fd5b61106185828601610fdf565b90969095509350505050565b60006020828403121561107f57600080fd5b5035919050565b60008083601f84011261109857600080fd5b50813567ffffffffffffffff8111156110b057600080fd5b60208301915083602082850101111561102457600080fd5b803567ffffffffffffffff811681146110e057600080fd5b919050565b803563ffffffff811681146110e057600080fd5b600080600080600080600080600060c08a8c03121561111757600080fd5b893567ffffffffffffffff8082111561112f57600080fd5b61113b8d838e01611086565b909b50995060208c013591508082111561115457600080fd5b6111608d838e01611086565b909950975060408c013591506002821061117957600080fd5b90955060608b0135908082111561118f57600080fd5b5061119c8c828d01610fdf565b90955093506111af905060808b016110c8565b91506111bd60a08b016110e5565b90509295985092959850929598565b6000602082840312156111de57600080fd5b81356111e981610f8b565b9392505050565b60006020828403121561120257600080fd5b81516111e981610f8b565b634e487b7160e01b600052603260045260246000fd5b60006020828403121561123557600080fd5b5051919050565b634e487b7160e01b600052601160045260246000fd5b6000600182016112645761126461123c565b5060010190565b818103818111156109605761096061123c565b808201808211156109605761096061123c565b81835281816020850137506000828201602090810191909152601f909101601f19169091010190565b6002811061078d57634e487b7160e01b600052602160045260246000fd5b60c0815260006112ec60c083018b8d611291565b602083820381850152611300828b8d611291565b915061130b896112ba565b604084018990528382036060850152868252808201600588901b830182018960005b8a81101561139d57858303601f190184528135368d9003601e1901811261135357600080fd5b8c01858101903567ffffffffffffffff81111561136f57600080fd5b80360382131561137e57600080fd5b611389858284611291565b95870195945050509084019060010161132d565b505067ffffffffffffffff8816608087015293506113ba92505050565b63ffffffff831660a08301529a9950505050505050505050565b604080825283519082018190526000906020906060840190828701845b828110156114165781516001600160a01b0316845292840192908401906001016113f1565b5050508381038285015284518082528583019183019060005b8181101561144b5783518352928401929184019160010161142f565b5090979650505050505050565b60005b8381101561147357818101518382015260200161145b565b50506000910152565b6000875161148e818460208c01611458565b808301905060ff60f81b8860f81b1681526bffffffffffffffffffffffff198760601b16600182015285601582015284603582015283516114d6816055840160208801611458565b0160550198975050505050505050565b600081518084526114fe816020860160208601611458565b601f01601f19169290920160200192915050565b6020815260006111e960208301846114e6565b60808152600061153860808301876114e6565b63ffffffff86166020840152846040840152828103606084015261155c81856114e6565b979650505050505050565b80820281158282048414176109605761096061123c565b60018060a01b03851681528360208201526080604082015260006115a560808301856114e6565b90506115b0836112ba565b82606083015295945050505050565b6000602082840312156115d157600080fd5b815180151581146111e957600080fdfe7b2270726f706f73616c54797065223a20224144445f5348414d414e222c20227469746c65223a2022526561706572222c20226465736372697074696f6e223a202241737369676e2052656170657220636f6e74726163742061732061204d616e616765722d5368616d616e20616e6420536166652d4d6f64756c65227da26469706673582212203032909a62305894c19528f144599e40844bdb952b1f424901fdc2d8f81f61e164736f6c63430008110033",
    "linkReferences": {}
  },
  "methodIdentifiers": {
    "deployReaper((address,address,address,uint256,uint256))": "171dda21",
    "linkToken()": "57970e93",
    "reaperConsumer()": "5deb5a61",
    "reaperSingleton()": "8e26d88c",
    "testToken()": "6895179d"
  },
  "id": 2
}