{
  "abi": [
    {
      "inputs": [],
      "stateMutability": "nonpayable",
      "type": "constructor"
    },
    {
      "anonymous": false,
      "inputs": [
        {
          "indexed": false,
          "internalType": "address",
          "name": "reaper",
          "type": "address"
        }
      ],
      "name": "newReaper",
      "type": "event"
    },
    {
      "inputs": [
        {
          "components": [
            {
              "internalType": "address",
              "name": "baalDao",
              "type": "address"
            },
            {
              "internalType": "uint256",
              "name": "interval",
              "type": "uint256"
            }
          ],
          "internalType": "struct IInitData.InitData",
          "name": "initData",
          "type": "tuple"
        }
      ],
      "name": "deployReaper",
      "outputs": [
        {
          "internalType": "address",
          "name": "",
          "type": "address"
        }
      ],
      "stateMutability": "nonpayable",
      "type": "function"
    },
    {
      "inputs": [],
      "name": "reaperSingleton",
      "outputs": [
        {
          "internalType": "address",
          "name": "",
          "type": "address"
        }
      ],
      "stateMutability": "view",
      "type": "function"
    }
  ],
  "bytecode": {
    "object": "0x608060405234801561001057600080fd5b5060405161001d9061005f565b604051809103906000f080158015610039573d6000803e3d6000fd5b50600080546001600160a01b0319166001600160a01b039290921691909117905561006c565b610d7d806102d183390190565b6102568061007b6000396000f3fe608060405234801561001057600080fd5b50600436106100365760003560e01c8063883c40c71461003b5780638e26d88c1461006a575b600080fd5b61004e6100493660046101d7565b61007d565b6040516001600160a01b03909116815260200160405180910390f35b60005461004e906001600160a01b031681565b600080548190610095906001600160a01b0316610139565b6040516377b3492760e01b81529091506001600160a01b038216906377b34927906100c49086906004016101ef565b600060405180830381600087803b1580156100de57600080fd5b505af11580156100f2573d6000803e3d6000fd5b50506040516001600160a01b03841681527f76543b6afd7b316567ca9e8757160611431aac018c899b968b7ab783782345199250602001905060405180910390a192915050565b6000763d602d80600a3d3981f3363d3d373d3d3d363d730000008260601b60e81c176000526e5af43d82803e903d91602b57fd5bf38260781b17602052603760096000f090506001600160a01b0381166101d25760405162461bcd60e51b8152602060048201526016602482015275115490cc4c4d8dce8818dc99585d194819985a5b195960521b604482015260640160405180910390fd5b919050565b6000604082840312156101e957600080fd5b50919050565b6040810182356001600160a01b03811680821461020b57600080fd5b8084525050602083013560208301529291505056fea2646970667358221220b0cd9b9c20782f561c78f850d372fff76e3a28ba7567f6c53c9f89a79e55557164736f6c63430008110033608060405234801561001057600080fd5b5061001961001e565b6100de565b600054610100900460ff161561008a5760405162461bcd60e51b815260206004820152602760248201527f496e697469616c697a61626c653a20636f6e747261637420697320696e697469604482015266616c697a696e6760c81b606482015260840160405180910390fd5b60005460ff90811610156100dc576000805460ff191660ff9081179091556040519081527f7f26b83ff96e1f2b6a682f133852f6798a09c465da95921460cefb38474024989060200160405180910390a15b565b610c90806100ed6000396000f3fe608060405234801561001057600080fd5b50600436106100625760003560e01c80635aef7de61461006757806377b34927146100975780638009ba1f146100ac578063947a36fb146100bf578063e5a2a2a5146100d6578063f521a6c9146100ef575b600080fd5b60025461007a906001600160a01b031681565b6040516001600160a01b0390911681526020015b60405180910390f35b6100aa6100a536600461097a565b6100f7565b005b60015461007a906001600160a01b031681565b6100c860035481565b60405190815260200161008e565b60005461007a906201000090046001600160a01b031681565b6100aa6104f7565b600054610100900460ff16158080156101175750600054600160ff909116105b806101315750303b158015610131575060005460ff166001145b6101995760405162461bcd60e51b815260206004820152602e60248201527f496e697469616c697a61626c653a20636f6e747261637420697320616c72656160448201526d191e481a5b9a5d1a585b1a5e995960921b60648201526084015b60405180910390fd5b6000805460ff1916600117905580156101bc576000805461ff0019166101001790555b6101c960208301836109a7565b600060026101000a8154816001600160a01b0302191690836001600160a01b03160217905550600060029054906101000a90046001600160a01b03166001600160a01b0316638009ba1f6040518163ffffffff1660e01b81526004016020604051808303816000875af1158015610244573d6000803e3d6000fd5b505050506040513d601f19601f8201168201806040525081019061026891906109cb565b600160006101000a8154816001600160a01b0302191690836001600160a01b03160217905550600060029054906101000a90046001600160a01b03166001600160a01b0316635aef7de66040518163ffffffff1660e01b81526004016020604051808303816000875af11580156102e3573d6000803e3d6000fd5b505050506040513d601f19601f8201168201806040525081019061030791906109cb565b600280546001600160a01b0319166001600160a01b03929092169190911790556020820135600355606061037d306040516001600160a01b038216602482015260609060440160408051601f198184030181529190526020810180516001600160e01b031663610b592560e01b17905292915050565b9050606061038c306002610521565b6040805160028082526060820190925291925060009190816020015b60608152602001906001900390816103a857905050905081816000815181106103d3576103d36109e8565b602002602001018190525082816001815181106103f2576103f26109e8565b60209081029190910101526040805160028082526060820190925260009181602001602082028036833750506000805483519394506201000090046001600160a01b031692849250610446576104466109e8565b6001600160a01b039283166020918202929092010152600254825191169082906001908110610477576104776109e8565b60200260200101906001600160a01b031690816001600160a01b0316815250506104a96104a48383610600565b6106e1565b5050505080156104f3576000805461ff0019169055604051600181527f7f26b83ff96e1f2b6a682f133852f6798a09c465da95921460cefb38474024989060200160405180910390a15b5050565b6104ff610840565b600354600454429161051091610a14565b81101561051c57600080fd5b600455565b6040805160018082528183019092526060916000919060208083019080368337019050509050838160008151811061055b5761055b6109e8565b6001600160a01b03929092166020928302919091019091015260408051600180825281830190925260009181602001602082028036833701905050905083816000815181106105ac576105ac6109e8565b60200260200101818152505081816040516024016105cb929190610a27565b60408051601f198184030181529190526020810180516001600160e01b0316630f656a2160e01b179052925050505b92915050565b60608060005b845181101561069c57816000858381518110610624576106246109e8565b60200260200101516000888581518110610640576106406109e8565b60200260200101515189868151811061065b5761065b6109e8565b602002602001015160405160200161067896959493929190610acf565b6040516020818303038152906040529150808061069490610b39565b915050610606565b50806040516024016106ae9190610b7e565b60408051601f198184030181529190526020810180516001600160e01b03166346c07f8560e11b17905291505092915050565b60008060029054906101000a90046001600160a01b03166001600160a01b0316639a2f747f6040518163ffffffff1660e01b81526004016020604051808303816000875af1158015610737573d6000803e3d6000fd5b505050506040513d601f19601f8201168201806040525081019061075b9190610b91565b905080341461079e5760405162461bcd60e51b815260206004820152600f60248201526e4d697373696e67207472696275746560881b6044820152606401610190565b60006040518060a00160405280606e8152602001610bed606e9139600080546040516307505ff960e31b81529293506201000090046001600160a01b031691633a82ffc89185916107f791889181908890600401610baa565b60206040518083038185885af1158015610815573d6000803e3d6000fd5b50505050506040513d601f19601f8201168201806040525081019061083a9190610b91565b50505050565b6001546040516370a0823160e01b81523360048201526000916001600160a01b0316906370a0823190602401602060405180830381865afa158015610889573d6000803e3d6000fd5b505050506040513d601f19601f820116820180604052508101906108ad9190610b91565b9050600060029054906101000a90046001600160a01b03166001600160a01b0316635cfd6f7e6040518163ffffffff1660e01b81526004016020604051808303816000875af1158015610904573d6000803e3d6000fd5b505050506040513d601f19601f820116820180604052508101906109289190610b91565b8110156109775760405162461bcd60e51b815260206004820181905260248201527f596f75206d75737420706f7373657373206d696e696d756d20736861726573216044820152606401610190565b50565b60006040828403121561098c57600080fd5b50919050565b6001600160a01b038116811461097757600080fd5b6000602082840312156109b957600080fd5b81356109c481610992565b9392505050565b6000602082840312156109dd57600080fd5b81516109c481610992565b634e487b7160e01b600052603260045260246000fd5b634e487b7160e01b600052601160045260246000fd5b808201808211156105fa576105fa6109fe565b604080825283519082018190526000906020906060840190828701845b82811015610a695781516001600160a01b031684529284019290840190600101610a44565b5050508381038285015284518082528583019183019060005b81811015610a9e57835183529284019291840191600101610a82565b5090979650505050505050565b60005b83811015610ac6578181015183820152602001610aae565b50506000910152565b60008751610ae1818460208c01610aab565b808301905060ff60f81b8860f81b1681526bffffffffffffffffffffffff198760601b1660018201528560158201528460358201528351610b29816055840160208801610aab565b0160550198975050505050505050565b600060018201610b4b57610b4b6109fe565b5060010190565b60008151808452610b6a816020860160208601610aab565b601f01601f19169290920160200192915050565b6020815260006109c46020830184610b52565b600060208284031215610ba357600080fd5b5051919050565b608081526000610bbd6080830187610b52565b63ffffffff861660208401528460408401528281036060840152610be18185610b52565b97965050505050505056fe7b2270726f706f73616c54797065223a20224144445f5348414d414e222c20227469746c65223a2022526561706572222c20226465736372697074696f6e223a202241737369676e2052656170657220636f6e74726163742061732061204d616e616765722d5368616d616e227da26469706673582212201f320d62810ee93287e9e4574e6b08fb70aff5ab8999a6531ac7f01820f4c52764736f6c63430008110033",
    "linkReferences": {}
  },
  "methodIdentifiers": {
    "deployReaper((address,uint256))": "883c40c7",
    "reaperSingleton()": "8e26d88c"
  },
  "id": 1
}