{
  "abi": [
    {
      "inputs": [],
      "stateMutability": "nonpayable",
      "type": "constructor"
    },
    {
      "anonymous": false,
      "inputs": [
        {
          "indexed": false,
          "internalType": "address",
          "name": "reaper",
          "type": "address"
        }
      ],
      "name": "newReaper",
      "type": "event"
    },
    {
      "inputs": [
        {
          "components": [
            {
              "internalType": "address",
              "name": "baalDao",
              "type": "address"
            },
            {
              "internalType": "uint256",
              "name": "interval",
              "type": "uint256"
            }
          ],
          "internalType": "struct IInitData.InitData",
          "name": "initData",
          "type": "tuple"
        }
      ],
      "name": "deployReaper",
      "outputs": [
        {
          "internalType": "address",
          "name": "",
          "type": "address"
        }
      ],
      "stateMutability": "nonpayable",
      "type": "function"
    },
    {
      "inputs": [],
      "name": "reaperSingleton",
      "outputs": [
        {
          "internalType": "address",
          "name": "",
          "type": "address"
        }
      ],
      "stateMutability": "view",
      "type": "function"
    }
  ],
  "bytecode": {
    "object": "0x608060405234801561001057600080fd5b5060405161001d9061005f565b604051809103906000f080158015610039573d6000803e3d6000fd5b50600080546001600160a01b0319166001600160a01b039290921691909117905561006c565b610c20806102d183390190565b6102568061007b6000396000f3fe608060405234801561001057600080fd5b50600436106100365760003560e01c8063883c40c71461003b5780638e26d88c1461006a575b600080fd5b61004e6100493660046101d7565b61007d565b6040516001600160a01b03909116815260200160405180910390f35b60005461004e906001600160a01b031681565b600080548190610095906001600160a01b0316610139565b6040516377b3492760e01b81529091506001600160a01b038216906377b34927906100c49086906004016101ef565b600060405180830381600087803b1580156100de57600080fd5b505af11580156100f2573d6000803e3d6000fd5b50506040516001600160a01b03841681527f76543b6afd7b316567ca9e8757160611431aac018c899b968b7ab783782345199250602001905060405180910390a192915050565b6000763d602d80600a3d3981f3363d3d373d3d3d363d730000008260601b60e81c176000526e5af43d82803e903d91602b57fd5bf38260781b17602052603760096000f090506001600160a01b0381166101d25760405162461bcd60e51b8152602060048201526016602482015275115490cc4c4d8dce8818dc99585d194819985a5b195960521b604482015260640160405180910390fd5b919050565b6000604082840312156101e957600080fd5b50919050565b6040810182356001600160a01b03811680821461020b57600080fd5b8084525050602083013560208301529291505056fea2646970667358221220f87653e476ebf56d940e77356a97cb696d8623b007af04c61b2ce2143efca0bd64736f6c63430008110033608060405234801561001057600080fd5b5061001961001e565b6100de565b600054610100900460ff161561008a5760405162461bcd60e51b815260206004820152602760248201527f496e697469616c697a61626c653a20636f6e747261637420697320696e697469604482015266616c697a696e6760c81b606482015260840160405180910390fd5b60005460ff90811610156100dc576000805460ff191660ff9081179091556040519081527f7f26b83ff96e1f2b6a682f133852f6798a09c465da95921460cefb38474024989060200160405180910390a15b565b610b33806100ed6000396000f3fe608060405234801561001057600080fd5b50600436106100575760003560e01c806377b349271461005c5780638009ba1f14610071578063947a36fb146100a1578063e5a2a2a5146100b8578063f521a6c9146100d1575b600080fd5b61006f61006a36600461081d565b6100d9565b005b600154610084906001600160a01b031681565b6040516001600160a01b0390911681526020015b60405180910390f35b6100aa60025481565b604051908152602001610098565b600054610084906201000090046001600160a01b031681565b61006f61039a565b600054610100900460ff16158080156100f95750600054600160ff909116105b806101135750303b158015610113575060005460ff166001145b61017b5760405162461bcd60e51b815260206004820152602e60248201527f496e697469616c697a61626c653a20636f6e747261637420697320616c72656160448201526d191e481a5b9a5d1a585b1a5e995960921b60648201526084015b60405180910390fd5b6000805460ff19166001179055801561019e576000805461ff0019166101001790555b6101ab602083018361084a565b600060026101000a8154816001600160a01b0302191690836001600160a01b03160217905550600060029054906101000a90046001600160a01b03166001600160a01b0316638009ba1f6040518163ffffffff1660e01b81526004016020604051808303816000875af1158015610226573d6000803e3d6000fd5b505050506040513d601f19601f8201168201806040525081019061024a919061086e565b600180546001600160a01b0319166001600160a01b0392909216919091179055602082013560029081556060906102829030906103c4565b60408051600180825281830190925291925060009190816020015b606081526020019060019003908161029d57905050905081816000815181106102c8576102c861088b565b602090810291909101015260408051600180825281830190925260009181602001602082028036833750506000805483519394506201000090046001600160a01b03169284925061031b5761031b61088b565b60200260200101906001600160a01b031690816001600160a01b03168152505061034d61034883836104a3565b610584565b5050508015610396576000805461ff0019169055604051600181527f7f26b83ff96e1f2b6a682f133852f6798a09c465da95921460cefb38474024989060200160405180910390a15b5050565b6103a26106e3565b60025460035442916103b3916108b7565b8110156103bf57600080fd5b600355565b604080516001808252818301909252606091600091906020808301908036833701905050905083816000815181106103fe576103fe61088b565b6001600160a01b039290921660209283029190910190910152604080516001808252818301909252600091816020016020820280368337019050509050838160008151811061044f5761044f61088b565b602002602001018181525050818160405160240161046e9291906108ca565b60408051601f198184030181529190526020810180516001600160e01b0316630f656a2160e01b179052925050505b92915050565b60608060005b845181101561053f578160008583815181106104c7576104c761088b565b602002602001015160008885815181106104e3576104e361088b565b6020026020010151518986815181106104fe576104fe61088b565b602002602001015160405160200161051b96959493929190610972565b60405160208183030381529060405291508080610537906109dc565b9150506104a9565b50806040516024016105519190610a21565b60408051601f198184030181529190526020810180516001600160e01b03166346c07f8560e11b17905291505092915050565b60008060029054906101000a90046001600160a01b03166001600160a01b0316639a2f747f6040518163ffffffff1660e01b81526004016020604051808303816000875af11580156105da573d6000803e3d6000fd5b505050506040513d601f19601f820116820180604052508101906105fe9190610a34565b90508034146106415760405162461bcd60e51b815260206004820152600f60248201526e4d697373696e67207472696275746560881b6044820152606401610172565b60006040518060a00160405280606e8152602001610a90606e9139600080546040516307505ff960e31b81529293506201000090046001600160a01b031691633a82ffc891859161069a91889181908890600401610a4d565b60206040518083038185885af11580156106b8573d6000803e3d6000fd5b50505050506040513d601f19601f820116820180604052508101906106dd9190610a34565b50505050565b6001546040516370a0823160e01b81523360048201526000916001600160a01b0316906370a0823190602401602060405180830381865afa15801561072c573d6000803e3d6000fd5b505050506040513d601f19601f820116820180604052508101906107509190610a34565b9050600060029054906101000a90046001600160a01b03166001600160a01b0316635cfd6f7e6040518163ffffffff1660e01b81526004016020604051808303816000875af11580156107a7573d6000803e3d6000fd5b505050506040513d601f19601f820116820180604052508101906107cb9190610a34565b81101561081a5760405162461bcd60e51b815260206004820181905260248201527f596f75206d75737420706f7373657373206d696e696d756d20736861726573216044820152606401610172565b50565b60006040828403121561082f57600080fd5b50919050565b6001600160a01b038116811461081a57600080fd5b60006020828403121561085c57600080fd5b813561086781610835565b9392505050565b60006020828403121561088057600080fd5b815161086781610835565b634e487b7160e01b600052603260045260246000fd5b634e487b7160e01b600052601160045260246000fd5b8082018082111561049d5761049d6108a1565b604080825283519082018190526000906020906060840190828701845b8281101561090c5781516001600160a01b0316845292840192908401906001016108e7565b5050508381038285015284518082528583019183019060005b8181101561094157835183529284019291840191600101610925565b5090979650505050505050565b60005b83811015610969578181015183820152602001610951565b50506000910152565b60008751610984818460208c0161094e565b808301905060ff60f81b8860f81b1681526bffffffffffffffffffffffff198760601b16600182015285601582015284603582015283516109cc81605584016020880161094e565b0160550198975050505050505050565b6000600182016109ee576109ee6108a1565b5060010190565b60008151808452610a0d81602086016020860161094e565b601f01601f19169290920160200192915050565b60208152600061086760208301846109f5565b600060208284031215610a4657600080fd5b5051919050565b608081526000610a6060808301876109f5565b63ffffffff861660208401528460408401528281036060840152610a8481856109f5565b97965050505050505056fe7b2270726f706f73616c54797065223a20224144445f5348414d414e222c20227469746c65223a2022526561706572222c20226465736372697074696f6e223a202241737369676e2052656170657220636f6e74726163742061732061204d616e616765722d5368616d616e227da2646970667358221220d097964ea64f60852ad30cae572271ab8552994084ed247b8022e36292156f1864736f6c63430008110033",
    "linkReferences": {}
  },
  "methodIdentifiers": {
    "deployReaper((address,uint256))": "883c40c7",
    "reaperSingleton()": "8e26d88c"
  },
  "id": 1
}